{
	"Auction Project - Submission/AuctionPlatform.sol": {
		"AuctionPlatform": {
			"abi": [
				{
					"inputs": [
						{
							"internalType": "uint256",
							"name": "",
							"type": "uint256"
						}
					],
					"name": "auctionList",
					"outputs": [
						{
							"internalType": "uint256",
							"name": "auctionId",
							"type": "uint256"
						},
						{
							"internalType": "string",
							"name": "description",
							"type": "string"
						},
						{
							"internalType": "uint32",
							"name": "startTime",
							"type": "uint32"
						},
						{
							"internalType": "uint32",
							"name": "endTime",
							"type": "uint32"
						},
						{
							"internalType": "uint256",
							"name": "minBidValue",
							"type": "uint256"
						}
					],
					"stateMutability": "view",
					"type": "function"
				},
				{
					"inputs": [
						{
							"internalType": "uint256",
							"name": "",
							"type": "uint256"
						}
					],
					"name": "auctionOwners",
					"outputs": [
						{
							"internalType": "address",
							"name": "",
							"type": "address"
						}
					],
					"stateMutability": "view",
					"type": "function"
				},
				{
					"inputs": [],
					"name": "checkBiddedAuctions",
					"outputs": [
						{
							"components": [
								{
									"internalType": "uint256",
									"name": "auctionId",
									"type": "uint256"
								},
								{
									"internalType": "string",
									"name": "description",
									"type": "string"
								},
								{
									"internalType": "uint32",
									"name": "startTime",
									"type": "uint32"
								},
								{
									"internalType": "uint32",
									"name": "endTime",
									"type": "uint32"
								},
								{
									"internalType": "uint256",
									"name": "minBidValue",
									"type": "uint256"
								}
							],
							"internalType": "struct AuctionPlatform.Auction[]",
							"name": "",
							"type": "tuple[]"
						}
					],
					"stateMutability": "view",
					"type": "function"
				},
				{
					"inputs": [],
					"name": "checkBids",
					"outputs": [
						{
							"components": [
								{
									"internalType": "address",
									"name": "bidOwner",
									"type": "address"
								},
								{
									"internalType": "uint256",
									"name": "auctionId",
									"type": "uint256"
								},
								{
									"internalType": "uint256",
									"name": "amount",
									"type": "uint256"
								}
							],
							"internalType": "struct AuctionPlatform.Bid[]",
							"name": "",
							"type": "tuple[]"
						}
					],
					"stateMutability": "view",
					"type": "function"
				},
				{
					"inputs": [
						{
							"internalType": "string",
							"name": "_description",
							"type": "string"
						},
						{
							"internalType": "uint32",
							"name": "_startTime",
							"type": "uint32"
						},
						{
							"internalType": "uint32",
							"name": "_endTime",
							"type": "uint32"
						},
						{
							"internalType": "uint256",
							"name": "_minBidValue",
							"type": "uint256"
						}
					],
					"name": "createAuction",
					"outputs": [],
					"stateMutability": "payable",
					"type": "function"
				},
				{
					"inputs": [
						{
							"internalType": "uint256",
							"name": "_bidAmount",
							"type": "uint256"
						},
						{
							"internalType": "uint256",
							"name": "_aucId",
							"type": "uint256"
						}
					],
					"name": "createBid",
					"outputs": [],
					"stateMutability": "payable",
					"type": "function"
				}
			],
			"devdoc": {
				"kind": "dev",
				"methods": {},
				"version": 1
			},
			"evm": {
				"assembly": "    /* \"Auction Project - Submission/AuctionPlatform.sol\":66:3674  contract AuctionPlatform{... */\n  mstore(0x40, 0x80)\n    /* \"Auction Project - Submission/AuctionPlatform.sol\":123:124  0 */\n  0x00\n    /* \"Auction Project - Submission/AuctionPlatform.sol\":99:124  uint256 auctionsCount = 0 */\n  dup1\n  sstore\n    /* \"Auction Project - Submission/AuctionPlatform.sol\":66:3674  contract AuctionPlatform{... */\n  callvalue\n  dup1\n  iszero\n  tag_1\n  jumpi\n  0x00\n  dup1\n  revert\ntag_1:\n  pop\n  dataSize(sub_0)\n  dup1\n  dataOffset(sub_0)\n  0x00\n  codecopy\n  0x00\n  return\nstop\n\nsub_0: assembly {\n        /* \"Auction Project - Submission/AuctionPlatform.sol\":66:3674  contract AuctionPlatform{... */\n      mstore(0x40, 0x80)\n      jumpi(tag_1, lt(calldatasize, 0x04))\n      shr(0xe0, calldataload(0x00))\n      dup1\n      0x12fb682d\n      eq\n      tag_2\n      jumpi\n      dup1\n      0x669c0083\n      eq\n      tag_3\n      jumpi\n      dup1\n      0x6b81be6c\n      eq\n      tag_4\n      jumpi\n      dup1\n      0x75b700e1\n      eq\n      tag_5\n      jumpi\n      dup1\n      0xb7751c71\n      eq\n      tag_6\n      jumpi\n      dup1\n      0xf2fd83aa\n      eq\n      tag_7\n      jumpi\n    tag_1:\n      0x00\n      dup1\n      revert\n        /* \"Auction Project - Submission/AuctionPlatform.sol\":133:163  address[] public auctionOwners */\n    tag_2:\n      callvalue\n      dup1\n      iszero\n      tag_8\n      jumpi\n      0x00\n      dup1\n      revert\n    tag_8:\n      pop\n      tag_9\n      0x04\n      dup1\n      calldatasize\n      sub\n      dup2\n      add\n      swap1\n      tag_10\n      swap2\n      swap1\n      tag_11\n      jump\t// in\n    tag_10:\n      tag_12\n      jump\t// in\n    tag_9:\n      mload(0x40)\n      tag_13\n      swap2\n      swap1\n      tag_14\n      jump\t// in\n    tag_13:\n      mload(0x40)\n      dup1\n      swap2\n      sub\n      swap1\n      return\n        /* \"Auction Project - Submission/AuctionPlatform.sol\":210:238  Auction[] public auctionList */\n    tag_3:\n      callvalue\n      dup1\n      iszero\n      tag_15\n      jumpi\n      0x00\n      dup1\n      revert\n    tag_15:\n      pop\n      tag_16\n      0x04\n      dup1\n      calldatasize\n      sub\n      dup2\n      add\n      swap1\n      tag_17\n      swap2\n      swap1\n      tag_11\n      jump\t// in\n    tag_17:\n      tag_18\n      jump\t// in\n    tag_16:\n      mload(0x40)\n      tag_19\n      swap6\n      swap5\n      swap4\n      swap3\n      swap2\n      swap1\n      tag_20\n      jump\t// in\n    tag_19:\n      mload(0x40)\n      dup1\n      swap2\n      sub\n      swap1\n      return\n        /* \"Auction Project - Submission/AuctionPlatform.sol\":2375:2519  function checkBiddedAuctions() public isAuctionCreater view returns(Auction[] memory){... */\n    tag_4:\n      callvalue\n      dup1\n      iszero\n      tag_21\n      jumpi\n      0x00\n      dup1\n      revert\n    tag_21:\n      pop\n      tag_22\n      tag_23\n      jump\t// in\n    tag_22:\n      mload(0x40)\n      tag_24\n      swap2\n      swap1\n      tag_25\n      jump\t// in\n    tag_24:\n      mload(0x40)\n      dup1\n      swap2\n      sub\n      swap1\n      return\n        /* \"Auction Project - Submission/AuctionPlatform.sol\":2226:2364  function checkBids()public view returns(Bid[] memory){... */\n    tag_5:\n      callvalue\n      dup1\n      iszero\n      tag_26\n      jumpi\n      0x00\n      dup1\n      revert\n    tag_26:\n      pop\n      tag_27\n      tag_28\n      jump\t// in\n    tag_27:\n      mload(0x40)\n      tag_29\n      swap2\n      swap1\n      tag_30\n      jump\t// in\n    tag_29:\n      mload(0x40)\n      dup1\n      swap2\n      sub\n      swap1\n      return\n        /* \"Auction Project - Submission/AuctionPlatform.sol\":1614:2218  function createBid(... */\n    tag_6:\n      tag_31\n      0x04\n      dup1\n      calldatasize\n      sub\n      dup2\n      add\n      swap1\n      tag_32\n      swap2\n      swap1\n      tag_33\n      jump\t// in\n    tag_32:\n      tag_34\n      jump\t// in\n    tag_31:\n      stop\n        /* \"Auction Project - Submission/AuctionPlatform.sol\":964:1606  function createAuction(... */\n    tag_7:\n      tag_35\n      0x04\n      dup1\n      calldatasize\n      sub\n      dup2\n      add\n      swap1\n      tag_36\n      swap2\n      swap1\n      tag_37\n      jump\t// in\n    tag_36:\n      tag_38\n      jump\t// in\n    tag_35:\n      stop\n        /* \"Auction Project - Submission/AuctionPlatform.sol\":133:163  address[] public auctionOwners */\n    tag_12:\n      0x01\n      dup2\n      dup2\n      sload\n      dup2\n      lt\n      tag_39\n      jumpi\n      0x00\n      dup1\n      revert\n    tag_39:\n      swap1\n      0x00\n      mstore\n      keccak256(0x00, 0x20)\n      add\n      0x00\n      swap2\n      pop\n      sload\n      swap1\n      0x0100\n      exp\n      swap1\n      div\n      0xffffffffffffffffffffffffffffffffffffffff\n      and\n      dup2\n      jump\t// out\n        /* \"Auction Project - Submission/AuctionPlatform.sol\":210:238  Auction[] public auctionList */\n    tag_18:\n      0x02\n      dup2\n      dup2\n      sload\n      dup2\n      lt\n      tag_41\n      jumpi\n      0x00\n      dup1\n      revert\n    tag_41:\n      swap1\n      0x00\n      mstore\n      keccak256(0x00, 0x20)\n      swap1\n      0x04\n      mul\n      add\n      0x00\n      swap2\n      pop\n      swap1\n      pop\n      dup1\n      0x00\n      add\n      sload\n      swap1\n      dup1\n      0x01\n      add\n      dup1\n      sload\n      tag_43\n      swap1\n      tag_44\n      jump\t// in\n    tag_43:\n      dup1\n      0x1f\n      add\n      0x20\n      dup1\n      swap2\n      div\n      mul\n      0x20\n      add\n      mload(0x40)\n      swap1\n      dup2\n      add\n      0x40\n      mstore\n      dup1\n      swap3\n      swap2\n      swap1\n      dup2\n      dup2\n      mstore\n      0x20\n      add\n      dup3\n      dup1\n      sload\n      tag_45\n      swap1\n      tag_44\n      jump\t// in\n    tag_45:\n      dup1\n      iszero\n      tag_46\n      jumpi\n      dup1\n      0x1f\n      lt\n      tag_47\n      jumpi\n      0x0100\n      dup1\n      dup4\n      sload\n      div\n      mul\n      dup4\n      mstore\n      swap2\n      0x20\n      add\n      swap2\n      jump(tag_46)\n    tag_47:\n      dup3\n      add\n      swap2\n      swap1\n      0x00\n      mstore\n      keccak256(0x00, 0x20)\n      swap1\n    tag_48:\n      dup2\n      sload\n      dup2\n      mstore\n      swap1\n      0x01\n      add\n      swap1\n      0x20\n      add\n      dup1\n      dup4\n      gt\n      tag_48\n      jumpi\n      dup3\n      swap1\n      sub\n      0x1f\n      and\n      dup3\n      add\n      swap2\n    tag_46:\n      pop\n      pop\n      pop\n      pop\n      pop\n      swap1\n      dup1\n      0x02\n      add\n      0x00\n      swap1\n      sload\n      swap1\n      0x0100\n      exp\n      swap1\n      div\n      0xffffffff\n      and\n      swap1\n      dup1\n      0x02\n      add\n      0x04\n      swap1\n      sload\n      swap1\n      0x0100\n      exp\n      swap1\n      div\n      0xffffffff\n      and\n      swap1\n      dup1\n      0x03\n      add\n      sload\n      swap1\n      pop\n      dup6\n      jump\t// out\n        /* \"Auction Project - Submission/AuctionPlatform.sol\":2375:2519  function checkBiddedAuctions() public isAuctionCreater view returns(Auction[] memory){... */\n    tag_23:\n        /* \"Auction Project - Submission/AuctionPlatform.sol\":2443:2459  Auction[] memory */\n      0x60\n        /* \"Auction Project - Submission/AuctionPlatform.sol\":2640:2641  0 */\n      0x00\n        /* \"Auction Project - Submission/AuctionPlatform.sol\":2599:2615  auctionOwnerList */\n      0x03\n        /* \"Auction Project - Submission/AuctionPlatform.sol\":2599:2627  auctionOwnerList[msg.sender] */\n      0x00\n        /* \"Auction Project - Submission/AuctionPlatform.sol\":2616:2626  msg.sender */\n      caller\n        /* \"Auction Project - Submission/AuctionPlatform.sol\":2599:2627  auctionOwnerList[msg.sender] */\n      0xffffffffffffffffffffffffffffffffffffffff\n      and\n      0xffffffffffffffffffffffffffffffffffffffff\n      and\n      dup2\n      mstore\n      0x20\n      add\n      swap1\n      dup2\n      mstore\n      0x20\n      add\n      0x00\n      keccak256\n        /* \"Auction Project - Submission/AuctionPlatform.sol\":2599:2637  auctionOwnerList[msg.sender].auctionId */\n      0x00\n      add\n      sload\n        /* \"Auction Project - Submission/AuctionPlatform.sol\":2599:2641  auctionOwnerList[msg.sender].auctionId > 0 */\n      gt\n        /* \"Auction Project - Submission/AuctionPlatform.sol\":2599:2697  auctionOwnerList[msg.sender].auctionId > 0 && auctionOwnerList[msg.sender].endTime<block.timestamp */\n      dup1\n      iszero\n      tag_50\n      jumpi\n      pop\n        /* \"Auction Project - Submission/AuctionPlatform.sol\":2682:2697  block.timestamp */\n      timestamp\n        /* \"Auction Project - Submission/AuctionPlatform.sol\":2645:2661  auctionOwnerList */\n      0x03\n        /* \"Auction Project - Submission/AuctionPlatform.sol\":2645:2673  auctionOwnerList[msg.sender] */\n      0x00\n        /* \"Auction Project - Submission/AuctionPlatform.sol\":2662:2672  msg.sender */\n      caller\n        /* \"Auction Project - Submission/AuctionPlatform.sol\":2645:2673  auctionOwnerList[msg.sender] */\n      0xffffffffffffffffffffffffffffffffffffffff\n      and\n      0xffffffffffffffffffffffffffffffffffffffff\n      and\n      dup2\n      mstore\n      0x20\n      add\n      swap1\n      dup2\n      mstore\n      0x20\n      add\n      0x00\n      keccak256\n        /* \"Auction Project - Submission/AuctionPlatform.sol\":2645:2681  auctionOwnerList[msg.sender].endTime */\n      0x02\n      add\n      0x04\n      swap1\n      sload\n      swap1\n      0x0100\n      exp\n      swap1\n      div\n      0xffffffff\n      and\n        /* \"Auction Project - Submission/AuctionPlatform.sol\":2645:2697  auctionOwnerList[msg.sender].endTime<block.timestamp */\n      0xffffffff\n      and\n      lt\n        /* \"Auction Project - Submission/AuctionPlatform.sol\":2599:2697  auctionOwnerList[msg.sender].auctionId > 0 && auctionOwnerList[msg.sender].endTime<block.timestamp */\n    tag_50:\n        /* \"Auction Project - Submission/AuctionPlatform.sol\":2591:2734  require(auctionOwnerList[msg.sender].auctionId > 0 && auctionOwnerList[msg.sender].endTime<block.timestamp, \"You don't have an active auction\") */\n      tag_51\n      jumpi\n      mload(0x40)\n      0x08c379a000000000000000000000000000000000000000000000000000000000\n      dup2\n      mstore\n      0x04\n      add\n      tag_52\n      swap1\n      tag_53\n      jump\t// in\n    tag_52:\n      mload(0x40)\n      dup1\n      swap2\n      sub\n      swap1\n      revert\n    tag_51:\n        /* \"Auction Project - Submission/AuctionPlatform.sol\":2480:2497  bidderAuctionList */\n      0x05\n        /* \"Auction Project - Submission/AuctionPlatform.sol\":2480:2509  bidderAuctionList[msg.sender] */\n      0x00\n        /* \"Auction Project - Submission/AuctionPlatform.sol\":2498:2508  msg.sender */\n      caller\n        /* \"Auction Project - Submission/AuctionPlatform.sol\":2480:2509  bidderAuctionList[msg.sender] */\n      0xffffffffffffffffffffffffffffffffffffffff\n      and\n      0xffffffffffffffffffffffffffffffffffffffff\n      and\n      dup2\n      mstore\n      0x20\n      add\n      swap1\n      dup2\n      mstore\n      0x20\n      add\n      0x00\n      keccak256\n        /* \"Auction Project - Submission/AuctionPlatform.sol\":2473:2509  return bidderAuctionList[msg.sender] */\n      dup1\n      sload\n      dup1\n      0x20\n      mul\n      0x20\n      add\n      mload(0x40)\n      swap1\n      dup2\n      add\n      0x40\n      mstore\n      dup1\n      swap3\n      swap2\n      swap1\n      dup2\n      dup2\n      mstore\n      0x20\n      add\n      0x00\n      swap1\n    tag_55:\n      dup3\n      dup3\n      lt\n      iszero\n      tag_56\n      jumpi\n      dup4\n      dup3\n      swap1\n      0x00\n      mstore\n      keccak256(0x00, 0x20)\n      swap1\n      0x04\n      mul\n      add\n      mload(0x40)\n      dup1\n      0xa0\n      add\n      0x40\n      mstore\n      swap1\n      dup2\n      0x00\n      dup3\n      add\n      sload\n      dup2\n      mstore\n      0x20\n      add\n      0x01\n      dup3\n      add\n      dup1\n      sload\n      tag_58\n      swap1\n      tag_44\n      jump\t// in\n    tag_58:\n      dup1\n      0x1f\n      add\n      0x20\n      dup1\n      swap2\n      div\n      mul\n      0x20\n      add\n      mload(0x40)\n      swap1\n      dup2\n      add\n      0x40\n      mstore\n      dup1\n      swap3\n      swap2\n      swap1\n      dup2\n      dup2\n      mstore\n      0x20\n      add\n      dup3\n      dup1\n      sload\n      tag_59\n      swap1\n      tag_44\n      jump\t// in\n    tag_59:\n      dup1\n      iszero\n      tag_60\n      jumpi\n      dup1\n      0x1f\n      lt\n      tag_61\n      jumpi\n      0x0100\n      dup1\n      dup4\n      sload\n      div\n      mul\n      dup4\n      mstore\n      swap2\n      0x20\n      add\n      swap2\n      jump(tag_60)\n    tag_61:\n      dup3\n      add\n      swap2\n      swap1\n      0x00\n      mstore\n      keccak256(0x00, 0x20)\n      swap1\n    tag_62:\n      dup2\n      sload\n      dup2\n      mstore\n      swap1\n      0x01\n      add\n      swap1\n      0x20\n      add\n      dup1\n      dup4\n      gt\n      tag_62\n      jumpi\n      dup3\n      swap1\n      sub\n      0x1f\n      and\n      dup3\n      add\n      swap2\n    tag_60:\n      pop\n      pop\n      pop\n      pop\n      pop\n      dup2\n      mstore\n      0x20\n      add\n      0x02\n      dup3\n      add\n      0x00\n      swap1\n      sload\n      swap1\n      0x0100\n      exp\n      swap1\n      div\n      0xffffffff\n      and\n      0xffffffff\n      and\n      0xffffffff\n      and\n      dup2\n      mstore\n      0x20\n      add\n      0x02\n      dup3\n      add\n      0x04\n      swap1\n      sload\n      swap1\n      0x0100\n      exp\n      swap1\n      div\n      0xffffffff\n      and\n      0xffffffff\n      and\n      0xffffffff\n      and\n      dup2\n      mstore\n      0x20\n      add\n      0x03\n      dup3\n      add\n      sload\n      dup2\n      mstore\n      pop\n      pop\n      dup2\n      mstore\n      0x20\n      add\n      swap1\n      0x01\n      add\n      swap1\n      jump(tag_55)\n    tag_56:\n      pop\n      pop\n      pop\n      pop\n      swap1\n      pop\n        /* \"Auction Project - Submission/AuctionPlatform.sol\":2375:2519  function checkBiddedAuctions() public isAuctionCreater view returns(Auction[] memory){... */\n      swap1\n      jump\t// out\n        /* \"Auction Project - Submission/AuctionPlatform.sol\":2226:2364  function checkBids()public view returns(Bid[] memory){... */\n    tag_28:\n        /* \"Auction Project - Submission/AuctionPlatform.sol\":2266:2278  Bid[] memory */\n      0x60\n        /* \"Auction Project - Submission/AuctionPlatform.sol\":2307:2314  bidList */\n      0x04\n        /* \"Auction Project - Submission/AuctionPlatform.sol\":2307:2354  bidList[auctionOwnerList[msg.sender].auctionId] */\n      0x00\n        /* \"Auction Project - Submission/AuctionPlatform.sol\":2315:2331  auctionOwnerList */\n      0x03\n        /* \"Auction Project - Submission/AuctionPlatform.sol\":2315:2343  auctionOwnerList[msg.sender] */\n      0x00\n        /* \"Auction Project - Submission/AuctionPlatform.sol\":2332:2342  msg.sender */\n      caller\n        /* \"Auction Project - Submission/AuctionPlatform.sol\":2315:2343  auctionOwnerList[msg.sender] */\n      0xffffffffffffffffffffffffffffffffffffffff\n      and\n      0xffffffffffffffffffffffffffffffffffffffff\n      and\n      dup2\n      mstore\n      0x20\n      add\n      swap1\n      dup2\n      mstore\n      0x20\n      add\n      0x00\n      keccak256\n        /* \"Auction Project - Submission/AuctionPlatform.sol\":2315:2353  auctionOwnerList[msg.sender].auctionId */\n      0x00\n      add\n      sload\n        /* \"Auction Project - Submission/AuctionPlatform.sol\":2307:2354  bidList[auctionOwnerList[msg.sender].auctionId] */\n      dup2\n      mstore\n      0x20\n      add\n      swap1\n      dup2\n      mstore\n      0x20\n      add\n      0x00\n      keccak256\n        /* \"Auction Project - Submission/AuctionPlatform.sol\":2300:2354  return bidList[auctionOwnerList[msg.sender].auctionId] */\n      dup1\n      sload\n      dup1\n      0x20\n      mul\n      0x20\n      add\n      mload(0x40)\n      swap1\n      dup2\n      add\n      0x40\n      mstore\n      dup1\n      swap3\n      swap2\n      swap1\n      dup2\n      dup2\n      mstore\n      0x20\n      add\n      0x00\n      swap1\n    tag_64:\n      dup3\n      dup3\n      lt\n      iszero\n      tag_65\n      jumpi\n      dup4\n      dup3\n      swap1\n      0x00\n      mstore\n      keccak256(0x00, 0x20)\n      swap1\n      0x03\n      mul\n      add\n      mload(0x40)\n      dup1\n      0x60\n      add\n      0x40\n      mstore\n      swap1\n      dup2\n      0x00\n      dup3\n      add\n      0x00\n      swap1\n      sload\n      swap1\n      0x0100\n      exp\n      swap1\n      div\n      0xffffffffffffffffffffffffffffffffffffffff\n      and\n      0xffffffffffffffffffffffffffffffffffffffff\n      and\n      0xffffffffffffffffffffffffffffffffffffffff\n      and\n      dup2\n      mstore\n      0x20\n      add\n      0x01\n      dup3\n      add\n      sload\n      dup2\n      mstore\n      0x20\n      add\n      0x02\n      dup3\n      add\n      sload\n      dup2\n      mstore\n      pop\n      pop\n      dup2\n      mstore\n      0x20\n      add\n      swap1\n      0x01\n      add\n      swap1\n      jump(tag_64)\n    tag_65:\n      pop\n      pop\n      pop\n      pop\n      swap1\n      pop\n        /* \"Auction Project - Submission/AuctionPlatform.sol\":2226:2364  function checkBids()public view returns(Bid[] memory){... */\n      swap1\n      jump\t// out\n        /* \"Auction Project - Submission/AuctionPlatform.sol\":1614:2218  function createBid(... */\n    tag_34:\n        /* \"Auction Project - Submission/AuctionPlatform.sol\":1730:1736  _aucId */\n      dup1\n        /* \"Auction Project - Submission/AuctionPlatform.sol\":2897:2910  auctionsCount */\n      sload(0x00)\n        /* \"Auction Project - Submission/AuctionPlatform.sol\":2887:2893  _aucId */\n      dup2\n        /* \"Auction Project - Submission/AuctionPlatform.sol\":2887:2910  _aucId <= auctionsCount */\n      gt\n      iszero\n        /* \"Auction Project - Submission/AuctionPlatform.sol\":2887:2961  _aucId <= auctionsCount && auctionList[_aucId].startTime < block.timestamp */\n      dup1\n      iszero\n      tag_68\n      jumpi\n      pop\n        /* \"Auction Project - Submission/AuctionPlatform.sol\":2946:2961  block.timestamp */\n      timestamp\n        /* \"Auction Project - Submission/AuctionPlatform.sol\":2914:2925  auctionList */\n      0x02\n        /* \"Auction Project - Submission/AuctionPlatform.sol\":2926:2932  _aucId */\n      dup3\n        /* \"Auction Project - Submission/AuctionPlatform.sol\":2914:2933  auctionList[_aucId] */\n      dup2\n      sload\n      dup2\n      lt\n      tag_69\n      jumpi\n      tag_70\n      tag_71\n      jump\t// in\n    tag_70:\n    tag_69:\n      swap1\n      0x00\n      mstore\n      keccak256(0x00, 0x20)\n      swap1\n      0x04\n      mul\n      add\n        /* \"Auction Project - Submission/AuctionPlatform.sol\":2914:2943  auctionList[_aucId].startTime */\n      0x02\n      add\n      0x00\n      swap1\n      sload\n      swap1\n      0x0100\n      exp\n      swap1\n      div\n      0xffffffff\n      and\n        /* \"Auction Project - Submission/AuctionPlatform.sol\":2914:2961  auctionList[_aucId].startTime < block.timestamp */\n      0xffffffff\n      and\n      lt\n        /* \"Auction Project - Submission/AuctionPlatform.sol\":2887:2961  _aucId <= auctionsCount && auctionList[_aucId].startTime < block.timestamp */\n    tag_68:\n        /* \"Auction Project - Submission/AuctionPlatform.sol\":2887:3010  _aucId <= auctionsCount && auctionList[_aucId].startTime < block.timestamp && auctionList[_aucId].endTime > block.timestamp */\n      dup1\n      iszero\n      tag_73\n      jumpi\n      pop\n        /* \"Auction Project - Submission/AuctionPlatform.sol\":2995:3010  block.timestamp */\n      timestamp\n        /* \"Auction Project - Submission/AuctionPlatform.sol\":2965:2976  auctionList */\n      0x02\n        /* \"Auction Project - Submission/AuctionPlatform.sol\":2977:2983  _aucId */\n      dup3\n        /* \"Auction Project - Submission/AuctionPlatform.sol\":2965:2984  auctionList[_aucId] */\n      dup2\n      sload\n      dup2\n      lt\n      tag_74\n      jumpi\n      tag_75\n      tag_71\n      jump\t// in\n    tag_75:\n    tag_74:\n      swap1\n      0x00\n      mstore\n      keccak256(0x00, 0x20)\n      swap1\n      0x04\n      mul\n      add\n        /* \"Auction Project - Submission/AuctionPlatform.sol\":2965:2992  auctionList[_aucId].endTime */\n      0x02\n      add\n      0x04\n      swap1\n      sload\n      swap1\n      0x0100\n      exp\n      swap1\n      div\n      0xffffffff\n      and\n        /* \"Auction Project - Submission/AuctionPlatform.sol\":2965:3010  auctionList[_aucId].endTime > block.timestamp */\n      0xffffffff\n      and\n      gt\n        /* \"Auction Project - Submission/AuctionPlatform.sol\":2887:3010  _aucId <= auctionsCount && auctionList[_aucId].startTime < block.timestamp && auctionList[_aucId].endTime > block.timestamp */\n    tag_73:\n        /* \"Auction Project - Submission/AuctionPlatform.sol\":2851:3077  require(... */\n      tag_77\n      jumpi\n      mload(0x40)\n      0x08c379a000000000000000000000000000000000000000000000000000000000\n      dup2\n      mstore\n      0x04\n      add\n      tag_78\n      swap1\n      tag_79\n      jump\t// in\n    tag_78:\n      mload(0x40)\n      dup1\n      swap2\n      sub\n      swap1\n      revert\n    tag_77:\n        /* \"Auction Project - Submission/AuctionPlatform.sol\":1772:1783  auctionList */\n      0x02\n        /* \"Auction Project - Submission/AuctionPlatform.sol\":1784:1790  _aucId */\n      dup3\n        /* \"Auction Project - Submission/AuctionPlatform.sol\":1772:1791  auctionList[_aucId] */\n      dup2\n      sload\n      dup2\n      lt\n      tag_81\n      jumpi\n      tag_82\n      tag_71\n      jump\t// in\n    tag_82:\n    tag_81:\n      swap1\n      0x00\n      mstore\n      keccak256(0x00, 0x20)\n      swap1\n      0x04\n      mul\n      add\n        /* \"Auction Project - Submission/AuctionPlatform.sol\":1772:1803  auctionList[_aucId].minBidValue */\n      0x03\n      add\n      sload\n        /* \"Auction Project - Submission/AuctionPlatform.sol\":1759:1769  _bidAmount */\n      dup4\n        /* \"Auction Project - Submission/AuctionPlatform.sol\":1759:1803  _bidAmount > auctionList[_aucId].minBidValue */\n      gt\n        /* \"Auction Project - Submission/AuctionPlatform.sol\":1751:1859  require(_bidAmount > auctionList[_aucId].minBidValue, \"Bid Amount should be greater then minimum Bid Value\") */\n      tag_84\n      jumpi\n      mload(0x40)\n      0x08c379a000000000000000000000000000000000000000000000000000000000\n      dup2\n      mstore\n      0x04\n      add\n      tag_85\n      swap1\n      tag_86\n      jump\t// in\n    tag_85:\n      mload(0x40)\n      dup1\n      swap2\n      sub\n      swap1\n      revert\n    tag_84:\n        /* \"Auction Project - Submission/AuctionPlatform.sol\":1872:1879  bidList */\n      0x04\n        /* \"Auction Project - Submission/AuctionPlatform.sol\":1872:1887  bidList[_aucId] */\n      0x00\n        /* \"Auction Project - Submission/AuctionPlatform.sol\":1880:1886  _aucId */\n      dup4\n        /* \"Auction Project - Submission/AuctionPlatform.sol\":1872:1887  bidList[_aucId] */\n      dup2\n      mstore\n      0x20\n      add\n      swap1\n      dup2\n      mstore\n      0x20\n      add\n      0x00\n      keccak256\n        /* \"Auction Project - Submission/AuctionPlatform.sol\":1893:1926  Bid(msg.sender,_bidAmount,_aucId) */\n      mload(0x40)\n      dup1\n      0x60\n      add\n      0x40\n      mstore\n      dup1\n        /* \"Auction Project - Submission/AuctionPlatform.sol\":1897:1907  msg.sender */\n      caller\n        /* \"Auction Project - Submission/AuctionPlatform.sol\":1893:1926  Bid(msg.sender,_bidAmount,_aucId) */\n      0xffffffffffffffffffffffffffffffffffffffff\n      and\n      dup2\n      mstore\n      0x20\n      add\n        /* \"Auction Project - Submission/AuctionPlatform.sol\":1908:1918  _bidAmount */\n      dup6\n        /* \"Auction Project - Submission/AuctionPlatform.sol\":1893:1926  Bid(msg.sender,_bidAmount,_aucId) */\n      dup2\n      mstore\n      0x20\n      add\n        /* \"Auction Project - Submission/AuctionPlatform.sol\":1919:1925  _aucId */\n      dup5\n        /* \"Auction Project - Submission/AuctionPlatform.sol\":1893:1926  Bid(msg.sender,_bidAmount,_aucId) */\n      dup2\n      mstore\n      pop\n        /* \"Auction Project - Submission/AuctionPlatform.sol\":1872:1927  bidList[_aucId].push(Bid(msg.sender,_bidAmount,_aucId)) */\n      swap1\n      dup1\n      0x01\n      dup2\n      sload\n      add\n      dup1\n      dup3\n      sstore\n      dup1\n      swap2\n      pop\n      pop\n      0x01\n      swap1\n      sub\n      swap1\n      0x00\n      mstore\n      keccak256(0x00, 0x20)\n      swap1\n      0x03\n      mul\n      add\n      0x00\n      swap1\n      swap2\n      swap1\n      swap2\n      swap1\n      swap2\n      pop\n      0x00\n      dup3\n      add\n      mload\n      dup2\n      0x00\n      add\n      exp(0x0100, 0x00)\n      dup2\n      sload\n      dup2\n      0xffffffffffffffffffffffffffffffffffffffff\n      mul\n      not\n      and\n      swap1\n      dup4\n      0xffffffffffffffffffffffffffffffffffffffff\n      and\n      mul\n      or\n      swap1\n      sstore\n      pop\n      0x20\n      dup3\n      add\n      mload\n      dup2\n      0x01\n      add\n      sstore\n      0x40\n      dup3\n      add\n      mload\n      dup2\n      0x02\n      add\n      sstore\n      pop\n      pop\n        /* \"Auction Project - Submission/AuctionPlatform.sol\":1940:1957  bidderAuctionList */\n      0x05\n        /* \"Auction Project - Submission/AuctionPlatform.sol\":1940:1969  bidderAuctionList[msg.sender] */\n      0x00\n        /* \"Auction Project - Submission/AuctionPlatform.sol\":1958:1968  msg.sender */\n      caller\n        /* \"Auction Project - Submission/AuctionPlatform.sol\":1940:1969  bidderAuctionList[msg.sender] */\n      0xffffffffffffffffffffffffffffffffffffffff\n      and\n      0xffffffffffffffffffffffffffffffffffffffff\n      and\n      dup2\n      mstore\n      0x20\n      add\n      swap1\n      dup2\n      mstore\n      0x20\n      add\n      0x00\n      keccak256\n        /* \"Auction Project - Submission/AuctionPlatform.sol\":1975:1986  auctionList */\n      0x02\n        /* \"Auction Project - Submission/AuctionPlatform.sol\":1987:1993  _aucId */\n      dup4\n        /* \"Auction Project - Submission/AuctionPlatform.sol\":1975:1994  auctionList[_aucId] */\n      dup2\n      sload\n      dup2\n      lt\n      tag_88\n      jumpi\n      tag_89\n      tag_71\n      jump\t// in\n    tag_89:\n    tag_88:\n      swap1\n      0x00\n      mstore\n      keccak256(0x00, 0x20)\n      swap1\n      0x04\n      mul\n      add\n        /* \"Auction Project - Submission/AuctionPlatform.sol\":1940:1995  bidderAuctionList[msg.sender].push(auctionList[_aucId]) */\n      swap1\n      dup1\n      0x01\n      dup2\n      sload\n      add\n      dup1\n      dup3\n      sstore\n      dup1\n      swap2\n      pop\n      pop\n      0x01\n      swap1\n      sub\n      swap1\n      0x00\n      mstore\n      keccak256(0x00, 0x20)\n      swap1\n      0x04\n      mul\n      add\n      0x00\n      swap1\n      swap2\n      swap1\n      swap2\n      swap1\n      swap2\n      pop\n      0x00\n      dup3\n      add\n      sload\n      dup2\n      0x00\n      add\n      sstore\n      0x01\n      dup3\n      add\n      dup2\n      0x01\n      add\n      swap1\n      dup2\n      tag_92\n      swap2\n      swap1\n      tag_93\n      jump\t// in\n    tag_92:\n      pop\n      0x02\n      dup3\n      add\n      0x00\n      swap1\n      sload\n      swap1\n      0x0100\n      exp\n      swap1\n      div\n      0xffffffff\n      and\n      dup2\n      0x02\n      add\n      exp(0x0100, 0x00)\n      dup2\n      sload\n      dup2\n      0xffffffff\n      mul\n      not\n      and\n      swap1\n      dup4\n      0xffffffff\n      and\n      mul\n      or\n      swap1\n      sstore\n      pop\n      0x02\n      dup3\n      add\n      0x04\n      swap1\n      sload\n      swap1\n      0x0100\n      exp\n      swap1\n      div\n      0xffffffff\n      and\n      dup2\n      0x02\n      add\n      exp(0x0100, 0x04)\n      dup2\n      sload\n      dup2\n      0xffffffff\n      mul\n      not\n      and\n      swap1\n      dup4\n      0xffffffff\n      and\n      mul\n      or\n      swap1\n      sstore\n      pop\n      0x03\n      dup3\n      add\n      sload\n      dup2\n      0x03\n      add\n      sstore\n      pop\n      pop\n        /* \"Auction Project - Submission/AuctionPlatform.sol\":1614:2218  function createBid(... */\n      pop\n      pop\n      pop\n      jump\t// out\n        /* \"Auction Project - Submission/AuctionPlatform.sol\":964:1606  function createAuction(... */\n    tag_38:\n        /* \"Auction Project - Submission/AuctionPlatform.sol\":1162:1163  1 */\n      0x01\n        /* \"Auction Project - Submission/AuctionPlatform.sol\":1145:1158  auctionsCount */\n      0x00\n      dup1\n        /* \"Auction Project - Submission/AuctionPlatform.sol\":1145:1163  auctionsCount += 1 */\n      dup3\n      dup3\n      sload\n      tag_95\n      swap2\n      swap1\n      tag_96\n      jump\t// in\n    tag_95:\n      swap3\n      pop\n      pop\n      dup2\n      swap1\n      sstore\n      pop\n        /* \"Auction Project - Submission/AuctionPlatform.sol\":1315:1385  Auction(auctionsCount, _description ,_startTime,_endTime,_minBidValue) */\n      mload(0x40)\n      dup1\n      0xa0\n      add\n      0x40\n      mstore\n      dup1\n        /* \"Auction Project - Submission/AuctionPlatform.sol\":1323:1336  auctionsCount */\n      sload(0x00)\n        /* \"Auction Project - Submission/AuctionPlatform.sol\":1315:1385  Auction(auctionsCount, _description ,_startTime,_endTime,_minBidValue) */\n      dup2\n      mstore\n      0x20\n      add\n        /* \"Auction Project - Submission/AuctionPlatform.sol\":1338:1350  _description */\n      dup6\n        /* \"Auction Project - Submission/AuctionPlatform.sol\":1315:1385  Auction(auctionsCount, _description ,_startTime,_endTime,_minBidValue) */\n      dup2\n      mstore\n      0x20\n      add\n        /* \"Auction Project - Submission/AuctionPlatform.sol\":1352:1362  _startTime */\n      dup5\n        /* \"Auction Project - Submission/AuctionPlatform.sol\":1315:1385  Auction(auctionsCount, _description ,_startTime,_endTime,_minBidValue) */\n      0xffffffff\n      and\n      dup2\n      mstore\n      0x20\n      add\n        /* \"Auction Project - Submission/AuctionPlatform.sol\":1363:1371  _endTime */\n      dup4\n        /* \"Auction Project - Submission/AuctionPlatform.sol\":1315:1385  Auction(auctionsCount, _description ,_startTime,_endTime,_minBidValue) */\n      0xffffffff\n      and\n      dup2\n      mstore\n      0x20\n      add\n        /* \"Auction Project - Submission/AuctionPlatform.sol\":1372:1384  _minBidValue */\n      dup3\n        /* \"Auction Project - Submission/AuctionPlatform.sol\":1315:1385  Auction(auctionsCount, _description ,_startTime,_endTime,_minBidValue) */\n      dup2\n      mstore\n      pop\n        /* \"Auction Project - Submission/AuctionPlatform.sol\":1284:1300  auctionOwnerList */\n      0x03\n        /* \"Auction Project - Submission/AuctionPlatform.sol\":1284:1312  auctionOwnerList[msg.sender] */\n      0x00\n        /* \"Auction Project - Submission/AuctionPlatform.sol\":1301:1311  msg.sender */\n      caller\n        /* \"Auction Project - Submission/AuctionPlatform.sol\":1284:1312  auctionOwnerList[msg.sender] */\n      0xffffffffffffffffffffffffffffffffffffffff\n      and\n      0xffffffffffffffffffffffffffffffffffffffff\n      and\n      dup2\n      mstore\n      0x20\n      add\n      swap1\n      dup2\n      mstore\n      0x20\n      add\n      0x00\n      keccak256\n        /* \"Auction Project - Submission/AuctionPlatform.sol\":1284:1385  auctionOwnerList[msg.sender] = Auction(auctionsCount, _description ,_startTime,_endTime,_minBidValue) */\n      0x00\n      dup3\n      add\n      mload\n      dup2\n      0x00\n      add\n      sstore\n      0x20\n      dup3\n      add\n      mload\n      dup2\n      0x01\n      add\n      swap1\n      dup2\n      tag_97\n      swap2\n      swap1\n      tag_98\n      jump\t// in\n    tag_97:\n      pop\n      0x40\n      dup3\n      add\n      mload\n      dup2\n      0x02\n      add\n      exp(0x0100, 0x00)\n      dup2\n      sload\n      dup2\n      0xffffffff\n      mul\n      not\n      and\n      swap1\n      dup4\n      0xffffffff\n      and\n      mul\n      or\n      swap1\n      sstore\n      pop\n      0x60\n      dup3\n      add\n      mload\n      dup2\n      0x02\n      add\n      exp(0x0100, 0x04)\n      dup2\n      sload\n      dup2\n      0xffffffff\n      mul\n      not\n      and\n      swap1\n      dup4\n      0xffffffff\n      and\n      mul\n      or\n      swap1\n      sstore\n      pop\n      0x80\n      dup3\n      add\n      mload\n      dup2\n      0x03\n      add\n      sstore\n      swap1\n      pop\n      pop\n        /* \"Auction Project - Submission/AuctionPlatform.sol\":1396:1409  auctionOwners */\n      0x01\n        /* \"Auction Project - Submission/AuctionPlatform.sol\":1415:1425  msg.sender */\n      caller\n        /* \"Auction Project - Submission/AuctionPlatform.sol\":1396:1426  auctionOwners.push(msg.sender) */\n      swap1\n      dup1\n      0x01\n      dup2\n      sload\n      add\n      dup1\n      dup3\n      sstore\n      dup1\n      swap2\n      pop\n      pop\n      0x01\n      swap1\n      sub\n      swap1\n      0x00\n      mstore\n      keccak256(0x00, 0x20)\n      add\n      0x00\n      swap1\n      swap2\n      swap1\n      swap2\n      swap1\n      swap2\n      0x0100\n      exp\n      dup2\n      sload\n      dup2\n      0xffffffffffffffffffffffffffffffffffffffff\n      mul\n      not\n      and\n      swap1\n      dup4\n      0xffffffffffffffffffffffffffffffffffffffff\n      and\n      mul\n      or\n      swap1\n      sstore\n      pop\n        /* \"Auction Project - Submission/AuctionPlatform.sol\":1466:1482  auctionOwnerList */\n      0x03\n        /* \"Auction Project - Submission/AuctionPlatform.sol\":1466:1494  auctionOwnerList[msg.sender] */\n      0x00\n        /* \"Auction Project - Submission/AuctionPlatform.sol\":1483:1493  msg.sender */\n      caller\n        /* \"Auction Project - Submission/AuctionPlatform.sol\":1466:1494  auctionOwnerList[msg.sender] */\n      0xffffffffffffffffffffffffffffffffffffffff\n      and\n      0xffffffffffffffffffffffffffffffffffffffff\n      and\n      dup2\n      mstore\n      0x20\n      add\n      swap1\n      dup2\n      mstore\n      0x20\n      add\n      0x00\n      keccak256\n        /* \"Auction Project - Submission/AuctionPlatform.sol\":1437:1448  auctionList */\n      0x02\n        /* \"Auction Project - Submission/AuctionPlatform.sol\":1449:1462  auctionsCount */\n      sload(0x00)\n        /* \"Auction Project - Submission/AuctionPlatform.sol\":1437:1463  auctionList[auctionsCount] */\n      dup2\n      sload\n      dup2\n      lt\n      tag_100\n      jumpi\n      tag_101\n      tag_71\n      jump\t// in\n    tag_101:\n    tag_100:\n      swap1\n      0x00\n      mstore\n      keccak256(0x00, 0x20)\n      swap1\n      0x04\n      mul\n      add\n        /* \"Auction Project - Submission/AuctionPlatform.sol\":1437:1494  auctionList[auctionsCount] = auctionOwnerList[msg.sender] */\n      0x00\n      dup3\n      add\n      sload\n      dup2\n      0x00\n      add\n      sstore\n      0x01\n      dup3\n      add\n      dup2\n      0x01\n      add\n      swap1\n      dup2\n      tag_103\n      swap2\n      swap1\n      tag_93\n      jump\t// in\n    tag_103:\n      pop\n      0x02\n      dup3\n      add\n      0x00\n      swap1\n      sload\n      swap1\n      0x0100\n      exp\n      swap1\n      div\n      0xffffffff\n      and\n      dup2\n      0x02\n      add\n      exp(0x0100, 0x00)\n      dup2\n      sload\n      dup2\n      0xffffffff\n      mul\n      not\n      and\n      swap1\n      dup4\n      0xffffffff\n      and\n      mul\n      or\n      swap1\n      sstore\n      pop\n      0x02\n      dup3\n      add\n      0x04\n      swap1\n      sload\n      swap1\n      0x0100\n      exp\n      swap1\n      div\n      0xffffffff\n      and\n      dup2\n      0x02\n      add\n      exp(0x0100, 0x04)\n      dup2\n      sload\n      dup2\n      0xffffffff\n      mul\n      not\n      and\n      swap1\n      dup4\n      0xffffffff\n      and\n      mul\n      or\n      swap1\n      sstore\n      pop\n      0x03\n      dup3\n      add\n      sload\n      dup2\n      0x03\n      add\n      sstore\n      swap1\n      pop\n      pop\n        /* \"Auction Project - Submission/AuctionPlatform.sol\":964:1606  function createAuction(... */\n      pop\n      pop\n      pop\n      pop\n      jump\t// out\n        /* \"#utility.yul\":7:82   */\n    tag_104:\n        /* \"#utility.yul\":40:46   */\n      0x00\n        /* \"#utility.yul\":73:75   */\n      0x40\n        /* \"#utility.yul\":67:76   */\n      mload\n        /* \"#utility.yul\":57:76   */\n      swap1\n      pop\n        /* \"#utility.yul\":7:82   */\n      swap1\n      jump\t// out\n        /* \"#utility.yul\":88:205   */\n    tag_105:\n        /* \"#utility.yul\":197:198   */\n      0x00\n        /* \"#utility.yul\":194:195   */\n      dup1\n        /* \"#utility.yul\":187:199   */\n      revert\n        /* \"#utility.yul\":211:328   */\n    tag_106:\n        /* \"#utility.yul\":320:321   */\n      0x00\n        /* \"#utility.yul\":317:318   */\n      dup1\n        /* \"#utility.yul\":310:322   */\n      revert\n        /* \"#utility.yul\":334:411   */\n    tag_107:\n        /* \"#utility.yul\":371:378   */\n      0x00\n        /* \"#utility.yul\":400:405   */\n      dup2\n        /* \"#utility.yul\":389:405   */\n      swap1\n      pop\n        /* \"#utility.yul\":334:411   */\n      swap2\n      swap1\n      pop\n      jump\t// out\n        /* \"#utility.yul\":417:539   */\n    tag_108:\n        /* \"#utility.yul\":490:514   */\n      tag_181\n        /* \"#utility.yul\":508:513   */\n      dup2\n        /* \"#utility.yul\":490:514   */\n      tag_107\n      jump\t// in\n    tag_181:\n        /* \"#utility.yul\":483:488   */\n      dup2\n        /* \"#utility.yul\":480:515   */\n      eq\n        /* \"#utility.yul\":470:533   */\n      tag_182\n      jumpi\n        /* \"#utility.yul\":529:530   */\n      0x00\n        /* \"#utility.yul\":526:527   */\n      dup1\n        /* \"#utility.yul\":519:531   */\n      revert\n        /* \"#utility.yul\":470:533   */\n    tag_182:\n        /* \"#utility.yul\":417:539   */\n      pop\n      jump\t// out\n        /* \"#utility.yul\":545:684   */\n    tag_109:\n        /* \"#utility.yul\":591:596   */\n      0x00\n        /* \"#utility.yul\":629:635   */\n      dup2\n        /* \"#utility.yul\":616:636   */\n      calldataload\n        /* \"#utility.yul\":607:636   */\n      swap1\n      pop\n        /* \"#utility.yul\":645:678   */\n      tag_184\n        /* \"#utility.yul\":672:677   */\n      dup2\n        /* \"#utility.yul\":645:678   */\n      tag_108\n      jump\t// in\n    tag_184:\n        /* \"#utility.yul\":545:684   */\n      swap3\n      swap2\n      pop\n      pop\n      jump\t// out\n        /* \"#utility.yul\":690:1019   */\n    tag_11:\n        /* \"#utility.yul\":749:755   */\n      0x00\n        /* \"#utility.yul\":798:800   */\n      0x20\n        /* \"#utility.yul\":786:795   */\n      dup3\n        /* \"#utility.yul\":777:784   */\n      dup5\n        /* \"#utility.yul\":773:796   */\n      sub\n        /* \"#utility.yul\":769:801   */\n      slt\n        /* \"#utility.yul\":766:885   */\n      iszero\n      tag_186\n      jumpi\n        /* \"#utility.yul\":804:883   */\n      tag_187\n      tag_105\n      jump\t// in\n    tag_187:\n        /* \"#utility.yul\":766:885   */\n    tag_186:\n        /* \"#utility.yul\":924:925   */\n      0x00\n        /* \"#utility.yul\":949:1002   */\n      tag_188\n        /* \"#utility.yul\":994:1001   */\n      dup5\n        /* \"#utility.yul\":985:991   */\n      dup3\n        /* \"#utility.yul\":974:983   */\n      dup6\n        /* \"#utility.yul\":970:992   */\n      add\n        /* \"#utility.yul\":949:1002   */\n      tag_109\n      jump\t// in\n    tag_188:\n        /* \"#utility.yul\":939:1002   */\n      swap2\n      pop\n        /* \"#utility.yul\":895:1012   */\n      pop\n        /* \"#utility.yul\":690:1019   */\n      swap3\n      swap2\n      pop\n      pop\n      jump\t// out\n        /* \"#utility.yul\":1025:1151   */\n    tag_110:\n        /* \"#utility.yul\":1062:1069   */\n      0x00\n        /* \"#utility.yul\":1102:1144   */\n      0xffffffffffffffffffffffffffffffffffffffff\n        /* \"#utility.yul\":1095:1100   */\n      dup3\n        /* \"#utility.yul\":1091:1145   */\n      and\n        /* \"#utility.yul\":1080:1145   */\n      swap1\n      pop\n        /* \"#utility.yul\":1025:1151   */\n      swap2\n      swap1\n      pop\n      jump\t// out\n        /* \"#utility.yul\":1157:1253   */\n    tag_111:\n        /* \"#utility.yul\":1194:1201   */\n      0x00\n        /* \"#utility.yul\":1223:1247   */\n      tag_191\n        /* \"#utility.yul\":1241:1246   */\n      dup3\n        /* \"#utility.yul\":1223:1247   */\n      tag_110\n      jump\t// in\n    tag_191:\n        /* \"#utility.yul\":1212:1247   */\n      swap1\n      pop\n        /* \"#utility.yul\":1157:1253   */\n      swap2\n      swap1\n      pop\n      jump\t// out\n        /* \"#utility.yul\":1259:1377   */\n    tag_112:\n        /* \"#utility.yul\":1346:1370   */\n      tag_193\n        /* \"#utility.yul\":1364:1369   */\n      dup2\n        /* \"#utility.yul\":1346:1370   */\n      tag_111\n      jump\t// in\n    tag_193:\n        /* \"#utility.yul\":1341:1344   */\n      dup3\n        /* \"#utility.yul\":1334:1371   */\n      mstore\n        /* \"#utility.yul\":1259:1377   */\n      pop\n      pop\n      jump\t// out\n        /* \"#utility.yul\":1383:1605   */\n    tag_14:\n        /* \"#utility.yul\":1476:1480   */\n      0x00\n        /* \"#utility.yul\":1514:1516   */\n      0x20\n        /* \"#utility.yul\":1503:1512   */\n      dup3\n        /* \"#utility.yul\":1499:1517   */\n      add\n        /* \"#utility.yul\":1491:1517   */\n      swap1\n      pop\n        /* \"#utility.yul\":1527:1598   */\n      tag_195\n        /* \"#utility.yul\":1595:1596   */\n      0x00\n        /* \"#utility.yul\":1584:1593   */\n      dup4\n        /* \"#utility.yul\":1580:1597   */\n      add\n        /* \"#utility.yul\":1571:1577   */\n      dup5\n        /* \"#utility.yul\":1527:1598   */\n      tag_112\n      jump\t// in\n    tag_195:\n        /* \"#utility.yul\":1383:1605   */\n      swap3\n      swap2\n      pop\n      pop\n      jump\t// out\n        /* \"#utility.yul\":1611:1729   */\n    tag_113:\n        /* \"#utility.yul\":1698:1722   */\n      tag_197\n        /* \"#utility.yul\":1716:1721   */\n      dup2\n        /* \"#utility.yul\":1698:1722   */\n      tag_107\n      jump\t// in\n    tag_197:\n        /* \"#utility.yul\":1693:1696   */\n      dup3\n        /* \"#utility.yul\":1686:1723   */\n      mstore\n        /* \"#utility.yul\":1611:1729   */\n      pop\n      pop\n      jump\t// out\n        /* \"#utility.yul\":1735:1834   */\n    tag_114:\n        /* \"#utility.yul\":1787:1793   */\n      0x00\n        /* \"#utility.yul\":1821:1826   */\n      dup2\n        /* \"#utility.yul\":1815:1827   */\n      mload\n        /* \"#utility.yul\":1805:1827   */\n      swap1\n      pop\n        /* \"#utility.yul\":1735:1834   */\n      swap2\n      swap1\n      pop\n      jump\t// out\n        /* \"#utility.yul\":1840:2009   */\n    tag_115:\n        /* \"#utility.yul\":1924:1935   */\n      0x00\n        /* \"#utility.yul\":1958:1964   */\n      dup3\n        /* \"#utility.yul\":1953:1956   */\n      dup3\n        /* \"#utility.yul\":1946:1965   */\n      mstore\n        /* \"#utility.yul\":1998:2002   */\n      0x20\n        /* \"#utility.yul\":1993:1996   */\n      dup3\n        /* \"#utility.yul\":1989:2003   */\n      add\n        /* \"#utility.yul\":1974:2003   */\n      swap1\n      pop\n        /* \"#utility.yul\":1840:2009   */\n      swap3\n      swap2\n      pop\n      pop\n      jump\t// out\n        /* \"#utility.yul\":2015:2261   */\n    tag_116:\n        /* \"#utility.yul\":2096:2097   */\n      0x00\n        /* \"#utility.yul\":2106:2219   */\n    tag_201:\n        /* \"#utility.yul\":2120:2126   */\n      dup4\n        /* \"#utility.yul\":2117:2118   */\n      dup2\n        /* \"#utility.yul\":2114:2127   */\n      lt\n        /* \"#utility.yul\":2106:2219   */\n      iszero\n      tag_203\n      jumpi\n        /* \"#utility.yul\":2205:2206   */\n      dup1\n        /* \"#utility.yul\":2200:2203   */\n      dup3\n        /* \"#utility.yul\":2196:2207   */\n      add\n        /* \"#utility.yul\":2190:2208   */\n      mload\n        /* \"#utility.yul\":2186:2187   */\n      dup2\n        /* \"#utility.yul\":2181:2184   */\n      dup5\n        /* \"#utility.yul\":2177:2188   */\n      add\n        /* \"#utility.yul\":2170:2209   */\n      mstore\n        /* \"#utility.yul\":2142:2144   */\n      0x20\n        /* \"#utility.yul\":2139:2140   */\n      dup2\n        /* \"#utility.yul\":2135:2145   */\n      add\n        /* \"#utility.yul\":2130:2145   */\n      swap1\n      pop\n        /* \"#utility.yul\":2106:2219   */\n      jump(tag_201)\n    tag_203:\n        /* \"#utility.yul\":2253:2254   */\n      0x00\n        /* \"#utility.yul\":2244:2250   */\n      dup5\n        /* \"#utility.yul\":2239:2242   */\n      dup5\n        /* \"#utility.yul\":2235:2251   */\n      add\n        /* \"#utility.yul\":2228:2255   */\n      mstore\n        /* \"#utility.yul\":2077:2261   */\n      pop\n        /* \"#utility.yul\":2015:2261   */\n      pop\n      pop\n      pop\n      jump\t// out\n        /* \"#utility.yul\":2267:2369   */\n    tag_117:\n        /* \"#utility.yul\":2308:2314   */\n      0x00\n        /* \"#utility.yul\":2359:2361   */\n      0x1f\n        /* \"#utility.yul\":2355:2362   */\n      not\n        /* \"#utility.yul\":2350:2352   */\n      0x1f\n        /* \"#utility.yul\":2343:2348   */\n      dup4\n        /* \"#utility.yul\":2339:2353   */\n      add\n        /* \"#utility.yul\":2335:2363   */\n      and\n        /* \"#utility.yul\":2325:2363   */\n      swap1\n      pop\n        /* \"#utility.yul\":2267:2369   */\n      swap2\n      swap1\n      pop\n      jump\t// out\n        /* \"#utility.yul\":2375:2752   */\n    tag_118:\n        /* \"#utility.yul\":2463:2466   */\n      0x00\n        /* \"#utility.yul\":2491:2530   */\n      tag_206\n        /* \"#utility.yul\":2524:2529   */\n      dup3\n        /* \"#utility.yul\":2491:2530   */\n      tag_114\n      jump\t// in\n    tag_206:\n        /* \"#utility.yul\":2546:2617   */\n      tag_207\n        /* \"#utility.yul\":2610:2616   */\n      dup2\n        /* \"#utility.yul\":2605:2608   */\n      dup6\n        /* \"#utility.yul\":2546:2617   */\n      tag_115\n      jump\t// in\n    tag_207:\n        /* \"#utility.yul\":2539:2617   */\n      swap4\n      pop\n        /* \"#utility.yul\":2626:2691   */\n      tag_208\n        /* \"#utility.yul\":2684:2690   */\n      dup2\n        /* \"#utility.yul\":2679:2682   */\n      dup6\n        /* \"#utility.yul\":2672:2676   */\n      0x20\n        /* \"#utility.yul\":2665:2670   */\n      dup7\n        /* \"#utility.yul\":2661:2677   */\n      add\n        /* \"#utility.yul\":2626:2691   */\n      tag_116\n      jump\t// in\n    tag_208:\n        /* \"#utility.yul\":2716:2745   */\n      tag_209\n        /* \"#utility.yul\":2738:2744   */\n      dup2\n        /* \"#utility.yul\":2716:2745   */\n      tag_117\n      jump\t// in\n    tag_209:\n        /* \"#utility.yul\":2711:2714   */\n      dup5\n        /* \"#utility.yul\":2707:2746   */\n      add\n        /* \"#utility.yul\":2700:2746   */\n      swap2\n      pop\n        /* \"#utility.yul\":2467:2752   */\n      pop\n        /* \"#utility.yul\":2375:2752   */\n      swap3\n      swap2\n      pop\n      pop\n      jump\t// out\n        /* \"#utility.yul\":2758:2851   */\n    tag_119:\n        /* \"#utility.yul\":2794:2801   */\n      0x00\n        /* \"#utility.yul\":2834:2844   */\n      0xffffffff\n        /* \"#utility.yul\":2827:2832   */\n      dup3\n        /* \"#utility.yul\":2823:2845   */\n      and\n        /* \"#utility.yul\":2812:2845   */\n      swap1\n      pop\n        /* \"#utility.yul\":2758:2851   */\n      swap2\n      swap1\n      pop\n      jump\t// out\n        /* \"#utility.yul\":2857:2972   */\n    tag_120:\n        /* \"#utility.yul\":2942:2965   */\n      tag_212\n        /* \"#utility.yul\":2959:2964   */\n      dup2\n        /* \"#utility.yul\":2942:2965   */\n      tag_119\n      jump\t// in\n    tag_212:\n        /* \"#utility.yul\":2937:2940   */\n      dup3\n        /* \"#utility.yul\":2930:2966   */\n      mstore\n        /* \"#utility.yul\":2857:2972   */\n      pop\n      pop\n      jump\t// out\n        /* \"#utility.yul\":2978:3725   */\n    tag_20:\n        /* \"#utility.yul\":3199:3203   */\n      0x00\n        /* \"#utility.yul\":3237:3240   */\n      0xa0\n        /* \"#utility.yul\":3226:3235   */\n      dup3\n        /* \"#utility.yul\":3222:3241   */\n      add\n        /* \"#utility.yul\":3214:3241   */\n      swap1\n      pop\n        /* \"#utility.yul\":3251:3322   */\n      tag_214\n        /* \"#utility.yul\":3319:3320   */\n      0x00\n        /* \"#utility.yul\":3308:3317   */\n      dup4\n        /* \"#utility.yul\":3304:3321   */\n      add\n        /* \"#utility.yul\":3295:3301   */\n      dup9\n        /* \"#utility.yul\":3251:3322   */\n      tag_113\n      jump\t// in\n    tag_214:\n        /* \"#utility.yul\":3369:3378   */\n      dup2\n        /* \"#utility.yul\":3363:3367   */\n      dup2\n        /* \"#utility.yul\":3359:3379   */\n      sub\n        /* \"#utility.yul\":3354:3356   */\n      0x20\n        /* \"#utility.yul\":3343:3352   */\n      dup4\n        /* \"#utility.yul\":3339:3357   */\n      add\n        /* \"#utility.yul\":3332:3380   */\n      mstore\n        /* \"#utility.yul\":3397:3475   */\n      tag_215\n        /* \"#utility.yul\":3470:3474   */\n      dup2\n        /* \"#utility.yul\":3461:3467   */\n      dup8\n        /* \"#utility.yul\":3397:3475   */\n      tag_118\n      jump\t// in\n    tag_215:\n        /* \"#utility.yul\":3389:3475   */\n      swap1\n      pop\n        /* \"#utility.yul\":3485:3555   */\n      tag_216\n        /* \"#utility.yul\":3551:3553   */\n      0x40\n        /* \"#utility.yul\":3540:3549   */\n      dup4\n        /* \"#utility.yul\":3536:3554   */\n      add\n        /* \"#utility.yul\":3527:3533   */\n      dup7\n        /* \"#utility.yul\":3485:3555   */\n      tag_120\n      jump\t// in\n    tag_216:\n        /* \"#utility.yul\":3565:3635   */\n      tag_217\n        /* \"#utility.yul\":3631:3633   */\n      0x60\n        /* \"#utility.yul\":3620:3629   */\n      dup4\n        /* \"#utility.yul\":3616:3634   */\n      add\n        /* \"#utility.yul\":3607:3613   */\n      dup6\n        /* \"#utility.yul\":3565:3635   */\n      tag_120\n      jump\t// in\n    tag_217:\n        /* \"#utility.yul\":3645:3718   */\n      tag_218\n        /* \"#utility.yul\":3713:3716   */\n      0x80\n        /* \"#utility.yul\":3702:3711   */\n      dup4\n        /* \"#utility.yul\":3698:3717   */\n      add\n        /* \"#utility.yul\":3689:3695   */\n      dup5\n        /* \"#utility.yul\":3645:3718   */\n      tag_113\n      jump\t// in\n    tag_218:\n        /* \"#utility.yul\":2978:3725   */\n      swap7\n      swap6\n      pop\n      pop\n      pop\n      pop\n      pop\n      pop\n      jump\t// out\n        /* \"#utility.yul\":3731:3868   */\n    tag_121:\n        /* \"#utility.yul\":3821:3827   */\n      0x00\n        /* \"#utility.yul\":3855:3860   */\n      dup2\n        /* \"#utility.yul\":3849:3861   */\n      mload\n        /* \"#utility.yul\":3839:3861   */\n      swap1\n      pop\n        /* \"#utility.yul\":3731:3868   */\n      swap2\n      swap1\n      pop\n      jump\t// out\n        /* \"#utility.yul\":3874:4081   */\n    tag_122:\n        /* \"#utility.yul\":3996:4007   */\n      0x00\n        /* \"#utility.yul\":4030:4036   */\n      dup3\n        /* \"#utility.yul\":4025:4028   */\n      dup3\n        /* \"#utility.yul\":4018:4037   */\n      mstore\n        /* \"#utility.yul\":4070:4074   */\n      0x20\n        /* \"#utility.yul\":4065:4068   */\n      dup3\n        /* \"#utility.yul\":4061:4075   */\n      add\n        /* \"#utility.yul\":4046:4075   */\n      swap1\n      pop\n        /* \"#utility.yul\":3874:4081   */\n      swap3\n      swap2\n      pop\n      pop\n      jump\t// out\n        /* \"#utility.yul\":4087:4242   */\n    tag_123:\n        /* \"#utility.yul\":4177:4181   */\n      0x00\n        /* \"#utility.yul\":4200:4203   */\n      dup2\n        /* \"#utility.yul\":4192:4203   */\n      swap1\n      pop\n        /* \"#utility.yul\":4230:4234   */\n      0x20\n        /* \"#utility.yul\":4225:4228   */\n      dup3\n        /* \"#utility.yul\":4221:4235   */\n      add\n        /* \"#utility.yul\":4213:4235   */\n      swap1\n      pop\n        /* \"#utility.yul\":4087:4242   */\n      swap2\n      swap1\n      pop\n      jump\t// out\n        /* \"#utility.yul\":4248:4356   */\n    tag_124:\n        /* \"#utility.yul\":4325:4349   */\n      tag_223\n        /* \"#utility.yul\":4343:4348   */\n      dup2\n        /* \"#utility.yul\":4325:4349   */\n      tag_107\n      jump\t// in\n    tag_223:\n        /* \"#utility.yul\":4320:4323   */\n      dup3\n        /* \"#utility.yul\":4313:4350   */\n      mstore\n        /* \"#utility.yul\":4248:4356   */\n      pop\n      pop\n      jump\t// out\n        /* \"#utility.yul\":4362:4521   */\n    tag_125:\n        /* \"#utility.yul\":4436:4447   */\n      0x00\n        /* \"#utility.yul\":4470:4476   */\n      dup3\n        /* \"#utility.yul\":4465:4468   */\n      dup3\n        /* \"#utility.yul\":4458:4477   */\n      mstore\n        /* \"#utility.yul\":4510:4514   */\n      0x20\n        /* \"#utility.yul\":4505:4508   */\n      dup3\n        /* \"#utility.yul\":4501:4515   */\n      add\n        /* \"#utility.yul\":4486:4515   */\n      swap1\n      pop\n        /* \"#utility.yul\":4362:4521   */\n      swap3\n      swap2\n      pop\n      pop\n      jump\t// out\n        /* \"#utility.yul\":4527:4884   */\n    tag_126:\n        /* \"#utility.yul\":4605:4608   */\n      0x00\n        /* \"#utility.yul\":4633:4672   */\n      tag_226\n        /* \"#utility.yul\":4666:4671   */\n      dup3\n        /* \"#utility.yul\":4633:4672   */\n      tag_114\n      jump\t// in\n    tag_226:\n        /* \"#utility.yul\":4688:4749   */\n      tag_227\n        /* \"#utility.yul\":4742:4748   */\n      dup2\n        /* \"#utility.yul\":4737:4740   */\n      dup6\n        /* \"#utility.yul\":4688:4749   */\n      tag_125\n      jump\t// in\n    tag_227:\n        /* \"#utility.yul\":4681:4749   */\n      swap4\n      pop\n        /* \"#utility.yul\":4758:4823   */\n      tag_228\n        /* \"#utility.yul\":4816:4822   */\n      dup2\n        /* \"#utility.yul\":4811:4814   */\n      dup6\n        /* \"#utility.yul\":4804:4808   */\n      0x20\n        /* \"#utility.yul\":4797:4802   */\n      dup7\n        /* \"#utility.yul\":4793:4809   */\n      add\n        /* \"#utility.yul\":4758:4823   */\n      tag_116\n      jump\t// in\n    tag_228:\n        /* \"#utility.yul\":4848:4877   */\n      tag_229\n        /* \"#utility.yul\":4870:4876   */\n      dup2\n        /* \"#utility.yul\":4848:4877   */\n      tag_117\n      jump\t// in\n    tag_229:\n        /* \"#utility.yul\":4843:4846   */\n      dup5\n        /* \"#utility.yul\":4839:4878   */\n      add\n        /* \"#utility.yul\":4832:4878   */\n      swap2\n      pop\n        /* \"#utility.yul\":4609:4884   */\n      pop\n        /* \"#utility.yul\":4527:4884   */\n      swap3\n      swap2\n      pop\n      pop\n      jump\t// out\n        /* \"#utility.yul\":4890:4995   */\n    tag_127:\n        /* \"#utility.yul\":4965:4988   */\n      tag_231\n        /* \"#utility.yul\":4982:4987   */\n      dup2\n        /* \"#utility.yul\":4965:4988   */\n      tag_119\n      jump\t// in\n    tag_231:\n        /* \"#utility.yul\":4960:4963   */\n      dup3\n        /* \"#utility.yul\":4953:4989   */\n      mstore\n        /* \"#utility.yul\":4890:4995   */\n      pop\n      pop\n      jump\t// out\n        /* \"#utility.yul\":5073:6210   */\n    tag_128:\n        /* \"#utility.yul\":5178:5181   */\n      0x00\n        /* \"#utility.yul\":5214:5218   */\n      0xa0\n        /* \"#utility.yul\":5209:5212   */\n      dup4\n        /* \"#utility.yul\":5205:5219   */\n      add\n        /* \"#utility.yul\":5306:5310   */\n      0x00\n        /* \"#utility.yul\":5299:5304   */\n      dup4\n        /* \"#utility.yul\":5295:5311   */\n      add\n        /* \"#utility.yul\":5289:5312   */\n      mload\n        /* \"#utility.yul\":5325:5388   */\n      tag_233\n        /* \"#utility.yul\":5382:5386   */\n      0x00\n        /* \"#utility.yul\":5377:5380   */\n      dup7\n        /* \"#utility.yul\":5373:5387   */\n      add\n        /* \"#utility.yul\":5359:5371   */\n      dup3\n        /* \"#utility.yul\":5325:5388   */\n      tag_124\n      jump\t// in\n    tag_233:\n        /* \"#utility.yul\":5229:5398   */\n      pop\n        /* \"#utility.yul\":5487:5491   */\n      0x20\n        /* \"#utility.yul\":5480:5485   */\n      dup4\n        /* \"#utility.yul\":5476:5492   */\n      add\n        /* \"#utility.yul\":5470:5493   */\n      mload\n        /* \"#utility.yul\":5540:5543   */\n      dup5\n        /* \"#utility.yul\":5534:5538   */\n      dup3\n        /* \"#utility.yul\":5530:5544   */\n      sub\n        /* \"#utility.yul\":5523:5527   */\n      0x20\n        /* \"#utility.yul\":5518:5521   */\n      dup7\n        /* \"#utility.yul\":5514:5528   */\n      add\n        /* \"#utility.yul\":5507:5545   */\n      mstore\n        /* \"#utility.yul\":5566:5639   */\n      tag_234\n        /* \"#utility.yul\":5634:5638   */\n      dup3\n        /* \"#utility.yul\":5620:5632   */\n      dup3\n        /* \"#utility.yul\":5566:5639   */\n      tag_126\n      jump\t// in\n    tag_234:\n        /* \"#utility.yul\":5558:5639   */\n      swap2\n      pop\n        /* \"#utility.yul\":5408:5650   */\n      pop\n        /* \"#utility.yul\":5737:5741   */\n      0x40\n        /* \"#utility.yul\":5730:5735   */\n      dup4\n        /* \"#utility.yul\":5726:5742   */\n      add\n        /* \"#utility.yul\":5720:5743   */\n      mload\n        /* \"#utility.yul\":5756:5817   */\n      tag_235\n        /* \"#utility.yul\":5811:5815   */\n      0x40\n        /* \"#utility.yul\":5806:5809   */\n      dup7\n        /* \"#utility.yul\":5802:5816   */\n      add\n        /* \"#utility.yul\":5788:5800   */\n      dup3\n        /* \"#utility.yul\":5756:5817   */\n      tag_127\n      jump\t// in\n    tag_235:\n        /* \"#utility.yul\":5660:5827   */\n      pop\n        /* \"#utility.yul\":5912:5916   */\n      0x60\n        /* \"#utility.yul\":5905:5910   */\n      dup4\n        /* \"#utility.yul\":5901:5917   */\n      add\n        /* \"#utility.yul\":5895:5918   */\n      mload\n        /* \"#utility.yul\":5931:5992   */\n      tag_236\n        /* \"#utility.yul\":5986:5990   */\n      0x60\n        /* \"#utility.yul\":5981:5984   */\n      dup7\n        /* \"#utility.yul\":5977:5991   */\n      add\n        /* \"#utility.yul\":5963:5975   */\n      dup3\n        /* \"#utility.yul\":5931:5992   */\n      tag_127\n      jump\t// in\n    tag_236:\n        /* \"#utility.yul\":5837:6002   */\n      pop\n        /* \"#utility.yul\":6091:6095   */\n      0x80\n        /* \"#utility.yul\":6084:6089   */\n      dup4\n        /* \"#utility.yul\":6080:6096   */\n      add\n        /* \"#utility.yul\":6074:6097   */\n      mload\n        /* \"#utility.yul\":6110:6173   */\n      tag_237\n        /* \"#utility.yul\":6167:6171   */\n      0x80\n        /* \"#utility.yul\":6162:6165   */\n      dup7\n        /* \"#utility.yul\":6158:6172   */\n      add\n        /* \"#utility.yul\":6144:6156   */\n      dup3\n        /* \"#utility.yul\":6110:6173   */\n      tag_124\n      jump\t// in\n    tag_237:\n        /* \"#utility.yul\":6012:6183   */\n      pop\n        /* \"#utility.yul\":6200:6204   */\n      dup1\n        /* \"#utility.yul\":6193:6204   */\n      swap2\n      pop\n        /* \"#utility.yul\":5183:6210   */\n      pop\n        /* \"#utility.yul\":5073:6210   */\n      swap3\n      swap2\n      pop\n      pop\n      jump\t// out\n        /* \"#utility.yul\":6216:6464   */\n    tag_129:\n        /* \"#utility.yul\":6331:6341   */\n      0x00\n        /* \"#utility.yul\":6366:6458   */\n      tag_239\n        /* \"#utility.yul\":6454:6457   */\n      dup4\n        /* \"#utility.yul\":6446:6452   */\n      dup4\n        /* \"#utility.yul\":6366:6458   */\n      tag_128\n      jump\t// in\n    tag_239:\n        /* \"#utility.yul\":6352:6458   */\n      swap1\n      pop\n        /* \"#utility.yul\":6216:6464   */\n      swap3\n      swap2\n      pop\n      pop\n      jump\t// out\n        /* \"#utility.yul\":6470:6606   */\n    tag_130:\n        /* \"#utility.yul\":6563:6567   */\n      0x00\n        /* \"#utility.yul\":6595:6599   */\n      0x20\n        /* \"#utility.yul\":6590:6593   */\n      dup3\n        /* \"#utility.yul\":6586:6600   */\n      add\n        /* \"#utility.yul\":6578:6600   */\n      swap1\n      pop\n        /* \"#utility.yul\":6470:6606   */\n      swap2\n      swap1\n      pop\n      jump\t// out\n        /* \"#utility.yul\":6688:7783   */\n    tag_131:\n        /* \"#utility.yul\":6853:6856   */\n      0x00\n        /* \"#utility.yul\":6882:6959   */\n      tag_242\n        /* \"#utility.yul\":6953:6958   */\n      dup3\n        /* \"#utility.yul\":6882:6959   */\n      tag_121\n      jump\t// in\n    tag_242:\n        /* \"#utility.yul\":6975:7084   */\n      tag_243\n        /* \"#utility.yul\":7077:7083   */\n      dup2\n        /* \"#utility.yul\":7072:7075   */\n      dup6\n        /* \"#utility.yul\":6975:7084   */\n      tag_122\n      jump\t// in\n    tag_243:\n        /* \"#utility.yul\":6968:7084   */\n      swap4\n      pop\n        /* \"#utility.yul\":7110:7113   */\n      dup4\n        /* \"#utility.yul\":7155:7159   */\n      0x20\n        /* \"#utility.yul\":7147:7153   */\n      dup3\n        /* \"#utility.yul\":7143:7160   */\n      mul\n        /* \"#utility.yul\":7138:7141   */\n      dup6\n        /* \"#utility.yul\":7134:7161   */\n      add\n        /* \"#utility.yul\":7185:7264   */\n      tag_244\n        /* \"#utility.yul\":7258:7263   */\n      dup6\n        /* \"#utility.yul\":7185:7264   */\n      tag_123\n      jump\t// in\n    tag_244:\n        /* \"#utility.yul\":7287:7294   */\n      dup1\n        /* \"#utility.yul\":7318:7319   */\n      0x00\n        /* \"#utility.yul\":7303:7738   */\n    tag_245:\n        /* \"#utility.yul\":7328:7334   */\n      dup6\n        /* \"#utility.yul\":7325:7326   */\n      dup2\n        /* \"#utility.yul\":7322:7335   */\n      lt\n        /* \"#utility.yul\":7303:7738   */\n      iszero\n      tag_247\n      jumpi\n        /* \"#utility.yul\":7399:7408   */\n      dup5\n        /* \"#utility.yul\":7393:7397   */\n      dup5\n        /* \"#utility.yul\":7389:7409   */\n      sub\n        /* \"#utility.yul\":7384:7387   */\n      dup10\n        /* \"#utility.yul\":7377:7410   */\n      mstore\n        /* \"#utility.yul\":7450:7456   */\n      dup2\n        /* \"#utility.yul\":7444:7457   */\n      mload\n        /* \"#utility.yul\":7478:7588   */\n      tag_248\n        /* \"#utility.yul\":7583:7587   */\n      dup6\n        /* \"#utility.yul\":7568:7581   */\n      dup3\n        /* \"#utility.yul\":7478:7588   */\n      tag_129\n      jump\t// in\n    tag_248:\n        /* \"#utility.yul\":7470:7588   */\n      swap5\n      pop\n        /* \"#utility.yul\":7611:7694   */\n      tag_249\n        /* \"#utility.yul\":7687:7693   */\n      dup4\n        /* \"#utility.yul\":7611:7694   */\n      tag_130\n      jump\t// in\n    tag_249:\n        /* \"#utility.yul\":7601:7694   */\n      swap3\n      pop\n        /* \"#utility.yul\":7723:7727   */\n      0x20\n        /* \"#utility.yul\":7718:7721   */\n      dup11\n        /* \"#utility.yul\":7714:7728   */\n      add\n        /* \"#utility.yul\":7707:7728   */\n      swap10\n      pop\n        /* \"#utility.yul\":7363:7738   */\n      pop\n        /* \"#utility.yul\":7350:7351   */\n      0x01\n        /* \"#utility.yul\":7347:7348   */\n      dup2\n        /* \"#utility.yul\":7343:7352   */\n      add\n        /* \"#utility.yul\":7338:7352   */\n      swap1\n      pop\n        /* \"#utility.yul\":7303:7738   */\n      jump(tag_245)\n    tag_247:\n        /* \"#utility.yul\":7307:7321   */\n      pop\n        /* \"#utility.yul\":7754:7758   */\n      dup3\n        /* \"#utility.yul\":7747:7758   */\n      swap8\n      pop\n        /* \"#utility.yul\":7774:7777   */\n      dup8\n        /* \"#utility.yul\":7767:7777   */\n      swap6\n      pop\n        /* \"#utility.yul\":6858:7783   */\n      pop\n      pop\n      pop\n      pop\n      pop\n        /* \"#utility.yul\":6688:7783   */\n      swap3\n      swap2\n      pop\n      pop\n      jump\t// out\n        /* \"#utility.yul\":7789:8254   */\n    tag_25:\n        /* \"#utility.yul\":7978:7982   */\n      0x00\n        /* \"#utility.yul\":8016:8018   */\n      0x20\n        /* \"#utility.yul\":8005:8014   */\n      dup3\n        /* \"#utility.yul\":8001:8019   */\n      add\n        /* \"#utility.yul\":7993:8019   */\n      swap1\n      pop\n        /* \"#utility.yul\":8065:8074   */\n      dup2\n        /* \"#utility.yul\":8059:8063   */\n      dup2\n        /* \"#utility.yul\":8055:8075   */\n      sub\n        /* \"#utility.yul\":8051:8052   */\n      0x00\n        /* \"#utility.yul\":8040:8049   */\n      dup4\n        /* \"#utility.yul\":8036:8053   */\n      add\n        /* \"#utility.yul\":8029:8076   */\n      mstore\n        /* \"#utility.yul\":8093:8247   */\n      tag_251\n        /* \"#utility.yul\":8242:8246   */\n      dup2\n        /* \"#utility.yul\":8233:8239   */\n      dup5\n        /* \"#utility.yul\":8093:8247   */\n      tag_131\n      jump\t// in\n    tag_251:\n        /* \"#utility.yul\":8085:8247   */\n      swap1\n      pop\n        /* \"#utility.yul\":7789:8254   */\n      swap3\n      swap2\n      pop\n      pop\n      jump\t// out\n        /* \"#utility.yul\":8260:8393   */\n    tag_132:\n        /* \"#utility.yul\":8346:8352   */\n      0x00\n        /* \"#utility.yul\":8380:8385   */\n      dup2\n        /* \"#utility.yul\":8374:8386   */\n      mload\n        /* \"#utility.yul\":8364:8386   */\n      swap1\n      pop\n        /* \"#utility.yul\":8260:8393   */\n      swap2\n      swap1\n      pop\n      jump\t// out\n        /* \"#utility.yul\":8399:8602   */\n    tag_133:\n        /* \"#utility.yul\":8517:8528   */\n      0x00\n        /* \"#utility.yul\":8551:8557   */\n      dup3\n        /* \"#utility.yul\":8546:8549   */\n      dup3\n        /* \"#utility.yul\":8539:8558   */\n      mstore\n        /* \"#utility.yul\":8591:8595   */\n      0x20\n        /* \"#utility.yul\":8586:8589   */\n      dup3\n        /* \"#utility.yul\":8582:8596   */\n      add\n        /* \"#utility.yul\":8567:8596   */\n      swap1\n      pop\n        /* \"#utility.yul\":8399:8602   */\n      swap3\n      swap2\n      pop\n      pop\n      jump\t// out\n        /* \"#utility.yul\":8608:8759   */\n    tag_134:\n        /* \"#utility.yul\":8694:8698   */\n      0x00\n        /* \"#utility.yul\":8717:8720   */\n      dup2\n        /* \"#utility.yul\":8709:8720   */\n      swap1\n      pop\n        /* \"#utility.yul\":8747:8751   */\n      0x20\n        /* \"#utility.yul\":8742:8745   */\n      dup3\n        /* \"#utility.yul\":8738:8752   */\n      add\n        /* \"#utility.yul\":8730:8752   */\n      swap1\n      pop\n        /* \"#utility.yul\":8608:8759   */\n      swap2\n      swap1\n      pop\n      jump\t// out\n        /* \"#utility.yul\":8765:8873   */\n    tag_135:\n        /* \"#utility.yul\":8842:8866   */\n      tag_256\n        /* \"#utility.yul\":8860:8865   */\n      dup2\n        /* \"#utility.yul\":8842:8866   */\n      tag_111\n      jump\t// in\n    tag_256:\n        /* \"#utility.yul\":8837:8840   */\n      dup3\n        /* \"#utility.yul\":8830:8867   */\n      mstore\n        /* \"#utility.yul\":8765:8873   */\n      pop\n      pop\n      jump\t// out\n        /* \"#utility.yul\":8943:9613   */\n    tag_136:\n        /* \"#utility.yul\":9068:9072   */\n      0x60\n        /* \"#utility.yul\":9063:9066   */\n      dup3\n        /* \"#utility.yul\":9059:9073   */\n      add\n        /* \"#utility.yul\":9159:9163   */\n      0x00\n        /* \"#utility.yul\":9152:9157   */\n      dup3\n        /* \"#utility.yul\":9148:9164   */\n      add\n        /* \"#utility.yul\":9142:9165   */\n      mload\n        /* \"#utility.yul\":9178:9241   */\n      tag_258\n        /* \"#utility.yul\":9235:9239   */\n      0x00\n        /* \"#utility.yul\":9230:9233   */\n      dup6\n        /* \"#utility.yul\":9226:9240   */\n      add\n        /* \"#utility.yul\":9212:9224   */\n      dup3\n        /* \"#utility.yul\":9178:9241   */\n      tag_135\n      jump\t// in\n    tag_258:\n        /* \"#utility.yul\":9083:9251   */\n      pop\n        /* \"#utility.yul\":9338:9342   */\n      0x20\n        /* \"#utility.yul\":9331:9336   */\n      dup3\n        /* \"#utility.yul\":9327:9343   */\n      add\n        /* \"#utility.yul\":9321:9344   */\n      mload\n        /* \"#utility.yul\":9357:9420   */\n      tag_259\n        /* \"#utility.yul\":9414:9418   */\n      0x20\n        /* \"#utility.yul\":9409:9412   */\n      dup6\n        /* \"#utility.yul\":9405:9419   */\n      add\n        /* \"#utility.yul\":9391:9403   */\n      dup3\n        /* \"#utility.yul\":9357:9420   */\n      tag_124\n      jump\t// in\n    tag_259:\n        /* \"#utility.yul\":9261:9430   */\n      pop\n        /* \"#utility.yul\":9514:9518   */\n      0x40\n        /* \"#utility.yul\":9507:9512   */\n      dup3\n        /* \"#utility.yul\":9503:9519   */\n      add\n        /* \"#utility.yul\":9497:9520   */\n      mload\n        /* \"#utility.yul\":9533:9596   */\n      tag_260\n        /* \"#utility.yul\":9590:9594   */\n      0x40\n        /* \"#utility.yul\":9585:9588   */\n      dup6\n        /* \"#utility.yul\":9581:9595   */\n      add\n        /* \"#utility.yul\":9567:9579   */\n      dup3\n        /* \"#utility.yul\":9533:9596   */\n      tag_124\n      jump\t// in\n    tag_260:\n        /* \"#utility.yul\":9440:9606   */\n      pop\n        /* \"#utility.yul\":9037:9613   */\n      pop\n        /* \"#utility.yul\":8943:9613   */\n      pop\n      pop\n      jump\t// out\n        /* \"#utility.yul\":9619:9874   */\n    tag_137:\n        /* \"#utility.yul\":9726:9736   */\n      0x00\n        /* \"#utility.yul\":9747:9831   */\n      tag_262\n        /* \"#utility.yul\":9827:9830   */\n      dup4\n        /* \"#utility.yul\":9819:9825   */\n      dup4\n        /* \"#utility.yul\":9747:9831   */\n      tag_136\n      jump\t// in\n    tag_262:\n        /* \"#utility.yul\":9863:9867   */\n      0x60\n        /* \"#utility.yul\":9858:9861   */\n      dup4\n        /* \"#utility.yul\":9854:9868   */\n      add\n        /* \"#utility.yul\":9840:9868   */\n      swap1\n      pop\n        /* \"#utility.yul\":9619:9874   */\n      swap3\n      swap2\n      pop\n      pop\n      jump\t// out\n        /* \"#utility.yul\":9880:10012   */\n    tag_138:\n        /* \"#utility.yul\":9969:9973   */\n      0x00\n        /* \"#utility.yul\":10001:10005   */\n      0x20\n        /* \"#utility.yul\":9996:9999   */\n      dup3\n        /* \"#utility.yul\":9992:10006   */\n      add\n        /* \"#utility.yul\":9984:10006   */\n      swap1\n      pop\n        /* \"#utility.yul\":9880:10012   */\n      swap2\n      swap1\n      pop\n      jump\t// out\n        /* \"#utility.yul\":10086:10970   */\n    tag_139:\n        /* \"#utility.yul\":10243:10246   */\n      0x00\n        /* \"#utility.yul\":10272:10345   */\n      tag_265\n        /* \"#utility.yul\":10339:10344   */\n      dup3\n        /* \"#utility.yul\":10272:10345   */\n      tag_132\n      jump\t// in\n    tag_265:\n        /* \"#utility.yul\":10361:10466   */\n      tag_266\n        /* \"#utility.yul\":10459:10465   */\n      dup2\n        /* \"#utility.yul\":10454:10457   */\n      dup6\n        /* \"#utility.yul\":10361:10466   */\n      tag_133\n      jump\t// in\n    tag_266:\n        /* \"#utility.yul\":10354:10466   */\n      swap4\n      pop\n        /* \"#utility.yul\":10490:10565   */\n      tag_267\n        /* \"#utility.yul\":10559:10564   */\n      dup4\n        /* \"#utility.yul\":10490:10565   */\n      tag_134\n      jump\t// in\n    tag_267:\n        /* \"#utility.yul\":10588:10595   */\n      dup1\n        /* \"#utility.yul\":10619:10620   */\n      0x00\n        /* \"#utility.yul\":10604:10945   */\n    tag_268:\n        /* \"#utility.yul\":10629:10635   */\n      dup4\n        /* \"#utility.yul\":10626:10627   */\n      dup2\n        /* \"#utility.yul\":10623:10636   */\n      lt\n        /* \"#utility.yul\":10604:10945   */\n      iszero\n      tag_270\n      jumpi\n        /* \"#utility.yul\":10705:10711   */\n      dup2\n        /* \"#utility.yul\":10699:10712   */\n      mload\n        /* \"#utility.yul\":10732:10833   */\n      tag_271\n        /* \"#utility.yul\":10829:10832   */\n      dup9\n        /* \"#utility.yul\":10814:10827   */\n      dup3\n        /* \"#utility.yul\":10732:10833   */\n      tag_137\n      jump\t// in\n    tag_271:\n        /* \"#utility.yul\":10725:10833   */\n      swap8\n      pop\n        /* \"#utility.yul\":10856:10935   */\n      tag_272\n        /* \"#utility.yul\":10928:10934   */\n      dup4\n        /* \"#utility.yul\":10856:10935   */\n      tag_138\n      jump\t// in\n    tag_272:\n        /* \"#utility.yul\":10846:10935   */\n      swap3\n      pop\n        /* \"#utility.yul\":10664:10945   */\n      pop\n        /* \"#utility.yul\":10651:10652   */\n      0x01\n        /* \"#utility.yul\":10648:10649   */\n      dup2\n        /* \"#utility.yul\":10644:10653   */\n      add\n        /* \"#utility.yul\":10639:10653   */\n      swap1\n      pop\n        /* \"#utility.yul\":10604:10945   */\n      jump(tag_268)\n    tag_270:\n        /* \"#utility.yul\":10608:10622   */\n      pop\n        /* \"#utility.yul\":10961:10964   */\n      dup6\n        /* \"#utility.yul\":10954:10964   */\n      swap4\n      pop\n        /* \"#utility.yul\":10248:10970   */\n      pop\n      pop\n      pop\n        /* \"#utility.yul\":10086:10970   */\n      swap3\n      swap2\n      pop\n      pop\n      jump\t// out\n        /* \"#utility.yul\":10976:11425   */\n    tag_30:\n        /* \"#utility.yul\":11157:11161   */\n      0x00\n        /* \"#utility.yul\":11195:11197   */\n      0x20\n        /* \"#utility.yul\":11184:11193   */\n      dup3\n        /* \"#utility.yul\":11180:11198   */\n      add\n        /* \"#utility.yul\":11172:11198   */\n      swap1\n      pop\n        /* \"#utility.yul\":11244:11253   */\n      dup2\n        /* \"#utility.yul\":11238:11242   */\n      dup2\n        /* \"#utility.yul\":11234:11254   */\n      sub\n        /* \"#utility.yul\":11230:11231   */\n      0x00\n        /* \"#utility.yul\":11219:11228   */\n      dup4\n        /* \"#utility.yul\":11215:11232   */\n      add\n        /* \"#utility.yul\":11208:11255   */\n      mstore\n        /* \"#utility.yul\":11272:11418   */\n      tag_274\n        /* \"#utility.yul\":11413:11417   */\n      dup2\n        /* \"#utility.yul\":11404:11410   */\n      dup5\n        /* \"#utility.yul\":11272:11418   */\n      tag_139\n      jump\t// in\n    tag_274:\n        /* \"#utility.yul\":11264:11418   */\n      swap1\n      pop\n        /* \"#utility.yul\":10976:11425   */\n      swap3\n      swap2\n      pop\n      pop\n      jump\t// out\n        /* \"#utility.yul\":11431:11905   */\n    tag_33:\n        /* \"#utility.yul\":11499:11505   */\n      0x00\n        /* \"#utility.yul\":11507:11513   */\n      dup1\n        /* \"#utility.yul\":11556:11558   */\n      0x40\n        /* \"#utility.yul\":11544:11553   */\n      dup4\n        /* \"#utility.yul\":11535:11542   */\n      dup6\n        /* \"#utility.yul\":11531:11554   */\n      sub\n        /* \"#utility.yul\":11527:11559   */\n      slt\n        /* \"#utility.yul\":11524:11643   */\n      iszero\n      tag_276\n      jumpi\n        /* \"#utility.yul\":11562:11641   */\n      tag_277\n      tag_105\n      jump\t// in\n    tag_277:\n        /* \"#utility.yul\":11524:11643   */\n    tag_276:\n        /* \"#utility.yul\":11682:11683   */\n      0x00\n        /* \"#utility.yul\":11707:11760   */\n      tag_278\n        /* \"#utility.yul\":11752:11759   */\n      dup6\n        /* \"#utility.yul\":11743:11749   */\n      dup3\n        /* \"#utility.yul\":11732:11741   */\n      dup7\n        /* \"#utility.yul\":11728:11750   */\n      add\n        /* \"#utility.yul\":11707:11760   */\n      tag_109\n      jump\t// in\n    tag_278:\n        /* \"#utility.yul\":11697:11760   */\n      swap3\n      pop\n        /* \"#utility.yul\":11653:11770   */\n      pop\n        /* \"#utility.yul\":11809:11811   */\n      0x20\n        /* \"#utility.yul\":11835:11888   */\n      tag_279\n        /* \"#utility.yul\":11880:11887   */\n      dup6\n        /* \"#utility.yul\":11871:11877   */\n      dup3\n        /* \"#utility.yul\":11860:11869   */\n      dup7\n        /* \"#utility.yul\":11856:11878   */\n      add\n        /* \"#utility.yul\":11835:11888   */\n      tag_109\n      jump\t// in\n    tag_279:\n        /* \"#utility.yul\":11825:11888   */\n      swap2\n      pop\n        /* \"#utility.yul\":11780:11898   */\n      pop\n        /* \"#utility.yul\":11431:11905   */\n      swap3\n      pop\n      swap3\n      swap1\n      pop\n      jump\t// out\n        /* \"#utility.yul\":11911:12028   */\n    tag_140:\n        /* \"#utility.yul\":12020:12021   */\n      0x00\n        /* \"#utility.yul\":12017:12018   */\n      dup1\n        /* \"#utility.yul\":12010:12022   */\n      revert\n        /* \"#utility.yul\":12034:12151   */\n    tag_141:\n        /* \"#utility.yul\":12143:12144   */\n      0x00\n        /* \"#utility.yul\":12140:12141   */\n      dup1\n        /* \"#utility.yul\":12133:12145   */\n      revert\n        /* \"#utility.yul\":12157:12337   */\n    tag_142:\n        /* \"#utility.yul\":12205:12282   */\n      0x4e487b7100000000000000000000000000000000000000000000000000000000\n        /* \"#utility.yul\":12202:12203   */\n      0x00\n        /* \"#utility.yul\":12195:12283   */\n      mstore\n        /* \"#utility.yul\":12302:12306   */\n      0x41\n        /* \"#utility.yul\":12299:12300   */\n      0x04\n        /* \"#utility.yul\":12292:12307   */\n      mstore\n        /* \"#utility.yul\":12326:12330   */\n      0x24\n        /* \"#utility.yul\":12323:12324   */\n      0x00\n        /* \"#utility.yul\":12316:12331   */\n      revert\n        /* \"#utility.yul\":12343:12624   */\n    tag_143:\n        /* \"#utility.yul\":12426:12453   */\n      tag_284\n        /* \"#utility.yul\":12448:12452   */\n      dup3\n        /* \"#utility.yul\":12426:12453   */\n      tag_117\n      jump\t// in\n    tag_284:\n        /* \"#utility.yul\":12418:12424   */\n      dup2\n        /* \"#utility.yul\":12414:12454   */\n      add\n        /* \"#utility.yul\":12556:12562   */\n      dup2\n        /* \"#utility.yul\":12544:12554   */\n      dup2\n        /* \"#utility.yul\":12541:12563   */\n      lt\n        /* \"#utility.yul\":12520:12538   */\n      0xffffffffffffffff\n        /* \"#utility.yul\":12508:12518   */\n      dup3\n        /* \"#utility.yul\":12505:12539   */\n      gt\n        /* \"#utility.yul\":12502:12564   */\n      or\n        /* \"#utility.yul\":12499:12587   */\n      iszero\n      tag_285\n      jumpi\n        /* \"#utility.yul\":12567:12585   */\n      tag_286\n      tag_142\n      jump\t// in\n    tag_286:\n        /* \"#utility.yul\":12499:12587   */\n    tag_285:\n        /* \"#utility.yul\":12607:12617   */\n      dup1\n        /* \"#utility.yul\":12603:12605   */\n      0x40\n        /* \"#utility.yul\":12596:12618   */\n      mstore\n        /* \"#utility.yul\":12386:12624   */\n      pop\n        /* \"#utility.yul\":12343:12624   */\n      pop\n      pop\n      jump\t// out\n        /* \"#utility.yul\":12630:12759   */\n    tag_144:\n        /* \"#utility.yul\":12664:12670   */\n      0x00\n        /* \"#utility.yul\":12691:12711   */\n      tag_288\n      tag_104\n      jump\t// in\n    tag_288:\n        /* \"#utility.yul\":12681:12711   */\n      swap1\n      pop\n        /* \"#utility.yul\":12720:12753   */\n      tag_289\n        /* \"#utility.yul\":12748:12752   */\n      dup3\n        /* \"#utility.yul\":12740:12746   */\n      dup3\n        /* \"#utility.yul\":12720:12753   */\n      tag_143\n      jump\t// in\n    tag_289:\n        /* \"#utility.yul\":12630:12759   */\n      swap2\n      swap1\n      pop\n      jump\t// out\n        /* \"#utility.yul\":12765:13073   */\n    tag_145:\n        /* \"#utility.yul\":12827:12831   */\n      0x00\n        /* \"#utility.yul\":12917:12935   */\n      0xffffffffffffffff\n        /* \"#utility.yul\":12909:12915   */\n      dup3\n        /* \"#utility.yul\":12906:12936   */\n      gt\n        /* \"#utility.yul\":12903:12959   */\n      iszero\n      tag_291\n      jumpi\n        /* \"#utility.yul\":12939:12957   */\n      tag_292\n      tag_142\n      jump\t// in\n    tag_292:\n        /* \"#utility.yul\":12903:12959   */\n    tag_291:\n        /* \"#utility.yul\":12977:13006   */\n      tag_293\n        /* \"#utility.yul\":12999:13005   */\n      dup3\n        /* \"#utility.yul\":12977:13006   */\n      tag_117\n      jump\t// in\n    tag_293:\n        /* \"#utility.yul\":12969:13006   */\n      swap1\n      pop\n        /* \"#utility.yul\":13061:13065   */\n      0x20\n        /* \"#utility.yul\":13055:13059   */\n      dup2\n        /* \"#utility.yul\":13051:13066   */\n      add\n        /* \"#utility.yul\":13043:13066   */\n      swap1\n      pop\n        /* \"#utility.yul\":12765:13073   */\n      swap2\n      swap1\n      pop\n      jump\t// out\n        /* \"#utility.yul\":13079:13225   */\n    tag_146:\n        /* \"#utility.yul\":13176:13182   */\n      dup3\n        /* \"#utility.yul\":13171:13174   */\n      dup2\n        /* \"#utility.yul\":13166:13169   */\n      dup4\n        /* \"#utility.yul\":13153:13183   */\n      calldatacopy\n        /* \"#utility.yul\":13217:13218   */\n      0x00\n        /* \"#utility.yul\":13208:13214   */\n      dup4\n        /* \"#utility.yul\":13203:13206   */\n      dup4\n        /* \"#utility.yul\":13199:13215   */\n      add\n        /* \"#utility.yul\":13192:13219   */\n      mstore\n        /* \"#utility.yul\":13079:13225   */\n      pop\n      pop\n      pop\n      jump\t// out\n        /* \"#utility.yul\":13231:13656   */\n    tag_147:\n        /* \"#utility.yul\":13309:13314   */\n      0x00\n        /* \"#utility.yul\":13334:13400   */\n      tag_296\n        /* \"#utility.yul\":13350:13399   */\n      tag_297\n        /* \"#utility.yul\":13392:13398   */\n      dup5\n        /* \"#utility.yul\":13350:13399   */\n      tag_145\n      jump\t// in\n    tag_297:\n        /* \"#utility.yul\":13334:13400   */\n      tag_144\n      jump\t// in\n    tag_296:\n        /* \"#utility.yul\":13325:13400   */\n      swap1\n      pop\n        /* \"#utility.yul\":13423:13429   */\n      dup3\n        /* \"#utility.yul\":13416:13421   */\n      dup2\n        /* \"#utility.yul\":13409:13430   */\n      mstore\n        /* \"#utility.yul\":13461:13465   */\n      0x20\n        /* \"#utility.yul\":13454:13459   */\n      dup2\n        /* \"#utility.yul\":13450:13466   */\n      add\n        /* \"#utility.yul\":13499:13502   */\n      dup5\n        /* \"#utility.yul\":13490:13496   */\n      dup5\n        /* \"#utility.yul\":13485:13488   */\n      dup5\n        /* \"#utility.yul\":13481:13497   */\n      add\n        /* \"#utility.yul\":13478:13503   */\n      gt\n        /* \"#utility.yul\":13475:13587   */\n      iszero\n      tag_298\n      jumpi\n        /* \"#utility.yul\":13506:13585   */\n      tag_299\n      tag_141\n      jump\t// in\n    tag_299:\n        /* \"#utility.yul\":13475:13587   */\n    tag_298:\n        /* \"#utility.yul\":13596:13650   */\n      tag_300\n        /* \"#utility.yul\":13643:13649   */\n      dup5\n        /* \"#utility.yul\":13638:13641   */\n      dup3\n        /* \"#utility.yul\":13633:13636   */\n      dup6\n        /* \"#utility.yul\":13596:13650   */\n      tag_146\n      jump\t// in\n    tag_300:\n        /* \"#utility.yul\":13315:13656   */\n      pop\n        /* \"#utility.yul\":13231:13656   */\n      swap4\n      swap3\n      pop\n      pop\n      pop\n      jump\t// out\n        /* \"#utility.yul\":13676:14016   */\n    tag_148:\n        /* \"#utility.yul\":13732:13737   */\n      0x00\n        /* \"#utility.yul\":13781:13784   */\n      dup3\n        /* \"#utility.yul\":13774:13778   */\n      0x1f\n        /* \"#utility.yul\":13766:13772   */\n      dup4\n        /* \"#utility.yul\":13762:13779   */\n      add\n        /* \"#utility.yul\":13758:13785   */\n      slt\n        /* \"#utility.yul\":13748:13870   */\n      tag_302\n      jumpi\n        /* \"#utility.yul\":13789:13868   */\n      tag_303\n      tag_140\n      jump\t// in\n    tag_303:\n        /* \"#utility.yul\":13748:13870   */\n    tag_302:\n        /* \"#utility.yul\":13906:13912   */\n      dup2\n        /* \"#utility.yul\":13893:13913   */\n      calldataload\n        /* \"#utility.yul\":13931:14010   */\n      tag_304\n        /* \"#utility.yul\":14006:14009   */\n      dup5\n        /* \"#utility.yul\":13998:14004   */\n      dup3\n        /* \"#utility.yul\":13991:13995   */\n      0x20\n        /* \"#utility.yul\":13983:13989   */\n      dup7\n        /* \"#utility.yul\":13979:13996   */\n      add\n        /* \"#utility.yul\":13931:14010   */\n      tag_147\n      jump\t// in\n    tag_304:\n        /* \"#utility.yul\":13922:14010   */\n      swap2\n      pop\n        /* \"#utility.yul\":13738:14016   */\n      pop\n        /* \"#utility.yul\":13676:14016   */\n      swap3\n      swap2\n      pop\n      pop\n      jump\t// out\n        /* \"#utility.yul\":14022:14142   */\n    tag_149:\n        /* \"#utility.yul\":14094:14117   */\n      tag_306\n        /* \"#utility.yul\":14111:14116   */\n      dup2\n        /* \"#utility.yul\":14094:14117   */\n      tag_119\n      jump\t// in\n    tag_306:\n        /* \"#utility.yul\":14087:14092   */\n      dup2\n        /* \"#utility.yul\":14084:14118   */\n      eq\n        /* \"#utility.yul\":14074:14136   */\n      tag_307\n      jumpi\n        /* \"#utility.yul\":14132:14133   */\n      0x00\n        /* \"#utility.yul\":14129:14130   */\n      dup1\n        /* \"#utility.yul\":14122:14134   */\n      revert\n        /* \"#utility.yul\":14074:14136   */\n    tag_307:\n        /* \"#utility.yul\":14022:14142   */\n      pop\n      jump\t// out\n        /* \"#utility.yul\":14148:14285   */\n    tag_150:\n        /* \"#utility.yul\":14193:14198   */\n      0x00\n        /* \"#utility.yul\":14231:14237   */\n      dup2\n        /* \"#utility.yul\":14218:14238   */\n      calldataload\n        /* \"#utility.yul\":14209:14238   */\n      swap1\n      pop\n        /* \"#utility.yul\":14247:14279   */\n      tag_309\n        /* \"#utility.yul\":14273:14278   */\n      dup2\n        /* \"#utility.yul\":14247:14279   */\n      tag_149\n      jump\t// in\n    tag_309:\n        /* \"#utility.yul\":14148:14285   */\n      swap3\n      swap2\n      pop\n      pop\n      jump\t// out\n        /* \"#utility.yul\":14291:15232   */\n    tag_37:\n        /* \"#utility.yul\":14385:14391   */\n      0x00\n        /* \"#utility.yul\":14393:14399   */\n      dup1\n        /* \"#utility.yul\":14401:14407   */\n      0x00\n        /* \"#utility.yul\":14409:14415   */\n      dup1\n        /* \"#utility.yul\":14458:14461   */\n      0x80\n        /* \"#utility.yul\":14446:14455   */\n      dup6\n        /* \"#utility.yul\":14437:14444   */\n      dup8\n        /* \"#utility.yul\":14433:14456   */\n      sub\n        /* \"#utility.yul\":14429:14462   */\n      slt\n        /* \"#utility.yul\":14426:14546   */\n      iszero\n      tag_311\n      jumpi\n        /* \"#utility.yul\":14465:14544   */\n      tag_312\n      tag_105\n      jump\t// in\n    tag_312:\n        /* \"#utility.yul\":14426:14546   */\n    tag_311:\n        /* \"#utility.yul\":14613:14614   */\n      0x00\n        /* \"#utility.yul\":14602:14611   */\n      dup6\n        /* \"#utility.yul\":14598:14615   */\n      add\n        /* \"#utility.yul\":14585:14616   */\n      calldataload\n        /* \"#utility.yul\":14643:14661   */\n      0xffffffffffffffff\n        /* \"#utility.yul\":14635:14641   */\n      dup2\n        /* \"#utility.yul\":14632:14662   */\n      gt\n        /* \"#utility.yul\":14629:14746   */\n      iszero\n      tag_313\n      jumpi\n        /* \"#utility.yul\":14665:14744   */\n      tag_314\n      tag_106\n      jump\t// in\n    tag_314:\n        /* \"#utility.yul\":14629:14746   */\n    tag_313:\n        /* \"#utility.yul\":14770:14833   */\n      tag_315\n        /* \"#utility.yul\":14825:14832   */\n      dup8\n        /* \"#utility.yul\":14816:14822   */\n      dup3\n        /* \"#utility.yul\":14805:14814   */\n      dup9\n        /* \"#utility.yul\":14801:14823   */\n      add\n        /* \"#utility.yul\":14770:14833   */\n      tag_148\n      jump\t// in\n    tag_315:\n        /* \"#utility.yul\":14760:14833   */\n      swap5\n      pop\n        /* \"#utility.yul\":14556:14843   */\n      pop\n        /* \"#utility.yul\":14882:14884   */\n      0x20\n        /* \"#utility.yul\":14908:14960   */\n      tag_316\n        /* \"#utility.yul\":14952:14959   */\n      dup8\n        /* \"#utility.yul\":14943:14949   */\n      dup3\n        /* \"#utility.yul\":14932:14941   */\n      dup9\n        /* \"#utility.yul\":14928:14950   */\n      add\n        /* \"#utility.yul\":14908:14960   */\n      tag_150\n      jump\t// in\n    tag_316:\n        /* \"#utility.yul\":14898:14960   */\n      swap4\n      pop\n        /* \"#utility.yul\":14853:14970   */\n      pop\n        /* \"#utility.yul\":15009:15011   */\n      0x40\n        /* \"#utility.yul\":15035:15087   */\n      tag_317\n        /* \"#utility.yul\":15079:15086   */\n      dup8\n        /* \"#utility.yul\":15070:15076   */\n      dup3\n        /* \"#utility.yul\":15059:15068   */\n      dup9\n        /* \"#utility.yul\":15055:15077   */\n      add\n        /* \"#utility.yul\":15035:15087   */\n      tag_150\n      jump\t// in\n    tag_317:\n        /* \"#utility.yul\":15025:15087   */\n      swap3\n      pop\n        /* \"#utility.yul\":14980:15097   */\n      pop\n        /* \"#utility.yul\":15136:15138   */\n      0x60\n        /* \"#utility.yul\":15162:15215   */\n      tag_318\n        /* \"#utility.yul\":15207:15214   */\n      dup8\n        /* \"#utility.yul\":15198:15204   */\n      dup3\n        /* \"#utility.yul\":15187:15196   */\n      dup9\n        /* \"#utility.yul\":15183:15205   */\n      add\n        /* \"#utility.yul\":15162:15215   */\n      tag_109\n      jump\t// in\n    tag_318:\n        /* \"#utility.yul\":15152:15215   */\n      swap2\n      pop\n        /* \"#utility.yul\":15107:15225   */\n      pop\n        /* \"#utility.yul\":14291:15232   */\n      swap3\n      swap6\n      swap2\n      swap5\n      pop\n      swap3\n      pop\n      jump\t// out\n        /* \"#utility.yul\":15238:15418   */\n    tag_151:\n        /* \"#utility.yul\":15286:15363   */\n      0x4e487b7100000000000000000000000000000000000000000000000000000000\n        /* \"#utility.yul\":15283:15284   */\n      0x00\n        /* \"#utility.yul\":15276:15364   */\n      mstore\n        /* \"#utility.yul\":15383:15387   */\n      0x22\n        /* \"#utility.yul\":15380:15381   */\n      0x04\n        /* \"#utility.yul\":15373:15388   */\n      mstore\n        /* \"#utility.yul\":15407:15411   */\n      0x24\n        /* \"#utility.yul\":15404:15405   */\n      0x00\n        /* \"#utility.yul\":15397:15412   */\n      revert\n        /* \"#utility.yul\":15424:15744   */\n    tag_44:\n        /* \"#utility.yul\":15468:15474   */\n      0x00\n        /* \"#utility.yul\":15505:15506   */\n      0x02\n        /* \"#utility.yul\":15499:15503   */\n      dup3\n        /* \"#utility.yul\":15495:15507   */\n      div\n        /* \"#utility.yul\":15485:15507   */\n      swap1\n      pop\n        /* \"#utility.yul\":15552:15553   */\n      0x01\n        /* \"#utility.yul\":15546:15550   */\n      dup3\n        /* \"#utility.yul\":15542:15554   */\n      and\n        /* \"#utility.yul\":15573:15591   */\n      dup1\n        /* \"#utility.yul\":15563:15644   */\n      tag_321\n      jumpi\n        /* \"#utility.yul\":15629:15633   */\n      0x7f\n        /* \"#utility.yul\":15621:15627   */\n      dup3\n        /* \"#utility.yul\":15617:15634   */\n      and\n        /* \"#utility.yul\":15607:15634   */\n      swap2\n      pop\n        /* \"#utility.yul\":15563:15644   */\n    tag_321:\n        /* \"#utility.yul\":15691:15693   */\n      0x20\n        /* \"#utility.yul\":15683:15689   */\n      dup3\n        /* \"#utility.yul\":15680:15694   */\n      lt\n        /* \"#utility.yul\":15660:15678   */\n      dup2\n        /* \"#utility.yul\":15657:15695   */\n      sub\n        /* \"#utility.yul\":15654:15738   */\n      tag_322\n      jumpi\n        /* \"#utility.yul\":15710:15728   */\n      tag_323\n      tag_151\n      jump\t// in\n    tag_323:\n        /* \"#utility.yul\":15654:15738   */\n    tag_322:\n        /* \"#utility.yul\":15475:15744   */\n      pop\n        /* \"#utility.yul\":15424:15744   */\n      swap2\n      swap1\n      pop\n      jump\t// out\n        /* \"#utility.yul\":15750:15932   */\n    tag_152:\n        /* \"#utility.yul\":15890:15924   */\n      0x596f7520646f6e2774206861766520616e206163746976652061756374696f6e\n        /* \"#utility.yul\":15886:15887   */\n      0x00\n        /* \"#utility.yul\":15878:15884   */\n      dup3\n        /* \"#utility.yul\":15874:15888   */\n      add\n        /* \"#utility.yul\":15867:15925   */\n      mstore\n        /* \"#utility.yul\":15750:15932   */\n      pop\n      jump\t// out\n        /* \"#utility.yul\":15938:16304   */\n    tag_153:\n        /* \"#utility.yul\":16080:16083   */\n      0x00\n        /* \"#utility.yul\":16101:16168   */\n      tag_326\n        /* \"#utility.yul\":16165:16167   */\n      0x20\n        /* \"#utility.yul\":16160:16163   */\n      dup4\n        /* \"#utility.yul\":16101:16168   */\n      tag_115\n      jump\t// in\n    tag_326:\n        /* \"#utility.yul\":16094:16168   */\n      swap2\n      pop\n        /* \"#utility.yul\":16177:16270   */\n      tag_327\n        /* \"#utility.yul\":16266:16269   */\n      dup3\n        /* \"#utility.yul\":16177:16270   */\n      tag_152\n      jump\t// in\n    tag_327:\n        /* \"#utility.yul\":16295:16297   */\n      0x20\n        /* \"#utility.yul\":16290:16293   */\n      dup3\n        /* \"#utility.yul\":16286:16298   */\n      add\n        /* \"#utility.yul\":16279:16298   */\n      swap1\n      pop\n        /* \"#utility.yul\":15938:16304   */\n      swap2\n      swap1\n      pop\n      jump\t// out\n        /* \"#utility.yul\":16310:16729   */\n    tag_53:\n        /* \"#utility.yul\":16476:16480   */\n      0x00\n        /* \"#utility.yul\":16514:16516   */\n      0x20\n        /* \"#utility.yul\":16503:16512   */\n      dup3\n        /* \"#utility.yul\":16499:16517   */\n      add\n        /* \"#utility.yul\":16491:16517   */\n      swap1\n      pop\n        /* \"#utility.yul\":16563:16572   */\n      dup2\n        /* \"#utility.yul\":16557:16561   */\n      dup2\n        /* \"#utility.yul\":16553:16573   */\n      sub\n        /* \"#utility.yul\":16549:16550   */\n      0x00\n        /* \"#utility.yul\":16538:16547   */\n      dup4\n        /* \"#utility.yul\":16534:16551   */\n      add\n        /* \"#utility.yul\":16527:16574   */\n      mstore\n        /* \"#utility.yul\":16591:16722   */\n      tag_329\n        /* \"#utility.yul\":16717:16721   */\n      dup2\n        /* \"#utility.yul\":16591:16722   */\n      tag_153\n      jump\t// in\n    tag_329:\n        /* \"#utility.yul\":16583:16722   */\n      swap1\n      pop\n        /* \"#utility.yul\":16310:16729   */\n      swap2\n      swap1\n      pop\n      jump\t// out\n        /* \"#utility.yul\":16735:16915   */\n    tag_71:\n        /* \"#utility.yul\":16783:16860   */\n      0x4e487b7100000000000000000000000000000000000000000000000000000000\n        /* \"#utility.yul\":16780:16781   */\n      0x00\n        /* \"#utility.yul\":16773:16861   */\n      mstore\n        /* \"#utility.yul\":16880:16884   */\n      0x32\n        /* \"#utility.yul\":16877:16878   */\n      0x04\n        /* \"#utility.yul\":16870:16885   */\n      mstore\n        /* \"#utility.yul\":16904:16908   */\n      0x24\n        /* \"#utility.yul\":16901:16902   */\n      0x00\n        /* \"#utility.yul\":16894:16909   */\n      revert\n        /* \"#utility.yul\":16921:17144   */\n    tag_154:\n        /* \"#utility.yul\":17061:17095   */\n      0x41756374696f6e204973204e6f7420416374697665206f72204e6f7420507265\n        /* \"#utility.yul\":17057:17058   */\n      0x00\n        /* \"#utility.yul\":17049:17055   */\n      dup3\n        /* \"#utility.yul\":17045:17059   */\n      add\n        /* \"#utility.yul\":17038:17096   */\n      mstore\n        /* \"#utility.yul\":17130:17136   */\n      0x73656e7400000000000000000000000000000000000000000000000000000000\n        /* \"#utility.yul\":17125:17127   */\n      0x20\n        /* \"#utility.yul\":17117:17123   */\n      dup3\n        /* \"#utility.yul\":17113:17128   */\n      add\n        /* \"#utility.yul\":17106:17137   */\n      mstore\n        /* \"#utility.yul\":16921:17144   */\n      pop\n      jump\t// out\n        /* \"#utility.yul\":17150:17516   */\n    tag_155:\n        /* \"#utility.yul\":17292:17295   */\n      0x00\n        /* \"#utility.yul\":17313:17380   */\n      tag_333\n        /* \"#utility.yul\":17377:17379   */\n      0x24\n        /* \"#utility.yul\":17372:17375   */\n      dup4\n        /* \"#utility.yul\":17313:17380   */\n      tag_115\n      jump\t// in\n    tag_333:\n        /* \"#utility.yul\":17306:17380   */\n      swap2\n      pop\n        /* \"#utility.yul\":17389:17482   */\n      tag_334\n        /* \"#utility.yul\":17478:17481   */\n      dup3\n        /* \"#utility.yul\":17389:17482   */\n      tag_154\n      jump\t// in\n    tag_334:\n        /* \"#utility.yul\":17507:17509   */\n      0x40\n        /* \"#utility.yul\":17502:17505   */\n      dup3\n        /* \"#utility.yul\":17498:17510   */\n      add\n        /* \"#utility.yul\":17491:17510   */\n      swap1\n      pop\n        /* \"#utility.yul\":17150:17516   */\n      swap2\n      swap1\n      pop\n      jump\t// out\n        /* \"#utility.yul\":17522:17941   */\n    tag_79:\n        /* \"#utility.yul\":17688:17692   */\n      0x00\n        /* \"#utility.yul\":17726:17728   */\n      0x20\n        /* \"#utility.yul\":17715:17724   */\n      dup3\n        /* \"#utility.yul\":17711:17729   */\n      add\n        /* \"#utility.yul\":17703:17729   */\n      swap1\n      pop\n        /* \"#utility.yul\":17775:17784   */\n      dup2\n        /* \"#utility.yul\":17769:17773   */\n      dup2\n        /* \"#utility.yul\":17765:17785   */\n      sub\n        /* \"#utility.yul\":17761:17762   */\n      0x00\n        /* \"#utility.yul\":17750:17759   */\n      dup4\n        /* \"#utility.yul\":17746:17763   */\n      add\n        /* \"#utility.yul\":17739:17786   */\n      mstore\n        /* \"#utility.yul\":17803:17934   */\n      tag_336\n        /* \"#utility.yul\":17929:17933   */\n      dup2\n        /* \"#utility.yul\":17803:17934   */\n      tag_155\n      jump\t// in\n    tag_336:\n        /* \"#utility.yul\":17795:17934   */\n      swap1\n      pop\n        /* \"#utility.yul\":17522:17941   */\n      swap2\n      swap1\n      pop\n      jump\t// out\n        /* \"#utility.yul\":17947:18185   */\n    tag_156:\n        /* \"#utility.yul\":18087:18121   */\n      0x42696420416d6f756e742073686f756c64206265206772656174657220746865\n        /* \"#utility.yul\":18083:18084   */\n      0x00\n        /* \"#utility.yul\":18075:18081   */\n      dup3\n        /* \"#utility.yul\":18071:18085   */\n      add\n        /* \"#utility.yul\":18064:18122   */\n      mstore\n        /* \"#utility.yul\":18156:18177   */\n      0x6e206d696e696d756d204269642056616c756500000000000000000000000000\n        /* \"#utility.yul\":18151:18153   */\n      0x20\n        /* \"#utility.yul\":18143:18149   */\n      dup3\n        /* \"#utility.yul\":18139:18154   */\n      add\n        /* \"#utility.yul\":18132:18178   */\n      mstore\n        /* \"#utility.yul\":17947:18185   */\n      pop\n      jump\t// out\n        /* \"#utility.yul\":18191:18557   */\n    tag_157:\n        /* \"#utility.yul\":18333:18336   */\n      0x00\n        /* \"#utility.yul\":18354:18421   */\n      tag_339\n        /* \"#utility.yul\":18418:18420   */\n      0x33\n        /* \"#utility.yul\":18413:18416   */\n      dup4\n        /* \"#utility.yul\":18354:18421   */\n      tag_115\n      jump\t// in\n    tag_339:\n        /* \"#utility.yul\":18347:18421   */\n      swap2\n      pop\n        /* \"#utility.yul\":18430:18523   */\n      tag_340\n        /* \"#utility.yul\":18519:18522   */\n      dup3\n        /* \"#utility.yul\":18430:18523   */\n      tag_156\n      jump\t// in\n    tag_340:\n        /* \"#utility.yul\":18548:18550   */\n      0x40\n        /* \"#utility.yul\":18543:18546   */\n      dup3\n        /* \"#utility.yul\":18539:18551   */\n      add\n        /* \"#utility.yul\":18532:18551   */\n      swap1\n      pop\n        /* \"#utility.yul\":18191:18557   */\n      swap2\n      swap1\n      pop\n      jump\t// out\n        /* \"#utility.yul\":18563:18982   */\n    tag_86:\n        /* \"#utility.yul\":18729:18733   */\n      0x00\n        /* \"#utility.yul\":18767:18769   */\n      0x20\n        /* \"#utility.yul\":18756:18765   */\n      dup3\n        /* \"#utility.yul\":18752:18770   */\n      add\n        /* \"#utility.yul\":18744:18770   */\n      swap1\n      pop\n        /* \"#utility.yul\":18816:18825   */\n      dup2\n        /* \"#utility.yul\":18810:18814   */\n      dup2\n        /* \"#utility.yul\":18806:18826   */\n      sub\n        /* \"#utility.yul\":18802:18803   */\n      0x00\n        /* \"#utility.yul\":18791:18800   */\n      dup4\n        /* \"#utility.yul\":18787:18804   */\n      add\n        /* \"#utility.yul\":18780:18827   */\n      mstore\n        /* \"#utility.yul\":18844:18975   */\n      tag_342\n        /* \"#utility.yul\":18970:18974   */\n      dup2\n        /* \"#utility.yul\":18844:18975   */\n      tag_157\n      jump\t// in\n    tag_342:\n        /* \"#utility.yul\":18836:18975   */\n      swap1\n      pop\n        /* \"#utility.yul\":18563:18982   */\n      swap2\n      swap1\n      pop\n      jump\t// out\n        /* \"#utility.yul\":18988:19137   */\n    tag_158:\n        /* \"#utility.yul\":19037:19043   */\n      0x00\n        /* \"#utility.yul\":19071:19076   */\n      dup2\n        /* \"#utility.yul\":19065:19077   */\n      sload\n        /* \"#utility.yul\":19055:19077   */\n      swap1\n      pop\n        /* \"#utility.yul\":19097:19130   */\n      tag_344\n        /* \"#utility.yul\":19123:19129   */\n      dup2\n        /* \"#utility.yul\":19097:19130   */\n      tag_44\n      jump\t// in\n    tag_344:\n        /* \"#utility.yul\":19087:19130   */\n      swap1\n      pop\n        /* \"#utility.yul\":18988:19137   */\n      swap2\n      swap1\n      pop\n      jump\t// out\n        /* \"#utility.yul\":19143:19284   */\n    tag_159:\n        /* \"#utility.yul\":19192:19196   */\n      0x00\n        /* \"#utility.yul\":19215:19218   */\n      dup2\n        /* \"#utility.yul\":19207:19218   */\n      swap1\n      pop\n        /* \"#utility.yul\":19238:19241   */\n      dup2\n        /* \"#utility.yul\":19235:19236   */\n      0x00\n        /* \"#utility.yul\":19228:19242   */\n      mstore\n        /* \"#utility.yul\":19272:19276   */\n      0x20\n        /* \"#utility.yul\":19269:19270   */\n      0x00\n        /* \"#utility.yul\":19259:19277   */\n      keccak256\n        /* \"#utility.yul\":19251:19277   */\n      swap1\n      pop\n        /* \"#utility.yul\":19143:19284   */\n      swap2\n      swap1\n      pop\n      jump\t// out\n        /* \"#utility.yul\":19290:19383   */\n    tag_160:\n        /* \"#utility.yul\":19327:19333   */\n      0x00\n        /* \"#utility.yul\":19374:19376   */\n      0x20\n        /* \"#utility.yul\":19369:19371   */\n      0x1f\n        /* \"#utility.yul\":19362:19367   */\n      dup4\n        /* \"#utility.yul\":19358:19372   */\n      add\n        /* \"#utility.yul\":19354:19377   */\n      div\n        /* \"#utility.yul\":19344:19377   */\n      swap1\n      pop\n        /* \"#utility.yul\":19290:19383   */\n      swap2\n      swap1\n      pop\n      jump\t// out\n        /* \"#utility.yul\":19389:19496   */\n    tag_161:\n        /* \"#utility.yul\":19433:19441   */\n      0x00\n        /* \"#utility.yul\":19483:19488   */\n      dup3\n        /* \"#utility.yul\":19477:19481   */\n      dup3\n        /* \"#utility.yul\":19473:19489   */\n      shl\n        /* \"#utility.yul\":19452:19489   */\n      swap1\n      pop\n        /* \"#utility.yul\":19389:19496   */\n      swap3\n      swap2\n      pop\n      pop\n      jump\t// out\n        /* \"#utility.yul\":19502:19895   */\n    tag_162:\n        /* \"#utility.yul\":19571:19577   */\n      0x00\n        /* \"#utility.yul\":19621:19622   */\n      0x08\n        /* \"#utility.yul\":19609:19619   */\n      dup4\n        /* \"#utility.yul\":19605:19623   */\n      mul\n        /* \"#utility.yul\":19644:19741   */\n      tag_349\n        /* \"#utility.yul\":19674:19740   */\n      0xffffffffffffffffffffffffffffffffffffffffffffffffffffffffffffffff\n        /* \"#utility.yul\":19663:19672   */\n      dup3\n        /* \"#utility.yul\":19644:19741   */\n      tag_161\n      jump\t// in\n    tag_349:\n        /* \"#utility.yul\":19762:19801   */\n      tag_350\n        /* \"#utility.yul\":19792:19800   */\n      dup7\n        /* \"#utility.yul\":19781:19790   */\n      dup4\n        /* \"#utility.yul\":19762:19801   */\n      tag_161\n      jump\t// in\n    tag_350:\n        /* \"#utility.yul\":19750:19801   */\n      swap6\n      pop\n        /* \"#utility.yul\":19834:19838   */\n      dup1\n        /* \"#utility.yul\":19830:19839   */\n      not\n        /* \"#utility.yul\":19823:19828   */\n      dup5\n        /* \"#utility.yul\":19819:19840   */\n      and\n        /* \"#utility.yul\":19810:19840   */\n      swap4\n      pop\n        /* \"#utility.yul\":19883:19887   */\n      dup1\n        /* \"#utility.yul\":19873:19881   */\n      dup7\n        /* \"#utility.yul\":19869:19888   */\n      and\n        /* \"#utility.yul\":19862:19867   */\n      dup5\n        /* \"#utility.yul\":19859:19889   */\n      or\n        /* \"#utility.yul\":19849:19889   */\n      swap3\n      pop\n        /* \"#utility.yul\":19578:19895   */\n      pop\n      pop\n        /* \"#utility.yul\":19502:19895   */\n      swap4\n      swap3\n      pop\n      pop\n      pop\n      jump\t// out\n        /* \"#utility.yul\":19901:19961   */\n    tag_163:\n        /* \"#utility.yul\":19929:19932   */\n      0x00\n        /* \"#utility.yul\":19950:19955   */\n      dup2\n        /* \"#utility.yul\":19943:19955   */\n      swap1\n      pop\n        /* \"#utility.yul\":19901:19961   */\n      swap2\n      swap1\n      pop\n      jump\t// out\n        /* \"#utility.yul\":19967:20109   */\n    tag_164:\n        /* \"#utility.yul\":20017:20026   */\n      0x00\n        /* \"#utility.yul\":20050:20103   */\n      tag_353\n        /* \"#utility.yul\":20068:20102   */\n      tag_354\n        /* \"#utility.yul\":20077:20101   */\n      tag_355\n        /* \"#utility.yul\":20095:20100   */\n      dup5\n        /* \"#utility.yul\":20077:20101   */\n      tag_107\n      jump\t// in\n    tag_355:\n        /* \"#utility.yul\":20068:20102   */\n      tag_163\n      jump\t// in\n    tag_354:\n        /* \"#utility.yul\":20050:20103   */\n      tag_107\n      jump\t// in\n    tag_353:\n        /* \"#utility.yul\":20037:20103   */\n      swap1\n      pop\n        /* \"#utility.yul\":19967:20109   */\n      swap2\n      swap1\n      pop\n      jump\t// out\n        /* \"#utility.yul\":20115:20190   */\n    tag_165:\n        /* \"#utility.yul\":20158:20161   */\n      0x00\n        /* \"#utility.yul\":20179:20184   */\n      dup2\n        /* \"#utility.yul\":20172:20184   */\n      swap1\n      pop\n        /* \"#utility.yul\":20115:20190   */\n      swap2\n      swap1\n      pop\n      jump\t// out\n        /* \"#utility.yul\":20196:20465   */\n    tag_166:\n        /* \"#utility.yul\":20306:20345   */\n      tag_358\n        /* \"#utility.yul\":20337:20344   */\n      dup4\n        /* \"#utility.yul\":20306:20345   */\n      tag_164\n      jump\t// in\n    tag_358:\n        /* \"#utility.yul\":20367:20458   */\n      tag_359\n        /* \"#utility.yul\":20416:20457   */\n      tag_360\n        /* \"#utility.yul\":20440:20456   */\n      dup3\n        /* \"#utility.yul\":20416:20457   */\n      tag_165\n      jump\t// in\n    tag_360:\n        /* \"#utility.yul\":20408:20414   */\n      dup5\n        /* \"#utility.yul\":20401:20405   */\n      dup5\n        /* \"#utility.yul\":20395:20406   */\n      sload\n        /* \"#utility.yul\":20367:20458   */\n      tag_162\n      jump\t// in\n    tag_359:\n        /* \"#utility.yul\":20361:20365   */\n      dup3\n        /* \"#utility.yul\":20354:20459   */\n      sstore\n        /* \"#utility.yul\":20272:20465   */\n      pop\n        /* \"#utility.yul\":20196:20465   */\n      pop\n      pop\n      pop\n      jump\t// out\n        /* \"#utility.yul\":20471:20544   */\n    tag_167:\n        /* \"#utility.yul\":20516:20519   */\n      0x00\n        /* \"#utility.yul\":20471:20544   */\n      swap1\n      jump\t// out\n        /* \"#utility.yul\":20550:20739   */\n    tag_168:\n        /* \"#utility.yul\":20627:20659   */\n      tag_363\n      tag_167\n      jump\t// in\n    tag_363:\n        /* \"#utility.yul\":20668:20733   */\n      tag_364\n        /* \"#utility.yul\":20726:20732   */\n      dup2\n        /* \"#utility.yul\":20718:20724   */\n      dup5\n        /* \"#utility.yul\":20712:20716   */\n      dup5\n        /* \"#utility.yul\":20668:20733   */\n      tag_166\n      jump\t// in\n    tag_364:\n        /* \"#utility.yul\":20603:20739   */\n      pop\n        /* \"#utility.yul\":20550:20739   */\n      pop\n      pop\n      jump\t// out\n        /* \"#utility.yul\":20745:20931   */\n    tag_169:\n        /* \"#utility.yul\":20805:20925   */\n    tag_366:\n        /* \"#utility.yul\":20822:20825   */\n      dup2\n        /* \"#utility.yul\":20815:20820   */\n      dup2\n        /* \"#utility.yul\":20812:20826   */\n      lt\n        /* \"#utility.yul\":20805:20925   */\n      iszero\n      tag_368\n      jumpi\n        /* \"#utility.yul\":20876:20915   */\n      tag_369\n        /* \"#utility.yul\":20913:20914   */\n      0x00\n        /* \"#utility.yul\":20906:20911   */\n      dup3\n        /* \"#utility.yul\":20876:20915   */\n      tag_168\n      jump\t// in\n    tag_369:\n        /* \"#utility.yul\":20849:20850   */\n      0x01\n        /* \"#utility.yul\":20842:20847   */\n      dup2\n        /* \"#utility.yul\":20838:20851   */\n      add\n        /* \"#utility.yul\":20829:20851   */\n      swap1\n      pop\n        /* \"#utility.yul\":20805:20925   */\n      jump(tag_366)\n    tag_368:\n        /* \"#utility.yul\":20745:20931   */\n      pop\n      pop\n      jump\t// out\n        /* \"#utility.yul\":20937:21480   */\n    tag_170:\n        /* \"#utility.yul\":21038:21040   */\n      0x1f\n        /* \"#utility.yul\":21033:21036   */\n      dup3\n        /* \"#utility.yul\":21030:21041   */\n      gt\n        /* \"#utility.yul\":21027:21473   */\n      iszero\n      tag_371\n      jumpi\n        /* \"#utility.yul\":21072:21110   */\n      tag_372\n        /* \"#utility.yul\":21104:21109   */\n      dup2\n        /* \"#utility.yul\":21072:21110   */\n      tag_159\n      jump\t// in\n    tag_372:\n        /* \"#utility.yul\":21156:21185   */\n      tag_373\n        /* \"#utility.yul\":21174:21184   */\n      dup5\n        /* \"#utility.yul\":21156:21185   */\n      tag_160\n      jump\t// in\n    tag_373:\n        /* \"#utility.yul\":21146:21154   */\n      dup2\n        /* \"#utility.yul\":21142:21186   */\n      add\n        /* \"#utility.yul\":21339:21341   */\n      0x20\n        /* \"#utility.yul\":21327:21337   */\n      dup6\n        /* \"#utility.yul\":21324:21342   */\n      lt\n        /* \"#utility.yul\":21321:21370   */\n      iszero\n      tag_374\n      jumpi\n        /* \"#utility.yul\":21360:21368   */\n      dup2\n        /* \"#utility.yul\":21345:21368   */\n      swap1\n      pop\n        /* \"#utility.yul\":21321:21370   */\n    tag_374:\n        /* \"#utility.yul\":21383:21463   */\n      tag_375\n        /* \"#utility.yul\":21439:21461   */\n      tag_376\n        /* \"#utility.yul\":21457:21460   */\n      dup6\n        /* \"#utility.yul\":21439:21461   */\n      tag_160\n      jump\t// in\n    tag_376:\n        /* \"#utility.yul\":21429:21437   */\n      dup4\n        /* \"#utility.yul\":21425:21462   */\n      add\n        /* \"#utility.yul\":21412:21423   */\n      dup3\n        /* \"#utility.yul\":21383:21463   */\n      tag_169\n      jump\t// in\n    tag_375:\n        /* \"#utility.yul\":21042:21473   */\n      pop\n      pop\n        /* \"#utility.yul\":21027:21473   */\n    tag_371:\n        /* \"#utility.yul\":20937:21480   */\n      pop\n      pop\n      pop\n      jump\t// out\n        /* \"#utility.yul\":21486:21603   */\n    tag_171:\n        /* \"#utility.yul\":21540:21548   */\n      0x00\n        /* \"#utility.yul\":21590:21595   */\n      dup3\n        /* \"#utility.yul\":21584:21588   */\n      dup3\n        /* \"#utility.yul\":21580:21596   */\n      shr\n        /* \"#utility.yul\":21559:21596   */\n      swap1\n      pop\n        /* \"#utility.yul\":21486:21603   */\n      swap3\n      swap2\n      pop\n      pop\n      jump\t// out\n        /* \"#utility.yul\":21609:21778   */\n    tag_172:\n        /* \"#utility.yul\":21653:21659   */\n      0x00\n        /* \"#utility.yul\":21686:21737   */\n      tag_379\n        /* \"#utility.yul\":21734:21735   */\n      0x00\n        /* \"#utility.yul\":21730:21736   */\n      not\n        /* \"#utility.yul\":21722:21727   */\n      dup5\n        /* \"#utility.yul\":21719:21720   */\n      0x08\n        /* \"#utility.yul\":21715:21728   */\n      mul\n        /* \"#utility.yul\":21686:21737   */\n      tag_171\n      jump\t// in\n    tag_379:\n        /* \"#utility.yul\":21682:21738   */\n      not\n        /* \"#utility.yul\":21767:21771   */\n      dup1\n        /* \"#utility.yul\":21761:21765   */\n      dup4\n        /* \"#utility.yul\":21757:21772   */\n      and\n        /* \"#utility.yul\":21747:21772   */\n      swap2\n      pop\n        /* \"#utility.yul\":21660:21778   */\n      pop\n        /* \"#utility.yul\":21609:21778   */\n      swap3\n      swap2\n      pop\n      pop\n      jump\t// out\n        /* \"#utility.yul\":21783:22078   */\n    tag_173:\n        /* \"#utility.yul\":21859:21863   */\n      0x00\n        /* \"#utility.yul\":22005:22034   */\n      tag_381\n        /* \"#utility.yul\":22030:22033   */\n      dup4\n        /* \"#utility.yul\":22024:22028   */\n      dup4\n        /* \"#utility.yul\":22005:22034   */\n      tag_172\n      jump\t// in\n    tag_381:\n        /* \"#utility.yul\":21997:22034   */\n      swap2\n      pop\n        /* \"#utility.yul\":22067:22070   */\n      dup3\n        /* \"#utility.yul\":22064:22065   */\n      0x02\n        /* \"#utility.yul\":22060:22071   */\n      mul\n        /* \"#utility.yul\":22054:22058   */\n      dup3\n        /* \"#utility.yul\":22051:22072   */\n      or\n        /* \"#utility.yul\":22043:22072   */\n      swap1\n      pop\n        /* \"#utility.yul\":21783:22078   */\n      swap3\n      swap2\n      pop\n      pop\n      jump\t// out\n        /* \"#utility.yul\":22083:23534   */\n    tag_93:\n        /* \"#utility.yul\":22194:22197   */\n      dup2\n        /* \"#utility.yul\":22188:22192   */\n      dup2\n        /* \"#utility.yul\":22185:22198   */\n      sub\n        /* \"#utility.yul\":22182:22208   */\n      tag_383\n      jumpi\n        /* \"#utility.yul\":22201:22206   */\n      pop\n      pop\n      jump(tag_382)\n        /* \"#utility.yul\":22182:22208   */\n    tag_383:\n        /* \"#utility.yul\":22232:22266   */\n      tag_384\n        /* \"#utility.yul\":22262:22265   */\n      dup3\n        /* \"#utility.yul\":22232:22266   */\n      tag_158\n      jump\t// in\n    tag_384:\n        /* \"#utility.yul\":22331:22349   */\n      0xffffffffffffffff\n        /* \"#utility.yul\":22323:22329   */\n      dup2\n        /* \"#utility.yul\":22320:22350   */\n      gt\n        /* \"#utility.yul\":22317:22373   */\n      iszero\n      tag_385\n      jumpi\n        /* \"#utility.yul\":22353:22371   */\n      tag_386\n      tag_142\n      jump\t// in\n    tag_386:\n        /* \"#utility.yul\":22317:22373   */\n    tag_385:\n        /* \"#utility.yul\":22397:22435   */\n      tag_387\n        /* \"#utility.yul\":22429:22433   */\n      dup3\n        /* \"#utility.yul\":22423:22434   */\n      sload\n        /* \"#utility.yul\":22397:22435   */\n      tag_44\n      jump\t// in\n    tag_387:\n        /* \"#utility.yul\":22482:22549   */\n      tag_388\n        /* \"#utility.yul\":22542:22548   */\n      dup3\n        /* \"#utility.yul\":22534:22540   */\n      dup3\n        /* \"#utility.yul\":22528:22532   */\n      dup6\n        /* \"#utility.yul\":22482:22549   */\n      tag_170\n      jump\t// in\n    tag_388:\n        /* \"#utility.yul\":22576:22577   */\n      0x00\n        /* \"#utility.yul\":22605:22607   */\n      0x1f\n        /* \"#utility.yul\":22597:22603   */\n      dup4\n        /* \"#utility.yul\":22594:22608   */\n      gt\n        /* \"#utility.yul\":22622:22623   */\n      0x01\n        /* \"#utility.yul\":22617:23289   */\n      dup2\n      eq\n      tag_390\n      jumpi\n        /* \"#utility.yul\":23333:23334   */\n      0x00\n        /* \"#utility.yul\":23350:23356   */\n      dup5\n        /* \"#utility.yul\":23347:23424   */\n      iszero\n      tag_391\n      jumpi\n        /* \"#utility.yul\":23399:23408   */\n      dup3\n        /* \"#utility.yul\":23394:23397   */\n      dup8\n        /* \"#utility.yul\":23390:23409   */\n      add\n        /* \"#utility.yul\":23384:23410   */\n      sload\n        /* \"#utility.yul\":23375:23410   */\n      swap1\n      pop\n        /* \"#utility.yul\":23347:23424   */\n    tag_391:\n        /* \"#utility.yul\":23450:23517   */\n      tag_392\n        /* \"#utility.yul\":23510:23516   */\n      dup6\n        /* \"#utility.yul\":23503:23508   */\n      dup3\n        /* \"#utility.yul\":23450:23517   */\n      tag_173\n      jump\t// in\n    tag_392:\n        /* \"#utility.yul\":23444:23448   */\n      dup7\n        /* \"#utility.yul\":23437:23518   */\n      sstore\n        /* \"#utility.yul\":23306:23528   */\n      pop\n        /* \"#utility.yul\":22587:23528   */\n      jump(tag_389)\n        /* \"#utility.yul\":22617:23289   */\n    tag_390:\n        /* \"#utility.yul\":22669:22673   */\n      0x1f\n        /* \"#utility.yul\":22665:22674   */\n      not\n        /* \"#utility.yul\":22657:22663   */\n      dup5\n        /* \"#utility.yul\":22653:22675   */\n      and\n        /* \"#utility.yul\":22695:22731   */\n      tag_393\n        /* \"#utility.yul\":22727:22730   */\n      dup8\n        /* \"#utility.yul\":22695:22731   */\n      tag_159\n      jump\t// in\n    tag_393:\n        /* \"#utility.yul\":22688:22731   */\n      swap7\n      pop\n        /* \"#utility.yul\":22758:22795   */\n      tag_394\n        /* \"#utility.yul\":22790:22794   */\n      dup7\n        /* \"#utility.yul\":22758:22795   */\n      tag_159\n      jump\t// in\n    tag_394:\n        /* \"#utility.yul\":22817:22818   */\n      0x00\n        /* \"#utility.yul\":22831:23038   */\n    tag_395:\n        /* \"#utility.yul\":22845:22852   */\n      dup3\n        /* \"#utility.yul\":22842:22843   */\n      dup2\n        /* \"#utility.yul\":22839:22853   */\n      lt\n        /* \"#utility.yul\":22831:23038   */\n      iszero\n      tag_397\n      jumpi\n        /* \"#utility.yul\":22924:22933   */\n      dup5\n        /* \"#utility.yul\":22919:22922   */\n      dup10\n        /* \"#utility.yul\":22915:22934   */\n      add\n        /* \"#utility.yul\":22909:22935   */\n      sload\n        /* \"#utility.yul\":22901:22907   */\n      dup3\n        /* \"#utility.yul\":22894:22936   */\n      sstore\n        /* \"#utility.yul\":22975:22976   */\n      0x01\n        /* \"#utility.yul\":22967:22973   */\n      dup3\n        /* \"#utility.yul\":22963:22977   */\n      add\n        /* \"#utility.yul\":22953:22977   */\n      swap2\n      pop\n        /* \"#utility.yul\":23022:23023   */\n      0x01\n        /* \"#utility.yul\":23011:23020   */\n      dup6\n        /* \"#utility.yul\":23007:23024   */\n      add\n        /* \"#utility.yul\":22994:23024   */\n      swap5\n      pop\n        /* \"#utility.yul\":22868:22872   */\n      0x20\n        /* \"#utility.yul\":22865:22866   */\n      dup2\n        /* \"#utility.yul\":22861:22873   */\n      add\n        /* \"#utility.yul\":22856:22873   */\n      swap1\n      pop\n        /* \"#utility.yul\":22831:23038   */\n      jump(tag_395)\n    tag_397:\n        /* \"#utility.yul\":23066:23072   */\n      dup7\n        /* \"#utility.yul\":23057:23064   */\n      dup4\n        /* \"#utility.yul\":23054:23073   */\n      lt\n        /* \"#utility.yul\":23051:23230   */\n      iszero\n      tag_398\n      jumpi\n        /* \"#utility.yul\":23124:23133   */\n      dup5\n        /* \"#utility.yul\":23119:23122   */\n      dup10\n        /* \"#utility.yul\":23115:23134   */\n      add\n        /* \"#utility.yul\":23109:23135   */\n      sload\n        /* \"#utility.yul\":23167:23215   */\n      tag_399\n        /* \"#utility.yul\":23209:23213   */\n      0x1f\n        /* \"#utility.yul\":23201:23207   */\n      dup10\n        /* \"#utility.yul\":23197:23214   */\n      and\n        /* \"#utility.yul\":23186:23195   */\n      dup3\n        /* \"#utility.yul\":23167:23215   */\n      tag_172\n      jump\t// in\n    tag_399:\n        /* \"#utility.yul\":23159:23165   */\n      dup4\n        /* \"#utility.yul\":23152:23216   */\n      sstore\n        /* \"#utility.yul\":23074:23230   */\n      pop\n        /* \"#utility.yul\":23051:23230   */\n    tag_398:\n        /* \"#utility.yul\":23276:23277   */\n      0x01\n        /* \"#utility.yul\":23272:23273   */\n      0x02\n        /* \"#utility.yul\":23264:23270   */\n      dup9\n        /* \"#utility.yul\":23260:23274   */\n      mul\n        /* \"#utility.yul\":23256:23278   */\n      add\n        /* \"#utility.yul\":23250:23254   */\n      dup9\n        /* \"#utility.yul\":23243:23279   */\n      sstore\n        /* \"#utility.yul\":22624:23289   */\n      pop\n      pop\n      pop\n        /* \"#utility.yul\":22587:23528   */\n    tag_389:\n      pop\n        /* \"#utility.yul\":22172:23534   */\n      pop\n      pop\n      pop\n        /* \"#utility.yul\":22083:23534   */\n      pop\n      pop\n    tag_382:\n      jump\t// out\n        /* \"#utility.yul\":23540:23720   */\n    tag_174:\n        /* \"#utility.yul\":23588:23665   */\n      0x4e487b7100000000000000000000000000000000000000000000000000000000\n        /* \"#utility.yul\":23585:23586   */\n      0x00\n        /* \"#utility.yul\":23578:23666   */\n      mstore\n        /* \"#utility.yul\":23685:23689   */\n      0x11\n        /* \"#utility.yul\":23682:23683   */\n      0x04\n        /* \"#utility.yul\":23675:23690   */\n      mstore\n        /* \"#utility.yul\":23709:23713   */\n      0x24\n        /* \"#utility.yul\":23706:23707   */\n      0x00\n        /* \"#utility.yul\":23699:23714   */\n      revert\n        /* \"#utility.yul\":23726:23917   */\n    tag_96:\n        /* \"#utility.yul\":23766:23769   */\n      0x00\n        /* \"#utility.yul\":23785:23805   */\n      tag_402\n        /* \"#utility.yul\":23803:23804   */\n      dup3\n        /* \"#utility.yul\":23785:23805   */\n      tag_107\n      jump\t// in\n    tag_402:\n        /* \"#utility.yul\":23780:23805   */\n      swap2\n      pop\n        /* \"#utility.yul\":23819:23839   */\n      tag_403\n        /* \"#utility.yul\":23837:23838   */\n      dup4\n        /* \"#utility.yul\":23819:23839   */\n      tag_107\n      jump\t// in\n    tag_403:\n        /* \"#utility.yul\":23814:23839   */\n      swap3\n      pop\n        /* \"#utility.yul\":23862:23863   */\n      dup3\n        /* \"#utility.yul\":23859:23860   */\n      dup3\n        /* \"#utility.yul\":23855:23864   */\n      add\n        /* \"#utility.yul\":23848:23864   */\n      swap1\n      pop\n        /* \"#utility.yul\":23883:23886   */\n      dup1\n        /* \"#utility.yul\":23880:23881   */\n      dup3\n        /* \"#utility.yul\":23877:23887   */\n      gt\n        /* \"#utility.yul\":23874:23910   */\n      iszero\n      tag_404\n      jumpi\n        /* \"#utility.yul\":23890:23908   */\n      tag_405\n      tag_174\n      jump\t// in\n    tag_405:\n        /* \"#utility.yul\":23874:23910   */\n    tag_404:\n        /* \"#utility.yul\":23726:23917   */\n      swap3\n      swap2\n      pop\n      pop\n      jump\t// out\n        /* \"#utility.yul\":23923:25318   */\n    tag_98:\n        /* \"#utility.yul\":24040:24077   */\n      tag_407\n        /* \"#utility.yul\":24073:24076   */\n      dup3\n        /* \"#utility.yul\":24040:24077   */\n      tag_114\n      jump\t// in\n    tag_407:\n        /* \"#utility.yul\":24142:24160   */\n      0xffffffffffffffff\n        /* \"#utility.yul\":24134:24140   */\n      dup2\n        /* \"#utility.yul\":24131:24161   */\n      gt\n        /* \"#utility.yul\":24128:24184   */\n      iszero\n      tag_408\n      jumpi\n        /* \"#utility.yul\":24164:24182   */\n      tag_409\n      tag_142\n      jump\t// in\n    tag_409:\n        /* \"#utility.yul\":24128:24184   */\n    tag_408:\n        /* \"#utility.yul\":24208:24246   */\n      tag_410\n        /* \"#utility.yul\":24240:24244   */\n      dup3\n        /* \"#utility.yul\":24234:24245   */\n      sload\n        /* \"#utility.yul\":24208:24246   */\n      tag_44\n      jump\t// in\n    tag_410:\n        /* \"#utility.yul\":24293:24360   */\n      tag_411\n        /* \"#utility.yul\":24353:24359   */\n      dup3\n        /* \"#utility.yul\":24345:24351   */\n      dup3\n        /* \"#utility.yul\":24339:24343   */\n      dup6\n        /* \"#utility.yul\":24293:24360   */\n      tag_170\n      jump\t// in\n    tag_411:\n        /* \"#utility.yul\":24387:24388   */\n      0x00\n        /* \"#utility.yul\":24411:24415   */\n      0x20\n        /* \"#utility.yul\":24398:24415   */\n      swap1\n      pop\n        /* \"#utility.yul\":24443:24445   */\n      0x1f\n        /* \"#utility.yul\":24435:24441   */\n      dup4\n        /* \"#utility.yul\":24432:24446   */\n      gt\n        /* \"#utility.yul\":24460:24461   */\n      0x01\n        /* \"#utility.yul\":24455:25073   */\n      dup2\n      eq\n      tag_413\n      jumpi\n        /* \"#utility.yul\":25117:25118   */\n      0x00\n        /* \"#utility.yul\":25134:25140   */\n      dup5\n        /* \"#utility.yul\":25131:25208   */\n      iszero\n      tag_414\n      jumpi\n        /* \"#utility.yul\":25183:25192   */\n      dup3\n        /* \"#utility.yul\":25178:25181   */\n      dup8\n        /* \"#utility.yul\":25174:25193   */\n      add\n        /* \"#utility.yul\":25168:25194   */\n      mload\n        /* \"#utility.yul\":25159:25194   */\n      swap1\n      pop\n        /* \"#utility.yul\":25131:25208   */\n    tag_414:\n        /* \"#utility.yul\":25234:25301   */\n      tag_415\n        /* \"#utility.yul\":25294:25300   */\n      dup6\n        /* \"#utility.yul\":25287:25292   */\n      dup3\n        /* \"#utility.yul\":25234:25301   */\n      tag_173\n      jump\t// in\n    tag_415:\n        /* \"#utility.yul\":25228:25232   */\n      dup7\n        /* \"#utility.yul\":25221:25302   */\n      sstore\n        /* \"#utility.yul\":25090:25312   */\n      pop\n        /* \"#utility.yul\":24425:25312   */\n      jump(tag_412)\n        /* \"#utility.yul\":24455:25073   */\n    tag_413:\n        /* \"#utility.yul\":24507:24511   */\n      0x1f\n        /* \"#utility.yul\":24503:24512   */\n      not\n        /* \"#utility.yul\":24495:24501   */\n      dup5\n        /* \"#utility.yul\":24491:24513   */\n      and\n        /* \"#utility.yul\":24541:24578   */\n      tag_416\n        /* \"#utility.yul\":24573:24577   */\n      dup7\n        /* \"#utility.yul\":24541:24578   */\n      tag_159\n      jump\t// in\n    tag_416:\n        /* \"#utility.yul\":24600:24601   */\n      0x00\n        /* \"#utility.yul\":24614:24822   */\n    tag_417:\n        /* \"#utility.yul\":24628:24635   */\n      dup3\n        /* \"#utility.yul\":24625:24626   */\n      dup2\n        /* \"#utility.yul\":24622:24636   */\n      lt\n        /* \"#utility.yul\":24614:24822   */\n      iszero\n      tag_419\n      jumpi\n        /* \"#utility.yul\":24707:24716   */\n      dup5\n        /* \"#utility.yul\":24702:24705   */\n      dup10\n        /* \"#utility.yul\":24698:24717   */\n      add\n        /* \"#utility.yul\":24692:24718   */\n      mload\n        /* \"#utility.yul\":24684:24690   */\n      dup3\n        /* \"#utility.yul\":24677:24719   */\n      sstore\n        /* \"#utility.yul\":24758:24759   */\n      0x01\n        /* \"#utility.yul\":24750:24756   */\n      dup3\n        /* \"#utility.yul\":24746:24760   */\n      add\n        /* \"#utility.yul\":24736:24760   */\n      swap2\n      pop\n        /* \"#utility.yul\":24805:24807   */\n      0x20\n        /* \"#utility.yul\":24794:24803   */\n      dup6\n        /* \"#utility.yul\":24790:24808   */\n      add\n        /* \"#utility.yul\":24777:24808   */\n      swap5\n      pop\n        /* \"#utility.yul\":24651:24655   */\n      0x20\n        /* \"#utility.yul\":24648:24649   */\n      dup2\n        /* \"#utility.yul\":24644:24656   */\n      add\n        /* \"#utility.yul\":24639:24656   */\n      swap1\n      pop\n        /* \"#utility.yul\":24614:24822   */\n      jump(tag_417)\n    tag_419:\n        /* \"#utility.yul\":24850:24856   */\n      dup7\n        /* \"#utility.yul\":24841:24848   */\n      dup4\n        /* \"#utility.yul\":24838:24857   */\n      lt\n        /* \"#utility.yul\":24835:25014   */\n      iszero\n      tag_420\n      jumpi\n        /* \"#utility.yul\":24908:24917   */\n      dup5\n        /* \"#utility.yul\":24903:24906   */\n      dup10\n        /* \"#utility.yul\":24899:24918   */\n      add\n        /* \"#utility.yul\":24893:24919   */\n      mload\n        /* \"#utility.yul\":24951:24999   */\n      tag_421\n        /* \"#utility.yul\":24993:24997   */\n      0x1f\n        /* \"#utility.yul\":24985:24991   */\n      dup10\n        /* \"#utility.yul\":24981:24998   */\n      and\n        /* \"#utility.yul\":24970:24979   */\n      dup3\n        /* \"#utility.yul\":24951:24999   */\n      tag_172\n      jump\t// in\n    tag_421:\n        /* \"#utility.yul\":24943:24949   */\n      dup4\n        /* \"#utility.yul\":24936:25000   */\n      sstore\n        /* \"#utility.yul\":24858:25014   */\n      pop\n        /* \"#utility.yul\":24835:25014   */\n    tag_420:\n        /* \"#utility.yul\":25060:25061   */\n      0x01\n        /* \"#utility.yul\":25056:25057   */\n      0x02\n        /* \"#utility.yul\":25048:25054   */\n      dup9\n        /* \"#utility.yul\":25044:25058   */\n      mul\n        /* \"#utility.yul\":25040:25062   */\n      add\n        /* \"#utility.yul\":25034:25038   */\n      dup9\n        /* \"#utility.yul\":25027:25063   */\n      sstore\n        /* \"#utility.yul\":24462:25073   */\n      pop\n      pop\n      pop\n        /* \"#utility.yul\":24425:25312   */\n    tag_412:\n      pop\n        /* \"#utility.yul\":24015:25318   */\n      pop\n      pop\n      pop\n        /* \"#utility.yul\":23923:25318   */\n      pop\n      pop\n      jump\t// out\n\n    auxdata: 0xa2646970667358221220ebf9397f3ac4c27027d93b40f57b013b711a83d26f1a8cf587a4f9237b71c01164736f6c63430008120033\n}\n",
				"bytecode": {
					"linkReferences": {},
					"object": "60806040526000805534801561001457600080fd5b506118e5806100246000396000f3fe6080604052600436106100555760003560e01c806312fb682d1461005a578063669c0083146100975780636b81be6c146100d857806375b700e114610103578063b7751c711461012e578063f2fd83aa1461014a575b600080fd5b34801561006657600080fd5b50610081600480360381019061007c9190610c08565b610166565b60405161008e9190610c76565b60405180910390f35b3480156100a357600080fd5b506100be60048036038101906100b99190610c08565b6101a5565b6040516100cf959493929190610d4f565b60405180910390f35b3480156100e457600080fd5b506100ed610293565b6040516100fa9190610f49565b60405180910390f35b34801561010f57600080fd5b50610118610509565b604051610125919061106b565b60405180910390f35b6101486004803603810190610143919061108d565b610625565b005b610164600480360381019061015f919061122e565b610950565b005b6001818154811061017657600080fd5b906000526020600020016000915054906101000a900473ffffffffffffffffffffffffffffffffffffffff1681565b600281815481106101b557600080fd5b90600052602060002090600402016000915090508060000154908060010180546101de906112e0565b80601f016020809104026020016040519081016040528092919081815260200182805461020a906112e0565b80156102575780601f1061022c57610100808354040283529160200191610257565b820191906000526020600020905b81548152906001019060200180831161023a57829003601f168201915b5050505050908060020160009054906101000a900463ffffffff16908060020160049054906101000a900463ffffffff16908060030154905085565b60606000600360003373ffffffffffffffffffffffffffffffffffffffff1673ffffffffffffffffffffffffffffffffffffffff1681526020019081526020016000206000015411801561033e575042600360003373ffffffffffffffffffffffffffffffffffffffff1673ffffffffffffffffffffffffffffffffffffffff16815260200190815260200160002060020160049054906101000a900463ffffffff1663ffffffff16105b61037d576040517f08c379a00000000000000000000000000000000000000000000000000000000081526004016103749061135d565b60405180910390fd5b600560003373ffffffffffffffffffffffffffffffffffffffff1673ffffffffffffffffffffffffffffffffffffffff168152602001908152602001600020805480602002602001604051908101604052809291908181526020016000905b8282101561050057838290600052602060002090600402016040518060a001604052908160008201548152602001600182018054610419906112e0565b80601f0160208091040260200160405190810160405280929190818152602001828054610445906112e0565b80156104925780601f1061046757610100808354040283529160200191610492565b820191906000526020600020905b81548152906001019060200180831161047557829003601f168201915b505050505081526020016002820160009054906101000a900463ffffffff1663ffffffff1663ffffffff1681526020016002820160049054906101000a900463ffffffff1663ffffffff1663ffffffff168152602001600382015481525050815260200190600101906103dc565b50505050905090565b606060046000600360003373ffffffffffffffffffffffffffffffffffffffff1673ffffffffffffffffffffffffffffffffffffffff168152602001908152602001600020600001548152602001908152602001600020805480602002602001604051908101604052809291908181526020016000905b8282101561061c57838290600052602060002090600302016040518060600160405290816000820160009054906101000a900473ffffffffffffffffffffffffffffffffffffffff1673ffffffffffffffffffffffffffffffffffffffff1673ffffffffffffffffffffffffffffffffffffffff1681526020016001820154815260200160028201548152505081526020019060010190610580565b50505050905090565b806000548111158015610672575042600282815481106106485761064761137d565b5b906000526020600020906004020160020160009054906101000a900463ffffffff1663ffffffff16105b80156106b85750426002828154811061068e5761068d61137d565b5b906000526020600020906004020160020160049054906101000a900463ffffffff1663ffffffff16115b6106f7576040517f08c379a00000000000000000000000000000000000000000000000000000000081526004016106ee9061141e565b60405180910390fd5b6002828154811061070b5761070a61137d565b5b906000526020600020906004020160030154831161075e576040517f08c379a0000000000000000000000000000000000000000000000000000000008152600401610755906114b0565b60405180910390fd5b6004600083815260200190815260200160002060405180606001604052803373ffffffffffffffffffffffffffffffffffffffff16815260200185815260200184815250908060018154018082558091505060019003906000526020600020906003020160009091909190915060008201518160000160006101000a81548173ffffffffffffffffffffffffffffffffffffffff021916908373ffffffffffffffffffffffffffffffffffffffff16021790555060208201518160010155604082015181600201555050600560003373ffffffffffffffffffffffffffffffffffffffff1673ffffffffffffffffffffffffffffffffffffffff1681526020019081526020016000206002838154811061087b5761087a61137d565b5b9060005260206000209060040201908060018154018082558091505060019003906000526020600020906004020160009091909190915060008201548160000155600182018160010190816108d09190611692565b506002820160009054906101000a900463ffffffff168160020160006101000a81548163ffffffff021916908363ffffffff1602179055506002820160049054906101000a900463ffffffff168160020160046101000a81548163ffffffff021916908363ffffffff160217905550600382015481600301555050505050565b600160008082825461096291906117a9565b925050819055506040518060a0016040528060005481526020018581526020018463ffffffff1681526020018363ffffffff16815260200182815250600360003373ffffffffffffffffffffffffffffffffffffffff1673ffffffffffffffffffffffffffffffffffffffff1681526020019081526020016000206000820151816000015560208201518160010190816109fc91906117dd565b5060408201518160020160006101000a81548163ffffffff021916908363ffffffff16021790555060608201518160020160046101000a81548163ffffffff021916908363ffffffff160217905550608082015181600301559050506001339080600181540180825580915050600190039060005260206000200160009091909190916101000a81548173ffffffffffffffffffffffffffffffffffffffff021916908373ffffffffffffffffffffffffffffffffffffffff160217905550600360003373ffffffffffffffffffffffffffffffffffffffff1673ffffffffffffffffffffffffffffffffffffffff168152602001908152602001600020600260005481548110610b1057610b0f61137d565b5b90600052602060002090600402016000820154816000015560018201816001019081610b3c9190611692565b506002820160009054906101000a900463ffffffff168160020160006101000a81548163ffffffff021916908363ffffffff1602179055506002820160049054906101000a900463ffffffff168160020160046101000a81548163ffffffff021916908363ffffffff1602179055506003820154816003015590505050505050565b6000604051905090565b600080fd5b600080fd5b6000819050919050565b610be581610bd2565b8114610bf057600080fd5b50565b600081359050610c0281610bdc565b92915050565b600060208284031215610c1e57610c1d610bc8565b5b6000610c2c84828501610bf3565b91505092915050565b600073ffffffffffffffffffffffffffffffffffffffff82169050919050565b6000610c6082610c35565b9050919050565b610c7081610c55565b82525050565b6000602082019050610c8b6000830184610c67565b92915050565b610c9a81610bd2565b82525050565b600081519050919050565b600082825260208201905092915050565b60005b83811015610cda578082015181840152602081019050610cbf565b60008484015250505050565b6000601f19601f8301169050919050565b6000610d0282610ca0565b610d0c8185610cab565b9350610d1c818560208601610cbc565b610d2581610ce6565b840191505092915050565b600063ffffffff82169050919050565b610d4981610d30565b82525050565b600060a082019050610d646000830188610c91565b8181036020830152610d768187610cf7565b9050610d856040830186610d40565b610d926060830185610d40565b610d9f6080830184610c91565b9695505050505050565b600081519050919050565b600082825260208201905092915050565b6000819050602082019050919050565b610dde81610bd2565b82525050565b600082825260208201905092915050565b6000610e0082610ca0565b610e0a8185610de4565b9350610e1a818560208601610cbc565b610e2381610ce6565b840191505092915050565b610e3781610d30565b82525050565b600060a083016000830151610e556000860182610dd5565b5060208301518482036020860152610e6d8282610df5565b9150506040830151610e826040860182610e2e565b506060830151610e956060860182610e2e565b506080830151610ea86080860182610dd5565b508091505092915050565b6000610ebf8383610e3d565b905092915050565b6000602082019050919050565b6000610edf82610da9565b610ee98185610db4565b935083602082028501610efb85610dc5565b8060005b85811015610f375784840389528151610f188582610eb3565b9450610f2383610ec7565b925060208a01995050600181019050610eff565b50829750879550505050505092915050565b60006020820190508181036000830152610f638184610ed4565b905092915050565b600081519050919050565b600082825260208201905092915050565b6000819050602082019050919050565b610fa081610c55565b82525050565b606082016000820151610fbc6000850182610f97565b506020820151610fcf6020850182610dd5565b506040820151610fe26040850182610dd5565b50505050565b6000610ff48383610fa6565b60608301905092915050565b6000602082019050919050565b600061101882610f6b565b6110228185610f76565b935061102d83610f87565b8060005b8381101561105e5781516110458882610fe8565b975061105083611000565b925050600181019050611031565b5085935050505092915050565b60006020820190508181036000830152611085818461100d565b905092915050565b600080604083850312156110a4576110a3610bc8565b5b60006110b285828601610bf3565b92505060206110c385828601610bf3565b9150509250929050565b600080fd5b600080fd5b7f4e487b7100000000000000000000000000000000000000000000000000000000600052604160045260246000fd5b61110f82610ce6565b810181811067ffffffffffffffff8211171561112e5761112d6110d7565b5b80604052505050565b6000611141610bbe565b905061114d8282611106565b919050565b600067ffffffffffffffff82111561116d5761116c6110d7565b5b61117682610ce6565b9050602081019050919050565b82818337600083830152505050565b60006111a56111a084611152565b611137565b9050828152602081018484840111156111c1576111c06110d2565b5b6111cc848285611183565b509392505050565b600082601f8301126111e9576111e86110cd565b5b81356111f9848260208601611192565b91505092915050565b61120b81610d30565b811461121657600080fd5b50565b60008135905061122881611202565b92915050565b6000806000806080858703121561124857611247610bc8565b5b600085013567ffffffffffffffff81111561126657611265610bcd565b5b611272878288016111d4565b945050602061128387828801611219565b935050604061129487828801611219565b92505060606112a587828801610bf3565b91505092959194509250565b7f4e487b7100000000000000000000000000000000000000000000000000000000600052602260045260246000fd5b600060028204905060018216806112f857607f821691505b60208210810361130b5761130a6112b1565b5b50919050565b7f596f7520646f6e2774206861766520616e206163746976652061756374696f6e600082015250565b6000611347602083610cab565b915061135282611311565b602082019050919050565b600060208201905081810360008301526113768161133a565b9050919050565b7f4e487b7100000000000000000000000000000000000000000000000000000000600052603260045260246000fd5b7f41756374696f6e204973204e6f7420416374697665206f72204e6f742050726560008201527f73656e7400000000000000000000000000000000000000000000000000000000602082015250565b6000611408602483610cab565b9150611413826113ac565b604082019050919050565b60006020820190508181036000830152611437816113fb565b9050919050565b7f42696420416d6f756e742073686f756c6420626520677265617465722074686560008201527f6e206d696e696d756d204269642056616c756500000000000000000000000000602082015250565b600061149a603383610cab565b91506114a58261143e565b604082019050919050565b600060208201905081810360008301526114c98161148d565b9050919050565b6000815490506114df816112e0565b9050919050565b60008190508160005260206000209050919050565b60006020601f8301049050919050565b600082821b905092915050565b6000600883026115487fffffffffffffffffffffffffffffffffffffffffffffffffffffffffffffffff8261150b565b611552868361150b565b95508019841693508086168417925050509392505050565b6000819050919050565b600061158f61158a61158584610bd2565b61156a565b610bd2565b9050919050565b6000819050919050565b6115a983611574565b6115bd6115b582611596565b848454611518565b825550505050565b600090565b6115d26115c5565b6115dd8184846115a0565b505050565b5b81811015611601576115f66000826115ca565b6001810190506115e3565b5050565b601f82111561164657611617816114e6565b611620846114fb565b8101602085101561162f578190505b61164361163b856114fb565b8301826115e2565b50505b505050565b600082821c905092915050565b60006116696000198460080261164b565b1980831691505092915050565b60006116828383611658565b9150826002028217905092915050565b8181036116a0575050611778565b6116a9826114d0565b67ffffffffffffffff8111156116c2576116c16110d7565b5b6116cc82546112e0565b6116d7828285611605565b6000601f83116001811461170657600084156116f4578287015490505b6116fe8582611676565b865550611771565b601f198416611714876114e6565b965061171f866114e6565b60005b8281101561174757848901548255600182019150600185019450602081019050611722565b868310156117645784890154611760601f891682611658565b8355505b6001600288020188555050505b5050505050505b565b7f4e487b7100000000000000000000000000000000000000000000000000000000600052601160045260246000fd5b60006117b482610bd2565b91506117bf83610bd2565b92508282019050808211156117d7576117d661177a565b5b92915050565b6117e682610ca0565b67ffffffffffffffff8111156117ff576117fe6110d7565b5b61180982546112e0565b611814828285611605565b600060209050601f8311600181146118475760008415611835578287015190505b61183f8582611676565b8655506118a7565b601f198416611855866114e6565b60005b8281101561187d57848901518255600182019150602085019450602081019050611858565b8683101561189a5784890151611896601f891682611658565b8355505b6001600288020188555050505b50505050505056fea2646970667358221220ebf9397f3ac4c27027d93b40f57b013b711a83d26f1a8cf587a4f9237b71c01164736f6c63430008120033",
					"opcodes": "PUSH1 0x80 PUSH1 0x40 MSTORE PUSH1 0x0 DUP1 SSTORE CALLVALUE DUP1 ISZERO PUSH2 0x14 JUMPI PUSH1 0x0 DUP1 REVERT JUMPDEST POP PUSH2 0x18E5 DUP1 PUSH2 0x24 PUSH1 0x0 CODECOPY PUSH1 0x0 RETURN INVALID PUSH1 0x80 PUSH1 0x40 MSTORE PUSH1 0x4 CALLDATASIZE LT PUSH2 0x55 JUMPI PUSH1 0x0 CALLDATALOAD PUSH1 0xE0 SHR DUP1 PUSH4 0x12FB682D EQ PUSH2 0x5A JUMPI DUP1 PUSH4 0x669C0083 EQ PUSH2 0x97 JUMPI DUP1 PUSH4 0x6B81BE6C EQ PUSH2 0xD8 JUMPI DUP1 PUSH4 0x75B700E1 EQ PUSH2 0x103 JUMPI DUP1 PUSH4 0xB7751C71 EQ PUSH2 0x12E JUMPI DUP1 PUSH4 0xF2FD83AA EQ PUSH2 0x14A JUMPI JUMPDEST PUSH1 0x0 DUP1 REVERT JUMPDEST CALLVALUE DUP1 ISZERO PUSH2 0x66 JUMPI PUSH1 0x0 DUP1 REVERT JUMPDEST POP PUSH2 0x81 PUSH1 0x4 DUP1 CALLDATASIZE SUB DUP2 ADD SWAP1 PUSH2 0x7C SWAP2 SWAP1 PUSH2 0xC08 JUMP JUMPDEST PUSH2 0x166 JUMP JUMPDEST PUSH1 0x40 MLOAD PUSH2 0x8E SWAP2 SWAP1 PUSH2 0xC76 JUMP JUMPDEST PUSH1 0x40 MLOAD DUP1 SWAP2 SUB SWAP1 RETURN JUMPDEST CALLVALUE DUP1 ISZERO PUSH2 0xA3 JUMPI PUSH1 0x0 DUP1 REVERT JUMPDEST POP PUSH2 0xBE PUSH1 0x4 DUP1 CALLDATASIZE SUB DUP2 ADD SWAP1 PUSH2 0xB9 SWAP2 SWAP1 PUSH2 0xC08 JUMP JUMPDEST PUSH2 0x1A5 JUMP JUMPDEST PUSH1 0x40 MLOAD PUSH2 0xCF SWAP6 SWAP5 SWAP4 SWAP3 SWAP2 SWAP1 PUSH2 0xD4F JUMP JUMPDEST PUSH1 0x40 MLOAD DUP1 SWAP2 SUB SWAP1 RETURN JUMPDEST CALLVALUE DUP1 ISZERO PUSH2 0xE4 JUMPI PUSH1 0x0 DUP1 REVERT JUMPDEST POP PUSH2 0xED PUSH2 0x293 JUMP JUMPDEST PUSH1 0x40 MLOAD PUSH2 0xFA SWAP2 SWAP1 PUSH2 0xF49 JUMP JUMPDEST PUSH1 0x40 MLOAD DUP1 SWAP2 SUB SWAP1 RETURN JUMPDEST CALLVALUE DUP1 ISZERO PUSH2 0x10F JUMPI PUSH1 0x0 DUP1 REVERT JUMPDEST POP PUSH2 0x118 PUSH2 0x509 JUMP JUMPDEST PUSH1 0x40 MLOAD PUSH2 0x125 SWAP2 SWAP1 PUSH2 0x106B JUMP JUMPDEST PUSH1 0x40 MLOAD DUP1 SWAP2 SUB SWAP1 RETURN JUMPDEST PUSH2 0x148 PUSH1 0x4 DUP1 CALLDATASIZE SUB DUP2 ADD SWAP1 PUSH2 0x143 SWAP2 SWAP1 PUSH2 0x108D JUMP JUMPDEST PUSH2 0x625 JUMP JUMPDEST STOP JUMPDEST PUSH2 0x164 PUSH1 0x4 DUP1 CALLDATASIZE SUB DUP2 ADD SWAP1 PUSH2 0x15F SWAP2 SWAP1 PUSH2 0x122E JUMP JUMPDEST PUSH2 0x950 JUMP JUMPDEST STOP JUMPDEST PUSH1 0x1 DUP2 DUP2 SLOAD DUP2 LT PUSH2 0x176 JUMPI PUSH1 0x0 DUP1 REVERT JUMPDEST SWAP1 PUSH1 0x0 MSTORE PUSH1 0x20 PUSH1 0x0 KECCAK256 ADD PUSH1 0x0 SWAP2 POP SLOAD SWAP1 PUSH2 0x100 EXP SWAP1 DIV PUSH20 0xFFFFFFFFFFFFFFFFFFFFFFFFFFFFFFFFFFFFFFFF AND DUP2 JUMP JUMPDEST PUSH1 0x2 DUP2 DUP2 SLOAD DUP2 LT PUSH2 0x1B5 JUMPI PUSH1 0x0 DUP1 REVERT JUMPDEST SWAP1 PUSH1 0x0 MSTORE PUSH1 0x20 PUSH1 0x0 KECCAK256 SWAP1 PUSH1 0x4 MUL ADD PUSH1 0x0 SWAP2 POP SWAP1 POP DUP1 PUSH1 0x0 ADD SLOAD SWAP1 DUP1 PUSH1 0x1 ADD DUP1 SLOAD PUSH2 0x1DE SWAP1 PUSH2 0x12E0 JUMP JUMPDEST DUP1 PUSH1 0x1F ADD PUSH1 0x20 DUP1 SWAP2 DIV MUL PUSH1 0x20 ADD PUSH1 0x40 MLOAD SWAP1 DUP2 ADD PUSH1 0x40 MSTORE DUP1 SWAP3 SWAP2 SWAP1 DUP2 DUP2 MSTORE PUSH1 0x20 ADD DUP3 DUP1 SLOAD PUSH2 0x20A SWAP1 PUSH2 0x12E0 JUMP JUMPDEST DUP1 ISZERO PUSH2 0x257 JUMPI DUP1 PUSH1 0x1F LT PUSH2 0x22C JUMPI PUSH2 0x100 DUP1 DUP4 SLOAD DIV MUL DUP4 MSTORE SWAP2 PUSH1 0x20 ADD SWAP2 PUSH2 0x257 JUMP JUMPDEST DUP3 ADD SWAP2 SWAP1 PUSH1 0x0 MSTORE PUSH1 0x20 PUSH1 0x0 KECCAK256 SWAP1 JUMPDEST DUP2 SLOAD DUP2 MSTORE SWAP1 PUSH1 0x1 ADD SWAP1 PUSH1 0x20 ADD DUP1 DUP4 GT PUSH2 0x23A JUMPI DUP3 SWAP1 SUB PUSH1 0x1F AND DUP3 ADD SWAP2 JUMPDEST POP POP POP POP POP SWAP1 DUP1 PUSH1 0x2 ADD PUSH1 0x0 SWAP1 SLOAD SWAP1 PUSH2 0x100 EXP SWAP1 DIV PUSH4 0xFFFFFFFF AND SWAP1 DUP1 PUSH1 0x2 ADD PUSH1 0x4 SWAP1 SLOAD SWAP1 PUSH2 0x100 EXP SWAP1 DIV PUSH4 0xFFFFFFFF AND SWAP1 DUP1 PUSH1 0x3 ADD SLOAD SWAP1 POP DUP6 JUMP JUMPDEST PUSH1 0x60 PUSH1 0x0 PUSH1 0x3 PUSH1 0x0 CALLER PUSH20 0xFFFFFFFFFFFFFFFFFFFFFFFFFFFFFFFFFFFFFFFF AND PUSH20 0xFFFFFFFFFFFFFFFFFFFFFFFFFFFFFFFFFFFFFFFF AND DUP2 MSTORE PUSH1 0x20 ADD SWAP1 DUP2 MSTORE PUSH1 0x20 ADD PUSH1 0x0 KECCAK256 PUSH1 0x0 ADD SLOAD GT DUP1 ISZERO PUSH2 0x33E JUMPI POP TIMESTAMP PUSH1 0x3 PUSH1 0x0 CALLER PUSH20 0xFFFFFFFFFFFFFFFFFFFFFFFFFFFFFFFFFFFFFFFF AND PUSH20 0xFFFFFFFFFFFFFFFFFFFFFFFFFFFFFFFFFFFFFFFF AND DUP2 MSTORE PUSH1 0x20 ADD SWAP1 DUP2 MSTORE PUSH1 0x20 ADD PUSH1 0x0 KECCAK256 PUSH1 0x2 ADD PUSH1 0x4 SWAP1 SLOAD SWAP1 PUSH2 0x100 EXP SWAP1 DIV PUSH4 0xFFFFFFFF AND PUSH4 0xFFFFFFFF AND LT JUMPDEST PUSH2 0x37D JUMPI PUSH1 0x40 MLOAD PUSH32 0x8C379A000000000000000000000000000000000000000000000000000000000 DUP2 MSTORE PUSH1 0x4 ADD PUSH2 0x374 SWAP1 PUSH2 0x135D JUMP JUMPDEST PUSH1 0x40 MLOAD DUP1 SWAP2 SUB SWAP1 REVERT JUMPDEST PUSH1 0x5 PUSH1 0x0 CALLER PUSH20 0xFFFFFFFFFFFFFFFFFFFFFFFFFFFFFFFFFFFFFFFF AND PUSH20 0xFFFFFFFFFFFFFFFFFFFFFFFFFFFFFFFFFFFFFFFF AND DUP2 MSTORE PUSH1 0x20 ADD SWAP1 DUP2 MSTORE PUSH1 0x20 ADD PUSH1 0x0 KECCAK256 DUP1 SLOAD DUP1 PUSH1 0x20 MUL PUSH1 0x20 ADD PUSH1 0x40 MLOAD SWAP1 DUP2 ADD PUSH1 0x40 MSTORE DUP1 SWAP3 SWAP2 SWAP1 DUP2 DUP2 MSTORE PUSH1 0x20 ADD PUSH1 0x0 SWAP1 JUMPDEST DUP3 DUP3 LT ISZERO PUSH2 0x500 JUMPI DUP4 DUP3 SWAP1 PUSH1 0x0 MSTORE PUSH1 0x20 PUSH1 0x0 KECCAK256 SWAP1 PUSH1 0x4 MUL ADD PUSH1 0x40 MLOAD DUP1 PUSH1 0xA0 ADD PUSH1 0x40 MSTORE SWAP1 DUP2 PUSH1 0x0 DUP3 ADD SLOAD DUP2 MSTORE PUSH1 0x20 ADD PUSH1 0x1 DUP3 ADD DUP1 SLOAD PUSH2 0x419 SWAP1 PUSH2 0x12E0 JUMP JUMPDEST DUP1 PUSH1 0x1F ADD PUSH1 0x20 DUP1 SWAP2 DIV MUL PUSH1 0x20 ADD PUSH1 0x40 MLOAD SWAP1 DUP2 ADD PUSH1 0x40 MSTORE DUP1 SWAP3 SWAP2 SWAP1 DUP2 DUP2 MSTORE PUSH1 0x20 ADD DUP3 DUP1 SLOAD PUSH2 0x445 SWAP1 PUSH2 0x12E0 JUMP JUMPDEST DUP1 ISZERO PUSH2 0x492 JUMPI DUP1 PUSH1 0x1F LT PUSH2 0x467 JUMPI PUSH2 0x100 DUP1 DUP4 SLOAD DIV MUL DUP4 MSTORE SWAP2 PUSH1 0x20 ADD SWAP2 PUSH2 0x492 JUMP JUMPDEST DUP3 ADD SWAP2 SWAP1 PUSH1 0x0 MSTORE PUSH1 0x20 PUSH1 0x0 KECCAK256 SWAP1 JUMPDEST DUP2 SLOAD DUP2 MSTORE SWAP1 PUSH1 0x1 ADD SWAP1 PUSH1 0x20 ADD DUP1 DUP4 GT PUSH2 0x475 JUMPI DUP3 SWAP1 SUB PUSH1 0x1F AND DUP3 ADD SWAP2 JUMPDEST POP POP POP POP POP DUP2 MSTORE PUSH1 0x20 ADD PUSH1 0x2 DUP3 ADD PUSH1 0x0 SWAP1 SLOAD SWAP1 PUSH2 0x100 EXP SWAP1 DIV PUSH4 0xFFFFFFFF AND PUSH4 0xFFFFFFFF AND PUSH4 0xFFFFFFFF AND DUP2 MSTORE PUSH1 0x20 ADD PUSH1 0x2 DUP3 ADD PUSH1 0x4 SWAP1 SLOAD SWAP1 PUSH2 0x100 EXP SWAP1 DIV PUSH4 0xFFFFFFFF AND PUSH4 0xFFFFFFFF AND PUSH4 0xFFFFFFFF AND DUP2 MSTORE PUSH1 0x20 ADD PUSH1 0x3 DUP3 ADD SLOAD DUP2 MSTORE POP POP DUP2 MSTORE PUSH1 0x20 ADD SWAP1 PUSH1 0x1 ADD SWAP1 PUSH2 0x3DC JUMP JUMPDEST POP POP POP POP SWAP1 POP SWAP1 JUMP JUMPDEST PUSH1 0x60 PUSH1 0x4 PUSH1 0x0 PUSH1 0x3 PUSH1 0x0 CALLER PUSH20 0xFFFFFFFFFFFFFFFFFFFFFFFFFFFFFFFFFFFFFFFF AND PUSH20 0xFFFFFFFFFFFFFFFFFFFFFFFFFFFFFFFFFFFFFFFF AND DUP2 MSTORE PUSH1 0x20 ADD SWAP1 DUP2 MSTORE PUSH1 0x20 ADD PUSH1 0x0 KECCAK256 PUSH1 0x0 ADD SLOAD DUP2 MSTORE PUSH1 0x20 ADD SWAP1 DUP2 MSTORE PUSH1 0x20 ADD PUSH1 0x0 KECCAK256 DUP1 SLOAD DUP1 PUSH1 0x20 MUL PUSH1 0x20 ADD PUSH1 0x40 MLOAD SWAP1 DUP2 ADD PUSH1 0x40 MSTORE DUP1 SWAP3 SWAP2 SWAP1 DUP2 DUP2 MSTORE PUSH1 0x20 ADD PUSH1 0x0 SWAP1 JUMPDEST DUP3 DUP3 LT ISZERO PUSH2 0x61C JUMPI DUP4 DUP3 SWAP1 PUSH1 0x0 MSTORE PUSH1 0x20 PUSH1 0x0 KECCAK256 SWAP1 PUSH1 0x3 MUL ADD PUSH1 0x40 MLOAD DUP1 PUSH1 0x60 ADD PUSH1 0x40 MSTORE SWAP1 DUP2 PUSH1 0x0 DUP3 ADD PUSH1 0x0 SWAP1 SLOAD SWAP1 PUSH2 0x100 EXP SWAP1 DIV PUSH20 0xFFFFFFFFFFFFFFFFFFFFFFFFFFFFFFFFFFFFFFFF AND PUSH20 0xFFFFFFFFFFFFFFFFFFFFFFFFFFFFFFFFFFFFFFFF AND PUSH20 0xFFFFFFFFFFFFFFFFFFFFFFFFFFFFFFFFFFFFFFFF AND DUP2 MSTORE PUSH1 0x20 ADD PUSH1 0x1 DUP3 ADD SLOAD DUP2 MSTORE PUSH1 0x20 ADD PUSH1 0x2 DUP3 ADD SLOAD DUP2 MSTORE POP POP DUP2 MSTORE PUSH1 0x20 ADD SWAP1 PUSH1 0x1 ADD SWAP1 PUSH2 0x580 JUMP JUMPDEST POP POP POP POP SWAP1 POP SWAP1 JUMP JUMPDEST DUP1 PUSH1 0x0 SLOAD DUP2 GT ISZERO DUP1 ISZERO PUSH2 0x672 JUMPI POP TIMESTAMP PUSH1 0x2 DUP3 DUP2 SLOAD DUP2 LT PUSH2 0x648 JUMPI PUSH2 0x647 PUSH2 0x137D JUMP JUMPDEST JUMPDEST SWAP1 PUSH1 0x0 MSTORE PUSH1 0x20 PUSH1 0x0 KECCAK256 SWAP1 PUSH1 0x4 MUL ADD PUSH1 0x2 ADD PUSH1 0x0 SWAP1 SLOAD SWAP1 PUSH2 0x100 EXP SWAP1 DIV PUSH4 0xFFFFFFFF AND PUSH4 0xFFFFFFFF AND LT JUMPDEST DUP1 ISZERO PUSH2 0x6B8 JUMPI POP TIMESTAMP PUSH1 0x2 DUP3 DUP2 SLOAD DUP2 LT PUSH2 0x68E JUMPI PUSH2 0x68D PUSH2 0x137D JUMP JUMPDEST JUMPDEST SWAP1 PUSH1 0x0 MSTORE PUSH1 0x20 PUSH1 0x0 KECCAK256 SWAP1 PUSH1 0x4 MUL ADD PUSH1 0x2 ADD PUSH1 0x4 SWAP1 SLOAD SWAP1 PUSH2 0x100 EXP SWAP1 DIV PUSH4 0xFFFFFFFF AND PUSH4 0xFFFFFFFF AND GT JUMPDEST PUSH2 0x6F7 JUMPI PUSH1 0x40 MLOAD PUSH32 0x8C379A000000000000000000000000000000000000000000000000000000000 DUP2 MSTORE PUSH1 0x4 ADD PUSH2 0x6EE SWAP1 PUSH2 0x141E JUMP JUMPDEST PUSH1 0x40 MLOAD DUP1 SWAP2 SUB SWAP1 REVERT JUMPDEST PUSH1 0x2 DUP3 DUP2 SLOAD DUP2 LT PUSH2 0x70B JUMPI PUSH2 0x70A PUSH2 0x137D JUMP JUMPDEST JUMPDEST SWAP1 PUSH1 0x0 MSTORE PUSH1 0x20 PUSH1 0x0 KECCAK256 SWAP1 PUSH1 0x4 MUL ADD PUSH1 0x3 ADD SLOAD DUP4 GT PUSH2 0x75E JUMPI PUSH1 0x40 MLOAD PUSH32 0x8C379A000000000000000000000000000000000000000000000000000000000 DUP2 MSTORE PUSH1 0x4 ADD PUSH2 0x755 SWAP1 PUSH2 0x14B0 JUMP JUMPDEST PUSH1 0x40 MLOAD DUP1 SWAP2 SUB SWAP1 REVERT JUMPDEST PUSH1 0x4 PUSH1 0x0 DUP4 DUP2 MSTORE PUSH1 0x20 ADD SWAP1 DUP2 MSTORE PUSH1 0x20 ADD PUSH1 0x0 KECCAK256 PUSH1 0x40 MLOAD DUP1 PUSH1 0x60 ADD PUSH1 0x40 MSTORE DUP1 CALLER PUSH20 0xFFFFFFFFFFFFFFFFFFFFFFFFFFFFFFFFFFFFFFFF AND DUP2 MSTORE PUSH1 0x20 ADD DUP6 DUP2 MSTORE PUSH1 0x20 ADD DUP5 DUP2 MSTORE POP SWAP1 DUP1 PUSH1 0x1 DUP2 SLOAD ADD DUP1 DUP3 SSTORE DUP1 SWAP2 POP POP PUSH1 0x1 SWAP1 SUB SWAP1 PUSH1 0x0 MSTORE PUSH1 0x20 PUSH1 0x0 KECCAK256 SWAP1 PUSH1 0x3 MUL ADD PUSH1 0x0 SWAP1 SWAP2 SWAP1 SWAP2 SWAP1 SWAP2 POP PUSH1 0x0 DUP3 ADD MLOAD DUP2 PUSH1 0x0 ADD PUSH1 0x0 PUSH2 0x100 EXP DUP2 SLOAD DUP2 PUSH20 0xFFFFFFFFFFFFFFFFFFFFFFFFFFFFFFFFFFFFFFFF MUL NOT AND SWAP1 DUP4 PUSH20 0xFFFFFFFFFFFFFFFFFFFFFFFFFFFFFFFFFFFFFFFF AND MUL OR SWAP1 SSTORE POP PUSH1 0x20 DUP3 ADD MLOAD DUP2 PUSH1 0x1 ADD SSTORE PUSH1 0x40 DUP3 ADD MLOAD DUP2 PUSH1 0x2 ADD SSTORE POP POP PUSH1 0x5 PUSH1 0x0 CALLER PUSH20 0xFFFFFFFFFFFFFFFFFFFFFFFFFFFFFFFFFFFFFFFF AND PUSH20 0xFFFFFFFFFFFFFFFFFFFFFFFFFFFFFFFFFFFFFFFF AND DUP2 MSTORE PUSH1 0x20 ADD SWAP1 DUP2 MSTORE PUSH1 0x20 ADD PUSH1 0x0 KECCAK256 PUSH1 0x2 DUP4 DUP2 SLOAD DUP2 LT PUSH2 0x87B JUMPI PUSH2 0x87A PUSH2 0x137D JUMP JUMPDEST JUMPDEST SWAP1 PUSH1 0x0 MSTORE PUSH1 0x20 PUSH1 0x0 KECCAK256 SWAP1 PUSH1 0x4 MUL ADD SWAP1 DUP1 PUSH1 0x1 DUP2 SLOAD ADD DUP1 DUP3 SSTORE DUP1 SWAP2 POP POP PUSH1 0x1 SWAP1 SUB SWAP1 PUSH1 0x0 MSTORE PUSH1 0x20 PUSH1 0x0 KECCAK256 SWAP1 PUSH1 0x4 MUL ADD PUSH1 0x0 SWAP1 SWAP2 SWAP1 SWAP2 SWAP1 SWAP2 POP PUSH1 0x0 DUP3 ADD SLOAD DUP2 PUSH1 0x0 ADD SSTORE PUSH1 0x1 DUP3 ADD DUP2 PUSH1 0x1 ADD SWAP1 DUP2 PUSH2 0x8D0 SWAP2 SWAP1 PUSH2 0x1692 JUMP JUMPDEST POP PUSH1 0x2 DUP3 ADD PUSH1 0x0 SWAP1 SLOAD SWAP1 PUSH2 0x100 EXP SWAP1 DIV PUSH4 0xFFFFFFFF AND DUP2 PUSH1 0x2 ADD PUSH1 0x0 PUSH2 0x100 EXP DUP2 SLOAD DUP2 PUSH4 0xFFFFFFFF MUL NOT AND SWAP1 DUP4 PUSH4 0xFFFFFFFF AND MUL OR SWAP1 SSTORE POP PUSH1 0x2 DUP3 ADD PUSH1 0x4 SWAP1 SLOAD SWAP1 PUSH2 0x100 EXP SWAP1 DIV PUSH4 0xFFFFFFFF AND DUP2 PUSH1 0x2 ADD PUSH1 0x4 PUSH2 0x100 EXP DUP2 SLOAD DUP2 PUSH4 0xFFFFFFFF MUL NOT AND SWAP1 DUP4 PUSH4 0xFFFFFFFF AND MUL OR SWAP1 SSTORE POP PUSH1 0x3 DUP3 ADD SLOAD DUP2 PUSH1 0x3 ADD SSTORE POP POP POP POP POP JUMP JUMPDEST PUSH1 0x1 PUSH1 0x0 DUP1 DUP3 DUP3 SLOAD PUSH2 0x962 SWAP2 SWAP1 PUSH2 0x17A9 JUMP JUMPDEST SWAP3 POP POP DUP2 SWAP1 SSTORE POP PUSH1 0x40 MLOAD DUP1 PUSH1 0xA0 ADD PUSH1 0x40 MSTORE DUP1 PUSH1 0x0 SLOAD DUP2 MSTORE PUSH1 0x20 ADD DUP6 DUP2 MSTORE PUSH1 0x20 ADD DUP5 PUSH4 0xFFFFFFFF AND DUP2 MSTORE PUSH1 0x20 ADD DUP4 PUSH4 0xFFFFFFFF AND DUP2 MSTORE PUSH1 0x20 ADD DUP3 DUP2 MSTORE POP PUSH1 0x3 PUSH1 0x0 CALLER PUSH20 0xFFFFFFFFFFFFFFFFFFFFFFFFFFFFFFFFFFFFFFFF AND PUSH20 0xFFFFFFFFFFFFFFFFFFFFFFFFFFFFFFFFFFFFFFFF AND DUP2 MSTORE PUSH1 0x20 ADD SWAP1 DUP2 MSTORE PUSH1 0x20 ADD PUSH1 0x0 KECCAK256 PUSH1 0x0 DUP3 ADD MLOAD DUP2 PUSH1 0x0 ADD SSTORE PUSH1 0x20 DUP3 ADD MLOAD DUP2 PUSH1 0x1 ADD SWAP1 DUP2 PUSH2 0x9FC SWAP2 SWAP1 PUSH2 0x17DD JUMP JUMPDEST POP PUSH1 0x40 DUP3 ADD MLOAD DUP2 PUSH1 0x2 ADD PUSH1 0x0 PUSH2 0x100 EXP DUP2 SLOAD DUP2 PUSH4 0xFFFFFFFF MUL NOT AND SWAP1 DUP4 PUSH4 0xFFFFFFFF AND MUL OR SWAP1 SSTORE POP PUSH1 0x60 DUP3 ADD MLOAD DUP2 PUSH1 0x2 ADD PUSH1 0x4 PUSH2 0x100 EXP DUP2 SLOAD DUP2 PUSH4 0xFFFFFFFF MUL NOT AND SWAP1 DUP4 PUSH4 0xFFFFFFFF AND MUL OR SWAP1 SSTORE POP PUSH1 0x80 DUP3 ADD MLOAD DUP2 PUSH1 0x3 ADD SSTORE SWAP1 POP POP PUSH1 0x1 CALLER SWAP1 DUP1 PUSH1 0x1 DUP2 SLOAD ADD DUP1 DUP3 SSTORE DUP1 SWAP2 POP POP PUSH1 0x1 SWAP1 SUB SWAP1 PUSH1 0x0 MSTORE PUSH1 0x20 PUSH1 0x0 KECCAK256 ADD PUSH1 0x0 SWAP1 SWAP2 SWAP1 SWAP2 SWAP1 SWAP2 PUSH2 0x100 EXP DUP2 SLOAD DUP2 PUSH20 0xFFFFFFFFFFFFFFFFFFFFFFFFFFFFFFFFFFFFFFFF MUL NOT AND SWAP1 DUP4 PUSH20 0xFFFFFFFFFFFFFFFFFFFFFFFFFFFFFFFFFFFFFFFF AND MUL OR SWAP1 SSTORE POP PUSH1 0x3 PUSH1 0x0 CALLER PUSH20 0xFFFFFFFFFFFFFFFFFFFFFFFFFFFFFFFFFFFFFFFF AND PUSH20 0xFFFFFFFFFFFFFFFFFFFFFFFFFFFFFFFFFFFFFFFF AND DUP2 MSTORE PUSH1 0x20 ADD SWAP1 DUP2 MSTORE PUSH1 0x20 ADD PUSH1 0x0 KECCAK256 PUSH1 0x2 PUSH1 0x0 SLOAD DUP2 SLOAD DUP2 LT PUSH2 0xB10 JUMPI PUSH2 0xB0F PUSH2 0x137D JUMP JUMPDEST JUMPDEST SWAP1 PUSH1 0x0 MSTORE PUSH1 0x20 PUSH1 0x0 KECCAK256 SWAP1 PUSH1 0x4 MUL ADD PUSH1 0x0 DUP3 ADD SLOAD DUP2 PUSH1 0x0 ADD SSTORE PUSH1 0x1 DUP3 ADD DUP2 PUSH1 0x1 ADD SWAP1 DUP2 PUSH2 0xB3C SWAP2 SWAP1 PUSH2 0x1692 JUMP JUMPDEST POP PUSH1 0x2 DUP3 ADD PUSH1 0x0 SWAP1 SLOAD SWAP1 PUSH2 0x100 EXP SWAP1 DIV PUSH4 0xFFFFFFFF AND DUP2 PUSH1 0x2 ADD PUSH1 0x0 PUSH2 0x100 EXP DUP2 SLOAD DUP2 PUSH4 0xFFFFFFFF MUL NOT AND SWAP1 DUP4 PUSH4 0xFFFFFFFF AND MUL OR SWAP1 SSTORE POP PUSH1 0x2 DUP3 ADD PUSH1 0x4 SWAP1 SLOAD SWAP1 PUSH2 0x100 EXP SWAP1 DIV PUSH4 0xFFFFFFFF AND DUP2 PUSH1 0x2 ADD PUSH1 0x4 PUSH2 0x100 EXP DUP2 SLOAD DUP2 PUSH4 0xFFFFFFFF MUL NOT AND SWAP1 DUP4 PUSH4 0xFFFFFFFF AND MUL OR SWAP1 SSTORE POP PUSH1 0x3 DUP3 ADD SLOAD DUP2 PUSH1 0x3 ADD SSTORE SWAP1 POP POP POP POP POP POP JUMP JUMPDEST PUSH1 0x0 PUSH1 0x40 MLOAD SWAP1 POP SWAP1 JUMP JUMPDEST PUSH1 0x0 DUP1 REVERT JUMPDEST PUSH1 0x0 DUP1 REVERT JUMPDEST PUSH1 0x0 DUP2 SWAP1 POP SWAP2 SWAP1 POP JUMP JUMPDEST PUSH2 0xBE5 DUP2 PUSH2 0xBD2 JUMP JUMPDEST DUP2 EQ PUSH2 0xBF0 JUMPI PUSH1 0x0 DUP1 REVERT JUMPDEST POP JUMP JUMPDEST PUSH1 0x0 DUP2 CALLDATALOAD SWAP1 POP PUSH2 0xC02 DUP2 PUSH2 0xBDC JUMP JUMPDEST SWAP3 SWAP2 POP POP JUMP JUMPDEST PUSH1 0x0 PUSH1 0x20 DUP3 DUP5 SUB SLT ISZERO PUSH2 0xC1E JUMPI PUSH2 0xC1D PUSH2 0xBC8 JUMP JUMPDEST JUMPDEST PUSH1 0x0 PUSH2 0xC2C DUP5 DUP3 DUP6 ADD PUSH2 0xBF3 JUMP JUMPDEST SWAP2 POP POP SWAP3 SWAP2 POP POP JUMP JUMPDEST PUSH1 0x0 PUSH20 0xFFFFFFFFFFFFFFFFFFFFFFFFFFFFFFFFFFFFFFFF DUP3 AND SWAP1 POP SWAP2 SWAP1 POP JUMP JUMPDEST PUSH1 0x0 PUSH2 0xC60 DUP3 PUSH2 0xC35 JUMP JUMPDEST SWAP1 POP SWAP2 SWAP1 POP JUMP JUMPDEST PUSH2 0xC70 DUP2 PUSH2 0xC55 JUMP JUMPDEST DUP3 MSTORE POP POP JUMP JUMPDEST PUSH1 0x0 PUSH1 0x20 DUP3 ADD SWAP1 POP PUSH2 0xC8B PUSH1 0x0 DUP4 ADD DUP5 PUSH2 0xC67 JUMP JUMPDEST SWAP3 SWAP2 POP POP JUMP JUMPDEST PUSH2 0xC9A DUP2 PUSH2 0xBD2 JUMP JUMPDEST DUP3 MSTORE POP POP JUMP JUMPDEST PUSH1 0x0 DUP2 MLOAD SWAP1 POP SWAP2 SWAP1 POP JUMP JUMPDEST PUSH1 0x0 DUP3 DUP3 MSTORE PUSH1 0x20 DUP3 ADD SWAP1 POP SWAP3 SWAP2 POP POP JUMP JUMPDEST PUSH1 0x0 JUMPDEST DUP4 DUP2 LT ISZERO PUSH2 0xCDA JUMPI DUP1 DUP3 ADD MLOAD DUP2 DUP5 ADD MSTORE PUSH1 0x20 DUP2 ADD SWAP1 POP PUSH2 0xCBF JUMP JUMPDEST PUSH1 0x0 DUP5 DUP5 ADD MSTORE POP POP POP POP JUMP JUMPDEST PUSH1 0x0 PUSH1 0x1F NOT PUSH1 0x1F DUP4 ADD AND SWAP1 POP SWAP2 SWAP1 POP JUMP JUMPDEST PUSH1 0x0 PUSH2 0xD02 DUP3 PUSH2 0xCA0 JUMP JUMPDEST PUSH2 0xD0C DUP2 DUP6 PUSH2 0xCAB JUMP JUMPDEST SWAP4 POP PUSH2 0xD1C DUP2 DUP6 PUSH1 0x20 DUP7 ADD PUSH2 0xCBC JUMP JUMPDEST PUSH2 0xD25 DUP2 PUSH2 0xCE6 JUMP JUMPDEST DUP5 ADD SWAP2 POP POP SWAP3 SWAP2 POP POP JUMP JUMPDEST PUSH1 0x0 PUSH4 0xFFFFFFFF DUP3 AND SWAP1 POP SWAP2 SWAP1 POP JUMP JUMPDEST PUSH2 0xD49 DUP2 PUSH2 0xD30 JUMP JUMPDEST DUP3 MSTORE POP POP JUMP JUMPDEST PUSH1 0x0 PUSH1 0xA0 DUP3 ADD SWAP1 POP PUSH2 0xD64 PUSH1 0x0 DUP4 ADD DUP9 PUSH2 0xC91 JUMP JUMPDEST DUP2 DUP2 SUB PUSH1 0x20 DUP4 ADD MSTORE PUSH2 0xD76 DUP2 DUP8 PUSH2 0xCF7 JUMP JUMPDEST SWAP1 POP PUSH2 0xD85 PUSH1 0x40 DUP4 ADD DUP7 PUSH2 0xD40 JUMP JUMPDEST PUSH2 0xD92 PUSH1 0x60 DUP4 ADD DUP6 PUSH2 0xD40 JUMP JUMPDEST PUSH2 0xD9F PUSH1 0x80 DUP4 ADD DUP5 PUSH2 0xC91 JUMP JUMPDEST SWAP7 SWAP6 POP POP POP POP POP POP JUMP JUMPDEST PUSH1 0x0 DUP2 MLOAD SWAP1 POP SWAP2 SWAP1 POP JUMP JUMPDEST PUSH1 0x0 DUP3 DUP3 MSTORE PUSH1 0x20 DUP3 ADD SWAP1 POP SWAP3 SWAP2 POP POP JUMP JUMPDEST PUSH1 0x0 DUP2 SWAP1 POP PUSH1 0x20 DUP3 ADD SWAP1 POP SWAP2 SWAP1 POP JUMP JUMPDEST PUSH2 0xDDE DUP2 PUSH2 0xBD2 JUMP JUMPDEST DUP3 MSTORE POP POP JUMP JUMPDEST PUSH1 0x0 DUP3 DUP3 MSTORE PUSH1 0x20 DUP3 ADD SWAP1 POP SWAP3 SWAP2 POP POP JUMP JUMPDEST PUSH1 0x0 PUSH2 0xE00 DUP3 PUSH2 0xCA0 JUMP JUMPDEST PUSH2 0xE0A DUP2 DUP6 PUSH2 0xDE4 JUMP JUMPDEST SWAP4 POP PUSH2 0xE1A DUP2 DUP6 PUSH1 0x20 DUP7 ADD PUSH2 0xCBC JUMP JUMPDEST PUSH2 0xE23 DUP2 PUSH2 0xCE6 JUMP JUMPDEST DUP5 ADD SWAP2 POP POP SWAP3 SWAP2 POP POP JUMP JUMPDEST PUSH2 0xE37 DUP2 PUSH2 0xD30 JUMP JUMPDEST DUP3 MSTORE POP POP JUMP JUMPDEST PUSH1 0x0 PUSH1 0xA0 DUP4 ADD PUSH1 0x0 DUP4 ADD MLOAD PUSH2 0xE55 PUSH1 0x0 DUP7 ADD DUP3 PUSH2 0xDD5 JUMP JUMPDEST POP PUSH1 0x20 DUP4 ADD MLOAD DUP5 DUP3 SUB PUSH1 0x20 DUP7 ADD MSTORE PUSH2 0xE6D DUP3 DUP3 PUSH2 0xDF5 JUMP JUMPDEST SWAP2 POP POP PUSH1 0x40 DUP4 ADD MLOAD PUSH2 0xE82 PUSH1 0x40 DUP7 ADD DUP3 PUSH2 0xE2E JUMP JUMPDEST POP PUSH1 0x60 DUP4 ADD MLOAD PUSH2 0xE95 PUSH1 0x60 DUP7 ADD DUP3 PUSH2 0xE2E JUMP JUMPDEST POP PUSH1 0x80 DUP4 ADD MLOAD PUSH2 0xEA8 PUSH1 0x80 DUP7 ADD DUP3 PUSH2 0xDD5 JUMP JUMPDEST POP DUP1 SWAP2 POP POP SWAP3 SWAP2 POP POP JUMP JUMPDEST PUSH1 0x0 PUSH2 0xEBF DUP4 DUP4 PUSH2 0xE3D JUMP JUMPDEST SWAP1 POP SWAP3 SWAP2 POP POP JUMP JUMPDEST PUSH1 0x0 PUSH1 0x20 DUP3 ADD SWAP1 POP SWAP2 SWAP1 POP JUMP JUMPDEST PUSH1 0x0 PUSH2 0xEDF DUP3 PUSH2 0xDA9 JUMP JUMPDEST PUSH2 0xEE9 DUP2 DUP6 PUSH2 0xDB4 JUMP JUMPDEST SWAP4 POP DUP4 PUSH1 0x20 DUP3 MUL DUP6 ADD PUSH2 0xEFB DUP6 PUSH2 0xDC5 JUMP JUMPDEST DUP1 PUSH1 0x0 JUMPDEST DUP6 DUP2 LT ISZERO PUSH2 0xF37 JUMPI DUP5 DUP5 SUB DUP10 MSTORE DUP2 MLOAD PUSH2 0xF18 DUP6 DUP3 PUSH2 0xEB3 JUMP JUMPDEST SWAP5 POP PUSH2 0xF23 DUP4 PUSH2 0xEC7 JUMP JUMPDEST SWAP3 POP PUSH1 0x20 DUP11 ADD SWAP10 POP POP PUSH1 0x1 DUP2 ADD SWAP1 POP PUSH2 0xEFF JUMP JUMPDEST POP DUP3 SWAP8 POP DUP8 SWAP6 POP POP POP POP POP POP SWAP3 SWAP2 POP POP JUMP JUMPDEST PUSH1 0x0 PUSH1 0x20 DUP3 ADD SWAP1 POP DUP2 DUP2 SUB PUSH1 0x0 DUP4 ADD MSTORE PUSH2 0xF63 DUP2 DUP5 PUSH2 0xED4 JUMP JUMPDEST SWAP1 POP SWAP3 SWAP2 POP POP JUMP JUMPDEST PUSH1 0x0 DUP2 MLOAD SWAP1 POP SWAP2 SWAP1 POP JUMP JUMPDEST PUSH1 0x0 DUP3 DUP3 MSTORE PUSH1 0x20 DUP3 ADD SWAP1 POP SWAP3 SWAP2 POP POP JUMP JUMPDEST PUSH1 0x0 DUP2 SWAP1 POP PUSH1 0x20 DUP3 ADD SWAP1 POP SWAP2 SWAP1 POP JUMP JUMPDEST PUSH2 0xFA0 DUP2 PUSH2 0xC55 JUMP JUMPDEST DUP3 MSTORE POP POP JUMP JUMPDEST PUSH1 0x60 DUP3 ADD PUSH1 0x0 DUP3 ADD MLOAD PUSH2 0xFBC PUSH1 0x0 DUP6 ADD DUP3 PUSH2 0xF97 JUMP JUMPDEST POP PUSH1 0x20 DUP3 ADD MLOAD PUSH2 0xFCF PUSH1 0x20 DUP6 ADD DUP3 PUSH2 0xDD5 JUMP JUMPDEST POP PUSH1 0x40 DUP3 ADD MLOAD PUSH2 0xFE2 PUSH1 0x40 DUP6 ADD DUP3 PUSH2 0xDD5 JUMP JUMPDEST POP POP POP POP JUMP JUMPDEST PUSH1 0x0 PUSH2 0xFF4 DUP4 DUP4 PUSH2 0xFA6 JUMP JUMPDEST PUSH1 0x60 DUP4 ADD SWAP1 POP SWAP3 SWAP2 POP POP JUMP JUMPDEST PUSH1 0x0 PUSH1 0x20 DUP3 ADD SWAP1 POP SWAP2 SWAP1 POP JUMP JUMPDEST PUSH1 0x0 PUSH2 0x1018 DUP3 PUSH2 0xF6B JUMP JUMPDEST PUSH2 0x1022 DUP2 DUP6 PUSH2 0xF76 JUMP JUMPDEST SWAP4 POP PUSH2 0x102D DUP4 PUSH2 0xF87 JUMP JUMPDEST DUP1 PUSH1 0x0 JUMPDEST DUP4 DUP2 LT ISZERO PUSH2 0x105E JUMPI DUP2 MLOAD PUSH2 0x1045 DUP9 DUP3 PUSH2 0xFE8 JUMP JUMPDEST SWAP8 POP PUSH2 0x1050 DUP4 PUSH2 0x1000 JUMP JUMPDEST SWAP3 POP POP PUSH1 0x1 DUP2 ADD SWAP1 POP PUSH2 0x1031 JUMP JUMPDEST POP DUP6 SWAP4 POP POP POP POP SWAP3 SWAP2 POP POP JUMP JUMPDEST PUSH1 0x0 PUSH1 0x20 DUP3 ADD SWAP1 POP DUP2 DUP2 SUB PUSH1 0x0 DUP4 ADD MSTORE PUSH2 0x1085 DUP2 DUP5 PUSH2 0x100D JUMP JUMPDEST SWAP1 POP SWAP3 SWAP2 POP POP JUMP JUMPDEST PUSH1 0x0 DUP1 PUSH1 0x40 DUP4 DUP6 SUB SLT ISZERO PUSH2 0x10A4 JUMPI PUSH2 0x10A3 PUSH2 0xBC8 JUMP JUMPDEST JUMPDEST PUSH1 0x0 PUSH2 0x10B2 DUP6 DUP3 DUP7 ADD PUSH2 0xBF3 JUMP JUMPDEST SWAP3 POP POP PUSH1 0x20 PUSH2 0x10C3 DUP6 DUP3 DUP7 ADD PUSH2 0xBF3 JUMP JUMPDEST SWAP2 POP POP SWAP3 POP SWAP3 SWAP1 POP JUMP JUMPDEST PUSH1 0x0 DUP1 REVERT JUMPDEST PUSH1 0x0 DUP1 REVERT JUMPDEST PUSH32 0x4E487B7100000000000000000000000000000000000000000000000000000000 PUSH1 0x0 MSTORE PUSH1 0x41 PUSH1 0x4 MSTORE PUSH1 0x24 PUSH1 0x0 REVERT JUMPDEST PUSH2 0x110F DUP3 PUSH2 0xCE6 JUMP JUMPDEST DUP2 ADD DUP2 DUP2 LT PUSH8 0xFFFFFFFFFFFFFFFF DUP3 GT OR ISZERO PUSH2 0x112E JUMPI PUSH2 0x112D PUSH2 0x10D7 JUMP JUMPDEST JUMPDEST DUP1 PUSH1 0x40 MSTORE POP POP POP JUMP JUMPDEST PUSH1 0x0 PUSH2 0x1141 PUSH2 0xBBE JUMP JUMPDEST SWAP1 POP PUSH2 0x114D DUP3 DUP3 PUSH2 0x1106 JUMP JUMPDEST SWAP2 SWAP1 POP JUMP JUMPDEST PUSH1 0x0 PUSH8 0xFFFFFFFFFFFFFFFF DUP3 GT ISZERO PUSH2 0x116D JUMPI PUSH2 0x116C PUSH2 0x10D7 JUMP JUMPDEST JUMPDEST PUSH2 0x1176 DUP3 PUSH2 0xCE6 JUMP JUMPDEST SWAP1 POP PUSH1 0x20 DUP2 ADD SWAP1 POP SWAP2 SWAP1 POP JUMP JUMPDEST DUP3 DUP2 DUP4 CALLDATACOPY PUSH1 0x0 DUP4 DUP4 ADD MSTORE POP POP POP JUMP JUMPDEST PUSH1 0x0 PUSH2 0x11A5 PUSH2 0x11A0 DUP5 PUSH2 0x1152 JUMP JUMPDEST PUSH2 0x1137 JUMP JUMPDEST SWAP1 POP DUP3 DUP2 MSTORE PUSH1 0x20 DUP2 ADD DUP5 DUP5 DUP5 ADD GT ISZERO PUSH2 0x11C1 JUMPI PUSH2 0x11C0 PUSH2 0x10D2 JUMP JUMPDEST JUMPDEST PUSH2 0x11CC DUP5 DUP3 DUP6 PUSH2 0x1183 JUMP JUMPDEST POP SWAP4 SWAP3 POP POP POP JUMP JUMPDEST PUSH1 0x0 DUP3 PUSH1 0x1F DUP4 ADD SLT PUSH2 0x11E9 JUMPI PUSH2 0x11E8 PUSH2 0x10CD JUMP JUMPDEST JUMPDEST DUP2 CALLDATALOAD PUSH2 0x11F9 DUP5 DUP3 PUSH1 0x20 DUP7 ADD PUSH2 0x1192 JUMP JUMPDEST SWAP2 POP POP SWAP3 SWAP2 POP POP JUMP JUMPDEST PUSH2 0x120B DUP2 PUSH2 0xD30 JUMP JUMPDEST DUP2 EQ PUSH2 0x1216 JUMPI PUSH1 0x0 DUP1 REVERT JUMPDEST POP JUMP JUMPDEST PUSH1 0x0 DUP2 CALLDATALOAD SWAP1 POP PUSH2 0x1228 DUP2 PUSH2 0x1202 JUMP JUMPDEST SWAP3 SWAP2 POP POP JUMP JUMPDEST PUSH1 0x0 DUP1 PUSH1 0x0 DUP1 PUSH1 0x80 DUP6 DUP8 SUB SLT ISZERO PUSH2 0x1248 JUMPI PUSH2 0x1247 PUSH2 0xBC8 JUMP JUMPDEST JUMPDEST PUSH1 0x0 DUP6 ADD CALLDATALOAD PUSH8 0xFFFFFFFFFFFFFFFF DUP2 GT ISZERO PUSH2 0x1266 JUMPI PUSH2 0x1265 PUSH2 0xBCD JUMP JUMPDEST JUMPDEST PUSH2 0x1272 DUP8 DUP3 DUP9 ADD PUSH2 0x11D4 JUMP JUMPDEST SWAP5 POP POP PUSH1 0x20 PUSH2 0x1283 DUP8 DUP3 DUP9 ADD PUSH2 0x1219 JUMP JUMPDEST SWAP4 POP POP PUSH1 0x40 PUSH2 0x1294 DUP8 DUP3 DUP9 ADD PUSH2 0x1219 JUMP JUMPDEST SWAP3 POP POP PUSH1 0x60 PUSH2 0x12A5 DUP8 DUP3 DUP9 ADD PUSH2 0xBF3 JUMP JUMPDEST SWAP2 POP POP SWAP3 SWAP6 SWAP2 SWAP5 POP SWAP3 POP JUMP JUMPDEST PUSH32 0x4E487B7100000000000000000000000000000000000000000000000000000000 PUSH1 0x0 MSTORE PUSH1 0x22 PUSH1 0x4 MSTORE PUSH1 0x24 PUSH1 0x0 REVERT JUMPDEST PUSH1 0x0 PUSH1 0x2 DUP3 DIV SWAP1 POP PUSH1 0x1 DUP3 AND DUP1 PUSH2 0x12F8 JUMPI PUSH1 0x7F DUP3 AND SWAP2 POP JUMPDEST PUSH1 0x20 DUP3 LT DUP2 SUB PUSH2 0x130B JUMPI PUSH2 0x130A PUSH2 0x12B1 JUMP JUMPDEST JUMPDEST POP SWAP2 SWAP1 POP JUMP JUMPDEST PUSH32 0x596F7520646F6E2774206861766520616E206163746976652061756374696F6E PUSH1 0x0 DUP3 ADD MSTORE POP JUMP JUMPDEST PUSH1 0x0 PUSH2 0x1347 PUSH1 0x20 DUP4 PUSH2 0xCAB JUMP JUMPDEST SWAP2 POP PUSH2 0x1352 DUP3 PUSH2 0x1311 JUMP JUMPDEST PUSH1 0x20 DUP3 ADD SWAP1 POP SWAP2 SWAP1 POP JUMP JUMPDEST PUSH1 0x0 PUSH1 0x20 DUP3 ADD SWAP1 POP DUP2 DUP2 SUB PUSH1 0x0 DUP4 ADD MSTORE PUSH2 0x1376 DUP2 PUSH2 0x133A JUMP JUMPDEST SWAP1 POP SWAP2 SWAP1 POP JUMP JUMPDEST PUSH32 0x4E487B7100000000000000000000000000000000000000000000000000000000 PUSH1 0x0 MSTORE PUSH1 0x32 PUSH1 0x4 MSTORE PUSH1 0x24 PUSH1 0x0 REVERT JUMPDEST PUSH32 0x41756374696F6E204973204E6F7420416374697665206F72204E6F7420507265 PUSH1 0x0 DUP3 ADD MSTORE PUSH32 0x73656E7400000000000000000000000000000000000000000000000000000000 PUSH1 0x20 DUP3 ADD MSTORE POP JUMP JUMPDEST PUSH1 0x0 PUSH2 0x1408 PUSH1 0x24 DUP4 PUSH2 0xCAB JUMP JUMPDEST SWAP2 POP PUSH2 0x1413 DUP3 PUSH2 0x13AC JUMP JUMPDEST PUSH1 0x40 DUP3 ADD SWAP1 POP SWAP2 SWAP1 POP JUMP JUMPDEST PUSH1 0x0 PUSH1 0x20 DUP3 ADD SWAP1 POP DUP2 DUP2 SUB PUSH1 0x0 DUP4 ADD MSTORE PUSH2 0x1437 DUP2 PUSH2 0x13FB JUMP JUMPDEST SWAP1 POP SWAP2 SWAP1 POP JUMP JUMPDEST PUSH32 0x42696420416D6F756E742073686F756C64206265206772656174657220746865 PUSH1 0x0 DUP3 ADD MSTORE PUSH32 0x6E206D696E696D756D204269642056616C756500000000000000000000000000 PUSH1 0x20 DUP3 ADD MSTORE POP JUMP JUMPDEST PUSH1 0x0 PUSH2 0x149A PUSH1 0x33 DUP4 PUSH2 0xCAB JUMP JUMPDEST SWAP2 POP PUSH2 0x14A5 DUP3 PUSH2 0x143E JUMP JUMPDEST PUSH1 0x40 DUP3 ADD SWAP1 POP SWAP2 SWAP1 POP JUMP JUMPDEST PUSH1 0x0 PUSH1 0x20 DUP3 ADD SWAP1 POP DUP2 DUP2 SUB PUSH1 0x0 DUP4 ADD MSTORE PUSH2 0x14C9 DUP2 PUSH2 0x148D JUMP JUMPDEST SWAP1 POP SWAP2 SWAP1 POP JUMP JUMPDEST PUSH1 0x0 DUP2 SLOAD SWAP1 POP PUSH2 0x14DF DUP2 PUSH2 0x12E0 JUMP JUMPDEST SWAP1 POP SWAP2 SWAP1 POP JUMP JUMPDEST PUSH1 0x0 DUP2 SWAP1 POP DUP2 PUSH1 0x0 MSTORE PUSH1 0x20 PUSH1 0x0 KECCAK256 SWAP1 POP SWAP2 SWAP1 POP JUMP JUMPDEST PUSH1 0x0 PUSH1 0x20 PUSH1 0x1F DUP4 ADD DIV SWAP1 POP SWAP2 SWAP1 POP JUMP JUMPDEST PUSH1 0x0 DUP3 DUP3 SHL SWAP1 POP SWAP3 SWAP2 POP POP JUMP JUMPDEST PUSH1 0x0 PUSH1 0x8 DUP4 MUL PUSH2 0x1548 PUSH32 0xFFFFFFFFFFFFFFFFFFFFFFFFFFFFFFFFFFFFFFFFFFFFFFFFFFFFFFFFFFFFFFFF DUP3 PUSH2 0x150B JUMP JUMPDEST PUSH2 0x1552 DUP7 DUP4 PUSH2 0x150B JUMP JUMPDEST SWAP6 POP DUP1 NOT DUP5 AND SWAP4 POP DUP1 DUP7 AND DUP5 OR SWAP3 POP POP POP SWAP4 SWAP3 POP POP POP JUMP JUMPDEST PUSH1 0x0 DUP2 SWAP1 POP SWAP2 SWAP1 POP JUMP JUMPDEST PUSH1 0x0 PUSH2 0x158F PUSH2 0x158A PUSH2 0x1585 DUP5 PUSH2 0xBD2 JUMP JUMPDEST PUSH2 0x156A JUMP JUMPDEST PUSH2 0xBD2 JUMP JUMPDEST SWAP1 POP SWAP2 SWAP1 POP JUMP JUMPDEST PUSH1 0x0 DUP2 SWAP1 POP SWAP2 SWAP1 POP JUMP JUMPDEST PUSH2 0x15A9 DUP4 PUSH2 0x1574 JUMP JUMPDEST PUSH2 0x15BD PUSH2 0x15B5 DUP3 PUSH2 0x1596 JUMP JUMPDEST DUP5 DUP5 SLOAD PUSH2 0x1518 JUMP JUMPDEST DUP3 SSTORE POP POP POP POP JUMP JUMPDEST PUSH1 0x0 SWAP1 JUMP JUMPDEST PUSH2 0x15D2 PUSH2 0x15C5 JUMP JUMPDEST PUSH2 0x15DD DUP2 DUP5 DUP5 PUSH2 0x15A0 JUMP JUMPDEST POP POP POP JUMP JUMPDEST JUMPDEST DUP2 DUP2 LT ISZERO PUSH2 0x1601 JUMPI PUSH2 0x15F6 PUSH1 0x0 DUP3 PUSH2 0x15CA JUMP JUMPDEST PUSH1 0x1 DUP2 ADD SWAP1 POP PUSH2 0x15E3 JUMP JUMPDEST POP POP JUMP JUMPDEST PUSH1 0x1F DUP3 GT ISZERO PUSH2 0x1646 JUMPI PUSH2 0x1617 DUP2 PUSH2 0x14E6 JUMP JUMPDEST PUSH2 0x1620 DUP5 PUSH2 0x14FB JUMP JUMPDEST DUP2 ADD PUSH1 0x20 DUP6 LT ISZERO PUSH2 0x162F JUMPI DUP2 SWAP1 POP JUMPDEST PUSH2 0x1643 PUSH2 0x163B DUP6 PUSH2 0x14FB JUMP JUMPDEST DUP4 ADD DUP3 PUSH2 0x15E2 JUMP JUMPDEST POP POP JUMPDEST POP POP POP JUMP JUMPDEST PUSH1 0x0 DUP3 DUP3 SHR SWAP1 POP SWAP3 SWAP2 POP POP JUMP JUMPDEST PUSH1 0x0 PUSH2 0x1669 PUSH1 0x0 NOT DUP5 PUSH1 0x8 MUL PUSH2 0x164B JUMP JUMPDEST NOT DUP1 DUP4 AND SWAP2 POP POP SWAP3 SWAP2 POP POP JUMP JUMPDEST PUSH1 0x0 PUSH2 0x1682 DUP4 DUP4 PUSH2 0x1658 JUMP JUMPDEST SWAP2 POP DUP3 PUSH1 0x2 MUL DUP3 OR SWAP1 POP SWAP3 SWAP2 POP POP JUMP JUMPDEST DUP2 DUP2 SUB PUSH2 0x16A0 JUMPI POP POP PUSH2 0x1778 JUMP JUMPDEST PUSH2 0x16A9 DUP3 PUSH2 0x14D0 JUMP JUMPDEST PUSH8 0xFFFFFFFFFFFFFFFF DUP2 GT ISZERO PUSH2 0x16C2 JUMPI PUSH2 0x16C1 PUSH2 0x10D7 JUMP JUMPDEST JUMPDEST PUSH2 0x16CC DUP3 SLOAD PUSH2 0x12E0 JUMP JUMPDEST PUSH2 0x16D7 DUP3 DUP3 DUP6 PUSH2 0x1605 JUMP JUMPDEST PUSH1 0x0 PUSH1 0x1F DUP4 GT PUSH1 0x1 DUP2 EQ PUSH2 0x1706 JUMPI PUSH1 0x0 DUP5 ISZERO PUSH2 0x16F4 JUMPI DUP3 DUP8 ADD SLOAD SWAP1 POP JUMPDEST PUSH2 0x16FE DUP6 DUP3 PUSH2 0x1676 JUMP JUMPDEST DUP7 SSTORE POP PUSH2 0x1771 JUMP JUMPDEST PUSH1 0x1F NOT DUP5 AND PUSH2 0x1714 DUP8 PUSH2 0x14E6 JUMP JUMPDEST SWAP7 POP PUSH2 0x171F DUP7 PUSH2 0x14E6 JUMP JUMPDEST PUSH1 0x0 JUMPDEST DUP3 DUP2 LT ISZERO PUSH2 0x1747 JUMPI DUP5 DUP10 ADD SLOAD DUP3 SSTORE PUSH1 0x1 DUP3 ADD SWAP2 POP PUSH1 0x1 DUP6 ADD SWAP5 POP PUSH1 0x20 DUP2 ADD SWAP1 POP PUSH2 0x1722 JUMP JUMPDEST DUP7 DUP4 LT ISZERO PUSH2 0x1764 JUMPI DUP5 DUP10 ADD SLOAD PUSH2 0x1760 PUSH1 0x1F DUP10 AND DUP3 PUSH2 0x1658 JUMP JUMPDEST DUP4 SSTORE POP JUMPDEST PUSH1 0x1 PUSH1 0x2 DUP9 MUL ADD DUP9 SSTORE POP POP POP JUMPDEST POP POP POP POP POP POP JUMPDEST JUMP JUMPDEST PUSH32 0x4E487B7100000000000000000000000000000000000000000000000000000000 PUSH1 0x0 MSTORE PUSH1 0x11 PUSH1 0x4 MSTORE PUSH1 0x24 PUSH1 0x0 REVERT JUMPDEST PUSH1 0x0 PUSH2 0x17B4 DUP3 PUSH2 0xBD2 JUMP JUMPDEST SWAP2 POP PUSH2 0x17BF DUP4 PUSH2 0xBD2 JUMP JUMPDEST SWAP3 POP DUP3 DUP3 ADD SWAP1 POP DUP1 DUP3 GT ISZERO PUSH2 0x17D7 JUMPI PUSH2 0x17D6 PUSH2 0x177A JUMP JUMPDEST JUMPDEST SWAP3 SWAP2 POP POP JUMP JUMPDEST PUSH2 0x17E6 DUP3 PUSH2 0xCA0 JUMP JUMPDEST PUSH8 0xFFFFFFFFFFFFFFFF DUP2 GT ISZERO PUSH2 0x17FF JUMPI PUSH2 0x17FE PUSH2 0x10D7 JUMP JUMPDEST JUMPDEST PUSH2 0x1809 DUP3 SLOAD PUSH2 0x12E0 JUMP JUMPDEST PUSH2 0x1814 DUP3 DUP3 DUP6 PUSH2 0x1605 JUMP JUMPDEST PUSH1 0x0 PUSH1 0x20 SWAP1 POP PUSH1 0x1F DUP4 GT PUSH1 0x1 DUP2 EQ PUSH2 0x1847 JUMPI PUSH1 0x0 DUP5 ISZERO PUSH2 0x1835 JUMPI DUP3 DUP8 ADD MLOAD SWAP1 POP JUMPDEST PUSH2 0x183F DUP6 DUP3 PUSH2 0x1676 JUMP JUMPDEST DUP7 SSTORE POP PUSH2 0x18A7 JUMP JUMPDEST PUSH1 0x1F NOT DUP5 AND PUSH2 0x1855 DUP7 PUSH2 0x14E6 JUMP JUMPDEST PUSH1 0x0 JUMPDEST DUP3 DUP2 LT ISZERO PUSH2 0x187D JUMPI DUP5 DUP10 ADD MLOAD DUP3 SSTORE PUSH1 0x1 DUP3 ADD SWAP2 POP PUSH1 0x20 DUP6 ADD SWAP5 POP PUSH1 0x20 DUP2 ADD SWAP1 POP PUSH2 0x1858 JUMP JUMPDEST DUP7 DUP4 LT ISZERO PUSH2 0x189A JUMPI DUP5 DUP10 ADD MLOAD PUSH2 0x1896 PUSH1 0x1F DUP10 AND DUP3 PUSH2 0x1658 JUMP JUMPDEST DUP4 SSTORE POP JUMPDEST PUSH1 0x1 PUSH1 0x2 DUP9 MUL ADD DUP9 SSTORE POP POP POP JUMPDEST POP POP POP POP POP POP JUMP INVALID LOG2 PUSH5 0x6970667358 0x22 SLT KECCAK256 0xEB 0xF9 CODECOPY PUSH32 0x3AC4C27027D93B40F57B013B711A83D26F1A8CF587A4F9237B71C01164736F6C PUSH4 0x43000812 STOP CALLER "
				},
				"gasEstimates": {
					"creation": {
						"codeDepositCost": "1274600",
						"executionCost": "6335",
						"totalCost": "1280935"
					},
					"external": {
						"auctionList(uint256)": "infinite",
						"auctionOwners(uint256)": "4934",
						"checkBiddedAuctions()": "infinite",
						"checkBids()": "infinite",
						"createAuction(string,uint32,uint32,uint256)": "infinite",
						"createBid(uint256,uint256)": "infinite"
					}
				},
				"methodIdentifiers": {
					"auctionList(uint256)": "669c0083",
					"auctionOwners(uint256)": "12fb682d",
					"checkBiddedAuctions()": "6b81be6c",
					"checkBids()": "75b700e1",
					"createAuction(string,uint32,uint32,uint256)": "f2fd83aa",
					"createBid(uint256,uint256)": "b7751c71"
				}
			},
			"storageLayout": {
				"storage": [
					{
						"astId": 4,
						"contract": "Auction Project - Submission/AuctionPlatform.sol:AuctionPlatform",
						"label": "auctionsCount",
						"offset": 0,
						"slot": "0",
						"type": "t_uint256"
					},
					{
						"astId": 7,
						"contract": "Auction Project - Submission/AuctionPlatform.sol:AuctionPlatform",
						"label": "auctionOwners",
						"offset": 0,
						"slot": "1",
						"type": "t_array(t_address)dyn_storage"
					},
					{
						"astId": 11,
						"contract": "Auction Project - Submission/AuctionPlatform.sol:AuctionPlatform",
						"label": "auctionList",
						"offset": 0,
						"slot": "2",
						"type": "t_array(t_struct(Auction)46_storage)dyn_storage"
					},
					{
						"astId": 16,
						"contract": "Auction Project - Submission/AuctionPlatform.sol:AuctionPlatform",
						"label": "auctionOwnerList",
						"offset": 0,
						"slot": "3",
						"type": "t_mapping(t_address,t_struct(Auction)46_storage)"
					},
					{
						"astId": 22,
						"contract": "Auction Project - Submission/AuctionPlatform.sol:AuctionPlatform",
						"label": "bidList",
						"offset": 0,
						"slot": "4",
						"type": "t_mapping(t_uint256,t_array(t_struct(Bid)35_storage)dyn_storage)"
					},
					{
						"astId": 28,
						"contract": "Auction Project - Submission/AuctionPlatform.sol:AuctionPlatform",
						"label": "bidderAuctionList",
						"offset": 0,
						"slot": "5",
						"type": "t_mapping(t_address,t_array(t_struct(Auction)46_storage)dyn_storage)"
					}
				],
				"types": {
					"t_address": {
						"encoding": "inplace",
						"label": "address",
						"numberOfBytes": "20"
					},
					"t_array(t_address)dyn_storage": {
						"base": "t_address",
						"encoding": "dynamic_array",
						"label": "address[]",
						"numberOfBytes": "32"
					},
					"t_array(t_struct(Auction)46_storage)dyn_storage": {
						"base": "t_struct(Auction)46_storage",
						"encoding": "dynamic_array",
						"label": "struct AuctionPlatform.Auction[]",
						"numberOfBytes": "32"
					},
					"t_array(t_struct(Bid)35_storage)dyn_storage": {
						"base": "t_struct(Bid)35_storage",
						"encoding": "dynamic_array",
						"label": "struct AuctionPlatform.Bid[]",
						"numberOfBytes": "32"
					},
					"t_mapping(t_address,t_array(t_struct(Auction)46_storage)dyn_storage)": {
						"encoding": "mapping",
						"key": "t_address",
						"label": "mapping(address => struct AuctionPlatform.Auction[])",
						"numberOfBytes": "32",
						"value": "t_array(t_struct(Auction)46_storage)dyn_storage"
					},
					"t_mapping(t_address,t_struct(Auction)46_storage)": {
						"encoding": "mapping",
						"key": "t_address",
						"label": "mapping(address => struct AuctionPlatform.Auction)",
						"numberOfBytes": "32",
						"value": "t_struct(Auction)46_storage"
					},
					"t_mapping(t_uint256,t_array(t_struct(Bid)35_storage)dyn_storage)": {
						"encoding": "mapping",
						"key": "t_uint256",
						"label": "mapping(uint256 => struct AuctionPlatform.Bid[])",
						"numberOfBytes": "32",
						"value": "t_array(t_struct(Bid)35_storage)dyn_storage"
					},
					"t_string_storage": {
						"encoding": "bytes",
						"label": "string",
						"numberOfBytes": "32"
					},
					"t_struct(Auction)46_storage": {
						"encoding": "inplace",
						"label": "struct AuctionPlatform.Auction",
						"members": [
							{
								"astId": 37,
								"contract": "Auction Project - Submission/AuctionPlatform.sol:AuctionPlatform",
								"label": "auctionId",
								"offset": 0,
								"slot": "0",
								"type": "t_uint256"
							},
							{
								"astId": 39,
								"contract": "Auction Project - Submission/AuctionPlatform.sol:AuctionPlatform",
								"label": "description",
								"offset": 0,
								"slot": "1",
								"type": "t_string_storage"
							},
							{
								"astId": 41,
								"contract": "Auction Project - Submission/AuctionPlatform.sol:AuctionPlatform",
								"label": "startTime",
								"offset": 0,
								"slot": "2",
								"type": "t_uint32"
							},
							{
								"astId": 43,
								"contract": "Auction Project - Submission/AuctionPlatform.sol:AuctionPlatform",
								"label": "endTime",
								"offset": 4,
								"slot": "2",
								"type": "t_uint32"
							},
							{
								"astId": 45,
								"contract": "Auction Project - Submission/AuctionPlatform.sol:AuctionPlatform",
								"label": "minBidValue",
								"offset": 0,
								"slot": "3",
								"type": "t_uint256"
							}
						],
						"numberOfBytes": "128"
					},
					"t_struct(Bid)35_storage": {
						"encoding": "inplace",
						"label": "struct AuctionPlatform.Bid",
						"members": [
							{
								"astId": 30,
								"contract": "Auction Project - Submission/AuctionPlatform.sol:AuctionPlatform",
								"label": "bidOwner",
								"offset": 0,
								"slot": "0",
								"type": "t_address"
							},
							{
								"astId": 32,
								"contract": "Auction Project - Submission/AuctionPlatform.sol:AuctionPlatform",
								"label": "auctionId",
								"offset": 0,
								"slot": "1",
								"type": "t_uint256"
							},
							{
								"astId": 34,
								"contract": "Auction Project - Submission/AuctionPlatform.sol:AuctionPlatform",
								"label": "amount",
								"offset": 0,
								"slot": "2",
								"type": "t_uint256"
							}
						],
						"numberOfBytes": "96"
					},
					"t_uint256": {
						"encoding": "inplace",
						"label": "uint256",
						"numberOfBytes": "32"
					},
					"t_uint32": {
						"encoding": "inplace",
						"label": "uint32",
						"numberOfBytes": "4"
					}
				}
			},
			"userdoc": {
				"kind": "user",
				"methods": {},
				"version": 1
			}
		}
	}
}