{
	"Auction Project/Auction2.sol": {
		"Auction": {
			"abi": [
				{
					"constant": true,
					"inputs": [],
					"name": "getBidsMade",
					"outputs": [
						{
							"name": "",
							"type": "bool"
						}
					],
					"payable": false,
					"stateMutability": "view",
					"type": "function"
				},
				{
					"constant": true,
					"inputs": [],
					"name": "getEndTime",
					"outputs": [
						{
							"name": "",
							"type": "uint256"
						}
					],
					"payable": false,
					"stateMutability": "view",
					"type": "function"
				},
				{
					"constant": false,
					"inputs": [
						{
							"name": "_bidVal",
							"type": "uint256"
						}
					],
					"name": "createBid",
					"outputs": [],
					"payable": false,
					"stateMutability": "nonpayable",
					"type": "function"
				},
				{
					"constant": true,
					"inputs": [],
					"name": "getListOfBids",
					"outputs": [
						{
							"name": "",
							"type": "uint256[]"
						}
					],
					"payable": false,
					"stateMutability": "view",
					"type": "function"
				},
				{
					"constant": true,
					"inputs": [],
					"name": "getMinBidVal",
					"outputs": [
						{
							"name": "",
							"type": "uint256"
						}
					],
					"payable": false,
					"stateMutability": "view",
					"type": "function"
				},
				{
					"constant": true,
					"inputs": [],
					"name": "getMaximumBid",
					"outputs": [
						{
							"name": "",
							"type": "uint256"
						}
					],
					"payable": false,
					"stateMutability": "view",
					"type": "function"
				},
				{
					"constant": false,
					"inputs": [
						{
							"name": "bid",
							"type": "uint256"
						}
					],
					"name": "endAuctionWithSelectedBid",
					"outputs": [
						{
							"name": "",
							"type": "address"
						}
					],
					"payable": false,
					"stateMutability": "nonpayable",
					"type": "function"
				},
				{
					"inputs": [
						{
							"name": "_description",
							"type": "string"
						},
						{
							"name": "_startTime",
							"type": "uint256"
						},
						{
							"name": "_endTime",
							"type": "uint256"
						},
						{
							"name": "_minBidVal",
							"type": "uint256"
						}
					],
					"payable": false,
					"stateMutability": "nonpayable",
					"type": "constructor"
				}
			],
			"devdoc": {
				"methods": {}
			},
			"evm": {
				"assembly": "    /* \"Auction Project/Auction2.sol\":65:4913  contract Auction {\r... */\n  mstore(0x40, 0x80)\n    /* \"Auction Project/Auction2.sol\":2141:2424  constructor(string memory _description, uint _startTime, uint _endTime, uint _minBidVal) public {\r... */\n  callvalue\n    /* \"--CODEGEN--\":8:17   */\n  dup1\n    /* \"--CODEGEN--\":5:7   */\n  iszero\n  tag_1\n  jumpi\n    /* \"--CODEGEN--\":30:31   */\n  0x0\n    /* \"--CODEGEN--\":27:28   */\n  dup1\n    /* \"--CODEGEN--\":20:32   */\n  revert\n    /* \"--CODEGEN--\":5:7   */\ntag_1:\n    /* \"Auction Project/Auction2.sol\":2141:2424  constructor(string memory _description, uint _startTime, uint _endTime, uint _minBidVal) public {\r... */\n  pop\n  mload(0x40)\n  sub(codesize, bytecodeSize)\n  dup1\n  bytecodeSize\n  dup4\n  codecopy\n  dup2\n  add\n  dup1\n  0x40\n  mstore\n  dup2\n  add\n  swap1\n  dup1\n  dup1\n  mload\n  dup3\n  add\n  swap3\n  swap2\n  swap1\n  0x20\n  add\n  dup1\n  mload\n  swap1\n  0x20\n  add\n  swap1\n  swap3\n  swap2\n  swap1\n  dup1\n  mload\n  swap1\n  0x20\n  add\n  swap1\n  swap3\n  swap2\n  swap1\n  dup1\n  mload\n  swap1\n  0x20\n  add\n  swap1\n  swap3\n  swap2\n  swap1\n  pop\n  pop\n  pop\n    /* \"Auction Project/Auction2.sol\":2303:2315  _description */\n  dup4\n    /* \"Auction Project/Auction2.sol\":2289:2300  description */\n  0x0\n    /* \"Auction Project/Auction2.sol\":2289:2315  description = _description */\n  swap1\n  dup1\n  mload\n  swap1\n  0x20\n  add\n  swap1\n  tag_4\n  swap3\n  swap2\n  swap1\n  jump\t// in(tag_5)\ntag_4:\n  pop\n    /* \"Auction Project/Auction2.sol\":2338:2348  _startTime */\n  dup3\n    /* \"Auction Project/Auction2.sol\":2326:2335  startTime */\n  0x1\n    /* \"Auction Project/Auction2.sol\":2326:2348  startTime = _startTime */\n  dup2\n  swap1\n  sstore\n  pop\n    /* \"Auction Project/Auction2.sol\":2369:2377  _endTime */\n  dup2\n    /* \"Auction Project/Auction2.sol\":2359:2366  endTime */\n  0x2\n    /* \"Auction Project/Auction2.sol\":2359:2377  endTime = _endTime */\n  dup2\n  swap1\n  sstore\n  pop\n    /* \"Auction Project/Auction2.sol\":2400:2410  _minBidVal */\n  dup1\n    /* \"Auction Project/Auction2.sol\":2388:2397  minBidVal */\n  0x3\n    /* \"Auction Project/Auction2.sol\":2388:2410  minBidVal = _minBidVal */\n  dup2\n  swap1\n  sstore\n  pop\n    /* \"Auction Project/Auction2.sol\":2141:2424  constructor(string memory _description, uint _startTime, uint _endTime, uint _minBidVal) public {\r... */\n  pop\n  pop\n  pop\n  pop\n    /* \"Auction Project/Auction2.sol\":65:4913  contract Auction {\r... */\n  jump(tag_6)\ntag_5:\n  dup3\n  dup1\n  sload\n  0x1\n  dup2\n  0x1\n  and\n  iszero\n  0x100\n  mul\n  sub\n  and\n  0x2\n  swap1\n  div\n  swap1\n  0x0\n  mstore\n  keccak256(0x0, 0x20)\n  swap1\n  0x1f\n  add\n  0x20\n  swap1\n  div\n  dup2\n  add\n  swap3\n  dup3\n  0x1f\n  lt\n  tag_8\n  jumpi\n  dup1\n  mload\n  not(0xff)\n  and\n  dup4\n  dup1\n  add\n  or\n  dup6\n  sstore\n  jump(tag_7)\ntag_8:\n  dup3\n  dup1\n  add\n  0x1\n  add\n  dup6\n  sstore\n  dup3\n  iszero\n  tag_7\n  jumpi\n  swap2\n  dup3\n  add\ntag_9:\n  dup3\n  dup2\n  gt\n  iszero\n  tag_10\n  jumpi\n  dup3\n  mload\n  dup3\n  sstore\n  swap2\n  0x20\n  add\n  swap2\n  swap1\n  0x1\n  add\n  swap1\n  jump(tag_9)\ntag_10:\ntag_7:\n  pop\n  swap1\n  pop\n  tag_11\n  swap2\n  swap1\n  jump\t// in(tag_12)\ntag_11:\n  pop\n  swap1\n  jump\t// out\ntag_12:\n  tag_13\n  swap2\n  swap1\ntag_14:\n  dup1\n  dup3\n  gt\n  iszero\n  tag_15\n  jumpi\n  0x0\n  dup2\n  0x0\n  swap1\n  sstore\n  pop\n  0x1\n  add\n  jump(tag_14)\ntag_15:\n  pop\n  swap1\n  jump\ntag_13:\n  swap1\n  jump\t// out\ntag_6:\n  dataSize(sub_0)\n  dup1\n  dataOffset(sub_0)\n  0x0\n  codecopy\n  0x0\n  return\nstop\n\nsub_0: assembly {\n        /* \"Auction Project/Auction2.sol\":65:4913  contract Auction {\r... */\n      mstore(0x40, 0x80)\n      jumpi(tag_1, lt(calldatasize, 0x4))\n      calldataload(0x0)\n      0x100000000000000000000000000000000000000000000000000000000\n      swap1\n      div\n      0xffffffff\n      and\n      dup1\n      0x409766e6\n      eq\n      tag_2\n      jumpi\n      dup1\n      0x439f5ac2\n      eq\n      tag_3\n      jumpi\n      dup1\n      0x659dd2b4\n      eq\n      tag_4\n      jumpi\n      dup1\n      0x679dbf0c\n      eq\n      tag_5\n      jumpi\n      dup1\n      0xad934674\n      eq\n      tag_6\n      jumpi\n      dup1\n      0xdd06ba1a\n      eq\n      tag_7\n      jumpi\n      dup1\n      0xdee37a8e\n      eq\n      tag_8\n      jumpi\n    tag_1:\n      0x0\n      dup1\n      revert\n        /* \"Auction Project/Auction2.sol\":889:973  function getBidsMade() external view returns(bool){\r... */\n    tag_2:\n      callvalue\n        /* \"--CODEGEN--\":8:17   */\n      dup1\n        /* \"--CODEGEN--\":5:7   */\n      iszero\n      tag_9\n      jumpi\n        /* \"--CODEGEN--\":30:31   */\n      0x0\n        /* \"--CODEGEN--\":27:28   */\n      dup1\n        /* \"--CODEGEN--\":20:32   */\n      revert\n        /* \"--CODEGEN--\":5:7   */\n    tag_9:\n        /* \"Auction Project/Auction2.sol\":889:973  function getBidsMade() external view returns(bool){\r... */\n      pop\n      tag_10\n      jump(tag_11)\n    tag_10:\n      mload(0x40)\n      dup1\n      dup3\n      iszero\n      iszero\n      iszero\n      iszero\n      dup2\n      mstore\n      0x20\n      add\n      swap2\n      pop\n      pop\n      mload(0x40)\n      dup1\n      swap2\n      sub\n      swap1\n      return\n        /* \"Auction Project/Auction2.sol\":1032:1117  function getEndTime() external view returns(uint256){\r... */\n    tag_3:\n      callvalue\n        /* \"--CODEGEN--\":8:17   */\n      dup1\n        /* \"--CODEGEN--\":5:7   */\n      iszero\n      tag_12\n      jumpi\n        /* \"--CODEGEN--\":30:31   */\n      0x0\n        /* \"--CODEGEN--\":27:28   */\n      dup1\n        /* \"--CODEGEN--\":20:32   */\n      revert\n        /* \"--CODEGEN--\":5:7   */\n    tag_12:\n        /* \"Auction Project/Auction2.sol\":1032:1117  function getEndTime() external view returns(uint256){\r... */\n      pop\n      tag_13\n      jump(tag_14)\n    tag_13:\n      mload(0x40)\n      dup1\n      dup3\n      dup2\n      mstore\n      0x20\n      add\n      swap2\n      pop\n      pop\n      mload(0x40)\n      dup1\n      swap2\n      sub\n      swap1\n      return\n        /* \"Auction Project/Auction2.sol\":2491:2936  function createBid(uint _bidVal) external validBidVal(_bidVal) isActive isBidPresent {\r... */\n    tag_4:\n      callvalue\n        /* \"--CODEGEN--\":8:17   */\n      dup1\n        /* \"--CODEGEN--\":5:7   */\n      iszero\n      tag_15\n      jumpi\n        /* \"--CODEGEN--\":30:31   */\n      0x0\n        /* \"--CODEGEN--\":27:28   */\n      dup1\n        /* \"--CODEGEN--\":20:32   */\n      revert\n        /* \"--CODEGEN--\":5:7   */\n    tag_15:\n        /* \"Auction Project/Auction2.sol\":2491:2936  function createBid(uint _bidVal) external validBidVal(_bidVal) isActive isBidPresent {\r... */\n      pop\n      tag_16\n      0x4\n      dup1\n      calldatasize\n      sub\n      dup2\n      add\n      swap1\n      dup1\n      dup1\n      calldataload\n      swap1\n      0x20\n      add\n      swap1\n      swap3\n      swap2\n      swap1\n      pop\n      pop\n      pop\n      jump(tag_17)\n    tag_16:\n      stop\n        /* \"Auction Project/Auction2.sol\":1525:2014  function getListOfBids() external isActive view returns(uint[]){\r... */\n    tag_5:\n      callvalue\n        /* \"--CODEGEN--\":8:17   */\n      dup1\n        /* \"--CODEGEN--\":5:7   */\n      iszero\n      tag_18\n      jumpi\n        /* \"--CODEGEN--\":30:31   */\n      0x0\n        /* \"--CODEGEN--\":27:28   */\n      dup1\n        /* \"--CODEGEN--\":20:32   */\n      revert\n        /* \"--CODEGEN--\":5:7   */\n    tag_18:\n        /* \"Auction Project/Auction2.sol\":1525:2014  function getListOfBids() external isActive view returns(uint[]){\r... */\n      pop\n      tag_19\n      jump(tag_20)\n    tag_19:\n      mload(0x40)\n      dup1\n      dup1\n      0x20\n      add\n      dup3\n      dup2\n      sub\n      dup3\n      mstore\n      dup4\n      dup2\n      dup2\n      mload\n      dup2\n      mstore\n      0x20\n      add\n      swap2\n      pop\n      dup1\n      mload\n      swap1\n      0x20\n      add\n      swap1\n      0x20\n      mul\n      dup1\n      dup4\n      dup4\n        /* \"--CODEGEN--\":23:24   */\n      0x0\n        /* \"--CODEGEN--\":8:108   */\n    tag_21:\n        /* \"--CODEGEN--\":33:36   */\n      dup4\n        /* \"--CODEGEN--\":30:31   */\n      dup2\n        /* \"--CODEGEN--\":27:37   */\n      lt\n        /* \"--CODEGEN--\":8:108   */\n      iszero\n      tag_22\n      jumpi\n        /* \"--CODEGEN--\":99:100   */\n      dup1\n        /* \"--CODEGEN--\":94:97   */\n      dup3\n        /* \"--CODEGEN--\":90:101   */\n      add\n        /* \"--CODEGEN--\":84:102   */\n      mload\n        /* \"--CODEGEN--\":80:81   */\n      dup2\n        /* \"--CODEGEN--\":75:78   */\n      dup5\n        /* \"--CODEGEN--\":71:82   */\n      add\n        /* \"--CODEGEN--\":64:103   */\n      mstore\n        /* \"--CODEGEN--\":52:54   */\n      0x20\n        /* \"--CODEGEN--\":49:50   */\n      dup2\n        /* \"--CODEGEN--\":45:55   */\n      add\n        /* \"--CODEGEN--\":40:55   */\n      swap1\n      pop\n        /* \"--CODEGEN--\":8:108   */\n      jump(tag_21)\n    tag_22:\n        /* \"--CODEGEN--\":12:26   */\n      pop\n        /* \"Auction Project/Auction2.sol\":1525:2014  function getListOfBids() external isActive view returns(uint[]){\r... */\n      pop\n      pop\n      pop\n      swap1\n      pop\n      add\n      swap3\n      pop\n      pop\n      pop\n      mload(0x40)\n      dup1\n      swap2\n      sub\n      swap1\n      return\n        /* \"Auction Project/Auction2.sol\":1154:1249  function getMinBidVal() external isActive view returns(uint){\r... */\n    tag_6:\n      callvalue\n        /* \"--CODEGEN--\":8:17   */\n      dup1\n        /* \"--CODEGEN--\":5:7   */\n      iszero\n      tag_24\n      jumpi\n        /* \"--CODEGEN--\":30:31   */\n      0x0\n        /* \"--CODEGEN--\":27:28   */\n      dup1\n        /* \"--CODEGEN--\":20:32   */\n      revert\n        /* \"--CODEGEN--\":5:7   */\n    tag_24:\n        /* \"Auction Project/Auction2.sol\":1154:1249  function getMinBidVal() external isActive view returns(uint){\r... */\n      pop\n      tag_25\n      jump(tag_26)\n    tag_25:\n      mload(0x40)\n      dup1\n      dup3\n      dup2\n      mstore\n      0x20\n      add\n      swap2\n      pop\n      pop\n      mload(0x40)\n      dup1\n      swap2\n      sub\n      swap1\n      return\n        /* \"Auction Project/Auction2.sol\":3754:4211  function getMaximumBid() external isActive view returns(uint){\r... */\n    tag_7:\n      callvalue\n        /* \"--CODEGEN--\":8:17   */\n      dup1\n        /* \"--CODEGEN--\":5:7   */\n      iszero\n      tag_27\n      jumpi\n        /* \"--CODEGEN--\":30:31   */\n      0x0\n        /* \"--CODEGEN--\":27:28   */\n      dup1\n        /* \"--CODEGEN--\":20:32   */\n      revert\n        /* \"--CODEGEN--\":5:7   */\n    tag_27:\n        /* \"Auction Project/Auction2.sol\":3754:4211  function getMaximumBid() external isActive view returns(uint){\r... */\n      pop\n      tag_28\n      jump(tag_29)\n    tag_28:\n      mload(0x40)\n      dup1\n      dup3\n      dup2\n      mstore\n      0x20\n      add\n      swap2\n      pop\n      pop\n      mload(0x40)\n      dup1\n      swap2\n      sub\n      swap1\n      return\n        /* \"Auction Project/Auction2.sol\":3029:3686  function endAuctionWithSelectedBid(uint bid) external isActive returns(address){\r... */\n    tag_8:\n      callvalue\n        /* \"--CODEGEN--\":8:17   */\n      dup1\n        /* \"--CODEGEN--\":5:7   */\n      iszero\n      tag_30\n      jumpi\n        /* \"--CODEGEN--\":30:31   */\n      0x0\n        /* \"--CODEGEN--\":27:28   */\n      dup1\n        /* \"--CODEGEN--\":20:32   */\n      revert\n        /* \"--CODEGEN--\":5:7   */\n    tag_30:\n        /* \"Auction Project/Auction2.sol\":3029:3686  function endAuctionWithSelectedBid(uint bid) external isActive returns(address){\r... */\n      pop\n      tag_31\n      0x4\n      dup1\n      calldatasize\n      sub\n      dup2\n      add\n      swap1\n      dup1\n      dup1\n      calldataload\n      swap1\n      0x20\n      add\n      swap1\n      swap3\n      swap2\n      swap1\n      pop\n      pop\n      pop\n      jump(tag_32)\n    tag_31:\n      mload(0x40)\n      dup1\n      dup3\n      0xffffffffffffffffffffffffffffffffffffffff\n      and\n      0xffffffffffffffffffffffffffffffffffffffff\n      and\n      dup2\n      mstore\n      0x20\n      add\n      swap2\n      pop\n      pop\n      mload(0x40)\n      dup1\n      swap2\n      sub\n      swap1\n      return\n        /* \"Auction Project/Auction2.sol\":889:973  function getBidsMade() external view returns(bool){\r... */\n    tag_11:\n        /* \"Auction Project/Auction2.sol\":934:938  bool */\n      0x0\n        /* \"Auction Project/Auction2.sol\":957:965  bidsMade */\n      0x4\n      0x0\n      swap1\n      sload\n      swap1\n      0x100\n      exp\n      swap1\n      div\n      0xff\n      and\n        /* \"Auction Project/Auction2.sol\":950:965  return bidsMade */\n      swap1\n      pop\n        /* \"Auction Project/Auction2.sol\":889:973  function getBidsMade() external view returns(bool){\r... */\n      swap1\n      jump\t// out\n        /* \"Auction Project/Auction2.sol\":1032:1117  function getEndTime() external view returns(uint256){\r... */\n    tag_14:\n        /* \"Auction Project/Auction2.sol\":1076:1083  uint256 */\n      0x0\n        /* \"Auction Project/Auction2.sol\":1102:1109  endTime */\n      sload(0x2)\n        /* \"Auction Project/Auction2.sol\":1095:1109  return endTime */\n      swap1\n      pop\n        /* \"Auction Project/Auction2.sol\":1032:1117  function getEndTime() external view returns(uint256){\r... */\n      swap1\n      jump\t// out\n        /* \"Auction Project/Auction2.sol\":2491:2936  function createBid(uint _bidVal) external validBidVal(_bidVal) isActive isBidPresent {\r... */\n    tag_17:\n        /* \"Auction Project/Auction2.sol\":2545:2552  _bidVal */\n      dup1\n        /* \"Auction Project/Auction2.sol\":4800:4809  minBidVal */\n      sload(0x3)\n        /* \"Auction Project/Auction2.sol\":4790:4797  _bidVal */\n      dup2\n        /* \"Auction Project/Auction2.sol\":4790:4809  _bidVal > minBidVal */\n      gt\n        /* \"Auction Project/Auction2.sol\":4782:4882  require(_bidVal > minBidVal,\"Please enter a bid greater than minimum required bid of given auction\") */\n      iszero\n      iszero\n      tag_36\n      jumpi\n      mload(0x40)\n      0x8c379a000000000000000000000000000000000000000000000000000000000\n      dup2\n      mstore\n      0x4\n      add\n      dup1\n      dup1\n      0x20\n      add\n      dup3\n      dup2\n      sub\n      dup3\n      mstore\n      0x45\n      dup2\n      mstore\n      0x20\n      add\n      dup1\n      0x506c6561736520656e7465722061206269642067726561746572207468616e20\n      dup2\n      mstore\n      0x20\n      add\n      0x6d696e696d756d20726571756972656420626964206f6620676976656e206175\n      dup2\n      mstore\n      0x20\n      add\n      0x6374696f6e000000000000000000000000000000000000000000000000000000\n      dup2\n      mstore\n      pop\n      0x60\n      add\n      swap2\n      pop\n      pop\n      mload(0x40)\n      dup1\n      swap2\n      sub\n      swap1\n      revert\n    tag_36:\n        /* \"Auction Project/Auction2.sol\":4402:4409  endTime */\n      sload(0x2)\n        /* \"Auction Project/Auction2.sol\":4384:4399  block.timestamp */\n      timestamp\n        /* \"Auction Project/Auction2.sol\":4384:4409  block.timestamp < endTime */\n      lt\n        /* \"Auction Project/Auction2.sol\":4376:4433  require(block.timestamp < endTime,\"Auction is Inactive \") */\n      iszero\n      iszero\n      tag_38\n      jumpi\n      mload(0x40)\n      0x8c379a000000000000000000000000000000000000000000000000000000000\n      dup2\n      mstore\n      0x4\n      add\n      dup1\n      dup1\n      0x20\n      add\n      dup3\n      dup2\n      sub\n      dup3\n      mstore\n      0x14\n      dup2\n      mstore\n      0x20\n      add\n      dup1\n      0x41756374696f6e20697320496e61637469766520000000000000000000000000\n      dup2\n      mstore\n      pop\n      0x20\n      add\n      swap2\n      pop\n      pop\n      mload(0x40)\n      dup1\n      swap2\n      sub\n      swap1\n      revert\n    tag_38:\n        /* \"Auction Project/Auction2.sol\":4583:4584  0 */\n      0x0\n        /* \"Auction Project/Auction2.sol\":4566:4570  bids */\n      0x5\n        /* \"Auction Project/Auction2.sol\":4566:4581  bids[tx.origin] */\n      0x0\n        /* \"Auction Project/Auction2.sol\":4571:4580  tx.origin */\n      origin\n        /* \"Auction Project/Auction2.sol\":4566:4581  bids[tx.origin] */\n      0xffffffffffffffffffffffffffffffffffffffff\n      and\n      0xffffffffffffffffffffffffffffffffffffffff\n      and\n      dup2\n      mstore\n      0x20\n      add\n      swap1\n      dup2\n      mstore\n      0x20\n      add\n      0x0\n      keccak256\n      sload\n        /* \"Auction Project/Auction2.sol\":4566:4584  bids[tx.origin]==0 */\n      eq\n        /* \"Auction Project/Auction2.sol\":4558:4618  require(bids[tx.origin]==0,\"You have already created a bid\") */\n      iszero\n      iszero\n      tag_40\n      jumpi\n      mload(0x40)\n      0x8c379a000000000000000000000000000000000000000000000000000000000\n      dup2\n      mstore\n      0x4\n      add\n      dup1\n      dup1\n      0x20\n      add\n      dup3\n      dup2\n      sub\n      dup3\n      mstore\n      0x1e\n      dup2\n      mstore\n      0x20\n      add\n      dup1\n      0x596f75206861766520616c726561647920637265617465642061206269640000\n      dup2\n      mstore\n      pop\n      0x20\n      add\n      swap2\n      pop\n      pop\n      mload(0x40)\n      dup1\n      swap2\n      sub\n      swap1\n      revert\n    tag_40:\n        /* \"Auction Project/Auction2.sol\":2600:2604  true */\n      0x1\n        /* \"Auction Project/Auction2.sol\":2589:2597  bidsMade */\n      0x4\n      0x0\n        /* \"Auction Project/Auction2.sol\":2589:2604  bidsMade = true */\n      0x100\n      exp\n      dup2\n      sload\n      dup2\n      0xff\n      mul\n      not\n      and\n      swap1\n      dup4\n      iszero\n      iszero\n      mul\n      or\n      swap1\n      sstore\n      pop\n        /* \"Auction Project/Auction2.sol\":2686:2693  _bidVal */\n      dup2\n        /* \"Auction Project/Auction2.sol\":2668:2672  bids */\n      0x5\n        /* \"Auction Project/Auction2.sol\":2668:2683  bids[tx.origin] */\n      0x0\n        /* \"Auction Project/Auction2.sol\":2673:2682  tx.origin */\n      origin\n        /* \"Auction Project/Auction2.sol\":2668:2683  bids[tx.origin] */\n      0xffffffffffffffffffffffffffffffffffffffff\n      and\n      0xffffffffffffffffffffffffffffffffffffffff\n      and\n      dup2\n      mstore\n      0x20\n      add\n      swap1\n      dup2\n      mstore\n      0x20\n      add\n      0x0\n      keccak256\n        /* \"Auction Project/Auction2.sol\":2668:2693  bids[tx.origin] = _bidVal */\n      dup2\n      swap1\n      sstore\n      pop\n        /* \"Auction Project/Auction2.sol\":2792:2803  biddersList */\n      0x6\n        /* \"Auction Project/Auction2.sol\":2809:2818  tx.origin */\n      origin\n        /* \"Auction Project/Auction2.sol\":2792:2819  biddersList.push(tx.origin) */\n      swap1\n      dup1\n        /* \"--CODEGEN--\":39:40   */\n      0x1\n        /* \"--CODEGEN--\":33:36   */\n      dup2\n        /* \"--CODEGEN--\":27:37   */\n      sload\n        /* \"--CODEGEN--\":23:41   */\n      add\n        /* \"--CODEGEN--\":57:67   */\n      dup1\n        /* \"--CODEGEN--\":52:55   */\n      dup3\n        /* \"--CODEGEN--\":45:68   */\n      sstore\n        /* \"--CODEGEN--\":79:89   */\n      dup1\n        /* \"--CODEGEN--\":72:89   */\n      swap2\n      pop\n        /* \"--CODEGEN--\":0:93   */\n      pop\n        /* \"Auction Project/Auction2.sol\":2792:2819  biddersList.push(tx.origin) */\n      swap1\n      0x1\n      dup3\n      sub\n      swap1\n      0x0\n      mstore\n      keccak256(0x0, 0x20)\n      add\n      0x0\n      swap1\n      swap2\n      swap3\n      swap1\n      swap2\n      swap1\n      swap2\n      0x100\n      exp\n      dup2\n      sload\n      dup2\n      0xffffffffffffffffffffffffffffffffffffffff\n      mul\n      not\n      and\n      swap1\n      dup4\n      0xffffffffffffffffffffffffffffffffffffffff\n      and\n      mul\n      or\n      swap1\n      sstore\n      pop\n      pop\n        /* \"Auction Project/Auction2.sol\":2491:2936  function createBid(uint _bidVal) external validBidVal(_bidVal) isActive isBidPresent {\r... */\n      pop\n      pop\n      jump\t// out\n        /* \"Auction Project/Auction2.sol\":1525:2014  function getListOfBids() external isActive view returns(uint[]){\r... */\n    tag_20:\n        /* \"Auction Project/Auction2.sol\":1581:1587  uint[] */\n      0x60\n        /* \"Auction Project/Auction2.sol\":1671:1689  uint[] memory list */\n      dup1\n        /* \"Auction Project/Auction2.sol\":1857:1863  uint i */\n      0x0\n        /* \"Auction Project/Auction2.sol\":4402:4409  endTime */\n      sload(0x2)\n        /* \"Auction Project/Auction2.sol\":4384:4399  block.timestamp */\n      timestamp\n        /* \"Auction Project/Auction2.sol\":4384:4409  block.timestamp < endTime */\n      lt\n        /* \"Auction Project/Auction2.sol\":4376:4433  require(block.timestamp < endTime,\"Auction is Inactive \") */\n      iszero\n      iszero\n      tag_44\n      jumpi\n      mload(0x40)\n      0x8c379a000000000000000000000000000000000000000000000000000000000\n      dup2\n      mstore\n      0x4\n      add\n      dup1\n      dup1\n      0x20\n      add\n      dup3\n      dup2\n      sub\n      dup3\n      mstore\n      0x14\n      dup2\n      mstore\n      0x20\n      add\n      dup1\n      0x41756374696f6e20697320496e61637469766520000000000000000000000000\n      dup2\n      mstore\n      pop\n      0x20\n      add\n      swap2\n      pop\n      pop\n      mload(0x40)\n      dup1\n      swap2\n      sub\n      swap1\n      revert\n    tag_44:\n        /* \"Auction Project/Auction2.sol\":1703:1714  biddersList */\n      0x6\n        /* \"Auction Project/Auction2.sol\":1703:1721  biddersList.length */\n      dup1\n      sload\n      swap1\n      pop\n        /* \"Auction Project/Auction2.sol\":1692:1722  new uint[](biddersList.length) */\n      mload(0x40)\n      swap1\n      dup1\n      dup3\n      mstore\n      dup1\n      0x20\n      mul\n      0x20\n      add\n      dup3\n      add\n      0x40\n      mstore\n      dup1\n      iszero\n      tag_46\n      jumpi\n      dup2\n      0x20\n      add\n        /* \"--CODEGEN--\":29:31   */\n      0x20\n        /* \"--CODEGEN--\":21:27   */\n      dup3\n        /* \"--CODEGEN--\":17:32   */\n      mul\n        /* \"--CODEGEN--\":117:121   */\n      dup1\n        /* \"--CODEGEN--\":105:115   */\n      codesize\n        /* \"--CODEGEN--\":97:103   */\n      dup4\n        /* \"--CODEGEN--\":88:122   */\n      codecopy\n        /* \"--CODEGEN--\":148:152   */\n      dup1\n        /* \"--CODEGEN--\":140:146   */\n      dup3\n        /* \"--CODEGEN--\":136:153   */\n      add\n        /* \"--CODEGEN--\":126:153   */\n      swap2\n      pop\n        /* \"--CODEGEN--\":0:157   */\n      pop\n        /* \"Auction Project/Auction2.sol\":1692:1722  new uint[](biddersList.length) */\n      swap1\n      pop\n    tag_46:\n      pop\n        /* \"Auction Project/Auction2.sol\":1671:1722  uint[] memory list = new uint[](biddersList.length) */\n      swap2\n      pop\n        /* \"Auction Project/Auction2.sol\":1853:1983  for(uint i;i<biddersList.length;i++){\r... */\n    tag_47:\n        /* \"Auction Project/Auction2.sol\":1866:1877  biddersList */\n      0x6\n        /* \"Auction Project/Auction2.sol\":1866:1884  biddersList.length */\n      dup1\n      sload\n      swap1\n      pop\n        /* \"Auction Project/Auction2.sol\":1864:1865  i */\n      dup2\n        /* \"Auction Project/Auction2.sol\":1864:1884  i<biddersList.length */\n      lt\n        /* \"Auction Project/Auction2.sol\":1853:1983  for(uint i;i<biddersList.length;i++){\r... */\n      iszero\n      tag_48\n      jumpi\n        /* \"Auction Project/Auction2.sol\":1928:1932  bids */\n      0x5\n        /* \"Auction Project/Auction2.sol\":1928:1948  bids[biddersList[i]] */\n      0x0\n        /* \"Auction Project/Auction2.sol\":1933:1944  biddersList */\n      0x6\n        /* \"Auction Project/Auction2.sol\":1945:1946  i */\n      dup4\n        /* \"Auction Project/Auction2.sol\":1933:1947  biddersList[i] */\n      dup2\n      sload\n      dup2\n      lt\n      iszero\n      iszero\n      tag_50\n      jumpi\n      invalid\n    tag_50:\n      swap1\n      0x0\n      mstore\n      keccak256(0x0, 0x20)\n      add\n      0x0\n      swap1\n      sload\n      swap1\n      0x100\n      exp\n      swap1\n      div\n      0xffffffffffffffffffffffffffffffffffffffff\n      and\n        /* \"Auction Project/Auction2.sol\":1928:1948  bids[biddersList[i]] */\n      0xffffffffffffffffffffffffffffffffffffffff\n      and\n      0xffffffffffffffffffffffffffffffffffffffff\n      and\n      dup2\n      mstore\n      0x20\n      add\n      swap1\n      dup2\n      mstore\n      0x20\n      add\n      0x0\n      keccak256\n      sload\n        /* \"Auction Project/Auction2.sol\":1918:1922  list */\n      dup3\n        /* \"Auction Project/Auction2.sol\":1923:1924  i */\n      dup3\n        /* \"Auction Project/Auction2.sol\":1918:1925  list[i] */\n      dup2\n      mload\n      dup2\n      lt\n      iszero\n      iszero\n      tag_52\n      jumpi\n      invalid\n    tag_52:\n      swap1\n      0x20\n      add\n      swap1\n      0x20\n      mul\n      add\n        /* \"Auction Project/Auction2.sol\":1918:1948  list[i] = bids[biddersList[i]] */\n      dup2\n      dup2\n      mstore\n      pop\n      pop\n        /* \"Auction Project/Auction2.sol\":1885:1888  i++ */\n      dup1\n      dup1\n      0x1\n      add\n      swap2\n      pop\n      pop\n        /* \"Auction Project/Auction2.sol\":1853:1983  for(uint i;i<biddersList.length;i++){\r... */\n      jump(tag_47)\n    tag_48:\n        /* \"Auction Project/Auction2.sol\":2002:2006  list */\n      dup2\n        /* \"Auction Project/Auction2.sol\":1995:2006  return list */\n      swap3\n      pop\n        /* \"Auction Project/Auction2.sol\":1525:2014  function getListOfBids() external isActive view returns(uint[]){\r... */\n      pop\n      pop\n      swap1\n      jump\t// out\n        /* \"Auction Project/Auction2.sol\":1154:1249  function getMinBidVal() external isActive view returns(uint){\r... */\n    tag_26:\n        /* \"Auction Project/Auction2.sol\":1209:1213  uint */\n      0x0\n        /* \"Auction Project/Auction2.sol\":4402:4409  endTime */\n      sload(0x2)\n        /* \"Auction Project/Auction2.sol\":4384:4399  block.timestamp */\n      timestamp\n        /* \"Auction Project/Auction2.sol\":4384:4409  block.timestamp < endTime */\n      lt\n        /* \"Auction Project/Auction2.sol\":4376:4433  require(block.timestamp < endTime,\"Auction is Inactive \") */\n      iszero\n      iszero\n      tag_54\n      jumpi\n      mload(0x40)\n      0x8c379a000000000000000000000000000000000000000000000000000000000\n      dup2\n      mstore\n      0x4\n      add\n      dup1\n      dup1\n      0x20\n      add\n      dup3\n      dup2\n      sub\n      dup3\n      mstore\n      0x14\n      dup2\n      mstore\n      0x20\n      add\n      dup1\n      0x41756374696f6e20697320496e61637469766520000000000000000000000000\n      dup2\n      mstore\n      pop\n      0x20\n      add\n      swap2\n      pop\n      pop\n      mload(0x40)\n      dup1\n      swap2\n      sub\n      swap1\n      revert\n    tag_54:\n        /* \"Auction Project/Auction2.sol\":1232:1241  minBidVal */\n      sload(0x3)\n        /* \"Auction Project/Auction2.sol\":1225:1241  return minBidVal */\n      swap1\n      pop\n        /* \"Auction Project/Auction2.sol\":1154:1249  function getMinBidVal() external isActive view returns(uint){\r... */\n      swap1\n      jump\t// out\n        /* \"Auction Project/Auction2.sol\":3754:4211  function getMaximumBid() external isActive view returns(uint){\r... */\n    tag_29:\n        /* \"Auction Project/Auction2.sol\":3810:3814  uint */\n      0x0\n        /* \"Auction Project/Auction2.sol\":3828:3839  uint maxBid */\n      dup1\n        /* \"Auction Project/Auction2.sol\":3942:3948  uint i */\n      0x0\n        /* \"Auction Project/Auction2.sol\":4402:4409  endTime */\n      sload(0x2)\n        /* \"Auction Project/Auction2.sol\":4384:4399  block.timestamp */\n      timestamp\n        /* \"Auction Project/Auction2.sol\":4384:4409  block.timestamp < endTime */\n      lt\n        /* \"Auction Project/Auction2.sol\":4376:4433  require(block.timestamp < endTime,\"Auction is Inactive \") */\n      iszero\n      iszero\n      tag_57\n      jumpi\n      mload(0x40)\n      0x8c379a000000000000000000000000000000000000000000000000000000000\n      dup2\n      mstore\n      0x4\n      add\n      dup1\n      dup1\n      0x20\n      add\n      dup3\n      dup2\n      sub\n      dup3\n      mstore\n      0x14\n      dup2\n      mstore\n      0x20\n      add\n      dup1\n      0x41756374696f6e20697320496e61637469766520000000000000000000000000\n      dup2\n      mstore\n      pop\n      0x20\n      add\n      swap2\n      pop\n      pop\n      mload(0x40)\n      dup1\n      swap2\n      sub\n      swap1\n      revert\n    tag_57:\n        /* \"Auction Project/Auction2.sol\":3842:3843  0 */\n      0x0\n        /* \"Auction Project/Auction2.sol\":3828:3843  uint maxBid = 0 */\n      swap2\n      pop\n        /* \"Auction Project/Auction2.sol\":3938:4176  for(uint i;i<biddersList.length;i++){              // for looping and checking all the bids to find the max bid\r... */\n    tag_59:\n        /* \"Auction Project/Auction2.sol\":3951:3962  biddersList */\n      0x6\n        /* \"Auction Project/Auction2.sol\":3951:3969  biddersList.length */\n      dup1\n      sload\n      swap1\n      pop\n        /* \"Auction Project/Auction2.sol\":3949:3950  i */\n      dup2\n        /* \"Auction Project/Auction2.sol\":3949:3969  i<biddersList.length */\n      lt\n        /* \"Auction Project/Auction2.sol\":3938:4176  for(uint i;i<biddersList.length;i++){              // for looping and checking all the bids to find the max bid\r... */\n      iszero\n      tag_60\n      jumpi\n        /* \"Auction Project/Auction2.sol\":4072:4104  max(bids[biddersList[i]],maxBid) */\n      tag_62\n        /* \"Auction Project/Auction2.sol\":4076:4080  bids */\n      0x5\n        /* \"Auction Project/Auction2.sol\":4076:4096  bids[biddersList[i]] */\n      0x0\n        /* \"Auction Project/Auction2.sol\":4081:4092  biddersList */\n      0x6\n        /* \"Auction Project/Auction2.sol\":4093:4094  i */\n      dup5\n        /* \"Auction Project/Auction2.sol\":4081:4095  biddersList[i] */\n      dup2\n      sload\n      dup2\n      lt\n      iszero\n      iszero\n      tag_63\n      jumpi\n      invalid\n    tag_63:\n      swap1\n      0x0\n      mstore\n      keccak256(0x0, 0x20)\n      add\n      0x0\n      swap1\n      sload\n      swap1\n      0x100\n      exp\n      swap1\n      div\n      0xffffffffffffffffffffffffffffffffffffffff\n      and\n        /* \"Auction Project/Auction2.sol\":4076:4096  bids[biddersList[i]] */\n      0xffffffffffffffffffffffffffffffffffffffff\n      and\n      0xffffffffffffffffffffffffffffffffffffffff\n      and\n      dup2\n      mstore\n      0x20\n      add\n      swap1\n      dup2\n      mstore\n      0x20\n      add\n      0x0\n      keccak256\n      sload\n        /* \"Auction Project/Auction2.sol\":4097:4103  maxBid */\n      dup4\n        /* \"Auction Project/Auction2.sol\":4072:4075  max */\n      tag_65\n        /* \"Auction Project/Auction2.sol\":4072:4104  max(bids[biddersList[i]],maxBid) */\n      jump\t// in\n    tag_62:\n        /* \"Auction Project/Auction2.sol\":4063:4104  maxBid = max(bids[biddersList[i]],maxBid) */\n      swap2\n      pop\n        /* \"Auction Project/Auction2.sol\":3970:3973  i++ */\n      dup1\n      dup1\n      0x1\n      add\n      swap2\n      pop\n      pop\n        /* \"Auction Project/Auction2.sol\":3938:4176  for(uint i;i<biddersList.length;i++){              // for looping and checking all the bids to find the max bid\r... */\n      jump(tag_59)\n    tag_60:\n        /* \"Auction Project/Auction2.sol\":4193:4199  maxBid */\n      dup2\n        /* \"Auction Project/Auction2.sol\":4186:4199  return maxBid */\n      swap3\n      pop\n        /* \"Auction Project/Auction2.sol\":3754:4211  function getMaximumBid() external isActive view returns(uint){\r... */\n      pop\n      pop\n      swap1\n      jump\t// out\n        /* \"Auction Project/Auction2.sol\":3029:3686  function endAuctionWithSelectedBid(uint bid) external isActive returns(address){\r... */\n    tag_32:\n        /* \"Auction Project/Auction2.sol\":3100:3107  address */\n      0x0\n        /* \"Auction Project/Auction2.sol\":3234:3248  address winner */\n      dup1\n        /* \"Auction Project/Auction2.sol\":3344:3350  uint i */\n      0x0\n        /* \"Auction Project/Auction2.sol\":4402:4409  endTime */\n      sload(0x2)\n        /* \"Auction Project/Auction2.sol\":4384:4399  block.timestamp */\n      timestamp\n        /* \"Auction Project/Auction2.sol\":4384:4409  block.timestamp < endTime */\n      lt\n        /* \"Auction Project/Auction2.sol\":4376:4433  require(block.timestamp < endTime,\"Auction is Inactive \") */\n      iszero\n      iszero\n      tag_67\n      jumpi\n      mload(0x40)\n      0x8c379a000000000000000000000000000000000000000000000000000000000\n      dup2\n      mstore\n      0x4\n      add\n      dup1\n      dup1\n      0x20\n      add\n      dup3\n      dup2\n      sub\n      dup3\n      mstore\n      0x14\n      dup2\n      mstore\n      0x20\n      add\n      dup1\n      0x41756374696f6e20697320496e61637469766520000000000000000000000000\n      dup2\n      mstore\n      pop\n      0x20\n      add\n      swap2\n      pop\n      pop\n      mload(0x40)\n      dup1\n      swap2\n      sub\n      swap1\n      revert\n    tag_67:\n        /* \"Auction Project/Auction2.sol\":3129:3144  block.timestamp */\n      timestamp\n        /* \"Auction Project/Auction2.sol\":3119:3126  endTime */\n      0x2\n        /* \"Auction Project/Auction2.sol\":3119:3144  endTime = block.timestamp */\n      dup2\n      swap1\n      sstore\n      pop\n        /* \"Auction Project/Auction2.sol\":3352:3353  0 */\n      0x0\n        /* \"Auction Project/Auction2.sol\":3344:3353  uint i =0 */\n      swap1\n      pop\n        /* \"Auction Project/Auction2.sol\":3340:3655  for(uint i =0;i<biddersList.length;i++){        // for loop for checking the bids mapping using the biddersList array to check\r... */\n    tag_69:\n        /* \"Auction Project/Auction2.sol\":3356:3367  biddersList */\n      0x6\n        /* \"Auction Project/Auction2.sol\":3356:3374  biddersList.length */\n      dup1\n      sload\n      swap1\n      pop\n        /* \"Auction Project/Auction2.sol\":3354:3355  i */\n      dup2\n        /* \"Auction Project/Auction2.sol\":3354:3374  i<biddersList.length */\n      lt\n        /* \"Auction Project/Auction2.sol\":3340:3655  for(uint i =0;i<biddersList.length;i++){        // for loop for checking the bids mapping using the biddersList array to check\r... */\n      iszero\n      tag_70\n      jumpi\n        /* \"Auction Project/Auction2.sol\":3505:3508  bid */\n      dup4\n        /* \"Auction Project/Auction2.sol\":3483:3487  bids */\n      0x5\n        /* \"Auction Project/Auction2.sol\":3483:3503  bids[biddersList[i]] */\n      0x0\n        /* \"Auction Project/Auction2.sol\":3488:3499  biddersList */\n      0x6\n        /* \"Auction Project/Auction2.sol\":3500:3501  i */\n      dup5\n        /* \"Auction Project/Auction2.sol\":3488:3502  biddersList[i] */\n      dup2\n      sload\n      dup2\n      lt\n      iszero\n      iszero\n      tag_72\n      jumpi\n      invalid\n    tag_72:\n      swap1\n      0x0\n      mstore\n      keccak256(0x0, 0x20)\n      add\n      0x0\n      swap1\n      sload\n      swap1\n      0x100\n      exp\n      swap1\n      div\n      0xffffffffffffffffffffffffffffffffffffffff\n      and\n        /* \"Auction Project/Auction2.sol\":3483:3503  bids[biddersList[i]] */\n      0xffffffffffffffffffffffffffffffffffffffff\n      and\n      0xffffffffffffffffffffffffffffffffffffffff\n      and\n      dup2\n      mstore\n      0x20\n      add\n      swap1\n      dup2\n      mstore\n      0x20\n      add\n      0x0\n      keccak256\n      sload\n        /* \"Auction Project/Auction2.sol\":3483:3508  bids[biddersList[i]]==bid */\n      eq\n        /* \"Auction Project/Auction2.sol\":3480:3644  if(bids[biddersList[i]]==bid){              // for the bid value passed as argument\r... */\n      iszero\n      tag_74\n      jumpi\n        /* \"Auction Project/Auction2.sol\":3590:3601  biddersList */\n      0x6\n        /* \"Auction Project/Auction2.sol\":3602:3603  i */\n      dup2\n        /* \"Auction Project/Auction2.sol\":3590:3604  biddersList[i] */\n      dup2\n      sload\n      dup2\n      lt\n      iszero\n      iszero\n      tag_75\n      jumpi\n      invalid\n    tag_75:\n      swap1\n      0x0\n      mstore\n      keccak256(0x0, 0x20)\n      add\n      0x0\n      swap1\n      sload\n      swap1\n      0x100\n      exp\n      swap1\n      div\n      0xffffffffffffffffffffffffffffffffffffffff\n      and\n        /* \"Auction Project/Auction2.sol\":3581:3604  winner = biddersList[i] */\n      swap2\n      pop\n        /* \"Auction Project/Auction2.sol\":3623:3628  break */\n      jump(tag_70)\n        /* \"Auction Project/Auction2.sol\":3480:3644  if(bids[biddersList[i]]==bid){              // for the bid value passed as argument\r... */\n    tag_74:\n        /* \"Auction Project/Auction2.sol\":3375:3378  i++ */\n      dup1\n      dup1\n      0x1\n      add\n      swap2\n      pop\n      pop\n        /* \"Auction Project/Auction2.sol\":3340:3655  for(uint i =0;i<biddersList.length;i++){        // for loop for checking the bids mapping using the biddersList array to check\r... */\n      jump(tag_69)\n    tag_70:\n        /* \"Auction Project/Auction2.sol\":3672:3678  winner */\n      dup2\n        /* \"Auction Project/Auction2.sol\":3665:3678  return winner */\n      swap3\n      pop\n        /* \"Auction Project/Auction2.sol\":3029:3686  function endAuctionWithSelectedBid(uint bid) external isActive returns(address){\r... */\n      pop\n      pop\n      swap2\n      swap1\n      pop\n      jump\t// out\n        /* \"Auction Project/Auction2.sol\":1347:1454  function max(uint256 a, uint256 b) internal pure returns (uint256) {\r... */\n    tag_65:\n        /* \"Auction Project/Auction2.sol\":1405:1412  uint256 */\n      0x0\n        /* \"Auction Project/Auction2.sol\":1437:1438  b */\n      dup2\n        /* \"Auction Project/Auction2.sol\":1432:1433  a */\n      dup4\n        /* \"Auction Project/Auction2.sol\":1432:1438  a >= b */\n      lt\n      iszero\n        /* \"Auction Project/Auction2.sol\":1432:1446  a >= b ? a : b */\n      tag_78\n      jumpi\n        /* \"Auction Project/Auction2.sol\":1445:1446  b */\n      dup2\n        /* \"Auction Project/Auction2.sol\":1432:1446  a >= b ? a : b */\n      jump(tag_79)\n    tag_78:\n        /* \"Auction Project/Auction2.sol\":1441:1442  a */\n      dup3\n        /* \"Auction Project/Auction2.sol\":1432:1446  a >= b ? a : b */\n    tag_79:\n        /* \"Auction Project/Auction2.sol\":1425:1446  return a >= b ? a : b */\n      swap1\n      pop\n        /* \"Auction Project/Auction2.sol\":1347:1454  function max(uint256 a, uint256 b) internal pure returns (uint256) {\r... */\n      swap3\n      swap2\n      pop\n      pop\n      jump\t// out\n\n    auxdata: 0xa165627a7a72305820bdbf4e7b82a769b619e006254a83af54b6cefcc6988c0e15ed53ad5ea9c490800029\n}\n",
				"bytecode": {
					"linkReferences": {},
					"object": "608060405234801561001057600080fd5b50604051610b29380380610b2983398101806040528101908080518201929190602001805190602001909291908051906020019092919080519060200190929190505050836000908051906020019061006a929190610089565b508260018190555081600281905550806003819055505050505061012e565b828054600181600116156101000203166002900490600052602060002090601f016020900481019282601f106100ca57805160ff19168380011785556100f8565b828001600101855582156100f8579182015b828111156100f75782518255916020019190600101906100dc565b5b5090506101059190610109565b5090565b61012b91905b8082111561012757600081600090555060010161010f565b5090565b90565b6109ec8061013d6000396000f300608060405260043610610083576000357c0100000000000000000000000000000000000000000000000000000000900463ffffffff168063409766e614610088578063439f5ac2146100b7578063659dd2b4146100e2578063679dbf0c1461010f578063ad9346741461017b578063dd06ba1a146101a6578063dee37a8e146101d1575b600080fd5b34801561009457600080fd5b5061009d61023e565b604051808215151515815260200191505060405180910390f35b3480156100c357600080fd5b506100cc610255565b6040518082815260200191505060405180910390f35b3480156100ee57600080fd5b5061010d6004803603810190808035906020019092919050505061025f565b005b34801561011b57600080fd5b5061012461051e565b6040518080602001828103825283818151815260200191508051906020019060200280838360005b8381101561016757808201518184015260208101905061014c565b505050509050019250505060405180910390f35b34801561018757600080fd5b5061019061068b565b6040518082815260200191505060405180910390f35b3480156101b257600080fd5b506101bb61070e565b6040518082815260200191505060405180910390f35b3480156101dd57600080fd5b506101fc60048036038101908080359060200190929190505050610837565b604051808273ffffffffffffffffffffffffffffffffffffffff1673ffffffffffffffffffffffffffffffffffffffff16815260200191505060405180910390f35b6000600460009054906101000a900460ff16905090565b6000600254905090565b8060035481111515610325576040517f08c379a00000000000000000000000000000000000000000000000000000000081526004018080602001828103825260458152602001807f506c6561736520656e7465722061206269642067726561746572207468616e2081526020017f6d696e696d756d20726571756972656420626964206f6620676976656e20617581526020017f6374696f6e00000000000000000000000000000000000000000000000000000081525060600191505060405180910390fd5b6002544210151561039e576040517f08c379a00000000000000000000000000000000000000000000000000000000081526004018080602001828103825260148152602001807f41756374696f6e20697320496e6163746976652000000000000000000000000081525060200191505060405180910390fd5b6000600560003273ffffffffffffffffffffffffffffffffffffffff1673ffffffffffffffffffffffffffffffffffffffff16815260200190815260200160002054141515610455576040517f08c379a000000000000000000000000000000000000000000000000000000000815260040180806020018281038252601e8152602001807f596f75206861766520616c72656164792063726561746564206120626964000081525060200191505060405180910390fd5b6001600460006101000a81548160ff02191690831515021790555081600560003273ffffffffffffffffffffffffffffffffffffffff1673ffffffffffffffffffffffffffffffffffffffff1681526020019081526020016000208190555060063290806001815401808255809150509060018203906000526020600020016000909192909190916101000a81548173ffffffffffffffffffffffffffffffffffffffff021916908373ffffffffffffffffffffffffffffffffffffffff160217905550505050565b60608060006002544210151561059c576040517f08c379a00000000000000000000000000000000000000000000000000000000081526004018080602001828103825260148152602001807f41756374696f6e20697320496e6163746976652000000000000000000000000081525060200191505060405180910390fd5b6006805490506040519080825280602002602001820160405280156105d05781602001602082028038833980820191505090505b5091505b60068054905081101561068357600560006006838154811015156105f457fe5b9060005260206000200160009054906101000a900473ffffffffffffffffffffffffffffffffffffffff1673ffffffffffffffffffffffffffffffffffffffff1673ffffffffffffffffffffffffffffffffffffffff16815260200190815260200160002054828281518110151561066857fe5b906020019060200201818152505080806001019150506105d4565b819250505090565b600060025442101515610706576040517f08c379a00000000000000000000000000000000000000000000000000000000081526004018080602001828103825260148152602001807f41756374696f6e20697320496e6163746976652000000000000000000000000081525060200191505060405180910390fd5b600354905090565b60008060006002544210151561078c576040517f08c379a00000000000000000000000000000000000000000000000000000000081526004018080602001828103825260148152602001807f41756374696f6e20697320496e6163746976652000000000000000000000000081525060200191505060405180910390fd5b600091505b60068054905081101561082f57610820600560006006848154811015156107b457fe5b9060005260206000200160009054906101000a900473ffffffffffffffffffffffffffffffffffffffff1673ffffffffffffffffffffffffffffffffffffffff1673ffffffffffffffffffffffffffffffffffffffff16815260200190815260200160002054836109a6565b91508080600101915050610791565b819250505090565b6000806000600254421015156108b5576040517f08c379a00000000000000000000000000000000000000000000000000000000081526004018080602001828103825260148152602001807f41756374696f6e20697320496e6163746976652000000000000000000000000081525060200191505060405180910390fd5b42600281905550600090505b60068054905081101561099c5783600560006006848154811015156108e257fe5b9060005260206000200160009054906101000a900473ffffffffffffffffffffffffffffffffffffffff1673ffffffffffffffffffffffffffffffffffffffff1673ffffffffffffffffffffffffffffffffffffffff16815260200190815260200160002054141561098f5760068181548110151561095d57fe5b9060005260206000200160009054906101000a900473ffffffffffffffffffffffffffffffffffffffff16915061099c565b80806001019150506108c1565b8192505050919050565b6000818310156109b657816109b8565b825b9050929150505600a165627a7a72305820bdbf4e7b82a769b619e006254a83af54b6cefcc6988c0e15ed53ad5ea9c490800029",
					"opcodes": "PUSH1 0x80 PUSH1 0x40 MSTORE CALLVALUE DUP1 ISZERO PUSH2 0x10 JUMPI PUSH1 0x0 DUP1 REVERT JUMPDEST POP PUSH1 0x40 MLOAD PUSH2 0xB29 CODESIZE SUB DUP1 PUSH2 0xB29 DUP4 CODECOPY DUP2 ADD DUP1 PUSH1 0x40 MSTORE DUP2 ADD SWAP1 DUP1 DUP1 MLOAD DUP3 ADD SWAP3 SWAP2 SWAP1 PUSH1 0x20 ADD DUP1 MLOAD SWAP1 PUSH1 0x20 ADD SWAP1 SWAP3 SWAP2 SWAP1 DUP1 MLOAD SWAP1 PUSH1 0x20 ADD SWAP1 SWAP3 SWAP2 SWAP1 DUP1 MLOAD SWAP1 PUSH1 0x20 ADD SWAP1 SWAP3 SWAP2 SWAP1 POP POP POP DUP4 PUSH1 0x0 SWAP1 DUP1 MLOAD SWAP1 PUSH1 0x20 ADD SWAP1 PUSH2 0x6A SWAP3 SWAP2 SWAP1 PUSH2 0x89 JUMP JUMPDEST POP DUP3 PUSH1 0x1 DUP2 SWAP1 SSTORE POP DUP2 PUSH1 0x2 DUP2 SWAP1 SSTORE POP DUP1 PUSH1 0x3 DUP2 SWAP1 SSTORE POP POP POP POP POP PUSH2 0x12E JUMP JUMPDEST DUP3 DUP1 SLOAD PUSH1 0x1 DUP2 PUSH1 0x1 AND ISZERO PUSH2 0x100 MUL SUB AND PUSH1 0x2 SWAP1 DIV SWAP1 PUSH1 0x0 MSTORE PUSH1 0x20 PUSH1 0x0 KECCAK256 SWAP1 PUSH1 0x1F ADD PUSH1 0x20 SWAP1 DIV DUP2 ADD SWAP3 DUP3 PUSH1 0x1F LT PUSH2 0xCA JUMPI DUP1 MLOAD PUSH1 0xFF NOT AND DUP4 DUP1 ADD OR DUP6 SSTORE PUSH2 0xF8 JUMP JUMPDEST DUP3 DUP1 ADD PUSH1 0x1 ADD DUP6 SSTORE DUP3 ISZERO PUSH2 0xF8 JUMPI SWAP2 DUP3 ADD JUMPDEST DUP3 DUP2 GT ISZERO PUSH2 0xF7 JUMPI DUP3 MLOAD DUP3 SSTORE SWAP2 PUSH1 0x20 ADD SWAP2 SWAP1 PUSH1 0x1 ADD SWAP1 PUSH2 0xDC JUMP JUMPDEST JUMPDEST POP SWAP1 POP PUSH2 0x105 SWAP2 SWAP1 PUSH2 0x109 JUMP JUMPDEST POP SWAP1 JUMP JUMPDEST PUSH2 0x12B SWAP2 SWAP1 JUMPDEST DUP1 DUP3 GT ISZERO PUSH2 0x127 JUMPI PUSH1 0x0 DUP2 PUSH1 0x0 SWAP1 SSTORE POP PUSH1 0x1 ADD PUSH2 0x10F JUMP JUMPDEST POP SWAP1 JUMP JUMPDEST SWAP1 JUMP JUMPDEST PUSH2 0x9EC DUP1 PUSH2 0x13D PUSH1 0x0 CODECOPY PUSH1 0x0 RETURN STOP PUSH1 0x80 PUSH1 0x40 MSTORE PUSH1 0x4 CALLDATASIZE LT PUSH2 0x83 JUMPI PUSH1 0x0 CALLDATALOAD PUSH29 0x100000000000000000000000000000000000000000000000000000000 SWAP1 DIV PUSH4 0xFFFFFFFF AND DUP1 PUSH4 0x409766E6 EQ PUSH2 0x88 JUMPI DUP1 PUSH4 0x439F5AC2 EQ PUSH2 0xB7 JUMPI DUP1 PUSH4 0x659DD2B4 EQ PUSH2 0xE2 JUMPI DUP1 PUSH4 0x679DBF0C EQ PUSH2 0x10F JUMPI DUP1 PUSH4 0xAD934674 EQ PUSH2 0x17B JUMPI DUP1 PUSH4 0xDD06BA1A EQ PUSH2 0x1A6 JUMPI DUP1 PUSH4 0xDEE37A8E EQ PUSH2 0x1D1 JUMPI JUMPDEST PUSH1 0x0 DUP1 REVERT JUMPDEST CALLVALUE DUP1 ISZERO PUSH2 0x94 JUMPI PUSH1 0x0 DUP1 REVERT JUMPDEST POP PUSH2 0x9D PUSH2 0x23E JUMP JUMPDEST PUSH1 0x40 MLOAD DUP1 DUP3 ISZERO ISZERO ISZERO ISZERO DUP2 MSTORE PUSH1 0x20 ADD SWAP2 POP POP PUSH1 0x40 MLOAD DUP1 SWAP2 SUB SWAP1 RETURN JUMPDEST CALLVALUE DUP1 ISZERO PUSH2 0xC3 JUMPI PUSH1 0x0 DUP1 REVERT JUMPDEST POP PUSH2 0xCC PUSH2 0x255 JUMP JUMPDEST PUSH1 0x40 MLOAD DUP1 DUP3 DUP2 MSTORE PUSH1 0x20 ADD SWAP2 POP POP PUSH1 0x40 MLOAD DUP1 SWAP2 SUB SWAP1 RETURN JUMPDEST CALLVALUE DUP1 ISZERO PUSH2 0xEE JUMPI PUSH1 0x0 DUP1 REVERT JUMPDEST POP PUSH2 0x10D PUSH1 0x4 DUP1 CALLDATASIZE SUB DUP2 ADD SWAP1 DUP1 DUP1 CALLDATALOAD SWAP1 PUSH1 0x20 ADD SWAP1 SWAP3 SWAP2 SWAP1 POP POP POP PUSH2 0x25F JUMP JUMPDEST STOP JUMPDEST CALLVALUE DUP1 ISZERO PUSH2 0x11B JUMPI PUSH1 0x0 DUP1 REVERT JUMPDEST POP PUSH2 0x124 PUSH2 0x51E JUMP JUMPDEST PUSH1 0x40 MLOAD DUP1 DUP1 PUSH1 0x20 ADD DUP3 DUP2 SUB DUP3 MSTORE DUP4 DUP2 DUP2 MLOAD DUP2 MSTORE PUSH1 0x20 ADD SWAP2 POP DUP1 MLOAD SWAP1 PUSH1 0x20 ADD SWAP1 PUSH1 0x20 MUL DUP1 DUP4 DUP4 PUSH1 0x0 JUMPDEST DUP4 DUP2 LT ISZERO PUSH2 0x167 JUMPI DUP1 DUP3 ADD MLOAD DUP2 DUP5 ADD MSTORE PUSH1 0x20 DUP2 ADD SWAP1 POP PUSH2 0x14C JUMP JUMPDEST POP POP POP POP SWAP1 POP ADD SWAP3 POP POP POP PUSH1 0x40 MLOAD DUP1 SWAP2 SUB SWAP1 RETURN JUMPDEST CALLVALUE DUP1 ISZERO PUSH2 0x187 JUMPI PUSH1 0x0 DUP1 REVERT JUMPDEST POP PUSH2 0x190 PUSH2 0x68B JUMP JUMPDEST PUSH1 0x40 MLOAD DUP1 DUP3 DUP2 MSTORE PUSH1 0x20 ADD SWAP2 POP POP PUSH1 0x40 MLOAD DUP1 SWAP2 SUB SWAP1 RETURN JUMPDEST CALLVALUE DUP1 ISZERO PUSH2 0x1B2 JUMPI PUSH1 0x0 DUP1 REVERT JUMPDEST POP PUSH2 0x1BB PUSH2 0x70E JUMP JUMPDEST PUSH1 0x40 MLOAD DUP1 DUP3 DUP2 MSTORE PUSH1 0x20 ADD SWAP2 POP POP PUSH1 0x40 MLOAD DUP1 SWAP2 SUB SWAP1 RETURN JUMPDEST CALLVALUE DUP1 ISZERO PUSH2 0x1DD JUMPI PUSH1 0x0 DUP1 REVERT JUMPDEST POP PUSH2 0x1FC PUSH1 0x4 DUP1 CALLDATASIZE SUB DUP2 ADD SWAP1 DUP1 DUP1 CALLDATALOAD SWAP1 PUSH1 0x20 ADD SWAP1 SWAP3 SWAP2 SWAP1 POP POP POP PUSH2 0x837 JUMP JUMPDEST PUSH1 0x40 MLOAD DUP1 DUP3 PUSH20 0xFFFFFFFFFFFFFFFFFFFFFFFFFFFFFFFFFFFFFFFF AND PUSH20 0xFFFFFFFFFFFFFFFFFFFFFFFFFFFFFFFFFFFFFFFF AND DUP2 MSTORE PUSH1 0x20 ADD SWAP2 POP POP PUSH1 0x40 MLOAD DUP1 SWAP2 SUB SWAP1 RETURN JUMPDEST PUSH1 0x0 PUSH1 0x4 PUSH1 0x0 SWAP1 SLOAD SWAP1 PUSH2 0x100 EXP SWAP1 DIV PUSH1 0xFF AND SWAP1 POP SWAP1 JUMP JUMPDEST PUSH1 0x0 PUSH1 0x2 SLOAD SWAP1 POP SWAP1 JUMP JUMPDEST DUP1 PUSH1 0x3 SLOAD DUP2 GT ISZERO ISZERO PUSH2 0x325 JUMPI PUSH1 0x40 MLOAD PUSH32 0x8C379A000000000000000000000000000000000000000000000000000000000 DUP2 MSTORE PUSH1 0x4 ADD DUP1 DUP1 PUSH1 0x20 ADD DUP3 DUP2 SUB DUP3 MSTORE PUSH1 0x45 DUP2 MSTORE PUSH1 0x20 ADD DUP1 PUSH32 0x506C6561736520656E7465722061206269642067726561746572207468616E20 DUP2 MSTORE PUSH1 0x20 ADD PUSH32 0x6D696E696D756D20726571756972656420626964206F6620676976656E206175 DUP2 MSTORE PUSH1 0x20 ADD PUSH32 0x6374696F6E000000000000000000000000000000000000000000000000000000 DUP2 MSTORE POP PUSH1 0x60 ADD SWAP2 POP POP PUSH1 0x40 MLOAD DUP1 SWAP2 SUB SWAP1 REVERT JUMPDEST PUSH1 0x2 SLOAD TIMESTAMP LT ISZERO ISZERO PUSH2 0x39E JUMPI PUSH1 0x40 MLOAD PUSH32 0x8C379A000000000000000000000000000000000000000000000000000000000 DUP2 MSTORE PUSH1 0x4 ADD DUP1 DUP1 PUSH1 0x20 ADD DUP3 DUP2 SUB DUP3 MSTORE PUSH1 0x14 DUP2 MSTORE PUSH1 0x20 ADD DUP1 PUSH32 0x41756374696F6E20697320496E61637469766520000000000000000000000000 DUP2 MSTORE POP PUSH1 0x20 ADD SWAP2 POP POP PUSH1 0x40 MLOAD DUP1 SWAP2 SUB SWAP1 REVERT JUMPDEST PUSH1 0x0 PUSH1 0x5 PUSH1 0x0 ORIGIN PUSH20 0xFFFFFFFFFFFFFFFFFFFFFFFFFFFFFFFFFFFFFFFF AND PUSH20 0xFFFFFFFFFFFFFFFFFFFFFFFFFFFFFFFFFFFFFFFF AND DUP2 MSTORE PUSH1 0x20 ADD SWAP1 DUP2 MSTORE PUSH1 0x20 ADD PUSH1 0x0 KECCAK256 SLOAD EQ ISZERO ISZERO PUSH2 0x455 JUMPI PUSH1 0x40 MLOAD PUSH32 0x8C379A000000000000000000000000000000000000000000000000000000000 DUP2 MSTORE PUSH1 0x4 ADD DUP1 DUP1 PUSH1 0x20 ADD DUP3 DUP2 SUB DUP3 MSTORE PUSH1 0x1E DUP2 MSTORE PUSH1 0x20 ADD DUP1 PUSH32 0x596F75206861766520616C726561647920637265617465642061206269640000 DUP2 MSTORE POP PUSH1 0x20 ADD SWAP2 POP POP PUSH1 0x40 MLOAD DUP1 SWAP2 SUB SWAP1 REVERT JUMPDEST PUSH1 0x1 PUSH1 0x4 PUSH1 0x0 PUSH2 0x100 EXP DUP2 SLOAD DUP2 PUSH1 0xFF MUL NOT AND SWAP1 DUP4 ISZERO ISZERO MUL OR SWAP1 SSTORE POP DUP2 PUSH1 0x5 PUSH1 0x0 ORIGIN PUSH20 0xFFFFFFFFFFFFFFFFFFFFFFFFFFFFFFFFFFFFFFFF AND PUSH20 0xFFFFFFFFFFFFFFFFFFFFFFFFFFFFFFFFFFFFFFFF AND DUP2 MSTORE PUSH1 0x20 ADD SWAP1 DUP2 MSTORE PUSH1 0x20 ADD PUSH1 0x0 KECCAK256 DUP2 SWAP1 SSTORE POP PUSH1 0x6 ORIGIN SWAP1 DUP1 PUSH1 0x1 DUP2 SLOAD ADD DUP1 DUP3 SSTORE DUP1 SWAP2 POP POP SWAP1 PUSH1 0x1 DUP3 SUB SWAP1 PUSH1 0x0 MSTORE PUSH1 0x20 PUSH1 0x0 KECCAK256 ADD PUSH1 0x0 SWAP1 SWAP2 SWAP3 SWAP1 SWAP2 SWAP1 SWAP2 PUSH2 0x100 EXP DUP2 SLOAD DUP2 PUSH20 0xFFFFFFFFFFFFFFFFFFFFFFFFFFFFFFFFFFFFFFFF MUL NOT AND SWAP1 DUP4 PUSH20 0xFFFFFFFFFFFFFFFFFFFFFFFFFFFFFFFFFFFFFFFF AND MUL OR SWAP1 SSTORE POP POP POP POP JUMP JUMPDEST PUSH1 0x60 DUP1 PUSH1 0x0 PUSH1 0x2 SLOAD TIMESTAMP LT ISZERO ISZERO PUSH2 0x59C JUMPI PUSH1 0x40 MLOAD PUSH32 0x8C379A000000000000000000000000000000000000000000000000000000000 DUP2 MSTORE PUSH1 0x4 ADD DUP1 DUP1 PUSH1 0x20 ADD DUP3 DUP2 SUB DUP3 MSTORE PUSH1 0x14 DUP2 MSTORE PUSH1 0x20 ADD DUP1 PUSH32 0x41756374696F6E20697320496E61637469766520000000000000000000000000 DUP2 MSTORE POP PUSH1 0x20 ADD SWAP2 POP POP PUSH1 0x40 MLOAD DUP1 SWAP2 SUB SWAP1 REVERT JUMPDEST PUSH1 0x6 DUP1 SLOAD SWAP1 POP PUSH1 0x40 MLOAD SWAP1 DUP1 DUP3 MSTORE DUP1 PUSH1 0x20 MUL PUSH1 0x20 ADD DUP3 ADD PUSH1 0x40 MSTORE DUP1 ISZERO PUSH2 0x5D0 JUMPI DUP2 PUSH1 0x20 ADD PUSH1 0x20 DUP3 MUL DUP1 CODESIZE DUP4 CODECOPY DUP1 DUP3 ADD SWAP2 POP POP SWAP1 POP JUMPDEST POP SWAP2 POP JUMPDEST PUSH1 0x6 DUP1 SLOAD SWAP1 POP DUP2 LT ISZERO PUSH2 0x683 JUMPI PUSH1 0x5 PUSH1 0x0 PUSH1 0x6 DUP4 DUP2 SLOAD DUP2 LT ISZERO ISZERO PUSH2 0x5F4 JUMPI INVALID JUMPDEST SWAP1 PUSH1 0x0 MSTORE PUSH1 0x20 PUSH1 0x0 KECCAK256 ADD PUSH1 0x0 SWAP1 SLOAD SWAP1 PUSH2 0x100 EXP SWAP1 DIV PUSH20 0xFFFFFFFFFFFFFFFFFFFFFFFFFFFFFFFFFFFFFFFF AND PUSH20 0xFFFFFFFFFFFFFFFFFFFFFFFFFFFFFFFFFFFFFFFF AND PUSH20 0xFFFFFFFFFFFFFFFFFFFFFFFFFFFFFFFFFFFFFFFF AND DUP2 MSTORE PUSH1 0x20 ADD SWAP1 DUP2 MSTORE PUSH1 0x20 ADD PUSH1 0x0 KECCAK256 SLOAD DUP3 DUP3 DUP2 MLOAD DUP2 LT ISZERO ISZERO PUSH2 0x668 JUMPI INVALID JUMPDEST SWAP1 PUSH1 0x20 ADD SWAP1 PUSH1 0x20 MUL ADD DUP2 DUP2 MSTORE POP POP DUP1 DUP1 PUSH1 0x1 ADD SWAP2 POP POP PUSH2 0x5D4 JUMP JUMPDEST DUP2 SWAP3 POP POP POP SWAP1 JUMP JUMPDEST PUSH1 0x0 PUSH1 0x2 SLOAD TIMESTAMP LT ISZERO ISZERO PUSH2 0x706 JUMPI PUSH1 0x40 MLOAD PUSH32 0x8C379A000000000000000000000000000000000000000000000000000000000 DUP2 MSTORE PUSH1 0x4 ADD DUP1 DUP1 PUSH1 0x20 ADD DUP3 DUP2 SUB DUP3 MSTORE PUSH1 0x14 DUP2 MSTORE PUSH1 0x20 ADD DUP1 PUSH32 0x41756374696F6E20697320496E61637469766520000000000000000000000000 DUP2 MSTORE POP PUSH1 0x20 ADD SWAP2 POP POP PUSH1 0x40 MLOAD DUP1 SWAP2 SUB SWAP1 REVERT JUMPDEST PUSH1 0x3 SLOAD SWAP1 POP SWAP1 JUMP JUMPDEST PUSH1 0x0 DUP1 PUSH1 0x0 PUSH1 0x2 SLOAD TIMESTAMP LT ISZERO ISZERO PUSH2 0x78C JUMPI PUSH1 0x40 MLOAD PUSH32 0x8C379A000000000000000000000000000000000000000000000000000000000 DUP2 MSTORE PUSH1 0x4 ADD DUP1 DUP1 PUSH1 0x20 ADD DUP3 DUP2 SUB DUP3 MSTORE PUSH1 0x14 DUP2 MSTORE PUSH1 0x20 ADD DUP1 PUSH32 0x41756374696F6E20697320496E61637469766520000000000000000000000000 DUP2 MSTORE POP PUSH1 0x20 ADD SWAP2 POP POP PUSH1 0x40 MLOAD DUP1 SWAP2 SUB SWAP1 REVERT JUMPDEST PUSH1 0x0 SWAP2 POP JUMPDEST PUSH1 0x6 DUP1 SLOAD SWAP1 POP DUP2 LT ISZERO PUSH2 0x82F JUMPI PUSH2 0x820 PUSH1 0x5 PUSH1 0x0 PUSH1 0x6 DUP5 DUP2 SLOAD DUP2 LT ISZERO ISZERO PUSH2 0x7B4 JUMPI INVALID JUMPDEST SWAP1 PUSH1 0x0 MSTORE PUSH1 0x20 PUSH1 0x0 KECCAK256 ADD PUSH1 0x0 SWAP1 SLOAD SWAP1 PUSH2 0x100 EXP SWAP1 DIV PUSH20 0xFFFFFFFFFFFFFFFFFFFFFFFFFFFFFFFFFFFFFFFF AND PUSH20 0xFFFFFFFFFFFFFFFFFFFFFFFFFFFFFFFFFFFFFFFF AND PUSH20 0xFFFFFFFFFFFFFFFFFFFFFFFFFFFFFFFFFFFFFFFF AND DUP2 MSTORE PUSH1 0x20 ADD SWAP1 DUP2 MSTORE PUSH1 0x20 ADD PUSH1 0x0 KECCAK256 SLOAD DUP4 PUSH2 0x9A6 JUMP JUMPDEST SWAP2 POP DUP1 DUP1 PUSH1 0x1 ADD SWAP2 POP POP PUSH2 0x791 JUMP JUMPDEST DUP2 SWAP3 POP POP POP SWAP1 JUMP JUMPDEST PUSH1 0x0 DUP1 PUSH1 0x0 PUSH1 0x2 SLOAD TIMESTAMP LT ISZERO ISZERO PUSH2 0x8B5 JUMPI PUSH1 0x40 MLOAD PUSH32 0x8C379A000000000000000000000000000000000000000000000000000000000 DUP2 MSTORE PUSH1 0x4 ADD DUP1 DUP1 PUSH1 0x20 ADD DUP3 DUP2 SUB DUP3 MSTORE PUSH1 0x14 DUP2 MSTORE PUSH1 0x20 ADD DUP1 PUSH32 0x41756374696F6E20697320496E61637469766520000000000000000000000000 DUP2 MSTORE POP PUSH1 0x20 ADD SWAP2 POP POP PUSH1 0x40 MLOAD DUP1 SWAP2 SUB SWAP1 REVERT JUMPDEST TIMESTAMP PUSH1 0x2 DUP2 SWAP1 SSTORE POP PUSH1 0x0 SWAP1 POP JUMPDEST PUSH1 0x6 DUP1 SLOAD SWAP1 POP DUP2 LT ISZERO PUSH2 0x99C JUMPI DUP4 PUSH1 0x5 PUSH1 0x0 PUSH1 0x6 DUP5 DUP2 SLOAD DUP2 LT ISZERO ISZERO PUSH2 0x8E2 JUMPI INVALID JUMPDEST SWAP1 PUSH1 0x0 MSTORE PUSH1 0x20 PUSH1 0x0 KECCAK256 ADD PUSH1 0x0 SWAP1 SLOAD SWAP1 PUSH2 0x100 EXP SWAP1 DIV PUSH20 0xFFFFFFFFFFFFFFFFFFFFFFFFFFFFFFFFFFFFFFFF AND PUSH20 0xFFFFFFFFFFFFFFFFFFFFFFFFFFFFFFFFFFFFFFFF AND PUSH20 0xFFFFFFFFFFFFFFFFFFFFFFFFFFFFFFFFFFFFFFFF AND DUP2 MSTORE PUSH1 0x20 ADD SWAP1 DUP2 MSTORE PUSH1 0x20 ADD PUSH1 0x0 KECCAK256 SLOAD EQ ISZERO PUSH2 0x98F JUMPI PUSH1 0x6 DUP2 DUP2 SLOAD DUP2 LT ISZERO ISZERO PUSH2 0x95D JUMPI INVALID JUMPDEST SWAP1 PUSH1 0x0 MSTORE PUSH1 0x20 PUSH1 0x0 KECCAK256 ADD PUSH1 0x0 SWAP1 SLOAD SWAP1 PUSH2 0x100 EXP SWAP1 DIV PUSH20 0xFFFFFFFFFFFFFFFFFFFFFFFFFFFFFFFFFFFFFFFF AND SWAP2 POP PUSH2 0x99C JUMP JUMPDEST DUP1 DUP1 PUSH1 0x1 ADD SWAP2 POP POP PUSH2 0x8C1 JUMP JUMPDEST DUP2 SWAP3 POP POP POP SWAP2 SWAP1 POP JUMP JUMPDEST PUSH1 0x0 DUP2 DUP4 LT ISZERO PUSH2 0x9B6 JUMPI DUP2 PUSH2 0x9B8 JUMP JUMPDEST DUP3 JUMPDEST SWAP1 POP SWAP3 SWAP2 POP POP JUMP STOP LOG1 PUSH6 0x627A7A723058 KECCAK256 0xbd 0xbf 0x4e PUSH28 0x82A769B619E006254A83AF54B6CEFCC6988C0E15ED53AD5EA9C49080 STOP 0x29 "
				},
				"gasEstimates": {
					"creation": {
						"codeDepositCost": "508000",
						"executionCost": "infinite",
						"totalCost": "infinite"
					},
					"external": {
						"createBid(uint256)": "81971",
						"endAuctionWithSelectedBid(uint256)": "infinite",
						"getBidsMade()": "450",
						"getEndTime()": "424",
						"getListOfBids()": "infinite",
						"getMaximumBid()": "infinite",
						"getMinBidVal()": "718"
					},
					"internal": {
						"max(uint256,uint256)": "67"
					}
				},
				"methodIdentifiers": {
					"createBid(uint256)": "659dd2b4",
					"endAuctionWithSelectedBid(uint256)": "dee37a8e",
					"getBidsMade()": "409766e6",
					"getEndTime()": "439f5ac2",
					"getListOfBids()": "679dbf0c",
					"getMaximumBid()": "dd06ba1a",
					"getMinBidVal()": "ad934674"
				}
			},
			"userdoc": {
				"methods": {}
			}
		}
	}
}