{
	"Auction Project/AuctionPlatform.sol": {
		"AuctionPlatform": {
			"abi": [
				{
					"constant": true,
					"inputs": [],
					"name": "aucId",
					"outputs": [
						{
							"name": "",
							"type": "uint256"
						}
					],
					"payable": false,
					"stateMutability": "view",
					"type": "function"
				},
				{
					"constant": true,
					"inputs": [],
					"name": "getMaxBid",
					"outputs": [
						{
							"name": "",
							"type": "uint256"
						}
					],
					"payable": false,
					"stateMutability": "view",
					"type": "function"
				},
				{
					"constant": false,
					"inputs": [
						{
							"name": "_aucId",
							"type": "uint256"
						},
						{
							"name": "_bidVal",
							"type": "uint256"
						}
					],
					"name": "bidOnAuction",
					"outputs": [],
					"payable": false,
					"stateMutability": "nonpayable",
					"type": "function"
				},
				{
					"constant": false,
					"inputs": [
						{
							"name": "bid",
							"type": "uint256"
						}
					],
					"name": "endAuction",
					"outputs": [
						{
							"name": "",
							"type": "address"
						}
					],
					"payable": false,
					"stateMutability": "nonpayable",
					"type": "function"
				},
				{
					"constant": true,
					"inputs": [],
					"name": "getListOfOwnBids",
					"outputs": [
						{
							"name": "",
							"type": "uint256[]"
						}
					],
					"payable": false,
					"stateMutability": "view",
					"type": "function"
				},
				{
					"constant": false,
					"inputs": [
						{
							"name": "_description",
							"type": "string"
						},
						{
							"name": "_startTimeYear",
							"type": "uint256"
						},
						{
							"name": "_startTimeMonth",
							"type": "uint256"
						},
						{
							"name": "_startTimeDay",
							"type": "uint256"
						},
						{
							"name": "_endTimeYear",
							"type": "uint256"
						},
						{
							"name": "_endTimeMonth",
							"type": "uint256"
						},
						{
							"name": "_endTimeDay",
							"type": "uint256"
						},
						{
							"name": "_minBidVal",
							"type": "uint256"
						}
					],
					"name": "createAuction",
					"outputs": [],
					"payable": false,
					"stateMutability": "nonpayable",
					"type": "function"
				},
				{
					"constant": true,
					"inputs": [],
					"name": "getListOfBidsOnAuction",
					"outputs": [
						{
							"name": "",
							"type": "uint256[]"
						}
					],
					"payable": false,
					"stateMutability": "view",
					"type": "function"
				},
				{
					"constant": false,
					"inputs": [],
					"name": "endAuction",
					"outputs": [
						{
							"name": "",
							"type": "address"
						}
					],
					"payable": false,
					"stateMutability": "nonpayable",
					"type": "function"
				}
			],
			"devdoc": {
				"methods": {}
			},
			"evm": {
				"assembly": "    /* \"Auction Project/AuctionPlatform.sol\":387:7194  contract AuctionPlatform{\r... */\n  mstore(0x40, 0x80)\n    /* \"Auction Project/AuctionPlatform.sol\":445:446  0 */\n  0x0\n    /* \"Auction Project/AuctionPlatform.sol\":425:446  uint public aucId = 0 */\n  dup1\n  sstore\n    /* \"Auction Project/AuctionPlatform.sol\":387:7194  contract AuctionPlatform{\r... */\n  callvalue\n    /* \"--CODEGEN--\":8:17   */\n  dup1\n    /* \"--CODEGEN--\":5:7   */\n  iszero\n  tag_1\n  jumpi\n    /* \"--CODEGEN--\":30:31   */\n  0x0\n    /* \"--CODEGEN--\":27:28   */\n  dup1\n    /* \"--CODEGEN--\":20:32   */\n  revert\n    /* \"--CODEGEN--\":5:7   */\ntag_1:\n    /* \"Auction Project/AuctionPlatform.sol\":387:7194  contract AuctionPlatform{\r... */\n  pop\n  dataSize(sub_0)\n  dup1\n  dataOffset(sub_0)\n  0x0\n  codecopy\n  0x0\n  return\nstop\n\nsub_0: assembly {\n        /* \"Auction Project/AuctionPlatform.sol\":387:7194  contract AuctionPlatform{\r... */\n      mstore(0x40, 0x80)\n      jumpi(tag_1, lt(calldatasize, 0x4))\n      calldataload(0x0)\n      0x100000000000000000000000000000000000000000000000000000000\n      swap1\n      div\n      0xffffffff\n      and\n      dup1\n      0x25c0cdaa\n      eq\n      tag_2\n      jumpi\n      dup1\n      0x7e12a251\n      eq\n      tag_3\n      jumpi\n      dup1\n      0x9f635120\n      eq\n      tag_4\n      jumpi\n      dup1\n      0xb9a2de3a\n      eq\n      tag_5\n      jumpi\n      dup1\n      0xd1fda965\n      eq\n      tag_6\n      jumpi\n      dup1\n      0xe3a57e65\n      eq\n      tag_7\n      jumpi\n      dup1\n      0xf2f58fcf\n      eq\n      tag_8\n      jumpi\n      dup1\n      0xfe67a54b\n      eq\n      tag_9\n      jumpi\n    tag_1:\n      0x0\n      dup1\n      revert\n        /* \"Auction Project/AuctionPlatform.sol\":425:446  uint public aucId = 0 */\n    tag_2:\n      callvalue\n        /* \"--CODEGEN--\":8:17   */\n      dup1\n        /* \"--CODEGEN--\":5:7   */\n      iszero\n      tag_10\n      jumpi\n        /* \"--CODEGEN--\":30:31   */\n      0x0\n        /* \"--CODEGEN--\":27:28   */\n      dup1\n        /* \"--CODEGEN--\":20:32   */\n      revert\n        /* \"--CODEGEN--\":5:7   */\n    tag_10:\n        /* \"Auction Project/AuctionPlatform.sol\":425:446  uint public aucId = 0 */\n      pop\n      tag_11\n      jump(tag_12)\n    tag_11:\n      mload(0x40)\n      dup1\n      dup3\n      dup2\n      mstore\n      0x20\n      add\n      swap2\n      pop\n      pop\n      mload(0x40)\n      dup1\n      swap2\n      sub\n      swap1\n      return\n        /* \"Auction Project/AuctionPlatform.sol\":4558:4926  function getMaxBid() public ifAuctionOwner ifBidded view returns(uint){\r... */\n    tag_3:\n      callvalue\n        /* \"--CODEGEN--\":8:17   */\n      dup1\n        /* \"--CODEGEN--\":5:7   */\n      iszero\n      tag_13\n      jumpi\n        /* \"--CODEGEN--\":30:31   */\n      0x0\n        /* \"--CODEGEN--\":27:28   */\n      dup1\n        /* \"--CODEGEN--\":20:32   */\n      revert\n        /* \"--CODEGEN--\":5:7   */\n    tag_13:\n        /* \"Auction Project/AuctionPlatform.sol\":4558:4926  function getMaxBid() public ifAuctionOwner ifBidded view returns(uint){\r... */\n      pop\n      tag_14\n      jump(tag_15)\n    tag_14:\n      mload(0x40)\n      dup1\n      dup3\n      dup2\n      mstore\n      0x20\n      add\n      swap2\n      pop\n      pop\n      mload(0x40)\n      dup1\n      swap2\n      sub\n      swap1\n      return\n        /* \"Auction Project/AuctionPlatform.sol\":3196:3981  function bidOnAuction(uint _aucId, uint _bidVal) public \r... */\n    tag_4:\n      callvalue\n        /* \"--CODEGEN--\":8:17   */\n      dup1\n        /* \"--CODEGEN--\":5:7   */\n      iszero\n      tag_16\n      jumpi\n        /* \"--CODEGEN--\":30:31   */\n      0x0\n        /* \"--CODEGEN--\":27:28   */\n      dup1\n        /* \"--CODEGEN--\":20:32   */\n      revert\n        /* \"--CODEGEN--\":5:7   */\n    tag_16:\n        /* \"Auction Project/AuctionPlatform.sol\":3196:3981  function bidOnAuction(uint _aucId, uint _bidVal) public \r... */\n      pop\n      tag_17\n      0x4\n      dup1\n      calldatasize\n      sub\n      dup2\n      add\n      swap1\n      dup1\n      dup1\n      calldataload\n      swap1\n      0x20\n      add\n      swap1\n      swap3\n      swap2\n      swap1\n      dup1\n      calldataload\n      swap1\n      0x20\n      add\n      swap1\n      swap3\n      swap2\n      swap1\n      pop\n      pop\n      pop\n      jump(tag_18)\n    tag_17:\n      stop\n        /* \"Auction Project/AuctionPlatform.sol\":5757:5988  function endAuction(uint bid) public ifAuctionOwner returns(address){\r... */\n    tag_5:\n      callvalue\n        /* \"--CODEGEN--\":8:17   */\n      dup1\n        /* \"--CODEGEN--\":5:7   */\n      iszero\n      tag_19\n      jumpi\n        /* \"--CODEGEN--\":30:31   */\n      0x0\n        /* \"--CODEGEN--\":27:28   */\n      dup1\n        /* \"--CODEGEN--\":20:32   */\n      revert\n        /* \"--CODEGEN--\":5:7   */\n    tag_19:\n        /* \"Auction Project/AuctionPlatform.sol\":5757:5988  function endAuction(uint bid) public ifAuctionOwner returns(address){\r... */\n      pop\n      tag_20\n      0x4\n      dup1\n      calldatasize\n      sub\n      dup2\n      add\n      swap1\n      dup1\n      dup1\n      calldataload\n      swap1\n      0x20\n      add\n      swap1\n      swap3\n      swap2\n      swap1\n      pop\n      pop\n      pop\n      jump(tag_21)\n    tag_20:\n      mload(0x40)\n      dup1\n      dup3\n      0xffffffffffffffffffffffffffffffffffffffff\n      and\n      0xffffffffffffffffffffffffffffffffffffffff\n      and\n      dup2\n      mstore\n      0x20\n      add\n      swap2\n      pop\n      pop\n      mload(0x40)\n      dup1\n      swap2\n      sub\n      swap1\n      return\n        /* \"Auction Project/AuctionPlatform.sol\":4364:4479  function getListOfOwnBids() public ifBidded view returns(uint[]){\r... */\n    tag_6:\n      callvalue\n        /* \"--CODEGEN--\":8:17   */\n      dup1\n        /* \"--CODEGEN--\":5:7   */\n      iszero\n      tag_22\n      jumpi\n        /* \"--CODEGEN--\":30:31   */\n      0x0\n        /* \"--CODEGEN--\":27:28   */\n      dup1\n        /* \"--CODEGEN--\":20:32   */\n      revert\n        /* \"--CODEGEN--\":5:7   */\n    tag_22:\n        /* \"Auction Project/AuctionPlatform.sol\":4364:4479  function getListOfOwnBids() public ifBidded view returns(uint[]){\r... */\n      pop\n      tag_23\n      jump(tag_24)\n    tag_23:\n      mload(0x40)\n      dup1\n      dup1\n      0x20\n      add\n      dup3\n      dup2\n      sub\n      dup3\n      mstore\n      dup4\n      dup2\n      dup2\n      mload\n      dup2\n      mstore\n      0x20\n      add\n      swap2\n      pop\n      dup1\n      mload\n      swap1\n      0x20\n      add\n      swap1\n      0x20\n      mul\n      dup1\n      dup4\n      dup4\n        /* \"--CODEGEN--\":23:24   */\n      0x0\n        /* \"--CODEGEN--\":8:108   */\n    tag_25:\n        /* \"--CODEGEN--\":33:36   */\n      dup4\n        /* \"--CODEGEN--\":30:31   */\n      dup2\n        /* \"--CODEGEN--\":27:37   */\n      lt\n        /* \"--CODEGEN--\":8:108   */\n      iszero\n      tag_26\n      jumpi\n        /* \"--CODEGEN--\":99:100   */\n      dup1\n        /* \"--CODEGEN--\":94:97   */\n      dup3\n        /* \"--CODEGEN--\":90:101   */\n      add\n        /* \"--CODEGEN--\":84:102   */\n      mload\n        /* \"--CODEGEN--\":80:81   */\n      dup2\n        /* \"--CODEGEN--\":75:78   */\n      dup5\n        /* \"--CODEGEN--\":71:82   */\n      add\n        /* \"--CODEGEN--\":64:103   */\n      mstore\n        /* \"--CODEGEN--\":52:54   */\n      0x20\n        /* \"--CODEGEN--\":49:50   */\n      dup2\n        /* \"--CODEGEN--\":45:55   */\n      add\n        /* \"--CODEGEN--\":40:55   */\n      swap1\n      pop\n        /* \"--CODEGEN--\":8:108   */\n      jump(tag_25)\n    tag_26:\n        /* \"--CODEGEN--\":12:26   */\n      pop\n        /* \"Auction Project/AuctionPlatform.sol\":4364:4479  function getListOfOwnBids() public ifBidded view returns(uint[]){\r... */\n      pop\n      pop\n      pop\n      swap1\n      pop\n      add\n      swap3\n      pop\n      pop\n      pop\n      mload(0x40)\n      dup1\n      swap2\n      sub\n      swap1\n      return\n        /* \"Auction Project/AuctionPlatform.sol\":813:3114  function createAuction(\r... */\n    tag_7:\n      callvalue\n        /* \"--CODEGEN--\":8:17   */\n      dup1\n        /* \"--CODEGEN--\":5:7   */\n      iszero\n      tag_28\n      jumpi\n        /* \"--CODEGEN--\":30:31   */\n      0x0\n        /* \"--CODEGEN--\":27:28   */\n      dup1\n        /* \"--CODEGEN--\":20:32   */\n      revert\n        /* \"--CODEGEN--\":5:7   */\n    tag_28:\n        /* \"Auction Project/AuctionPlatform.sol\":813:3114  function createAuction(\r... */\n      pop\n      tag_29\n      0x4\n      dup1\n      calldatasize\n      sub\n      dup2\n      add\n      swap1\n      dup1\n      dup1\n      calldataload\n      swap1\n      0x20\n      add\n      swap1\n      dup3\n      add\n      dup1\n      calldataload\n      swap1\n      0x20\n      add\n      swap1\n      dup1\n      dup1\n      0x1f\n      add\n      0x20\n      dup1\n      swap2\n      div\n      mul\n      0x20\n      add\n      mload(0x40)\n      swap1\n      dup2\n      add\n      0x40\n      mstore\n      dup1\n      swap4\n      swap3\n      swap2\n      swap1\n      dup2\n      dup2\n      mstore\n      0x20\n      add\n      dup4\n      dup4\n      dup1\n      dup3\n      dup5\n      calldatacopy\n      dup3\n      add\n      swap2\n      pop\n      pop\n      pop\n      pop\n      pop\n      pop\n      swap2\n      swap3\n      swap2\n      swap3\n      swap1\n      dup1\n      calldataload\n      swap1\n      0x20\n      add\n      swap1\n      swap3\n      swap2\n      swap1\n      dup1\n      calldataload\n      swap1\n      0x20\n      add\n      swap1\n      swap3\n      swap2\n      swap1\n      dup1\n      calldataload\n      swap1\n      0x20\n      add\n      swap1\n      swap3\n      swap2\n      swap1\n      dup1\n      calldataload\n      swap1\n      0x20\n      add\n      swap1\n      swap3\n      swap2\n      swap1\n      dup1\n      calldataload\n      swap1\n      0x20\n      add\n      swap1\n      swap3\n      swap2\n      swap1\n      dup1\n      calldataload\n      swap1\n      0x20\n      add\n      swap1\n      swap3\n      swap2\n      swap1\n      dup1\n      calldataload\n      swap1\n      0x20\n      add\n      swap1\n      swap3\n      swap2\n      swap1\n      pop\n      pop\n      pop\n      jump(tag_30)\n    tag_29:\n      stop\n        /* \"Auction Project/AuctionPlatform.sol\":4082:4261  function getListOfBidsOnAuction() public ifAuctionOwner isBidsMade view returns(uint[]){\r... */\n    tag_8:\n      callvalue\n        /* \"--CODEGEN--\":8:17   */\n      dup1\n        /* \"--CODEGEN--\":5:7   */\n      iszero\n      tag_31\n      jumpi\n        /* \"--CODEGEN--\":30:31   */\n      0x0\n        /* \"--CODEGEN--\":27:28   */\n      dup1\n        /* \"--CODEGEN--\":20:32   */\n      revert\n        /* \"--CODEGEN--\":5:7   */\n    tag_31:\n        /* \"Auction Project/AuctionPlatform.sol\":4082:4261  function getListOfBidsOnAuction() public ifAuctionOwner isBidsMade view returns(uint[]){\r... */\n      pop\n      tag_32\n      jump(tag_33)\n    tag_32:\n      mload(0x40)\n      dup1\n      dup1\n      0x20\n      add\n      dup3\n      dup2\n      sub\n      dup3\n      mstore\n      dup4\n      dup2\n      dup2\n      mload\n      dup2\n      mstore\n      0x20\n      add\n      swap2\n      pop\n      dup1\n      mload\n      swap1\n      0x20\n      add\n      swap1\n      0x20\n      mul\n      dup1\n      dup4\n      dup4\n        /* \"--CODEGEN--\":23:24   */\n      0x0\n        /* \"--CODEGEN--\":8:108   */\n    tag_34:\n        /* \"--CODEGEN--\":33:36   */\n      dup4\n        /* \"--CODEGEN--\":30:31   */\n      dup2\n        /* \"--CODEGEN--\":27:37   */\n      lt\n        /* \"--CODEGEN--\":8:108   */\n      iszero\n      tag_35\n      jumpi\n        /* \"--CODEGEN--\":99:100   */\n      dup1\n        /* \"--CODEGEN--\":94:97   */\n      dup3\n        /* \"--CODEGEN--\":90:101   */\n      add\n        /* \"--CODEGEN--\":84:102   */\n      mload\n        /* \"--CODEGEN--\":80:81   */\n      dup2\n        /* \"--CODEGEN--\":75:78   */\n      dup5\n        /* \"--CODEGEN--\":71:82   */\n      add\n        /* \"--CODEGEN--\":64:103   */\n      mstore\n        /* \"--CODEGEN--\":52:54   */\n      0x20\n        /* \"--CODEGEN--\":49:50   */\n      dup2\n        /* \"--CODEGEN--\":45:55   */\n      add\n        /* \"--CODEGEN--\":40:55   */\n      swap1\n      pop\n        /* \"--CODEGEN--\":8:108   */\n      jump(tag_34)\n    tag_35:\n        /* \"--CODEGEN--\":12:26   */\n      pop\n        /* \"Auction Project/AuctionPlatform.sol\":4082:4261  function getListOfBidsOnAuction() public ifAuctionOwner isBidsMade view returns(uint[]){\r... */\n      pop\n      pop\n      pop\n      swap1\n      pop\n      add\n      swap3\n      pop\n      pop\n      pop\n      mload(0x40)\n      dup1\n      swap2\n      sub\n      swap1\n      return\n        /* \"Auction Project/AuctionPlatform.sol\":5070:5610  function endAuction() public ifAuctionOwner returns(address){\r... */\n    tag_9:\n      callvalue\n        /* \"--CODEGEN--\":8:17   */\n      dup1\n        /* \"--CODEGEN--\":5:7   */\n      iszero\n      tag_37\n      jumpi\n        /* \"--CODEGEN--\":30:31   */\n      0x0\n        /* \"--CODEGEN--\":27:28   */\n      dup1\n        /* \"--CODEGEN--\":20:32   */\n      revert\n        /* \"--CODEGEN--\":5:7   */\n    tag_37:\n        /* \"Auction Project/AuctionPlatform.sol\":5070:5610  function endAuction() public ifAuctionOwner returns(address){\r... */\n      pop\n      tag_38\n      jump(tag_39)\n    tag_38:\n      mload(0x40)\n      dup1\n      dup3\n      0xffffffffffffffffffffffffffffffffffffffff\n      and\n      0xffffffffffffffffffffffffffffffffffffffff\n      and\n      dup2\n      mstore\n      0x20\n      add\n      swap2\n      pop\n      pop\n      mload(0x40)\n      dup1\n      swap2\n      sub\n      swap1\n      return\n        /* \"Auction Project/AuctionPlatform.sol\":425:446  uint public aucId = 0 */\n    tag_12:\n      sload(0x0)\n      dup2\n      jump\t// out\n        /* \"Auction Project/AuctionPlatform.sol\":4558:4926  function getMaxBid() public ifAuctionOwner ifBidded view returns(uint){\r... */\n    tag_15:\n        /* \"Auction Project/AuctionPlatform.sol\":4623:4627  uint */\n      0x0\n        /* \"Auction Project/AuctionPlatform.sol\":6828:6829  0 */\n      dup1\n        /* \"Auction Project/AuctionPlatform.sol\":6805:6814  aucOwners */\n      0x66\n        /* \"Auction Project/AuctionPlatform.sol\":6805:6826  aucOwners[msg.sender] */\n      0x0\n        /* \"Auction Project/AuctionPlatform.sol\":6815:6825  msg.sender */\n      caller\n        /* \"Auction Project/AuctionPlatform.sol\":6805:6826  aucOwners[msg.sender] */\n      0xffffffffffffffffffffffffffffffffffffffff\n      and\n      0xffffffffffffffffffffffffffffffffffffffff\n      and\n      dup2\n      mstore\n      0x20\n      add\n      swap1\n      dup2\n      mstore\n      0x20\n      add\n      0x0\n      keccak256\n      sload\n        /* \"Auction Project/AuctionPlatform.sol\":6805:6829  aucOwners[msg.sender]!=0 */\n      eq\n      iszero\n        /* \"Auction Project/AuctionPlatform.sol\":6797:6865  require(aucOwners[msg.sender]!=0,\"You haven't created any Auctions\") */\n      iszero\n      iszero\n      tag_41\n      jumpi\n      mload(0x40)\n      0x8c379a000000000000000000000000000000000000000000000000000000000\n      dup2\n      mstore\n      0x4\n      add\n      dup1\n      dup1\n      0x20\n      add\n      dup3\n      dup2\n      sub\n      dup3\n      mstore\n      0x20\n      dup2\n      mstore\n      0x20\n      add\n      dup1\n      0x596f7520686176656e2774206372656174656420616e792041756374696f6e73\n      dup2\n      mstore\n      pop\n      0x20\n      add\n      swap2\n      pop\n      pop\n      mload(0x40)\n      dup1\n      swap2\n      sub\n      swap1\n      revert\n    tag_41:\n        /* \"Auction Project/AuctionPlatform.sol\":7017:7018  0 */\n      0x0\n        /* \"Auction Project/AuctionPlatform.sol\":6987:6996  bidOwners */\n      0x67\n        /* \"Auction Project/AuctionPlatform.sol\":6987:7008  bidOwners[msg.sender] */\n      0x0\n        /* \"Auction Project/AuctionPlatform.sol\":6997:7007  msg.sender */\n      caller\n        /* \"Auction Project/AuctionPlatform.sol\":6987:7008  bidOwners[msg.sender] */\n      0xffffffffffffffffffffffffffffffffffffffff\n      and\n      0xffffffffffffffffffffffffffffffffffffffff\n      and\n      dup2\n      mstore\n      0x20\n      add\n      swap1\n      dup2\n      mstore\n      0x20\n      add\n      0x0\n      keccak256\n        /* \"Auction Project/AuctionPlatform.sol\":6987:7015  bidOwners[msg.sender].length */\n      dup1\n      sload\n      swap1\n      pop\n        /* \"Auction Project/AuctionPlatform.sol\":6987:7018  bidOwners[msg.sender].length!=0 */\n      eq\n      iszero\n        /* \"Auction Project/AuctionPlatform.sol\":6979:7045  require(bidOwners[msg.sender].length!=0,\"You don't have any Bids\") */\n      iszero\n      iszero\n      tag_43\n      jumpi\n      mload(0x40)\n      0x8c379a000000000000000000000000000000000000000000000000000000000\n      dup2\n      mstore\n      0x4\n      add\n      dup1\n      dup1\n      0x20\n      add\n      dup3\n      dup2\n      sub\n      dup3\n      mstore\n      0x17\n      dup2\n      mstore\n      0x20\n      add\n      dup1\n      0x596f7520646f6e2774206861766520616e792042696473000000000000000000\n      dup2\n      mstore\n      pop\n      0x20\n      add\n      swap2\n      pop\n      pop\n      mload(0x40)\n      dup1\n      swap2\n      sub\n      swap1\n      revert\n    tag_43:\n        /* \"Auction Project/AuctionPlatform.sol\":4866:4877  auctionList */\n      0x1\n        /* \"Auction Project/AuctionPlatform.sol\":4878:4887  aucOwners */\n      0x66\n        /* \"Auction Project/AuctionPlatform.sol\":4878:4899  aucOwners[msg.sender] */\n      0x0\n        /* \"Auction Project/AuctionPlatform.sol\":4888:4898  msg.sender */\n      caller\n        /* \"Auction Project/AuctionPlatform.sol\":4878:4899  aucOwners[msg.sender] */\n      0xffffffffffffffffffffffffffffffffffffffff\n      and\n      0xffffffffffffffffffffffffffffffffffffffff\n      and\n      dup2\n      mstore\n      0x20\n      add\n      swap1\n      dup2\n      mstore\n      0x20\n      add\n      0x0\n      keccak256\n      sload\n        /* \"Auction Project/AuctionPlatform.sol\":4866:4900  auctionList[aucOwners[msg.sender]] */\n      0x65\n      dup2\n      lt\n      iszero\n      iszero\n      tag_45\n      jumpi\n      invalid\n    tag_45:\n      add\n      0x0\n      swap1\n      sload\n      swap1\n      0x100\n      exp\n      swap1\n      div\n      0xffffffffffffffffffffffffffffffffffffffff\n      and\n        /* \"Auction Project/AuctionPlatform.sol\":4866:4914  auctionList[aucOwners[msg.sender]].getMaximumBid */\n      0xffffffffffffffffffffffffffffffffffffffff\n      and\n      0xdd06ba1a\n        /* \"Auction Project/AuctionPlatform.sol\":4866:4916  auctionList[aucOwners[msg.sender]].getMaximumBid() */\n      mload(0x40)\n      dup2\n      0xffffffff\n      and\n      0x100000000000000000000000000000000000000000000000000000000\n      mul\n      dup2\n      mstore\n      0x4\n      add\n      0x20\n      mload(0x40)\n      dup1\n      dup4\n      sub\n      dup2\n      0x0\n      dup8\n      dup1\n      extcodesize\n      iszero\n        /* \"--CODEGEN--\":8:17   */\n      dup1\n        /* \"--CODEGEN--\":5:7   */\n      iszero\n      tag_47\n      jumpi\n        /* \"--CODEGEN--\":30:31   */\n      0x0\n        /* \"--CODEGEN--\":27:28   */\n      dup1\n        /* \"--CODEGEN--\":20:32   */\n      revert\n        /* \"--CODEGEN--\":5:7   */\n    tag_47:\n        /* \"Auction Project/AuctionPlatform.sol\":4866:4916  auctionList[aucOwners[msg.sender]].getMaximumBid() */\n      pop\n      gas\n      call\n      iszero\n        /* \"--CODEGEN--\":8:17   */\n      dup1\n        /* \"--CODEGEN--\":5:7   */\n      iszero\n      tag_48\n      jumpi\n        /* \"--CODEGEN--\":45:61   */\n      returndatasize\n        /* \"--CODEGEN--\":42:43   */\n      0x0\n        /* \"--CODEGEN--\":39:40   */\n      dup1\n        /* \"--CODEGEN--\":24:62   */\n      returndatacopy\n        /* \"--CODEGEN--\":77:93   */\n      returndatasize\n        /* \"--CODEGEN--\":74:75   */\n      0x0\n        /* \"--CODEGEN--\":67:94   */\n      revert\n        /* \"--CODEGEN--\":5:7   */\n    tag_48:\n        /* \"Auction Project/AuctionPlatform.sol\":4866:4916  auctionList[aucOwners[msg.sender]].getMaximumBid() */\n      pop\n      pop\n      pop\n      pop\n      mload(0x40)\n      returndatasize\n        /* \"--CODEGEN--\":13:15   */\n      0x20\n        /* \"--CODEGEN--\":8:11   */\n      dup2\n        /* \"--CODEGEN--\":5:16   */\n      lt\n        /* \"--CODEGEN--\":2:4   */\n      iszero\n      tag_49\n      jumpi\n        /* \"--CODEGEN--\":29:30   */\n      0x0\n        /* \"--CODEGEN--\":26:27   */\n      dup1\n        /* \"--CODEGEN--\":19:31   */\n      revert\n        /* \"--CODEGEN--\":2:4   */\n    tag_49:\n        /* \"Auction Project/AuctionPlatform.sol\":4866:4916  auctionList[aucOwners[msg.sender]].getMaximumBid() */\n      dup2\n      add\n      swap1\n      dup1\n      dup1\n      mload\n      swap1\n      0x20\n      add\n      swap1\n      swap3\n      swap2\n      swap1\n      pop\n      pop\n      pop\n        /* \"Auction Project/AuctionPlatform.sol\":4859:4916  return auctionList[aucOwners[msg.sender]].getMaximumBid() */\n      swap1\n      pop\n        /* \"Auction Project/AuctionPlatform.sol\":4558:4926  function getMaxBid() public ifAuctionOwner ifBidded view returns(uint){\r... */\n      swap1\n      jump\t// out\n        /* \"Auction Project/AuctionPlatform.sol\":3196:3981  function bidOnAuction(uint _aucId, uint _bidVal) public \r... */\n    tag_18:\n        /* \"Auction Project/AuctionPlatform.sol\":3268:3274  _aucId */\n      dup2\n        /* \"Auction Project/AuctionPlatform.sol\":6361:6379  auctionList.length */\n      0x65\n        /* \"Auction Project/AuctionPlatform.sol\":6354:6360  _aucId */\n      dup2\n        /* \"Auction Project/AuctionPlatform.sol\":6354:6379  _aucId<auctionList.length */\n      lt\n        /* \"Auction Project/AuctionPlatform.sol\":6354:6433  _aucId<auctionList.length && auctionList[_aucId].getEndTime() > block.timestamp */\n      dup1\n      iszero\n      tag_51\n      jumpi\n      pop\n        /* \"Auction Project/AuctionPlatform.sol\":6418:6433  block.timestamp */\n      timestamp\n        /* \"Auction Project/AuctionPlatform.sol\":6383:6394  auctionList */\n      0x1\n        /* \"Auction Project/AuctionPlatform.sol\":6395:6401  _aucId */\n      dup3\n        /* \"Auction Project/AuctionPlatform.sol\":6383:6402  auctionList[_aucId] */\n      0x65\n      dup2\n      lt\n      iszero\n      iszero\n      tag_52\n      jumpi\n      invalid\n    tag_52:\n      add\n      0x0\n      swap1\n      sload\n      swap1\n      0x100\n      exp\n      swap1\n      div\n      0xffffffffffffffffffffffffffffffffffffffff\n      and\n        /* \"Auction Project/AuctionPlatform.sol\":6383:6413  auctionList[_aucId].getEndTime */\n      0xffffffffffffffffffffffffffffffffffffffff\n      and\n      0x439f5ac2\n        /* \"Auction Project/AuctionPlatform.sol\":6383:6415  auctionList[_aucId].getEndTime() */\n      mload(0x40)\n      dup2\n      0xffffffff\n      and\n      0x100000000000000000000000000000000000000000000000000000000\n      mul\n      dup2\n      mstore\n      0x4\n      add\n      0x20\n      mload(0x40)\n      dup1\n      dup4\n      sub\n      dup2\n      0x0\n      dup8\n      dup1\n      extcodesize\n      iszero\n        /* \"--CODEGEN--\":8:17   */\n      dup1\n        /* \"--CODEGEN--\":5:7   */\n      iszero\n      tag_54\n      jumpi\n        /* \"--CODEGEN--\":30:31   */\n      0x0\n        /* \"--CODEGEN--\":27:28   */\n      dup1\n        /* \"--CODEGEN--\":20:32   */\n      revert\n        /* \"--CODEGEN--\":5:7   */\n    tag_54:\n        /* \"Auction Project/AuctionPlatform.sol\":6383:6415  auctionList[_aucId].getEndTime() */\n      pop\n      gas\n      call\n      iszero\n        /* \"--CODEGEN--\":8:17   */\n      dup1\n        /* \"--CODEGEN--\":5:7   */\n      iszero\n      tag_55\n      jumpi\n        /* \"--CODEGEN--\":45:61   */\n      returndatasize\n        /* \"--CODEGEN--\":42:43   */\n      0x0\n        /* \"--CODEGEN--\":39:40   */\n      dup1\n        /* \"--CODEGEN--\":24:62   */\n      returndatacopy\n        /* \"--CODEGEN--\":77:93   */\n      returndatasize\n        /* \"--CODEGEN--\":74:75   */\n      0x0\n        /* \"--CODEGEN--\":67:94   */\n      revert\n        /* \"--CODEGEN--\":5:7   */\n    tag_55:\n        /* \"Auction Project/AuctionPlatform.sol\":6383:6415  auctionList[_aucId].getEndTime() */\n      pop\n      pop\n      pop\n      pop\n      mload(0x40)\n      returndatasize\n        /* \"--CODEGEN--\":13:15   */\n      0x20\n        /* \"--CODEGEN--\":8:11   */\n      dup2\n        /* \"--CODEGEN--\":5:16   */\n      lt\n        /* \"--CODEGEN--\":2:4   */\n      iszero\n      tag_56\n      jumpi\n        /* \"--CODEGEN--\":29:30   */\n      0x0\n        /* \"--CODEGEN--\":26:27   */\n      dup1\n        /* \"--CODEGEN--\":19:31   */\n      revert\n        /* \"--CODEGEN--\":2:4   */\n    tag_56:\n        /* \"Auction Project/AuctionPlatform.sol\":6383:6415  auctionList[_aucId].getEndTime() */\n      dup2\n      add\n      swap1\n      dup1\n      dup1\n      mload\n      swap1\n      0x20\n      add\n      swap1\n      swap3\n      swap2\n      swap1\n      pop\n      pop\n      pop\n        /* \"Auction Project/AuctionPlatform.sol\":6383:6433  auctionList[_aucId].getEndTime() > block.timestamp */\n      gt\n        /* \"Auction Project/AuctionPlatform.sol\":6354:6433  _aucId<auctionList.length && auctionList[_aucId].getEndTime() > block.timestamp */\n    tag_51:\n        /* \"Auction Project/AuctionPlatform.sol\":6346:6456  require(_aucId<auctionList.length && auctionList[_aucId].getEndTime() > block.timestamp,\"Auction is Inactive\") */\n      iszero\n      iszero\n      tag_57\n      jumpi\n      mload(0x40)\n      0x8c379a000000000000000000000000000000000000000000000000000000000\n      dup2\n      mstore\n      0x4\n      add\n      dup1\n      dup1\n      0x20\n      add\n      dup3\n      dup2\n      sub\n      dup3\n      mstore\n      0x13\n      dup2\n      mstore\n      0x20\n      add\n      dup1\n      0x41756374696f6e20697320496e61637469766500000000000000000000000000\n      dup2\n      mstore\n      pop\n      0x20\n      add\n      swap2\n      pop\n      pop\n      mload(0x40)\n      dup1\n      swap2\n      sub\n      swap1\n      revert\n    tag_57:\n        /* \"Auction Project/AuctionPlatform.sol\":3546:3553  _bidVal */\n      dup2\n        /* \"Auction Project/AuctionPlatform.sol\":3509:3520  auctionList */\n      0x1\n        /* \"Auction Project/AuctionPlatform.sol\":3521:3527  _aucId */\n      dup5\n        /* \"Auction Project/AuctionPlatform.sol\":3509:3528  auctionList[_aucId] */\n      0x65\n      dup2\n      lt\n      iszero\n      iszero\n      tag_59\n      jumpi\n      invalid\n    tag_59:\n      add\n      0x0\n      swap1\n      sload\n      swap1\n      0x100\n      exp\n      swap1\n      div\n      0xffffffffffffffffffffffffffffffffffffffff\n      and\n        /* \"Auction Project/AuctionPlatform.sol\":3509:3541  auctionList[_aucId].getMinBidVal */\n      0xffffffffffffffffffffffffffffffffffffffff\n      and\n      0xad934674\n        /* \"Auction Project/AuctionPlatform.sol\":3509:3543  auctionList[_aucId].getMinBidVal() */\n      mload(0x40)\n      dup2\n      0xffffffff\n      and\n      0x100000000000000000000000000000000000000000000000000000000\n      mul\n      dup2\n      mstore\n      0x4\n      add\n      0x20\n      mload(0x40)\n      dup1\n      dup4\n      sub\n      dup2\n      0x0\n      dup8\n      dup1\n      extcodesize\n      iszero\n        /* \"--CODEGEN--\":8:17   */\n      dup1\n        /* \"--CODEGEN--\":5:7   */\n      iszero\n      tag_61\n      jumpi\n        /* \"--CODEGEN--\":30:31   */\n      0x0\n        /* \"--CODEGEN--\":27:28   */\n      dup1\n        /* \"--CODEGEN--\":20:32   */\n      revert\n        /* \"--CODEGEN--\":5:7   */\n    tag_61:\n        /* \"Auction Project/AuctionPlatform.sol\":3509:3543  auctionList[_aucId].getMinBidVal() */\n      pop\n      gas\n      call\n      iszero\n        /* \"--CODEGEN--\":8:17   */\n      dup1\n        /* \"--CODEGEN--\":5:7   */\n      iszero\n      tag_62\n      jumpi\n        /* \"--CODEGEN--\":45:61   */\n      returndatasize\n        /* \"--CODEGEN--\":42:43   */\n      0x0\n        /* \"--CODEGEN--\":39:40   */\n      dup1\n        /* \"--CODEGEN--\":24:62   */\n      returndatacopy\n        /* \"--CODEGEN--\":77:93   */\n      returndatasize\n        /* \"--CODEGEN--\":74:75   */\n      0x0\n        /* \"--CODEGEN--\":67:94   */\n      revert\n        /* \"--CODEGEN--\":5:7   */\n    tag_62:\n        /* \"Auction Project/AuctionPlatform.sol\":3509:3543  auctionList[_aucId].getMinBidVal() */\n      pop\n      pop\n      pop\n      pop\n      mload(0x40)\n      returndatasize\n        /* \"--CODEGEN--\":13:15   */\n      0x20\n        /* \"--CODEGEN--\":8:11   */\n      dup2\n        /* \"--CODEGEN--\":5:16   */\n      lt\n        /* \"--CODEGEN--\":2:4   */\n      iszero\n      tag_63\n      jumpi\n        /* \"--CODEGEN--\":29:30   */\n      0x0\n        /* \"--CODEGEN--\":26:27   */\n      dup1\n        /* \"--CODEGEN--\":19:31   */\n      revert\n        /* \"--CODEGEN--\":2:4   */\n    tag_63:\n        /* \"Auction Project/AuctionPlatform.sol\":3509:3543  auctionList[_aucId].getMinBidVal() */\n      dup2\n      add\n      swap1\n      dup1\n      dup1\n      mload\n      swap1\n      0x20\n      add\n      swap1\n      swap3\n      swap2\n      swap1\n      pop\n      pop\n      pop\n        /* \"Auction Project/AuctionPlatform.sol\":3509:3553  auctionList[_aucId].getMinBidVal() < _bidVal */\n      lt\n        /* \"Auction Project/AuctionPlatform.sol\":3501:3615  require(auctionList[_aucId].getMinBidVal() < _bidVal,\"Bid value cannot be less than mininum bid value of auction\") */\n      iszero\n      iszero\n      tag_64\n      jumpi\n      mload(0x40)\n      0x8c379a000000000000000000000000000000000000000000000000000000000\n      dup2\n      mstore\n      0x4\n      add\n      dup1\n      dup1\n      0x20\n      add\n      dup3\n      dup2\n      sub\n      dup3\n      mstore\n      0x3a\n      dup2\n      mstore\n      0x20\n      add\n      dup1\n      0x4269642076616c75652063616e6e6f74206265206c657373207468616e206d69\n      dup2\n      mstore\n      0x20\n      add\n      0x6e696e756d206269642076616c7565206f662061756374696f6e000000000000\n      dup2\n      mstore\n      pop\n      0x40\n      add\n      swap2\n      pop\n      pop\n      mload(0x40)\n      dup1\n      swap2\n      sub\n      swap1\n      revert\n    tag_64:\n        /* \"Auction Project/AuctionPlatform.sol\":3773:3784  auctionList */\n      0x1\n        /* \"Auction Project/AuctionPlatform.sol\":3785:3791  _aucId */\n      dup4\n        /* \"Auction Project/AuctionPlatform.sol\":3773:3792  auctionList[_aucId] */\n      0x65\n      dup2\n      lt\n      iszero\n      iszero\n      tag_65\n      jumpi\n      invalid\n    tag_65:\n      add\n      0x0\n      swap1\n      sload\n      swap1\n      0x100\n      exp\n      swap1\n      div\n      0xffffffffffffffffffffffffffffffffffffffff\n      and\n        /* \"Auction Project/AuctionPlatform.sol\":3773:3802  auctionList[_aucId].createBid */\n      0xffffffffffffffffffffffffffffffffffffffff\n      and\n      0x659dd2b4\n        /* \"Auction Project/AuctionPlatform.sol\":3803:3810  _bidVal */\n      dup4\n        /* \"Auction Project/AuctionPlatform.sol\":3773:3811  auctionList[_aucId].createBid(_bidVal) */\n      mload(0x40)\n      dup3\n      0xffffffff\n      and\n      0x100000000000000000000000000000000000000000000000000000000\n      mul\n      dup2\n      mstore\n      0x4\n      add\n      dup1\n      dup3\n      dup2\n      mstore\n      0x20\n      add\n      swap2\n      pop\n      pop\n      0x0\n      mload(0x40)\n      dup1\n      dup4\n      sub\n      dup2\n      0x0\n      dup8\n      dup1\n      extcodesize\n      iszero\n        /* \"--CODEGEN--\":8:17   */\n      dup1\n        /* \"--CODEGEN--\":5:7   */\n      iszero\n      tag_67\n      jumpi\n        /* \"--CODEGEN--\":30:31   */\n      0x0\n        /* \"--CODEGEN--\":27:28   */\n      dup1\n        /* \"--CODEGEN--\":20:32   */\n      revert\n        /* \"--CODEGEN--\":5:7   */\n    tag_67:\n        /* \"Auction Project/AuctionPlatform.sol\":3773:3811  auctionList[_aucId].createBid(_bidVal) */\n      pop\n      gas\n      call\n      iszero\n        /* \"--CODEGEN--\":8:17   */\n      dup1\n        /* \"--CODEGEN--\":5:7   */\n      iszero\n      tag_68\n      jumpi\n        /* \"--CODEGEN--\":45:61   */\n      returndatasize\n        /* \"--CODEGEN--\":42:43   */\n      0x0\n        /* \"--CODEGEN--\":39:40   */\n      dup1\n        /* \"--CODEGEN--\":24:62   */\n      returndatacopy\n        /* \"--CODEGEN--\":77:93   */\n      returndatasize\n        /* \"--CODEGEN--\":74:75   */\n      0x0\n        /* \"--CODEGEN--\":67:94   */\n      revert\n        /* \"--CODEGEN--\":5:7   */\n    tag_68:\n        /* \"Auction Project/AuctionPlatform.sol\":3773:3811  auctionList[_aucId].createBid(_bidVal) */\n      pop\n      pop\n      pop\n      pop\n        /* \"Auction Project/AuctionPlatform.sol\":3914:3923  bidOwners */\n      0x67\n        /* \"Auction Project/AuctionPlatform.sol\":3914:3935  bidOwners[msg.sender] */\n      0x0\n        /* \"Auction Project/AuctionPlatform.sol\":3924:3934  msg.sender */\n      caller\n        /* \"Auction Project/AuctionPlatform.sol\":3914:3935  bidOwners[msg.sender] */\n      0xffffffffffffffffffffffffffffffffffffffff\n      and\n      0xffffffffffffffffffffffffffffffffffffffff\n      and\n      dup2\n      mstore\n      0x20\n      add\n      swap1\n      dup2\n      mstore\n      0x20\n      add\n      0x0\n      keccak256\n        /* \"Auction Project/AuctionPlatform.sol\":3941:3947  _aucId */\n      dup4\n        /* \"Auction Project/AuctionPlatform.sol\":3914:3948  bidOwners[msg.sender].push(_aucId) */\n      swap1\n      dup1\n        /* \"--CODEGEN--\":39:40   */\n      0x1\n        /* \"--CODEGEN--\":33:36   */\n      dup2\n        /* \"--CODEGEN--\":27:37   */\n      sload\n        /* \"--CODEGEN--\":23:41   */\n      add\n        /* \"--CODEGEN--\":57:67   */\n      dup1\n        /* \"--CODEGEN--\":52:55   */\n      dup3\n        /* \"--CODEGEN--\":45:68   */\n      sstore\n        /* \"--CODEGEN--\":79:89   */\n      dup1\n        /* \"--CODEGEN--\":72:89   */\n      swap2\n      pop\n        /* \"--CODEGEN--\":0:93   */\n      pop\n        /* \"Auction Project/AuctionPlatform.sol\":3914:3948  bidOwners[msg.sender].push(_aucId) */\n      swap1\n      0x1\n      dup3\n      sub\n      swap1\n      0x0\n      mstore\n      keccak256(0x0, 0x20)\n      add\n      0x0\n      swap1\n      swap2\n      swap3\n      swap1\n      swap2\n      swap1\n      swap2\n      pop\n      sstore\n      pop\n        /* \"Auction Project/AuctionPlatform.sol\":3196:3981  function bidOnAuction(uint _aucId, uint _bidVal) public \r... */\n      pop\n      pop\n      pop\n      jump\t// out\n        /* \"Auction Project/AuctionPlatform.sol\":5757:5988  function endAuction(uint bid) public ifAuctionOwner returns(address){\r... */\n    tag_21:\n        /* \"Auction Project/AuctionPlatform.sol\":5817:5824  address */\n      0x0\n        /* \"Auction Project/AuctionPlatform.sol\":6828:6829  0 */\n      dup1\n        /* \"Auction Project/AuctionPlatform.sol\":6805:6814  aucOwners */\n      0x66\n        /* \"Auction Project/AuctionPlatform.sol\":6805:6826  aucOwners[msg.sender] */\n      0x0\n        /* \"Auction Project/AuctionPlatform.sol\":6815:6825  msg.sender */\n      caller\n        /* \"Auction Project/AuctionPlatform.sol\":6805:6826  aucOwners[msg.sender] */\n      0xffffffffffffffffffffffffffffffffffffffff\n      and\n      0xffffffffffffffffffffffffffffffffffffffff\n      and\n      dup2\n      mstore\n      0x20\n      add\n      swap1\n      dup2\n      mstore\n      0x20\n      add\n      0x0\n      keccak256\n      sload\n        /* \"Auction Project/AuctionPlatform.sol\":6805:6829  aucOwners[msg.sender]!=0 */\n      eq\n      iszero\n        /* \"Auction Project/AuctionPlatform.sol\":6797:6865  require(aucOwners[msg.sender]!=0,\"You haven't created any Auctions\") */\n      iszero\n      iszero\n      tag_71\n      jumpi\n      mload(0x40)\n      0x8c379a000000000000000000000000000000000000000000000000000000000\n      dup2\n      mstore\n      0x4\n      add\n      dup1\n      dup1\n      0x20\n      add\n      dup3\n      dup2\n      sub\n      dup3\n      mstore\n      0x20\n      dup2\n      mstore\n      0x20\n      add\n      dup1\n      0x596f7520686176656e2774206372656174656420616e792041756374696f6e73\n      dup2\n      mstore\n      pop\n      0x20\n      add\n      swap2\n      pop\n      pop\n      mload(0x40)\n      dup1\n      swap2\n      sub\n      swap1\n      revert\n    tag_71:\n        /* \"Auction Project/AuctionPlatform.sol\":5913:5924  auctionList */\n      0x1\n        /* \"Auction Project/AuctionPlatform.sol\":5925:5934  aucOwners */\n      0x66\n        /* \"Auction Project/AuctionPlatform.sol\":5925:5946  aucOwners[msg.sender] */\n      0x0\n        /* \"Auction Project/AuctionPlatform.sol\":5935:5945  msg.sender */\n      caller\n        /* \"Auction Project/AuctionPlatform.sol\":5925:5946  aucOwners[msg.sender] */\n      0xffffffffffffffffffffffffffffffffffffffff\n      and\n      0xffffffffffffffffffffffffffffffffffffffff\n      and\n      dup2\n      mstore\n      0x20\n      add\n      swap1\n      dup2\n      mstore\n      0x20\n      add\n      0x0\n      keccak256\n      sload\n        /* \"Auction Project/AuctionPlatform.sol\":5913:5947  auctionList[aucOwners[msg.sender]] */\n      0x65\n      dup2\n      lt\n      iszero\n      iszero\n      tag_73\n      jumpi\n      invalid\n    tag_73:\n      add\n      0x0\n      swap1\n      sload\n      swap1\n      0x100\n      exp\n      swap1\n      div\n      0xffffffffffffffffffffffffffffffffffffffff\n      and\n        /* \"Auction Project/AuctionPlatform.sol\":5913:5973  auctionList[aucOwners[msg.sender]].endAuctionWithSelectedBid */\n      0xffffffffffffffffffffffffffffffffffffffff\n      and\n      0xdee37a8e\n        /* \"Auction Project/AuctionPlatform.sol\":5974:5977  bid */\n      dup4\n        /* \"Auction Project/AuctionPlatform.sol\":5913:5978  auctionList[aucOwners[msg.sender]].endAuctionWithSelectedBid(bid) */\n      mload(0x40)\n      dup3\n      0xffffffff\n      and\n      0x100000000000000000000000000000000000000000000000000000000\n      mul\n      dup2\n      mstore\n      0x4\n      add\n      dup1\n      dup3\n      dup2\n      mstore\n      0x20\n      add\n      swap2\n      pop\n      pop\n      0x20\n      mload(0x40)\n      dup1\n      dup4\n      sub\n      dup2\n      0x0\n      dup8\n      dup1\n      extcodesize\n      iszero\n        /* \"--CODEGEN--\":8:17   */\n      dup1\n        /* \"--CODEGEN--\":5:7   */\n      iszero\n      tag_75\n      jumpi\n        /* \"--CODEGEN--\":30:31   */\n      0x0\n        /* \"--CODEGEN--\":27:28   */\n      dup1\n        /* \"--CODEGEN--\":20:32   */\n      revert\n        /* \"--CODEGEN--\":5:7   */\n    tag_75:\n        /* \"Auction Project/AuctionPlatform.sol\":5913:5978  auctionList[aucOwners[msg.sender]].endAuctionWithSelectedBid(bid) */\n      pop\n      gas\n      call\n      iszero\n        /* \"--CODEGEN--\":8:17   */\n      dup1\n        /* \"--CODEGEN--\":5:7   */\n      iszero\n      tag_76\n      jumpi\n        /* \"--CODEGEN--\":45:61   */\n      returndatasize\n        /* \"--CODEGEN--\":42:43   */\n      0x0\n        /* \"--CODEGEN--\":39:40   */\n      dup1\n        /* \"--CODEGEN--\":24:62   */\n      returndatacopy\n        /* \"--CODEGEN--\":77:93   */\n      returndatasize\n        /* \"--CODEGEN--\":74:75   */\n      0x0\n        /* \"--CODEGEN--\":67:94   */\n      revert\n        /* \"--CODEGEN--\":5:7   */\n    tag_76:\n        /* \"Auction Project/AuctionPlatform.sol\":5913:5978  auctionList[aucOwners[msg.sender]].endAuctionWithSelectedBid(bid) */\n      pop\n      pop\n      pop\n      pop\n      mload(0x40)\n      returndatasize\n        /* \"--CODEGEN--\":13:15   */\n      0x20\n        /* \"--CODEGEN--\":8:11   */\n      dup2\n        /* \"--CODEGEN--\":5:16   */\n      lt\n        /* \"--CODEGEN--\":2:4   */\n      iszero\n      tag_77\n      jumpi\n        /* \"--CODEGEN--\":29:30   */\n      0x0\n        /* \"--CODEGEN--\":26:27   */\n      dup1\n        /* \"--CODEGEN--\":19:31   */\n      revert\n        /* \"--CODEGEN--\":2:4   */\n    tag_77:\n        /* \"Auction Project/AuctionPlatform.sol\":5913:5978  auctionList[aucOwners[msg.sender]].endAuctionWithSelectedBid(bid) */\n      dup2\n      add\n      swap1\n      dup1\n      dup1\n      mload\n      swap1\n      0x20\n      add\n      swap1\n      swap3\n      swap2\n      swap1\n      pop\n      pop\n      pop\n        /* \"Auction Project/AuctionPlatform.sol\":5906:5978  return auctionList[aucOwners[msg.sender]].endAuctionWithSelectedBid(bid) */\n      swap1\n      pop\n        /* \"Auction Project/AuctionPlatform.sol\":5757:5988  function endAuction(uint bid) public ifAuctionOwner returns(address){\r... */\n      swap2\n      swap1\n      pop\n      jump\t// out\n        /* \"Auction Project/AuctionPlatform.sol\":4364:4479  function getListOfOwnBids() public ifBidded view returns(uint[]){\r... */\n    tag_24:\n        /* \"Auction Project/AuctionPlatform.sol\":4421:4427  uint[] */\n      0x60\n        /* \"Auction Project/AuctionPlatform.sol\":7017:7018  0 */\n      0x0\n        /* \"Auction Project/AuctionPlatform.sol\":6987:6996  bidOwners */\n      0x67\n        /* \"Auction Project/AuctionPlatform.sol\":6987:7008  bidOwners[msg.sender] */\n      0x0\n        /* \"Auction Project/AuctionPlatform.sol\":6997:7007  msg.sender */\n      caller\n        /* \"Auction Project/AuctionPlatform.sol\":6987:7008  bidOwners[msg.sender] */\n      0xffffffffffffffffffffffffffffffffffffffff\n      and\n      0xffffffffffffffffffffffffffffffffffffffff\n      and\n      dup2\n      mstore\n      0x20\n      add\n      swap1\n      dup2\n      mstore\n      0x20\n      add\n      0x0\n      keccak256\n        /* \"Auction Project/AuctionPlatform.sol\":6987:7015  bidOwners[msg.sender].length */\n      dup1\n      sload\n      swap1\n      pop\n        /* \"Auction Project/AuctionPlatform.sol\":6987:7018  bidOwners[msg.sender].length!=0 */\n      eq\n      iszero\n        /* \"Auction Project/AuctionPlatform.sol\":6979:7045  require(bidOwners[msg.sender].length!=0,\"You don't have any Bids\") */\n      iszero\n      iszero\n      tag_79\n      jumpi\n      mload(0x40)\n      0x8c379a000000000000000000000000000000000000000000000000000000000\n      dup2\n      mstore\n      0x4\n      add\n      dup1\n      dup1\n      0x20\n      add\n      dup3\n      dup2\n      sub\n      dup3\n      mstore\n      0x17\n      dup2\n      mstore\n      0x20\n      add\n      dup1\n      0x596f7520646f6e2774206861766520616e792042696473000000000000000000\n      dup2\n      mstore\n      pop\n      0x20\n      add\n      swap2\n      pop\n      pop\n      mload(0x40)\n      dup1\n      swap2\n      sub\n      swap1\n      revert\n    tag_79:\n        /* \"Auction Project/AuctionPlatform.sol\":4448:4457  bidOwners */\n      0x67\n        /* \"Auction Project/AuctionPlatform.sol\":4448:4469  bidOwners[msg.sender] */\n      0x0\n        /* \"Auction Project/AuctionPlatform.sol\":4458:4468  msg.sender */\n      caller\n        /* \"Auction Project/AuctionPlatform.sol\":4448:4469  bidOwners[msg.sender] */\n      0xffffffffffffffffffffffffffffffffffffffff\n      and\n      0xffffffffffffffffffffffffffffffffffffffff\n      and\n      dup2\n      mstore\n      0x20\n      add\n      swap1\n      dup2\n      mstore\n      0x20\n      add\n      0x0\n      keccak256\n        /* \"Auction Project/AuctionPlatform.sol\":4441:4469  return bidOwners[msg.sender] */\n      dup1\n      sload\n      dup1\n      0x20\n      mul\n      0x20\n      add\n      mload(0x40)\n      swap1\n      dup2\n      add\n      0x40\n      mstore\n      dup1\n      swap3\n      swap2\n      swap1\n      dup2\n      dup2\n      mstore\n      0x20\n      add\n      dup3\n      dup1\n      sload\n      dup1\n      iszero\n      tag_81\n      jumpi\n      0x20\n      mul\n      dup3\n      add\n      swap2\n      swap1\n      0x0\n      mstore\n      keccak256(0x0, 0x20)\n      swap1\n    tag_82:\n      dup2\n      sload\n      dup2\n      mstore\n      0x20\n      add\n      swap1\n      0x1\n      add\n      swap1\n      dup1\n      dup4\n      gt\n      tag_82\n      jumpi\n    tag_81:\n      pop\n      pop\n      pop\n      pop\n      pop\n      swap1\n      pop\n        /* \"Auction Project/AuctionPlatform.sol\":4364:4479  function getListOfOwnBids() public ifBidded view returns(uint[]){\r... */\n      swap1\n      jump\t// out\n        /* \"Auction Project/AuctionPlatform.sol\":813:3114  function createAuction(\r... */\n    tag_30:\n        /* \"Auction Project/AuctionPlatform.sol\":1960:1975  uint start_time */\n      0x0\n        /* \"Auction Project/AuctionPlatform.sol\":2134:2147  uint end_time */\n      dup1\n        /* \"Auction Project/AuctionPlatform.sol\":2690:2703  Auction TempA */\n      0x0\n        /* \"Auction Project/AuctionPlatform.sol\":6627:6628  0 */\n      dup1\n        /* \"Auction Project/AuctionPlatform.sol\":6604:6613  aucOwners */\n      0x66\n        /* \"Auction Project/AuctionPlatform.sol\":6604:6625  aucOwners[msg.sender] */\n      0x0\n        /* \"Auction Project/AuctionPlatform.sol\":6614:6624  msg.sender */\n      caller\n        /* \"Auction Project/AuctionPlatform.sol\":6604:6625  aucOwners[msg.sender] */\n      0xffffffffffffffffffffffffffffffffffffffff\n      and\n      0xffffffffffffffffffffffffffffffffffffffff\n      and\n      dup2\n      mstore\n      0x20\n      add\n      swap1\n      dup2\n      mstore\n      0x20\n      add\n      0x0\n      keccak256\n      sload\n        /* \"Auction Project/AuctionPlatform.sol\":6604:6628  aucOwners[msg.sender]==0 */\n      eq\n        /* \"Auction Project/AuctionPlatform.sol\":6596:6667  require(aucOwners[msg.sender]==0,\"You have already created an Auction\") */\n      iszero\n      iszero\n      tag_84\n      jumpi\n      mload(0x40)\n      0x8c379a000000000000000000000000000000000000000000000000000000000\n      dup2\n      mstore\n      0x4\n      add\n      dup1\n      dup1\n      0x20\n      add\n      dup3\n      dup2\n      sub\n      dup3\n      mstore\n      0x23\n      dup2\n      mstore\n      0x20\n      add\n      dup1\n      0x596f75206861766520616c7265616479206372656174656420616e2041756374\n      dup2\n      mstore\n      0x20\n      add\n      0x696f6e0000000000000000000000000000000000000000000000000000000000\n      dup2\n      mstore\n      pop\n      0x40\n      add\n      swap2\n      pop\n      pop\n      mload(0x40)\n      dup1\n      swap2\n      sub\n      swap1\n      revert\n    tag_84:\n        /* \"Auction Project/AuctionPlatform.sol\":1581:1676  BokkyPooBahsDateTimeLibrary.isValidDateTime(_startTimeYear,_startTimeMonth,_startTimeDay,0,0,0) */\n      tag_86\n        /* \"Auction Project/AuctionPlatform.sol\":1625:1639  _startTimeYear */\n      dup11\n        /* \"Auction Project/AuctionPlatform.sol\":1640:1655  _startTimeMonth */\n      dup11\n        /* \"Auction Project/AuctionPlatform.sol\":1656:1669  _startTimeDay */\n      dup11\n        /* \"Auction Project/AuctionPlatform.sol\":1670:1671  0 */\n      0x0\n        /* \"Auction Project/AuctionPlatform.sol\":1672:1673  0 */\n      dup1\n        /* \"Auction Project/AuctionPlatform.sol\":1674:1675  0 */\n      0x0\n        /* \"Auction Project/AuctionPlatform.sol\":1581:1624  BokkyPooBahsDateTimeLibrary.isValidDateTime */\n      tag_87\n        /* \"Auction Project/AuctionPlatform.sol\":1581:1676  BokkyPooBahsDateTimeLibrary.isValidDateTime(_startTimeYear,_startTimeMonth,_startTimeDay,0,0,0) */\n      jump\t// in\n    tag_86:\n        /* \"Auction Project/AuctionPlatform.sol\":1573:1702  require(BokkyPooBahsDateTimeLibrary.isValidDateTime(_startTimeYear,_startTimeMonth,_startTimeDay,0,0,0),\"Enter Valid Start Date\") */\n      iszero\n      iszero\n      tag_88\n      jumpi\n      mload(0x40)\n      0x8c379a000000000000000000000000000000000000000000000000000000000\n      dup2\n      mstore\n      0x4\n      add\n      dup1\n      dup1\n      0x20\n      add\n      dup3\n      dup2\n      sub\n      dup3\n      mstore\n      0x16\n      dup2\n      mstore\n      0x20\n      add\n      dup1\n      0x456e7465722056616c6964205374617274204461746500000000000000000000\n      dup2\n      mstore\n      pop\n      0x20\n      add\n      swap2\n      pop\n      pop\n      mload(0x40)\n      dup1\n      swap2\n      sub\n      swap1\n      revert\n    tag_88:\n        /* \"Auction Project/AuctionPlatform.sol\":1721:1810  BokkyPooBahsDateTimeLibrary.isValidDateTime(_endTimeYear,_endTimeMonth,_endTimeDay,0,0,0) */\n      tag_89\n        /* \"Auction Project/AuctionPlatform.sol\":1765:1777  _endTimeYear */\n      dup8\n        /* \"Auction Project/AuctionPlatform.sol\":1778:1791  _endTimeMonth */\n      dup8\n        /* \"Auction Project/AuctionPlatform.sol\":1792:1803  _endTimeDay */\n      dup8\n        /* \"Auction Project/AuctionPlatform.sol\":1804:1805  0 */\n      0x0\n        /* \"Auction Project/AuctionPlatform.sol\":1806:1807  0 */\n      dup1\n        /* \"Auction Project/AuctionPlatform.sol\":1808:1809  0 */\n      0x0\n        /* \"Auction Project/AuctionPlatform.sol\":1721:1764  BokkyPooBahsDateTimeLibrary.isValidDateTime */\n      tag_87\n        /* \"Auction Project/AuctionPlatform.sol\":1721:1810  BokkyPooBahsDateTimeLibrary.isValidDateTime(_endTimeYear,_endTimeMonth,_endTimeDay,0,0,0) */\n      jump\t// in\n    tag_89:\n        /* \"Auction Project/AuctionPlatform.sol\":1713:1834  require(BokkyPooBahsDateTimeLibrary.isValidDateTime(_endTimeYear,_endTimeMonth,_endTimeDay,0,0,0),\"Enter Valid End Date\") */\n      iszero\n      iszero\n      tag_90\n      jumpi\n      mload(0x40)\n      0x8c379a000000000000000000000000000000000000000000000000000000000\n      dup2\n      mstore\n      0x4\n      add\n      dup1\n      dup1\n      0x20\n      add\n      dup3\n      dup2\n      sub\n      dup3\n      mstore\n      0x14\n      dup2\n      mstore\n      0x20\n      add\n      dup1\n      0x456e7465722056616c696420456e642044617465000000000000000000000000\n      dup2\n      mstore\n      pop\n      0x20\n      add\n      swap2\n      pop\n      pop\n      mload(0x40)\n      dup1\n      swap2\n      sub\n      swap1\n      revert\n    tag_90:\n        /* \"Auction Project/AuctionPlatform.sol\":1978:2121  BokkyPooBahsDateTimeLibrary.timestampFromDate(\r... */\n      tag_91\n        /* \"Auction Project/AuctionPlatform.sol\":2038:2052  _startTimeYear */\n      dup11\n        /* \"Auction Project/AuctionPlatform.sol\":2067:2082  _startTimeMonth */\n      dup11\n        /* \"Auction Project/AuctionPlatform.sol\":2097:2110  _startTimeDay */\n      dup11\n        /* \"Auction Project/AuctionPlatform.sol\":1978:2023  BokkyPooBahsDateTimeLibrary.timestampFromDate */\n      tag_92\n        /* \"Auction Project/AuctionPlatform.sol\":1978:2121  BokkyPooBahsDateTimeLibrary.timestampFromDate(\r... */\n      jump\t// in\n    tag_91:\n        /* \"Auction Project/AuctionPlatform.sol\":1960:2121  uint start_time = BokkyPooBahsDateTimeLibrary.timestampFromDate(\r... */\n      swap3\n      pop\n        /* \"Auction Project/AuctionPlatform.sol\":2150:2287  BokkyPooBahsDateTimeLibrary.timestampFromDate(\r... */\n      tag_93\n        /* \"Auction Project/AuctionPlatform.sol\":2210:2222  _endTimeYear */\n      dup8\n        /* \"Auction Project/AuctionPlatform.sol\":2237:2250  _endTimeMonth */\n      dup8\n        /* \"Auction Project/AuctionPlatform.sol\":2265:2276  _endTimeDay */\n      dup8\n        /* \"Auction Project/AuctionPlatform.sol\":2150:2195  BokkyPooBahsDateTimeLibrary.timestampFromDate */\n      tag_92\n        /* \"Auction Project/AuctionPlatform.sol\":2150:2287  BokkyPooBahsDateTimeLibrary.timestampFromDate(\r... */\n      jump\t// in\n    tag_93:\n        /* \"Auction Project/AuctionPlatform.sol\":2134:2287  uint end_time = BokkyPooBahsDateTimeLibrary.timestampFromDate(\r... */\n      swap2\n      pop\n        /* \"Auction Project/AuctionPlatform.sol\":2420:2430  start_time */\n      dup3\n        /* \"Auction Project/AuctionPlatform.sol\":2402:2417  block.timestamp */\n      timestamp\n        /* \"Auction Project/AuctionPlatform.sol\":2402:2430  block.timestamp < start_time */\n      lt\n        /* \"Auction Project/AuctionPlatform.sol\":2402:2460  block.timestamp < start_time && block.timestamp < end_time */\n      dup1\n      iszero\n      tag_94\n      jumpi\n      pop\n        /* \"Auction Project/AuctionPlatform.sol\":2452:2460  end_time */\n      dup2\n        /* \"Auction Project/AuctionPlatform.sol\":2434:2449  block.timestamp */\n      timestamp\n        /* \"Auction Project/AuctionPlatform.sol\":2434:2460  block.timestamp < end_time */\n      lt\n        /* \"Auction Project/AuctionPlatform.sol\":2402:2460  block.timestamp < start_time && block.timestamp < end_time */\n    tag_94:\n        /* \"Auction Project/AuctionPlatform.sol\":2402:2485  block.timestamp < start_time && block.timestamp < end_time && start_time < end_time */\n      dup1\n      iszero\n      tag_95\n      jumpi\n      pop\n        /* \"Auction Project/AuctionPlatform.sol\":2477:2485  end_time */\n      dup2\n        /* \"Auction Project/AuctionPlatform.sol\":2464:2474  start_time */\n      dup4\n        /* \"Auction Project/AuctionPlatform.sol\":2464:2485  start_time < end_time */\n      lt\n        /* \"Auction Project/AuctionPlatform.sol\":2402:2485  block.timestamp < start_time && block.timestamp < end_time && start_time < end_time */\n    tag_95:\n        /* \"Auction Project/AuctionPlatform.sol\":2394:2536  require(block.timestamp < start_time && block.timestamp < end_time && start_time < end_time, \" Please enter a valid interval for the Auction\") */\n      iszero\n      iszero\n      tag_96\n      jumpi\n      mload(0x40)\n      0x8c379a000000000000000000000000000000000000000000000000000000000\n      dup2\n      mstore\n      0x4\n      add\n      dup1\n      dup1\n      0x20\n      add\n      dup3\n      dup2\n      sub\n      dup3\n      mstore\n      0x2e\n      dup2\n      mstore\n      0x20\n      add\n      dup1\n      0x20506c6561736520656e74657220612076616c696420696e74657276616c2066\n      dup2\n      mstore\n      0x20\n      add\n      0x6f72207468652041756374696f6e000000000000000000000000000000000000\n      dup2\n      mstore\n      pop\n      0x40\n      add\n      swap2\n      pop\n      pop\n      mload(0x40)\n      dup1\n      swap2\n      sub\n      swap1\n      revert\n    tag_96:\n        /* \"Auction Project/AuctionPlatform.sol\":2567:2568  1 */\n      0x1\n        /* \"Auction Project/AuctionPlatform.sol\":2559:2564  aucId */\n      sload(0x0)\n        /* \"Auction Project/AuctionPlatform.sol\":2559:2568  aucId + 1 */\n      add\n        /* \"Auction Project/AuctionPlatform.sol\":2551:2556  aucId */\n      0x0\n        /* \"Auction Project/AuctionPlatform.sol\":2551:2568  aucId = aucId + 1 */\n      dup2\n      swap1\n      sstore\n      pop\n        /* \"Auction Project/AuctionPlatform.sol\":2718:2730  _description */\n      dup11\n        /* \"Auction Project/AuctionPlatform.sol\":2731:2741  start_time */\n      dup4\n        /* \"Auction Project/AuctionPlatform.sol\":2742:2750  end_time */\n      dup4\n        /* \"Auction Project/AuctionPlatform.sol\":2751:2761  _minBidVal */\n      dup7\n        /* \"Auction Project/AuctionPlatform.sol\":2706:2762  new Auction(_description,start_time,end_time,_minBidVal) */\n      tag_97\n      jump\t// in(tag_98)\n    tag_97:\n      dup1\n      dup1\n      0x20\n      add\n      dup6\n      dup2\n      mstore\n      0x20\n      add\n      dup5\n      dup2\n      mstore\n      0x20\n      add\n      dup4\n      dup2\n      mstore\n      0x20\n      add\n      dup3\n      dup2\n      sub\n      dup3\n      mstore\n      dup7\n      dup2\n      dup2\n      mload\n      dup2\n      mstore\n      0x20\n      add\n      swap2\n      pop\n      dup1\n      mload\n      swap1\n      0x20\n      add\n      swap1\n      dup1\n      dup4\n      dup4\n        /* \"--CODEGEN--\":23:24   */\n      0x0\n        /* \"--CODEGEN--\":8:108   */\n    tag_99:\n        /* \"--CODEGEN--\":33:36   */\n      dup4\n        /* \"--CODEGEN--\":30:31   */\n      dup2\n        /* \"--CODEGEN--\":27:37   */\n      lt\n        /* \"--CODEGEN--\":8:108   */\n      iszero\n      tag_100\n      jumpi\n        /* \"--CODEGEN--\":99:100   */\n      dup1\n        /* \"--CODEGEN--\":94:97   */\n      dup3\n        /* \"--CODEGEN--\":90:101   */\n      add\n        /* \"--CODEGEN--\":84:102   */\n      mload\n        /* \"--CODEGEN--\":80:81   */\n      dup2\n        /* \"--CODEGEN--\":75:78   */\n      dup5\n        /* \"--CODEGEN--\":71:82   */\n      add\n        /* \"--CODEGEN--\":64:103   */\n      mstore\n        /* \"--CODEGEN--\":52:54   */\n      0x20\n        /* \"--CODEGEN--\":49:50   */\n      dup2\n        /* \"--CODEGEN--\":45:55   */\n      add\n        /* \"--CODEGEN--\":40:55   */\n      swap1\n      pop\n        /* \"--CODEGEN--\":8:108   */\n      jump(tag_99)\n    tag_100:\n        /* \"--CODEGEN--\":12:26   */\n      pop\n        /* \"Auction Project/AuctionPlatform.sol\":2706:2762  new Auction(_description,start_time,end_time,_minBidVal) */\n      pop\n      pop\n      pop\n      swap1\n      pop\n      swap1\n      dup2\n      add\n      swap1\n      0x1f\n      and\n      dup1\n      iszero\n      tag_102\n      jumpi\n      dup1\n      dup3\n      sub\n      dup1\n      mload\n      0x1\n      dup4\n      0x20\n      sub\n      0x100\n      exp\n      sub\n      not\n      and\n      dup2\n      mstore\n      0x20\n      add\n      swap2\n      pop\n    tag_102:\n      pop\n      swap6\n      pop\n      pop\n      pop\n      pop\n      pop\n      pop\n      mload(0x40)\n      dup1\n      swap2\n      sub\n      swap1\n      0x0\n      create\n      dup1\n      iszero\n        /* \"--CODEGEN--\":8:17   */\n      dup1\n        /* \"--CODEGEN--\":5:7   */\n      iszero\n      tag_103\n      jumpi\n        /* \"--CODEGEN--\":45:61   */\n      returndatasize\n        /* \"--CODEGEN--\":42:43   */\n      0x0\n        /* \"--CODEGEN--\":39:40   */\n      dup1\n        /* \"--CODEGEN--\":24:62   */\n      returndatacopy\n        /* \"--CODEGEN--\":77:93   */\n      returndatasize\n        /* \"--CODEGEN--\":74:75   */\n      0x0\n        /* \"--CODEGEN--\":67:94   */\n      revert\n        /* \"--CODEGEN--\":5:7   */\n    tag_103:\n        /* \"Auction Project/AuctionPlatform.sol\":2706:2762  new Auction(_description,start_time,end_time,_minBidVal) */\n      pop\n        /* \"Auction Project/AuctionPlatform.sol\":2690:2762  Auction TempA = new Auction(_description,start_time,end_time,_minBidVal) */\n      swap1\n      pop\n        /* \"Auction Project/AuctionPlatform.sol\":2845:2850  TempA */\n      dup1\n        /* \"Auction Project/AuctionPlatform.sol\":2824:2835  auctionList */\n      0x1\n        /* \"Auction Project/AuctionPlatform.sol\":2836:2841  aucId */\n      sload(0x0)\n        /* \"Auction Project/AuctionPlatform.sol\":2824:2842  auctionList[aucId] */\n      0x65\n      dup2\n      lt\n      iszero\n      iszero\n      tag_104\n      jumpi\n      invalid\n    tag_104:\n      add\n      0x0\n        /* \"Auction Project/AuctionPlatform.sol\":2824:2850  auctionList[aucId] = TempA */\n      0x100\n      exp\n      dup2\n      sload\n      dup2\n      0xffffffffffffffffffffffffffffffffffffffff\n      mul\n      not\n      and\n      swap1\n      dup4\n      0xffffffffffffffffffffffffffffffffffffffff\n      and\n      mul\n      or\n      swap1\n      sstore\n      pop\n        /* \"Auction Project/AuctionPlatform.sol\":2968:2973  aucId */\n      sload(0x0)\n        /* \"Auction Project/AuctionPlatform.sol\":2944:2953  aucOwners */\n      0x66\n        /* \"Auction Project/AuctionPlatform.sol\":2944:2965  aucOwners[msg.sender] */\n      0x0\n        /* \"Auction Project/AuctionPlatform.sol\":2954:2964  msg.sender */\n      caller\n        /* \"Auction Project/AuctionPlatform.sol\":2944:2965  aucOwners[msg.sender] */\n      0xffffffffffffffffffffffffffffffffffffffff\n      and\n      0xffffffffffffffffffffffffffffffffffffffff\n      and\n      dup2\n      mstore\n      0x20\n      add\n      swap1\n      dup2\n      mstore\n      0x20\n      add\n      0x0\n      keccak256\n        /* \"Auction Project/AuctionPlatform.sol\":2944:2973  aucOwners[msg.sender] = aucId */\n      dup2\n      swap1\n      sstore\n      pop\n        /* \"Auction Project/AuctionPlatform.sol\":813:3114  function createAuction(\r... */\n      pop\n      pop\n      pop\n      pop\n      pop\n      pop\n      pop\n      pop\n      pop\n      pop\n      pop\n      jump\t// out\n        /* \"Auction Project/AuctionPlatform.sol\":4082:4261  function getListOfBidsOnAuction() public ifAuctionOwner isBidsMade view returns(uint[]){\r... */\n    tag_33:\n        /* \"Auction Project/AuctionPlatform.sol\":4162:4168  uint[] */\n      0x60\n        /* \"Auction Project/AuctionPlatform.sol\":6828:6829  0 */\n      0x0\n        /* \"Auction Project/AuctionPlatform.sol\":6805:6814  aucOwners */\n      0x66\n        /* \"Auction Project/AuctionPlatform.sol\":6805:6826  aucOwners[msg.sender] */\n      0x0\n        /* \"Auction Project/AuctionPlatform.sol\":6815:6825  msg.sender */\n      caller\n        /* \"Auction Project/AuctionPlatform.sol\":6805:6826  aucOwners[msg.sender] */\n      0xffffffffffffffffffffffffffffffffffffffff\n      and\n      0xffffffffffffffffffffffffffffffffffffffff\n      and\n      dup2\n      mstore\n      0x20\n      add\n      swap1\n      dup2\n      mstore\n      0x20\n      add\n      0x0\n      keccak256\n      sload\n        /* \"Auction Project/AuctionPlatform.sol\":6805:6829  aucOwners[msg.sender]!=0 */\n      eq\n      iszero\n        /* \"Auction Project/AuctionPlatform.sol\":6797:6865  require(aucOwners[msg.sender]!=0,\"You haven't created any Auctions\") */\n      iszero\n      iszero\n      tag_107\n      jumpi\n      mload(0x40)\n      0x8c379a000000000000000000000000000000000000000000000000000000000\n      dup2\n      mstore\n      0x4\n      add\n      dup1\n      dup1\n      0x20\n      add\n      dup3\n      dup2\n      sub\n      dup3\n      mstore\n      0x20\n      dup2\n      mstore\n      0x20\n      add\n      dup1\n      0x596f7520686176656e2774206372656174656420616e792041756374696f6e73\n      dup2\n      mstore\n      pop\n      0x20\n      add\n      swap2\n      pop\n      pop\n      mload(0x40)\n      dup1\n      swap2\n      sub\n      swap1\n      revert\n    tag_107:\n        /* \"Auction Project/AuctionPlatform.sol\":6143:6154  auctionList */\n      0x1\n        /* \"Auction Project/AuctionPlatform.sol\":6155:6164  aucOwners */\n      0x66\n        /* \"Auction Project/AuctionPlatform.sol\":6155:6176  aucOwners[msg.sender] */\n      0x0\n        /* \"Auction Project/AuctionPlatform.sol\":6165:6175  msg.sender */\n      caller\n        /* \"Auction Project/AuctionPlatform.sol\":6155:6176  aucOwners[msg.sender] */\n      0xffffffffffffffffffffffffffffffffffffffff\n      and\n      0xffffffffffffffffffffffffffffffffffffffff\n      and\n      dup2\n      mstore\n      0x20\n      add\n      swap1\n      dup2\n      mstore\n      0x20\n      add\n      0x0\n      keccak256\n      sload\n        /* \"Auction Project/AuctionPlatform.sol\":6143:6177  auctionList[aucOwners[msg.sender]] */\n      0x65\n      dup2\n      lt\n      iszero\n      iszero\n      tag_109\n      jumpi\n      invalid\n    tag_109:\n      add\n      0x0\n      swap1\n      sload\n      swap1\n      0x100\n      exp\n      swap1\n      div\n      0xffffffffffffffffffffffffffffffffffffffff\n      and\n        /* \"Auction Project/AuctionPlatform.sol\":6143:6189  auctionList[aucOwners[msg.sender]].getBidsMade */\n      0xffffffffffffffffffffffffffffffffffffffff\n      and\n      0x409766e6\n        /* \"Auction Project/AuctionPlatform.sol\":6143:6191  auctionList[aucOwners[msg.sender]].getBidsMade() */\n      mload(0x40)\n      dup2\n      0xffffffff\n      and\n      0x100000000000000000000000000000000000000000000000000000000\n      mul\n      dup2\n      mstore\n      0x4\n      add\n      0x20\n      mload(0x40)\n      dup1\n      dup4\n      sub\n      dup2\n      0x0\n      dup8\n      dup1\n      extcodesize\n      iszero\n        /* \"--CODEGEN--\":8:17   */\n      dup1\n        /* \"--CODEGEN--\":5:7   */\n      iszero\n      tag_111\n      jumpi\n        /* \"--CODEGEN--\":30:31   */\n      0x0\n        /* \"--CODEGEN--\":27:28   */\n      dup1\n        /* \"--CODEGEN--\":20:32   */\n      revert\n        /* \"--CODEGEN--\":5:7   */\n    tag_111:\n        /* \"Auction Project/AuctionPlatform.sol\":6143:6191  auctionList[aucOwners[msg.sender]].getBidsMade() */\n      pop\n      gas\n      call\n      iszero\n        /* \"--CODEGEN--\":8:17   */\n      dup1\n        /* \"--CODEGEN--\":5:7   */\n      iszero\n      tag_112\n      jumpi\n        /* \"--CODEGEN--\":45:61   */\n      returndatasize\n        /* \"--CODEGEN--\":42:43   */\n      0x0\n        /* \"--CODEGEN--\":39:40   */\n      dup1\n        /* \"--CODEGEN--\":24:62   */\n      returndatacopy\n        /* \"--CODEGEN--\":77:93   */\n      returndatasize\n        /* \"--CODEGEN--\":74:75   */\n      0x0\n        /* \"--CODEGEN--\":67:94   */\n      revert\n        /* \"--CODEGEN--\":5:7   */\n    tag_112:\n        /* \"Auction Project/AuctionPlatform.sol\":6143:6191  auctionList[aucOwners[msg.sender]].getBidsMade() */\n      pop\n      pop\n      pop\n      pop\n      mload(0x40)\n      returndatasize\n        /* \"--CODEGEN--\":13:15   */\n      0x20\n        /* \"--CODEGEN--\":8:11   */\n      dup2\n        /* \"--CODEGEN--\":5:16   */\n      lt\n        /* \"--CODEGEN--\":2:4   */\n      iszero\n      tag_113\n      jumpi\n        /* \"--CODEGEN--\":29:30   */\n      0x0\n        /* \"--CODEGEN--\":26:27   */\n      dup1\n        /* \"--CODEGEN--\":19:31   */\n      revert\n        /* \"--CODEGEN--\":2:4   */\n    tag_113:\n        /* \"Auction Project/AuctionPlatform.sol\":6143:6191  auctionList[aucOwners[msg.sender]].getBidsMade() */\n      dup2\n      add\n      swap1\n      dup1\n      dup1\n      mload\n      swap1\n      0x20\n      add\n      swap1\n      swap3\n      swap2\n      swap1\n      pop\n      pop\n      pop\n        /* \"Auction Project/AuctionPlatform.sol\":6135:6231  require(auctionList[aucOwners[msg.sender]].getBidsMade(),\"There aren't any bids on the Auction\") */\n      iszero\n      iszero\n      tag_114\n      jumpi\n      mload(0x40)\n      0x8c379a000000000000000000000000000000000000000000000000000000000\n      dup2\n      mstore\n      0x4\n      add\n      dup1\n      dup1\n      0x20\n      add\n      dup3\n      dup2\n      sub\n      dup3\n      mstore\n      0x24\n      dup2\n      mstore\n      0x20\n      add\n      dup1\n      0x5468657265206172656e277420616e792062696473206f6e2074686520417563\n      dup2\n      mstore\n      0x20\n      add\n      0x74696f6e00000000000000000000000000000000000000000000000000000000\n      dup2\n      mstore\n      pop\n      0x40\n      add\n      swap2\n      pop\n      pop\n      mload(0x40)\n      dup1\n      swap2\n      sub\n      swap1\n      revert\n    tag_114:\n        /* \"Auction Project/AuctionPlatform.sol\":4201:4212  auctionList */\n      0x1\n        /* \"Auction Project/AuctionPlatform.sol\":4213:4222  aucOwners */\n      0x66\n        /* \"Auction Project/AuctionPlatform.sol\":4213:4234  aucOwners[msg.sender] */\n      0x0\n        /* \"Auction Project/AuctionPlatform.sol\":4223:4233  msg.sender */\n      caller\n        /* \"Auction Project/AuctionPlatform.sol\":4213:4234  aucOwners[msg.sender] */\n      0xffffffffffffffffffffffffffffffffffffffff\n      and\n      0xffffffffffffffffffffffffffffffffffffffff\n      and\n      dup2\n      mstore\n      0x20\n      add\n      swap1\n      dup2\n      mstore\n      0x20\n      add\n      0x0\n      keccak256\n      sload\n        /* \"Auction Project/AuctionPlatform.sol\":4201:4235  auctionList[aucOwners[msg.sender]] */\n      0x65\n      dup2\n      lt\n      iszero\n      iszero\n      tag_116\n      jumpi\n      invalid\n    tag_116:\n      add\n      0x0\n      swap1\n      sload\n      swap1\n      0x100\n      exp\n      swap1\n      div\n      0xffffffffffffffffffffffffffffffffffffffff\n      and\n        /* \"Auction Project/AuctionPlatform.sol\":4201:4249  auctionList[aucOwners[msg.sender]].getListOfBids */\n      0xffffffffffffffffffffffffffffffffffffffff\n      and\n      0x679dbf0c\n        /* \"Auction Project/AuctionPlatform.sol\":4201:4251  auctionList[aucOwners[msg.sender]].getListOfBids() */\n      mload(0x40)\n      dup2\n      0xffffffff\n      and\n      0x100000000000000000000000000000000000000000000000000000000\n      mul\n      dup2\n      mstore\n      0x4\n      add\n      0x0\n      mload(0x40)\n      dup1\n      dup4\n      sub\n      dup2\n      0x0\n      dup8\n      dup1\n      extcodesize\n      iszero\n        /* \"--CODEGEN--\":8:17   */\n      dup1\n        /* \"--CODEGEN--\":5:7   */\n      iszero\n      tag_118\n      jumpi\n        /* \"--CODEGEN--\":30:31   */\n      0x0\n        /* \"--CODEGEN--\":27:28   */\n      dup1\n        /* \"--CODEGEN--\":20:32   */\n      revert\n        /* \"--CODEGEN--\":5:7   */\n    tag_118:\n        /* \"Auction Project/AuctionPlatform.sol\":4201:4251  auctionList[aucOwners[msg.sender]].getListOfBids() */\n      pop\n      gas\n      call\n      iszero\n        /* \"--CODEGEN--\":8:17   */\n      dup1\n        /* \"--CODEGEN--\":5:7   */\n      iszero\n      tag_119\n      jumpi\n        /* \"--CODEGEN--\":45:61   */\n      returndatasize\n        /* \"--CODEGEN--\":42:43   */\n      0x0\n        /* \"--CODEGEN--\":39:40   */\n      dup1\n        /* \"--CODEGEN--\":24:62   */\n      returndatacopy\n        /* \"--CODEGEN--\":77:93   */\n      returndatasize\n        /* \"--CODEGEN--\":74:75   */\n      0x0\n        /* \"--CODEGEN--\":67:94   */\n      revert\n        /* \"--CODEGEN--\":5:7   */\n    tag_119:\n        /* \"Auction Project/AuctionPlatform.sol\":4201:4251  auctionList[aucOwners[msg.sender]].getListOfBids() */\n      pop\n      pop\n      pop\n      pop\n      mload(0x40)\n        /* \"--CODEGEN--\":39:55   */\n      returndatasize\n        /* \"--CODEGEN--\":36:37   */\n      0x0\n        /* \"--CODEGEN--\":17:34   */\n      dup3\n        /* \"--CODEGEN--\":2:56   */\n      returndatacopy\n        /* \"Auction Project/AuctionPlatform.sol\":4201:4251  auctionList[aucOwners[msg.sender]].getListOfBids() */\n      returndatasize\n        /* \"--CODEGEN--\":101:105   */\n      0x1f\n        /* \"--CODEGEN--\":97:106   */\n      not\n        /* \"--CODEGEN--\":90:94   */\n      0x1f\n        /* \"--CODEGEN--\":84:88   */\n      dup3\n        /* \"--CODEGEN--\":80:95   */\n      add\n        /* \"--CODEGEN--\":76:107   */\n      and\n        /* \"--CODEGEN--\":69:74   */\n      dup3\n        /* \"--CODEGEN--\":65:108   */\n      add\n        /* \"--CODEGEN--\":126:132   */\n      dup1\n        /* \"--CODEGEN--\":120:124   */\n      0x40\n        /* \"--CODEGEN--\":113:133   */\n      mstore\n        /* \"--CODEGEN--\":0:138   */\n      pop\n        /* \"--CODEGEN--\":13:15   */\n      0x20\n        /* \"--CODEGEN--\":8:11   */\n      dup2\n        /* \"--CODEGEN--\":5:16   */\n      lt\n        /* \"--CODEGEN--\":2:4   */\n      iszero\n      tag_120\n      jumpi\n        /* \"--CODEGEN--\":29:30   */\n      0x0\n        /* \"--CODEGEN--\":26:27   */\n      dup1\n        /* \"--CODEGEN--\":19:31   */\n      revert\n        /* \"--CODEGEN--\":2:4   */\n    tag_120:\n        /* \"Auction Project/AuctionPlatform.sol\":4201:4251  auctionList[aucOwners[msg.sender]].getListOfBids() */\n      dup2\n      add\n      swap1\n      dup1\n      dup1\n      mload\n        /* \"--CODEGEN--\":20:31   */\n      0x100000000\n        /* \"--CODEGEN--\":15:18   */\n      dup2\n        /* \"--CODEGEN--\":12:32   */\n      gt\n        /* \"--CODEGEN--\":9:11   */\n      iszero\n      tag_121\n      jumpi\n        /* \"--CODEGEN--\":45:46   */\n      0x0\n        /* \"--CODEGEN--\":42:43   */\n      dup1\n        /* \"--CODEGEN--\":35:47   */\n      revert\n        /* \"--CODEGEN--\":9:11   */\n    tag_121:\n        /* \"--CODEGEN--\":73:84   */\n      dup3\n        /* \"--CODEGEN--\":68:71   */\n      dup2\n        /* \"--CODEGEN--\":64:85   */\n      add\n        /* \"--CODEGEN--\":57:85   */\n      swap1\n      pop\n        /* \"--CODEGEN--\":126:130   */\n      0x20\n        /* \"--CODEGEN--\":121:124   */\n      dup2\n        /* \"--CODEGEN--\":117:131   */\n      add\n        /* \"--CODEGEN--\":163:172   */\n      dup5\n        /* \"--CODEGEN--\":145:161   */\n      dup2\n        /* \"--CODEGEN--\":142:173   */\n      gt\n        /* \"--CODEGEN--\":139:141   */\n      iszero\n      tag_122\n      jumpi\n        /* \"--CODEGEN--\":186:187   */\n      0x0\n        /* \"--CODEGEN--\":183:184   */\n      dup1\n        /* \"--CODEGEN--\":176:188   */\n      revert\n        /* \"--CODEGEN--\":139:141   */\n    tag_122:\n        /* \"--CODEGEN--\":224:227   */\n      dup2\n        /* \"--CODEGEN--\":218:228   */\n      mload\n        /* \"--CODEGEN--\":339:348   */\n      dup6\n        /* \"--CODEGEN--\":333:335   */\n      0x20\n        /* \"--CODEGEN--\":319:331   */\n      dup3\n        /* \"--CODEGEN--\":315:336   */\n      mul\n        /* \"--CODEGEN--\":297:313   */\n      dup4\n        /* \"--CODEGEN--\":293:337   */\n      add\n        /* \"--CODEGEN--\":290:349   */\n      gt\n        /* \"--CODEGEN--\":268:279   */\n      0x100000000\n        /* \"--CODEGEN--\":254:266   */\n      dup3\n        /* \"--CODEGEN--\":251:280   */\n      gt\n        /* \"--CODEGEN--\":239:358   */\n      or\n        /* \"--CODEGEN--\":236:238   */\n      iszero\n      tag_123\n      jumpi\n        /* \"--CODEGEN--\":371:372   */\n      0x0\n        /* \"--CODEGEN--\":368:369   */\n      dup1\n        /* \"--CODEGEN--\":361:373   */\n      revert\n        /* \"--CODEGEN--\":236:238   */\n    tag_123:\n        /* \"--CODEGEN--\":0:383   */\n      pop\n      pop\n        /* \"Auction Project/AuctionPlatform.sol\":4201:4251  auctionList[aucOwners[msg.sender]].getListOfBids() */\n      swap3\n      swap2\n      swap1\n      pop\n      pop\n      pop\n        /* \"Auction Project/AuctionPlatform.sol\":4194:4251  return auctionList[aucOwners[msg.sender]].getListOfBids() */\n      swap1\n      pop\n        /* \"Auction Project/AuctionPlatform.sol\":4082:4261  function getListOfBidsOnAuction() public ifAuctionOwner isBidsMade view returns(uint[]){\r... */\n      swap1\n      jump\t// out\n        /* \"Auction Project/AuctionPlatform.sol\":5070:5610  function endAuction() public ifAuctionOwner returns(address){\r... */\n    tag_39:\n        /* \"Auction Project/AuctionPlatform.sol\":5122:5129  address */\n      0x0\n        /* \"Auction Project/AuctionPlatform.sol\":5172:5183  uint maxBid */\n      dup1\n        /* \"Auction Project/AuctionPlatform.sol\":6828:6829  0 */\n      0x0\n        /* \"Auction Project/AuctionPlatform.sol\":6805:6814  aucOwners */\n      0x66\n        /* \"Auction Project/AuctionPlatform.sol\":6805:6826  aucOwners[msg.sender] */\n      0x0\n        /* \"Auction Project/AuctionPlatform.sol\":6815:6825  msg.sender */\n      caller\n        /* \"Auction Project/AuctionPlatform.sol\":6805:6826  aucOwners[msg.sender] */\n      0xffffffffffffffffffffffffffffffffffffffff\n      and\n      0xffffffffffffffffffffffffffffffffffffffff\n      and\n      dup2\n      mstore\n      0x20\n      add\n      swap1\n      dup2\n      mstore\n      0x20\n      add\n      0x0\n      keccak256\n      sload\n        /* \"Auction Project/AuctionPlatform.sol\":6805:6829  aucOwners[msg.sender]!=0 */\n      eq\n      iszero\n        /* \"Auction Project/AuctionPlatform.sol\":6797:6865  require(aucOwners[msg.sender]!=0,\"You haven't created any Auctions\") */\n      iszero\n      iszero\n      tag_125\n      jumpi\n      mload(0x40)\n      0x8c379a000000000000000000000000000000000000000000000000000000000\n      dup2\n      mstore\n      0x4\n      add\n      dup1\n      dup1\n      0x20\n      add\n      dup3\n      dup2\n      sub\n      dup3\n      mstore\n      0x20\n      dup2\n      mstore\n      0x20\n      add\n      dup1\n      0x596f7520686176656e2774206372656174656420616e792041756374696f6e73\n      dup2\n      mstore\n      pop\n      0x20\n      add\n      swap2\n      pop\n      pop\n      mload(0x40)\n      dup1\n      swap2\n      sub\n      swap1\n      revert\n    tag_125:\n        /* \"Auction Project/AuctionPlatform.sol\":5186:5197  auctionList */\n      0x1\n        /* \"Auction Project/AuctionPlatform.sol\":5198:5207  aucOwners */\n      0x66\n        /* \"Auction Project/AuctionPlatform.sol\":5198:5219  aucOwners[msg.sender] */\n      0x0\n        /* \"Auction Project/AuctionPlatform.sol\":5208:5218  msg.sender */\n      caller\n        /* \"Auction Project/AuctionPlatform.sol\":5198:5219  aucOwners[msg.sender] */\n      0xffffffffffffffffffffffffffffffffffffffff\n      and\n      0xffffffffffffffffffffffffffffffffffffffff\n      and\n      dup2\n      mstore\n      0x20\n      add\n      swap1\n      dup2\n      mstore\n      0x20\n      add\n      0x0\n      keccak256\n      sload\n        /* \"Auction Project/AuctionPlatform.sol\":5186:5220  auctionList[aucOwners[msg.sender]] */\n      0x65\n      dup2\n      lt\n      iszero\n      iszero\n      tag_127\n      jumpi\n      invalid\n    tag_127:\n      add\n      0x0\n      swap1\n      sload\n      swap1\n      0x100\n      exp\n      swap1\n      div\n      0xffffffffffffffffffffffffffffffffffffffff\n      and\n        /* \"Auction Project/AuctionPlatform.sol\":5186:5234  auctionList[aucOwners[msg.sender]].getMaximumBid */\n      0xffffffffffffffffffffffffffffffffffffffff\n      and\n      0xdd06ba1a\n        /* \"Auction Project/AuctionPlatform.sol\":5186:5236  auctionList[aucOwners[msg.sender]].getMaximumBid() */\n      mload(0x40)\n      dup2\n      0xffffffff\n      and\n      0x100000000000000000000000000000000000000000000000000000000\n      mul\n      dup2\n      mstore\n      0x4\n      add\n      0x20\n      mload(0x40)\n      dup1\n      dup4\n      sub\n      dup2\n      0x0\n      dup8\n      dup1\n      extcodesize\n      iszero\n        /* \"--CODEGEN--\":8:17   */\n      dup1\n        /* \"--CODEGEN--\":5:7   */\n      iszero\n      tag_129\n      jumpi\n        /* \"--CODEGEN--\":30:31   */\n      0x0\n        /* \"--CODEGEN--\":27:28   */\n      dup1\n        /* \"--CODEGEN--\":20:32   */\n      revert\n        /* \"--CODEGEN--\":5:7   */\n    tag_129:\n        /* \"Auction Project/AuctionPlatform.sol\":5186:5236  auctionList[aucOwners[msg.sender]].getMaximumBid() */\n      pop\n      gas\n      call\n      iszero\n        /* \"--CODEGEN--\":8:17   */\n      dup1\n        /* \"--CODEGEN--\":5:7   */\n      iszero\n      tag_130\n      jumpi\n        /* \"--CODEGEN--\":45:61   */\n      returndatasize\n        /* \"--CODEGEN--\":42:43   */\n      0x0\n        /* \"--CODEGEN--\":39:40   */\n      dup1\n        /* \"--CODEGEN--\":24:62   */\n      returndatacopy\n        /* \"--CODEGEN--\":77:93   */\n      returndatasize\n        /* \"--CODEGEN--\":74:75   */\n      0x0\n        /* \"--CODEGEN--\":67:94   */\n      revert\n        /* \"--CODEGEN--\":5:7   */\n    tag_130:\n        /* \"Auction Project/AuctionPlatform.sol\":5186:5236  auctionList[aucOwners[msg.sender]].getMaximumBid() */\n      pop\n      pop\n      pop\n      pop\n      mload(0x40)\n      returndatasize\n        /* \"--CODEGEN--\":13:15   */\n      0x20\n        /* \"--CODEGEN--\":8:11   */\n      dup2\n        /* \"--CODEGEN--\":5:16   */\n      lt\n        /* \"--CODEGEN--\":2:4   */\n      iszero\n      tag_131\n      jumpi\n        /* \"--CODEGEN--\":29:30   */\n      0x0\n        /* \"--CODEGEN--\":26:27   */\n      dup1\n        /* \"--CODEGEN--\":19:31   */\n      revert\n        /* \"--CODEGEN--\":2:4   */\n    tag_131:\n        /* \"Auction Project/AuctionPlatform.sol\":5186:5236  auctionList[aucOwners[msg.sender]].getMaximumBid() */\n      dup2\n      add\n      swap1\n      dup1\n      dup1\n      mload\n      swap1\n      0x20\n      add\n      swap1\n      swap3\n      swap2\n      swap1\n      pop\n      pop\n      pop\n        /* \"Auction Project/AuctionPlatform.sol\":5172:5236  uint maxBid = auctionList[aucOwners[msg.sender]].getMaximumBid() */\n      swap1\n      pop\n        /* \"Auction Project/AuctionPlatform.sol\":5532:5543  auctionList */\n      0x1\n        /* \"Auction Project/AuctionPlatform.sol\":5544:5553  aucOwners */\n      0x66\n        /* \"Auction Project/AuctionPlatform.sol\":5544:5565  aucOwners[msg.sender] */\n      0x0\n        /* \"Auction Project/AuctionPlatform.sol\":5554:5564  msg.sender */\n      caller\n        /* \"Auction Project/AuctionPlatform.sol\":5544:5565  aucOwners[msg.sender] */\n      0xffffffffffffffffffffffffffffffffffffffff\n      and\n      0xffffffffffffffffffffffffffffffffffffffff\n      and\n      dup2\n      mstore\n      0x20\n      add\n      swap1\n      dup2\n      mstore\n      0x20\n      add\n      0x0\n      keccak256\n      sload\n        /* \"Auction Project/AuctionPlatform.sol\":5532:5566  auctionList[aucOwners[msg.sender]] */\n      0x65\n      dup2\n      lt\n      iszero\n      iszero\n      tag_132\n      jumpi\n      invalid\n    tag_132:\n      add\n      0x0\n      swap1\n      sload\n      swap1\n      0x100\n      exp\n      swap1\n      div\n      0xffffffffffffffffffffffffffffffffffffffff\n      and\n        /* \"Auction Project/AuctionPlatform.sol\":5532:5592  auctionList[aucOwners[msg.sender]].endAuctionWithSelectedBid */\n      0xffffffffffffffffffffffffffffffffffffffff\n      and\n      0xdee37a8e\n        /* \"Auction Project/AuctionPlatform.sol\":5593:5599  maxBid */\n      dup3\n        /* \"Auction Project/AuctionPlatform.sol\":5532:5600  auctionList[aucOwners[msg.sender]].endAuctionWithSelectedBid(maxBid) */\n      mload(0x40)\n      dup3\n      0xffffffff\n      and\n      0x100000000000000000000000000000000000000000000000000000000\n      mul\n      dup2\n      mstore\n      0x4\n      add\n      dup1\n      dup3\n      dup2\n      mstore\n      0x20\n      add\n      swap2\n      pop\n      pop\n      0x20\n      mload(0x40)\n      dup1\n      dup4\n      sub\n      dup2\n      0x0\n      dup8\n      dup1\n      extcodesize\n      iszero\n        /* \"--CODEGEN--\":8:17   */\n      dup1\n        /* \"--CODEGEN--\":5:7   */\n      iszero\n      tag_134\n      jumpi\n        /* \"--CODEGEN--\":30:31   */\n      0x0\n        /* \"--CODEGEN--\":27:28   */\n      dup1\n        /* \"--CODEGEN--\":20:32   */\n      revert\n        /* \"--CODEGEN--\":5:7   */\n    tag_134:\n        /* \"Auction Project/AuctionPlatform.sol\":5532:5600  auctionList[aucOwners[msg.sender]].endAuctionWithSelectedBid(maxBid) */\n      pop\n      gas\n      call\n      iszero\n        /* \"--CODEGEN--\":8:17   */\n      dup1\n        /* \"--CODEGEN--\":5:7   */\n      iszero\n      tag_135\n      jumpi\n        /* \"--CODEGEN--\":45:61   */\n      returndatasize\n        /* \"--CODEGEN--\":42:43   */\n      0x0\n        /* \"--CODEGEN--\":39:40   */\n      dup1\n        /* \"--CODEGEN--\":24:62   */\n      returndatacopy\n        /* \"--CODEGEN--\":77:93   */\n      returndatasize\n        /* \"--CODEGEN--\":74:75   */\n      0x0\n        /* \"--CODEGEN--\":67:94   */\n      revert\n        /* \"--CODEGEN--\":5:7   */\n    tag_135:\n        /* \"Auction Project/AuctionPlatform.sol\":5532:5600  auctionList[aucOwners[msg.sender]].endAuctionWithSelectedBid(maxBid) */\n      pop\n      pop\n      pop\n      pop\n      mload(0x40)\n      returndatasize\n        /* \"--CODEGEN--\":13:15   */\n      0x20\n        /* \"--CODEGEN--\":8:11   */\n      dup2\n        /* \"--CODEGEN--\":5:16   */\n      lt\n        /* \"--CODEGEN--\":2:4   */\n      iszero\n      tag_136\n      jumpi\n        /* \"--CODEGEN--\":29:30   */\n      0x0\n        /* \"--CODEGEN--\":26:27   */\n      dup1\n        /* \"--CODEGEN--\":19:31   */\n      revert\n        /* \"--CODEGEN--\":2:4   */\n    tag_136:\n        /* \"Auction Project/AuctionPlatform.sol\":5532:5600  auctionList[aucOwners[msg.sender]].endAuctionWithSelectedBid(maxBid) */\n      dup2\n      add\n      swap1\n      dup1\n      dup1\n      mload\n      swap1\n      0x20\n      add\n      swap1\n      swap3\n      swap2\n      swap1\n      pop\n      pop\n      pop\n        /* \"Auction Project/AuctionPlatform.sol\":5525:5600  return auctionList[aucOwners[msg.sender]].endAuctionWithSelectedBid(maxBid) */\n      swap2\n      pop\n        /* \"Auction Project/AuctionPlatform.sol\":5070:5610  function endAuction() public ifAuctionOwner returns(address){\r... */\n      pop\n      swap1\n      jump\t// out\n        /* \"https://github.com/bokkypoobah/BokkyPooBahsDateTimeLibrary/blob/1ea8ef42b3d8db17b910b46e4f8c124b59d77c03/contracts/BokkyPooBahsDateTimeLibrary.sol\":5368:5663  function isValidDateTime(uint year, uint month, uint day, uint hour, uint minute, uint second) internal pure returns (bool valid) {... */\n    tag_87:\n        /* \"https://github.com/bokkypoobah/BokkyPooBahsDateTimeLibrary/blob/1ea8ef42b3d8db17b910b46e4f8c124b59d77c03/contracts/BokkyPooBahsDateTimeLibrary.sol\":5486:5496  bool valid */\n      0x0\n        /* \"https://github.com/bokkypoobah/BokkyPooBahsDateTimeLibrary/blob/1ea8ef42b3d8db17b910b46e4f8c124b59d77c03/contracts/BokkyPooBahsDateTimeLibrary.sol\":5512:5541  isValidDate(year, month, day) */\n      tag_138\n        /* \"https://github.com/bokkypoobah/BokkyPooBahsDateTimeLibrary/blob/1ea8ef42b3d8db17b910b46e4f8c124b59d77c03/contracts/BokkyPooBahsDateTimeLibrary.sol\":5524:5528  year */\n      dup8\n        /* \"https://github.com/bokkypoobah/BokkyPooBahsDateTimeLibrary/blob/1ea8ef42b3d8db17b910b46e4f8c124b59d77c03/contracts/BokkyPooBahsDateTimeLibrary.sol\":5530:5535  month */\n      dup8\n        /* \"https://github.com/bokkypoobah/BokkyPooBahsDateTimeLibrary/blob/1ea8ef42b3d8db17b910b46e4f8c124b59d77c03/contracts/BokkyPooBahsDateTimeLibrary.sol\":5537:5540  day */\n      dup8\n        /* \"https://github.com/bokkypoobah/BokkyPooBahsDateTimeLibrary/blob/1ea8ef42b3d8db17b910b46e4f8c124b59d77c03/contracts/BokkyPooBahsDateTimeLibrary.sol\":5512:5523  isValidDate */\n      tag_139\n        /* \"https://github.com/bokkypoobah/BokkyPooBahsDateTimeLibrary/blob/1ea8ef42b3d8db17b910b46e4f8c124b59d77c03/contracts/BokkyPooBahsDateTimeLibrary.sol\":5512:5541  isValidDate(year, month, day) */\n      jump\t// in\n    tag_138:\n        /* \"https://github.com/bokkypoobah/BokkyPooBahsDateTimeLibrary/blob/1ea8ef42b3d8db17b910b46e4f8c124b59d77c03/contracts/BokkyPooBahsDateTimeLibrary.sol\":5508:5657  if (isValidDate(year, month, day)) {... */\n      iszero\n      tag_140\n      jumpi\n        /* \"https://github.com/bokkypoobah/BokkyPooBahsDateTimeLibrary/blob/1ea8ef42b3d8db17b910b46e4f8c124b59d77c03/contracts/BokkyPooBahsDateTimeLibrary.sol\":5568:5570  24 */\n      0x18\n        /* \"https://github.com/bokkypoobah/BokkyPooBahsDateTimeLibrary/blob/1ea8ef42b3d8db17b910b46e4f8c124b59d77c03/contracts/BokkyPooBahsDateTimeLibrary.sol\":5561:5565  hour */\n      dup5\n        /* \"https://github.com/bokkypoobah/BokkyPooBahsDateTimeLibrary/blob/1ea8ef42b3d8db17b910b46e4f8c124b59d77c03/contracts/BokkyPooBahsDateTimeLibrary.sol\":5561:5570  hour < 24 */\n      lt\n        /* \"https://github.com/bokkypoobah/BokkyPooBahsDateTimeLibrary/blob/1ea8ef42b3d8db17b910b46e4f8c124b59d77c03/contracts/BokkyPooBahsDateTimeLibrary.sol\":5561:5585  hour < 24 && minute < 60 */\n      dup1\n      iszero\n      tag_141\n      jumpi\n      pop\n        /* \"https://github.com/bokkypoobah/BokkyPooBahsDateTimeLibrary/blob/1ea8ef42b3d8db17b910b46e4f8c124b59d77c03/contracts/BokkyPooBahsDateTimeLibrary.sol\":5583:5585  60 */\n      0x3c\n        /* \"https://github.com/bokkypoobah/BokkyPooBahsDateTimeLibrary/blob/1ea8ef42b3d8db17b910b46e4f8c124b59d77c03/contracts/BokkyPooBahsDateTimeLibrary.sol\":5574:5580  minute */\n      dup4\n        /* \"https://github.com/bokkypoobah/BokkyPooBahsDateTimeLibrary/blob/1ea8ef42b3d8db17b910b46e4f8c124b59d77c03/contracts/BokkyPooBahsDateTimeLibrary.sol\":5574:5585  minute < 60 */\n      lt\n        /* \"https://github.com/bokkypoobah/BokkyPooBahsDateTimeLibrary/blob/1ea8ef42b3d8db17b910b46e4f8c124b59d77c03/contracts/BokkyPooBahsDateTimeLibrary.sol\":5561:5585  hour < 24 && minute < 60 */\n    tag_141:\n        /* \"https://github.com/bokkypoobah/BokkyPooBahsDateTimeLibrary/blob/1ea8ef42b3d8db17b910b46e4f8c124b59d77c03/contracts/BokkyPooBahsDateTimeLibrary.sol\":5561:5600  hour < 24 && minute < 60 && second < 60 */\n      dup1\n      iszero\n      tag_142\n      jumpi\n      pop\n        /* \"https://github.com/bokkypoobah/BokkyPooBahsDateTimeLibrary/blob/1ea8ef42b3d8db17b910b46e4f8c124b59d77c03/contracts/BokkyPooBahsDateTimeLibrary.sol\":5598:5600  60 */\n      0x3c\n        /* \"https://github.com/bokkypoobah/BokkyPooBahsDateTimeLibrary/blob/1ea8ef42b3d8db17b910b46e4f8c124b59d77c03/contracts/BokkyPooBahsDateTimeLibrary.sol\":5589:5595  second */\n      dup3\n        /* \"https://github.com/bokkypoobah/BokkyPooBahsDateTimeLibrary/blob/1ea8ef42b3d8db17b910b46e4f8c124b59d77c03/contracts/BokkyPooBahsDateTimeLibrary.sol\":5589:5600  second < 60 */\n      lt\n        /* \"https://github.com/bokkypoobah/BokkyPooBahsDateTimeLibrary/blob/1ea8ef42b3d8db17b910b46e4f8c124b59d77c03/contracts/BokkyPooBahsDateTimeLibrary.sol\":5561:5600  hour < 24 && minute < 60 && second < 60 */\n    tag_142:\n        /* \"https://github.com/bokkypoobah/BokkyPooBahsDateTimeLibrary/blob/1ea8ef42b3d8db17b910b46e4f8c124b59d77c03/contracts/BokkyPooBahsDateTimeLibrary.sol\":5557:5647  if (hour < 24 && minute < 60 && second < 60) {... */\n      iszero\n      tag_143\n      jumpi\n        /* \"https://github.com/bokkypoobah/BokkyPooBahsDateTimeLibrary/blob/1ea8ef42b3d8db17b910b46e4f8c124b59d77c03/contracts/BokkyPooBahsDateTimeLibrary.sol\":5628:5632  true */\n      0x1\n        /* \"https://github.com/bokkypoobah/BokkyPooBahsDateTimeLibrary/blob/1ea8ef42b3d8db17b910b46e4f8c124b59d77c03/contracts/BokkyPooBahsDateTimeLibrary.sol\":5620:5632  valid = true */\n      swap1\n      pop\n        /* \"https://github.com/bokkypoobah/BokkyPooBahsDateTimeLibrary/blob/1ea8ef42b3d8db17b910b46e4f8c124b59d77c03/contracts/BokkyPooBahsDateTimeLibrary.sol\":5557:5647  if (hour < 24 && minute < 60 && second < 60) {... */\n    tag_143:\n        /* \"https://github.com/bokkypoobah/BokkyPooBahsDateTimeLibrary/blob/1ea8ef42b3d8db17b910b46e4f8c124b59d77c03/contracts/BokkyPooBahsDateTimeLibrary.sol\":5508:5657  if (isValidDate(year, month, day)) {... */\n    tag_140:\n        /* \"https://github.com/bokkypoobah/BokkyPooBahsDateTimeLibrary/blob/1ea8ef42b3d8db17b910b46e4f8c124b59d77c03/contracts/BokkyPooBahsDateTimeLibrary.sol\":5368:5663  function isValidDateTime(uint year, uint month, uint day, uint hour, uint minute, uint second) internal pure returns (bool valid) {... */\n      swap7\n      swap6\n      pop\n      pop\n      pop\n      pop\n      pop\n      pop\n      jump\t// out\n        /* \"https://github.com/bokkypoobah/BokkyPooBahsDateTimeLibrary/blob/1ea8ef42b3d8db17b910b46e4f8c124b59d77c03/contracts/BokkyPooBahsDateTimeLibrary.sol\":3958:4135  function timestampFromDate(uint year, uint month, uint day) internal pure returns (uint timestamp) {... */\n    tag_92:\n        /* \"https://github.com/bokkypoobah/BokkyPooBahsDateTimeLibrary/blob/1ea8ef42b3d8db17b910b46e4f8c124b59d77c03/contracts/BokkyPooBahsDateTimeLibrary.sol\":4041:4055  uint timestamp */\n      0x0\n        /* \"https://github.com/bokkypoobah/BokkyPooBahsDateTimeLibrary/blob/1ea8ef42b3d8db17b910b46e4f8c124b59d77c03/contracts/BokkyPooBahsDateTimeLibrary.sol\":1058:1070  24 * 60 * 60 */\n      0x15180\n        /* \"https://github.com/bokkypoobah/BokkyPooBahsDateTimeLibrary/blob/1ea8ef42b3d8db17b910b46e4f8c124b59d77c03/contracts/BokkyPooBahsDateTimeLibrary.sol\":4079:4110  _daysFromDate(year, month, day) */\n      tag_145\n        /* \"https://github.com/bokkypoobah/BokkyPooBahsDateTimeLibrary/blob/1ea8ef42b3d8db17b910b46e4f8c124b59d77c03/contracts/BokkyPooBahsDateTimeLibrary.sol\":4093:4097  year */\n      dup6\n        /* \"https://github.com/bokkypoobah/BokkyPooBahsDateTimeLibrary/blob/1ea8ef42b3d8db17b910b46e4f8c124b59d77c03/contracts/BokkyPooBahsDateTimeLibrary.sol\":4099:4104  month */\n      dup6\n        /* \"https://github.com/bokkypoobah/BokkyPooBahsDateTimeLibrary/blob/1ea8ef42b3d8db17b910b46e4f8c124b59d77c03/contracts/BokkyPooBahsDateTimeLibrary.sol\":4106:4109  day */\n      dup6\n        /* \"https://github.com/bokkypoobah/BokkyPooBahsDateTimeLibrary/blob/1ea8ef42b3d8db17b910b46e4f8c124b59d77c03/contracts/BokkyPooBahsDateTimeLibrary.sol\":4079:4092  _daysFromDate */\n      tag_146\n        /* \"https://github.com/bokkypoobah/BokkyPooBahsDateTimeLibrary/blob/1ea8ef42b3d8db17b910b46e4f8c124b59d77c03/contracts/BokkyPooBahsDateTimeLibrary.sol\":4079:4110  _daysFromDate(year, month, day) */\n      jump\t// in\n    tag_145:\n        /* \"https://github.com/bokkypoobah/BokkyPooBahsDateTimeLibrary/blob/1ea8ef42b3d8db17b910b46e4f8c124b59d77c03/contracts/BokkyPooBahsDateTimeLibrary.sol\":4079:4128  _daysFromDate(year, month, day) * SECONDS_PER_DAY */\n      mul\n        /* \"https://github.com/bokkypoobah/BokkyPooBahsDateTimeLibrary/blob/1ea8ef42b3d8db17b910b46e4f8c124b59d77c03/contracts/BokkyPooBahsDateTimeLibrary.sol\":4067:4128  timestamp = _daysFromDate(year, month, day) * SECONDS_PER_DAY */\n      swap1\n      pop\n        /* \"https://github.com/bokkypoobah/BokkyPooBahsDateTimeLibrary/blob/1ea8ef42b3d8db17b910b46e4f8c124b59d77c03/contracts/BokkyPooBahsDateTimeLibrary.sol\":3958:4135  function timestampFromDate(uint year, uint month, uint day) internal pure returns (uint timestamp) {... */\n      swap4\n      swap3\n      pop\n      pop\n      pop\n      jump\t// out\n        /* \"https://github.com/bokkypoobah/BokkyPooBahsDateTimeLibrary/blob/1ea8ef42b3d8db17b910b46e4f8c124b59d77c03/contracts/BokkyPooBahsDateTimeLibrary.sol\":5047:5363  function isValidDate(uint year, uint month, uint day) internal pure returns (bool valid) {... */\n    tag_139:\n        /* \"https://github.com/bokkypoobah/BokkyPooBahsDateTimeLibrary/blob/1ea8ef42b3d8db17b910b46e4f8c124b59d77c03/contracts/BokkyPooBahsDateTimeLibrary.sol\":5124:5134  bool valid */\n      0x0\n        /* \"https://github.com/bokkypoobah/BokkyPooBahsDateTimeLibrary/blob/1ea8ef42b3d8db17b910b46e4f8c124b59d77c03/contracts/BokkyPooBahsDateTimeLibrary.sol\":5206:5222  uint daysInMonth */\n      dup1\n        /* \"https://github.com/bokkypoobah/BokkyPooBahsDateTimeLibrary/blob/1ea8ef42b3d8db17b910b46e4f8c124b59d77c03/contracts/BokkyPooBahsDateTimeLibrary.sol\":5158:5162  1970 */\n      0x7b2\n        /* \"https://github.com/bokkypoobah/BokkyPooBahsDateTimeLibrary/blob/1ea8ef42b3d8db17b910b46e4f8c124b59d77c03/contracts/BokkyPooBahsDateTimeLibrary.sol\":5150:5154  year */\n      dup6\n        /* \"https://github.com/bokkypoobah/BokkyPooBahsDateTimeLibrary/blob/1ea8ef42b3d8db17b910b46e4f8c124b59d77c03/contracts/BokkyPooBahsDateTimeLibrary.sol\":5150:5162  year >= 1970 */\n      lt\n      iszero\n        /* \"https://github.com/bokkypoobah/BokkyPooBahsDateTimeLibrary/blob/1ea8ef42b3d8db17b910b46e4f8c124b59d77c03/contracts/BokkyPooBahsDateTimeLibrary.sol\":5150:5175  year >= 1970 && month > 0 */\n      dup1\n      iszero\n      tag_148\n      jumpi\n      pop\n        /* \"https://github.com/bokkypoobah/BokkyPooBahsDateTimeLibrary/blob/1ea8ef42b3d8db17b910b46e4f8c124b59d77c03/contracts/BokkyPooBahsDateTimeLibrary.sol\":5174:5175  0 */\n      0x0\n        /* \"https://github.com/bokkypoobah/BokkyPooBahsDateTimeLibrary/blob/1ea8ef42b3d8db17b910b46e4f8c124b59d77c03/contracts/BokkyPooBahsDateTimeLibrary.sol\":5166:5171  month */\n      dup5\n        /* \"https://github.com/bokkypoobah/BokkyPooBahsDateTimeLibrary/blob/1ea8ef42b3d8db17b910b46e4f8c124b59d77c03/contracts/BokkyPooBahsDateTimeLibrary.sol\":5166:5175  month > 0 */\n      gt\n        /* \"https://github.com/bokkypoobah/BokkyPooBahsDateTimeLibrary/blob/1ea8ef42b3d8db17b910b46e4f8c124b59d77c03/contracts/BokkyPooBahsDateTimeLibrary.sol\":5150:5175  year >= 1970 && month > 0 */\n    tag_148:\n        /* \"https://github.com/bokkypoobah/BokkyPooBahsDateTimeLibrary/blob/1ea8ef42b3d8db17b910b46e4f8c124b59d77c03/contracts/BokkyPooBahsDateTimeLibrary.sol\":5150:5190  year >= 1970 && month > 0 && month <= 12 */\n      dup1\n      iszero\n      tag_149\n      jumpi\n      pop\n        /* \"https://github.com/bokkypoobah/BokkyPooBahsDateTimeLibrary/blob/1ea8ef42b3d8db17b910b46e4f8c124b59d77c03/contracts/BokkyPooBahsDateTimeLibrary.sol\":5188:5190  12 */\n      0xc\n        /* \"https://github.com/bokkypoobah/BokkyPooBahsDateTimeLibrary/blob/1ea8ef42b3d8db17b910b46e4f8c124b59d77c03/contracts/BokkyPooBahsDateTimeLibrary.sol\":5179:5184  month */\n      dup5\n        /* \"https://github.com/bokkypoobah/BokkyPooBahsDateTimeLibrary/blob/1ea8ef42b3d8db17b910b46e4f8c124b59d77c03/contracts/BokkyPooBahsDateTimeLibrary.sol\":5179:5190  month <= 12 */\n      gt\n      iszero\n        /* \"https://github.com/bokkypoobah/BokkyPooBahsDateTimeLibrary/blob/1ea8ef42b3d8db17b910b46e4f8c124b59d77c03/contracts/BokkyPooBahsDateTimeLibrary.sol\":5150:5190  year >= 1970 && month > 0 && month <= 12 */\n    tag_149:\n        /* \"https://github.com/bokkypoobah/BokkyPooBahsDateTimeLibrary/blob/1ea8ef42b3d8db17b910b46e4f8c124b59d77c03/contracts/BokkyPooBahsDateTimeLibrary.sol\":5146:5357  if (year >= 1970 && month > 0 && month <= 12) {... */\n      iszero\n      tag_150\n      jumpi\n        /* \"https://github.com/bokkypoobah/BokkyPooBahsDateTimeLibrary/blob/1ea8ef42b3d8db17b910b46e4f8c124b59d77c03/contracts/BokkyPooBahsDateTimeLibrary.sol\":5225:5253  _getDaysInMonth(year, month) */\n      tag_151\n        /* \"https://github.com/bokkypoobah/BokkyPooBahsDateTimeLibrary/blob/1ea8ef42b3d8db17b910b46e4f8c124b59d77c03/contracts/BokkyPooBahsDateTimeLibrary.sol\":5241:5245  year */\n      dup6\n        /* \"https://github.com/bokkypoobah/BokkyPooBahsDateTimeLibrary/blob/1ea8ef42b3d8db17b910b46e4f8c124b59d77c03/contracts/BokkyPooBahsDateTimeLibrary.sol\":5247:5252  month */\n      dup6\n        /* \"https://github.com/bokkypoobah/BokkyPooBahsDateTimeLibrary/blob/1ea8ef42b3d8db17b910b46e4f8c124b59d77c03/contracts/BokkyPooBahsDateTimeLibrary.sol\":5225:5240  _getDaysInMonth */\n      tag_152\n        /* \"https://github.com/bokkypoobah/BokkyPooBahsDateTimeLibrary/blob/1ea8ef42b3d8db17b910b46e4f8c124b59d77c03/contracts/BokkyPooBahsDateTimeLibrary.sol\":5225:5253  _getDaysInMonth(year, month) */\n      jump\t// in\n    tag_151:\n        /* \"https://github.com/bokkypoobah/BokkyPooBahsDateTimeLibrary/blob/1ea8ef42b3d8db17b910b46e4f8c124b59d77c03/contracts/BokkyPooBahsDateTimeLibrary.sol\":5206:5253  uint daysInMonth = _getDaysInMonth(year, month) */\n      swap1\n      pop\n        /* \"https://github.com/bokkypoobah/BokkyPooBahsDateTimeLibrary/blob/1ea8ef42b3d8db17b910b46e4f8c124b59d77c03/contracts/BokkyPooBahsDateTimeLibrary.sol\":5277:5278  0 */\n      0x0\n        /* \"https://github.com/bokkypoobah/BokkyPooBahsDateTimeLibrary/blob/1ea8ef42b3d8db17b910b46e4f8c124b59d77c03/contracts/BokkyPooBahsDateTimeLibrary.sol\":5271:5274  day */\n      dup4\n        /* \"https://github.com/bokkypoobah/BokkyPooBahsDateTimeLibrary/blob/1ea8ef42b3d8db17b910b46e4f8c124b59d77c03/contracts/BokkyPooBahsDateTimeLibrary.sol\":5271:5278  day > 0 */\n      gt\n        /* \"https://github.com/bokkypoobah/BokkyPooBahsDateTimeLibrary/blob/1ea8ef42b3d8db17b910b46e4f8c124b59d77c03/contracts/BokkyPooBahsDateTimeLibrary.sol\":5271:5300  day > 0 && day <= daysInMonth */\n      dup1\n      iszero\n      tag_153\n      jumpi\n      pop\n        /* \"https://github.com/bokkypoobah/BokkyPooBahsDateTimeLibrary/blob/1ea8ef42b3d8db17b910b46e4f8c124b59d77c03/contracts/BokkyPooBahsDateTimeLibrary.sol\":5289:5300  daysInMonth */\n      dup1\n        /* \"https://github.com/bokkypoobah/BokkyPooBahsDateTimeLibrary/blob/1ea8ef42b3d8db17b910b46e4f8c124b59d77c03/contracts/BokkyPooBahsDateTimeLibrary.sol\":5282:5285  day */\n      dup4\n        /* \"https://github.com/bokkypoobah/BokkyPooBahsDateTimeLibrary/blob/1ea8ef42b3d8db17b910b46e4f8c124b59d77c03/contracts/BokkyPooBahsDateTimeLibrary.sol\":5282:5300  day <= daysInMonth */\n      gt\n      iszero\n        /* \"https://github.com/bokkypoobah/BokkyPooBahsDateTimeLibrary/blob/1ea8ef42b3d8db17b910b46e4f8c124b59d77c03/contracts/BokkyPooBahsDateTimeLibrary.sol\":5271:5300  day > 0 && day <= daysInMonth */\n    tag_153:\n        /* \"https://github.com/bokkypoobah/BokkyPooBahsDateTimeLibrary/blob/1ea8ef42b3d8db17b910b46e4f8c124b59d77c03/contracts/BokkyPooBahsDateTimeLibrary.sol\":5267:5347  if (day > 0 && day <= daysInMonth) {... */\n      iszero\n      tag_154\n      jumpi\n        /* \"https://github.com/bokkypoobah/BokkyPooBahsDateTimeLibrary/blob/1ea8ef42b3d8db17b910b46e4f8c124b59d77c03/contracts/BokkyPooBahsDateTimeLibrary.sol\":5328:5332  true */\n      0x1\n        /* \"https://github.com/bokkypoobah/BokkyPooBahsDateTimeLibrary/blob/1ea8ef42b3d8db17b910b46e4f8c124b59d77c03/contracts/BokkyPooBahsDateTimeLibrary.sol\":5320:5332  valid = true */\n      swap2\n      pop\n        /* \"https://github.com/bokkypoobah/BokkyPooBahsDateTimeLibrary/blob/1ea8ef42b3d8db17b910b46e4f8c124b59d77c03/contracts/BokkyPooBahsDateTimeLibrary.sol\":5267:5347  if (day > 0 && day <= daysInMonth) {... */\n    tag_154:\n        /* \"https://github.com/bokkypoobah/BokkyPooBahsDateTimeLibrary/blob/1ea8ef42b3d8db17b910b46e4f8c124b59d77c03/contracts/BokkyPooBahsDateTimeLibrary.sol\":5146:5357  if (year >= 1970 && month > 0 && month <= 12) {... */\n    tag_150:\n        /* \"https://github.com/bokkypoobah/BokkyPooBahsDateTimeLibrary/blob/1ea8ef42b3d8db17b910b46e4f8c124b59d77c03/contracts/BokkyPooBahsDateTimeLibrary.sol\":5047:5363  function isValidDate(uint year, uint month, uint day) internal pure returns (bool valid) {... */\n      pop\n      swap4\n      swap3\n      pop\n      pop\n      pop\n      jump\t// out\n        /* \"https://github.com/bokkypoobah/BokkyPooBahsDateTimeLibrary/blob/1ea8ef42b3d8db17b910b46e4f8c124b59d77c03/contracts/BokkyPooBahsDateTimeLibrary.sol\":2083:2594  function _daysFromDate(uint year, uint month, uint day) internal pure returns (uint _days) {... */\n    tag_146:\n        /* \"https://github.com/bokkypoobah/BokkyPooBahsDateTimeLibrary/blob/1ea8ef42b3d8db17b910b46e4f8c124b59d77c03/contracts/BokkyPooBahsDateTimeLibrary.sol\":2162:2172  uint _days */\n      0x0\n        /* \"https://github.com/bokkypoobah/BokkyPooBahsDateTimeLibrary/blob/1ea8ef42b3d8db17b910b46e4f8c124b59d77c03/contracts/BokkyPooBahsDateTimeLibrary.sol\":2215:2224  int _year */\n      dup1\n        /* \"https://github.com/bokkypoobah/BokkyPooBahsDateTimeLibrary/blob/1ea8ef42b3d8db17b910b46e4f8c124b59d77c03/contracts/BokkyPooBahsDateTimeLibrary.sol\":2246:2256  int _month */\n      0x0\n        /* \"https://github.com/bokkypoobah/BokkyPooBahsDateTimeLibrary/blob/1ea8ef42b3d8db17b910b46e4f8c124b59d77c03/contracts/BokkyPooBahsDateTimeLibrary.sol\":2279:2287  int _day */\n      dup1\n        /* \"https://github.com/bokkypoobah/BokkyPooBahsDateTimeLibrary/blob/1ea8ef42b3d8db17b910b46e4f8c124b59d77c03/contracts/BokkyPooBahsDateTimeLibrary.sol\":2309:2319  int __days */\n      0x0\n        /* \"https://github.com/bokkypoobah/BokkyPooBahsDateTimeLibrary/blob/1ea8ef42b3d8db17b910b46e4f8c124b59d77c03/contracts/BokkyPooBahsDateTimeLibrary.sol\":2200:2204  1970 */\n      0x7b2\n        /* \"https://github.com/bokkypoobah/BokkyPooBahsDateTimeLibrary/blob/1ea8ef42b3d8db17b910b46e4f8c124b59d77c03/contracts/BokkyPooBahsDateTimeLibrary.sol\":2192:2196  year */\n      dup9\n        /* \"https://github.com/bokkypoobah/BokkyPooBahsDateTimeLibrary/blob/1ea8ef42b3d8db17b910b46e4f8c124b59d77c03/contracts/BokkyPooBahsDateTimeLibrary.sol\":2192:2204  year >= 1970 */\n      lt\n      iszero\n        /* \"https://github.com/bokkypoobah/BokkyPooBahsDateTimeLibrary/blob/1ea8ef42b3d8db17b910b46e4f8c124b59d77c03/contracts/BokkyPooBahsDateTimeLibrary.sol\":2184:2205  require(year >= 1970) */\n      iszero\n      iszero\n      tag_156\n      jumpi\n      0x0\n      dup1\n      revert\n    tag_156:\n        /* \"https://github.com/bokkypoobah/BokkyPooBahsDateTimeLibrary/blob/1ea8ef42b3d8db17b910b46e4f8c124b59d77c03/contracts/BokkyPooBahsDateTimeLibrary.sol\":2231:2235  year */\n      dup8\n        /* \"https://github.com/bokkypoobah/BokkyPooBahsDateTimeLibrary/blob/1ea8ef42b3d8db17b910b46e4f8c124b59d77c03/contracts/BokkyPooBahsDateTimeLibrary.sol\":2215:2236  int _year = int(year) */\n      swap4\n      pop\n        /* \"https://github.com/bokkypoobah/BokkyPooBahsDateTimeLibrary/blob/1ea8ef42b3d8db17b910b46e4f8c124b59d77c03/contracts/BokkyPooBahsDateTimeLibrary.sol\":2263:2268  month */\n      dup7\n        /* \"https://github.com/bokkypoobah/BokkyPooBahsDateTimeLibrary/blob/1ea8ef42b3d8db17b910b46e4f8c124b59d77c03/contracts/BokkyPooBahsDateTimeLibrary.sol\":2246:2269  int _month = int(month) */\n      swap3\n      pop\n        /* \"https://github.com/bokkypoobah/BokkyPooBahsDateTimeLibrary/blob/1ea8ef42b3d8db17b910b46e4f8c124b59d77c03/contracts/BokkyPooBahsDateTimeLibrary.sol\":2294:2297  day */\n      dup6\n        /* \"https://github.com/bokkypoobah/BokkyPooBahsDateTimeLibrary/blob/1ea8ef42b3d8db17b910b46e4f8c124b59d77c03/contracts/BokkyPooBahsDateTimeLibrary.sol\":2279:2298  int _day = int(day) */\n      swap2\n      pop\n        /* \"https://github.com/bokkypoobah/BokkyPooBahsDateTimeLibrary/blob/1ea8ef42b3d8db17b910b46e4f8c124b59d77c03/contracts/BokkyPooBahsDateTimeLibrary.sol\":1195:1202  2440588 */\n      0x253d8c\n        /* \"https://github.com/bokkypoobah/BokkyPooBahsDateTimeLibrary/blob/1ea8ef42b3d8db17b910b46e4f8c124b59d77c03/contracts/BokkyPooBahsDateTimeLibrary.sol\":2528:2529  4 */\n      0x4\n        /* \"https://github.com/bokkypoobah/BokkyPooBahsDateTimeLibrary/blob/1ea8ef42b3d8db17b910b46e4f8c124b59d77c03/contracts/BokkyPooBahsDateTimeLibrary.sol\":2521:2524  100 */\n      0x64\n        /* \"https://github.com/bokkypoobah/BokkyPooBahsDateTimeLibrary/blob/1ea8ef42b3d8db17b910b46e4f8c124b59d77c03/contracts/BokkyPooBahsDateTimeLibrary.sol\":2515:2517  12 */\n      0xc\n        /* \"https://github.com/bokkypoobah/BokkyPooBahsDateTimeLibrary/blob/1ea8ef42b3d8db17b910b46e4f8c124b59d77c03/contracts/BokkyPooBahsDateTimeLibrary.sol\":2509:2511  14 */\n      0xe\n        /* \"https://github.com/bokkypoobah/BokkyPooBahsDateTimeLibrary/blob/1ea8ef42b3d8db17b910b46e4f8c124b59d77c03/contracts/BokkyPooBahsDateTimeLibrary.sol\":2500:2506  _month */\n      dup8\n        /* \"https://github.com/bokkypoobah/BokkyPooBahsDateTimeLibrary/blob/1ea8ef42b3d8db17b910b46e4f8c124b59d77c03/contracts/BokkyPooBahsDateTimeLibrary.sol\":2500:2511  _month - 14 */\n      sub\n        /* \"https://github.com/bokkypoobah/BokkyPooBahsDateTimeLibrary/blob/1ea8ef42b3d8db17b910b46e4f8c124b59d77c03/contracts/BokkyPooBahsDateTimeLibrary.sol\":2499:2517  (_month - 14) / 12 */\n      dup2\n      iszero\n      iszero\n      tag_157\n      jumpi\n      invalid\n    tag_157:\n      sdiv\n        /* \"https://github.com/bokkypoobah/BokkyPooBahsDateTimeLibrary/blob/1ea8ef42b3d8db17b910b46e4f8c124b59d77c03/contracts/BokkyPooBahsDateTimeLibrary.sol\":2492:2496  4900 */\n      0x1324\n        /* \"https://github.com/bokkypoobah/BokkyPooBahsDateTimeLibrary/blob/1ea8ef42b3d8db17b910b46e4f8c124b59d77c03/contracts/BokkyPooBahsDateTimeLibrary.sol\":2484:2489  _year */\n      dup9\n        /* \"https://github.com/bokkypoobah/BokkyPooBahsDateTimeLibrary/blob/1ea8ef42b3d8db17b910b46e4f8c124b59d77c03/contracts/BokkyPooBahsDateTimeLibrary.sol\":2484:2496  _year + 4900 */\n      add\n        /* \"https://github.com/bokkypoobah/BokkyPooBahsDateTimeLibrary/blob/1ea8ef42b3d8db17b910b46e4f8c124b59d77c03/contracts/BokkyPooBahsDateTimeLibrary.sol\":2484:2517  _year + 4900 + (_month - 14) / 12 */\n      add\n        /* \"https://github.com/bokkypoobah/BokkyPooBahsDateTimeLibrary/blob/1ea8ef42b3d8db17b910b46e4f8c124b59d77c03/contracts/BokkyPooBahsDateTimeLibrary.sol\":2483:2524  (_year + 4900 + (_month - 14) / 12) / 100 */\n      dup2\n      iszero\n      iszero\n      tag_158\n      jumpi\n      invalid\n    tag_158:\n      sdiv\n        /* \"https://github.com/bokkypoobah/BokkyPooBahsDateTimeLibrary/blob/1ea8ef42b3d8db17b910b46e4f8c124b59d77c03/contracts/BokkyPooBahsDateTimeLibrary.sol\":2478:2479  3 */\n      0x3\n        /* \"https://github.com/bokkypoobah/BokkyPooBahsDateTimeLibrary/blob/1ea8ef42b3d8db17b910b46e4f8c124b59d77c03/contracts/BokkyPooBahsDateTimeLibrary.sol\":2478:2525  3 * ((_year + 4900 + (_month - 14) / 12) / 100) */\n      mul\n        /* \"https://github.com/bokkypoobah/BokkyPooBahsDateTimeLibrary/blob/1ea8ef42b3d8db17b910b46e4f8c124b59d77c03/contracts/BokkyPooBahsDateTimeLibrary.sol\":2478:2529  3 * ((_year + 4900 + (_month - 14) / 12) / 100) / 4 */\n      dup2\n      iszero\n      iszero\n      tag_159\n      jumpi\n      invalid\n    tag_159:\n      sdiv\n        /* \"https://github.com/bokkypoobah/BokkyPooBahsDateTimeLibrary/blob/1ea8ef42b3d8db17b910b46e4f8c124b59d77c03/contracts/BokkyPooBahsDateTimeLibrary.sol\":2463:2465  12 */\n      0xc\n        /* \"https://github.com/bokkypoobah/BokkyPooBahsDateTimeLibrary/blob/1ea8ef42b3d8db17b910b46e4f8c124b59d77c03/contracts/BokkyPooBahsDateTimeLibrary.sol\":2457:2459  12 */\n      dup1\n        /* \"https://github.com/bokkypoobah/BokkyPooBahsDateTimeLibrary/blob/1ea8ef42b3d8db17b910b46e4f8c124b59d77c03/contracts/BokkyPooBahsDateTimeLibrary.sol\":2452:2454  12 */\n      0xc\n        /* \"https://github.com/bokkypoobah/BokkyPooBahsDateTimeLibrary/blob/1ea8ef42b3d8db17b910b46e4f8c124b59d77c03/contracts/BokkyPooBahsDateTimeLibrary.sol\":2446:2448  14 */\n      0xe\n        /* \"https://github.com/bokkypoobah/BokkyPooBahsDateTimeLibrary/blob/1ea8ef42b3d8db17b910b46e4f8c124b59d77c03/contracts/BokkyPooBahsDateTimeLibrary.sol\":2437:2443  _month */\n      dup9\n        /* \"https://github.com/bokkypoobah/BokkyPooBahsDateTimeLibrary/blob/1ea8ef42b3d8db17b910b46e4f8c124b59d77c03/contracts/BokkyPooBahsDateTimeLibrary.sol\":2437:2448  _month - 14 */\n      sub\n        /* \"https://github.com/bokkypoobah/BokkyPooBahsDateTimeLibrary/blob/1ea8ef42b3d8db17b910b46e4f8c124b59d77c03/contracts/BokkyPooBahsDateTimeLibrary.sol\":2436:2454  (_month - 14) / 12 */\n      dup2\n      iszero\n      iszero\n      tag_160\n      jumpi\n      invalid\n    tag_160:\n      sdiv\n        /* \"https://github.com/bokkypoobah/BokkyPooBahsDateTimeLibrary/blob/1ea8ef42b3d8db17b910b46e4f8c124b59d77c03/contracts/BokkyPooBahsDateTimeLibrary.sol\":2436:2459  (_month - 14) / 12 * 12 */\n      mul\n        /* \"https://github.com/bokkypoobah/BokkyPooBahsDateTimeLibrary/blob/1ea8ef42b3d8db17b910b46e4f8c124b59d77c03/contracts/BokkyPooBahsDateTimeLibrary.sol\":2432:2433  2 */\n      0x2\n        /* \"https://github.com/bokkypoobah/BokkyPooBahsDateTimeLibrary/blob/1ea8ef42b3d8db17b910b46e4f8c124b59d77c03/contracts/BokkyPooBahsDateTimeLibrary.sol\":2423:2429  _month */\n      dup8\n        /* \"https://github.com/bokkypoobah/BokkyPooBahsDateTimeLibrary/blob/1ea8ef42b3d8db17b910b46e4f8c124b59d77c03/contracts/BokkyPooBahsDateTimeLibrary.sol\":2423:2433  _month - 2 */\n      sub\n        /* \"https://github.com/bokkypoobah/BokkyPooBahsDateTimeLibrary/blob/1ea8ef42b3d8db17b910b46e4f8c124b59d77c03/contracts/BokkyPooBahsDateTimeLibrary.sol\":2423:2459  _month - 2 - (_month - 14) / 12 * 12 */\n      sub\n        /* \"https://github.com/bokkypoobah/BokkyPooBahsDateTimeLibrary/blob/1ea8ef42b3d8db17b910b46e4f8c124b59d77c03/contracts/BokkyPooBahsDateTimeLibrary.sol\":2416:2419  367 */\n      0x16f\n        /* \"https://github.com/bokkypoobah/BokkyPooBahsDateTimeLibrary/blob/1ea8ef42b3d8db17b910b46e4f8c124b59d77c03/contracts/BokkyPooBahsDateTimeLibrary.sol\":2416:2460  367 * (_month - 2 - (_month - 14) / 12 * 12) */\n      mul\n        /* \"https://github.com/bokkypoobah/BokkyPooBahsDateTimeLibrary/blob/1ea8ef42b3d8db17b910b46e4f8c124b59d77c03/contracts/BokkyPooBahsDateTimeLibrary.sol\":2416:2465  367 * (_month - 2 - (_month - 14) / 12 * 12) / 12 */\n      dup2\n      iszero\n      iszero\n      tag_161\n      jumpi\n      invalid\n    tag_161:\n      sdiv\n        /* \"https://github.com/bokkypoobah/BokkyPooBahsDateTimeLibrary/blob/1ea8ef42b3d8db17b910b46e4f8c124b59d77c03/contracts/BokkyPooBahsDateTimeLibrary.sol\":2402:2403  4 */\n      0x4\n        /* \"https://github.com/bokkypoobah/BokkyPooBahsDateTimeLibrary/blob/1ea8ef42b3d8db17b910b46e4f8c124b59d77c03/contracts/BokkyPooBahsDateTimeLibrary.sol\":2396:2398  12 */\n      0xc\n        /* \"https://github.com/bokkypoobah/BokkyPooBahsDateTimeLibrary/blob/1ea8ef42b3d8db17b910b46e4f8c124b59d77c03/contracts/BokkyPooBahsDateTimeLibrary.sol\":2390:2392  14 */\n      0xe\n        /* \"https://github.com/bokkypoobah/BokkyPooBahsDateTimeLibrary/blob/1ea8ef42b3d8db17b910b46e4f8c124b59d77c03/contracts/BokkyPooBahsDateTimeLibrary.sol\":2381:2387  _month */\n      dup9\n        /* \"https://github.com/bokkypoobah/BokkyPooBahsDateTimeLibrary/blob/1ea8ef42b3d8db17b910b46e4f8c124b59d77c03/contracts/BokkyPooBahsDateTimeLibrary.sol\":2381:2392  _month - 14 */\n      sub\n        /* \"https://github.com/bokkypoobah/BokkyPooBahsDateTimeLibrary/blob/1ea8ef42b3d8db17b910b46e4f8c124b59d77c03/contracts/BokkyPooBahsDateTimeLibrary.sol\":2380:2398  (_month - 14) / 12 */\n      dup2\n      iszero\n      iszero\n      tag_162\n      jumpi\n      invalid\n    tag_162:\n      sdiv\n        /* \"https://github.com/bokkypoobah/BokkyPooBahsDateTimeLibrary/blob/1ea8ef42b3d8db17b910b46e4f8c124b59d77c03/contracts/BokkyPooBahsDateTimeLibrary.sol\":2373:2377  4800 */\n      0x12c0\n        /* \"https://github.com/bokkypoobah/BokkyPooBahsDateTimeLibrary/blob/1ea8ef42b3d8db17b910b46e4f8c124b59d77c03/contracts/BokkyPooBahsDateTimeLibrary.sol\":2365:2370  _year */\n      dup10\n        /* \"https://github.com/bokkypoobah/BokkyPooBahsDateTimeLibrary/blob/1ea8ef42b3d8db17b910b46e4f8c124b59d77c03/contracts/BokkyPooBahsDateTimeLibrary.sol\":2365:2377  _year + 4800 */\n      add\n        /* \"https://github.com/bokkypoobah/BokkyPooBahsDateTimeLibrary/blob/1ea8ef42b3d8db17b910b46e4f8c124b59d77c03/contracts/BokkyPooBahsDateTimeLibrary.sol\":2365:2398  _year + 4800 + (_month - 14) / 12 */\n      add\n        /* \"https://github.com/bokkypoobah/BokkyPooBahsDateTimeLibrary/blob/1ea8ef42b3d8db17b910b46e4f8c124b59d77c03/contracts/BokkyPooBahsDateTimeLibrary.sol\":2357:2361  1461 */\n      0x5b5\n        /* \"https://github.com/bokkypoobah/BokkyPooBahsDateTimeLibrary/blob/1ea8ef42b3d8db17b910b46e4f8c124b59d77c03/contracts/BokkyPooBahsDateTimeLibrary.sol\":2357:2399  1461 * (_year + 4800 + (_month - 14) / 12) */\n      mul\n        /* \"https://github.com/bokkypoobah/BokkyPooBahsDateTimeLibrary/blob/1ea8ef42b3d8db17b910b46e4f8c124b59d77c03/contracts/BokkyPooBahsDateTimeLibrary.sol\":2357:2403  1461 * (_year + 4800 + (_month - 14) / 12) / 4 */\n      dup2\n      iszero\n      iszero\n      tag_163\n      jumpi\n      invalid\n    tag_163:\n      sdiv\n        /* \"https://github.com/bokkypoobah/BokkyPooBahsDateTimeLibrary/blob/1ea8ef42b3d8db17b910b46e4f8c124b59d77c03/contracts/BokkyPooBahsDateTimeLibrary.sol\":2339:2344  32075 */\n      0x7d4b\n        /* \"https://github.com/bokkypoobah/BokkyPooBahsDateTimeLibrary/blob/1ea8ef42b3d8db17b910b46e4f8c124b59d77c03/contracts/BokkyPooBahsDateTimeLibrary.sol\":2322:2326  _day */\n      dup7\n        /* \"https://github.com/bokkypoobah/BokkyPooBahsDateTimeLibrary/blob/1ea8ef42b3d8db17b910b46e4f8c124b59d77c03/contracts/BokkyPooBahsDateTimeLibrary.sol\":2322:2344  _day... */\n      sub\n        /* \"https://github.com/bokkypoobah/BokkyPooBahsDateTimeLibrary/blob/1ea8ef42b3d8db17b910b46e4f8c124b59d77c03/contracts/BokkyPooBahsDateTimeLibrary.sol\":2322:2403  _day... */\n      add\n        /* \"https://github.com/bokkypoobah/BokkyPooBahsDateTimeLibrary/blob/1ea8ef42b3d8db17b910b46e4f8c124b59d77c03/contracts/BokkyPooBahsDateTimeLibrary.sol\":2322:2465  _day... */\n      add\n        /* \"https://github.com/bokkypoobah/BokkyPooBahsDateTimeLibrary/blob/1ea8ef42b3d8db17b910b46e4f8c124b59d77c03/contracts/BokkyPooBahsDateTimeLibrary.sol\":2322:2529  _day... */\n      sub\n        /* \"https://github.com/bokkypoobah/BokkyPooBahsDateTimeLibrary/blob/1ea8ef42b3d8db17b910b46e4f8c124b59d77c03/contracts/BokkyPooBahsDateTimeLibrary.sol\":2322:2556  _day... */\n      sub\n        /* \"https://github.com/bokkypoobah/BokkyPooBahsDateTimeLibrary/blob/1ea8ef42b3d8db17b910b46e4f8c124b59d77c03/contracts/BokkyPooBahsDateTimeLibrary.sol\":2309:2556  int __days = _day... */\n      swap1\n      pop\n        /* \"https://github.com/bokkypoobah/BokkyPooBahsDateTimeLibrary/blob/1ea8ef42b3d8db17b910b46e4f8c124b59d77c03/contracts/BokkyPooBahsDateTimeLibrary.sol\":2580:2586  __days */\n      dup1\n        /* \"https://github.com/bokkypoobah/BokkyPooBahsDateTimeLibrary/blob/1ea8ef42b3d8db17b910b46e4f8c124b59d77c03/contracts/BokkyPooBahsDateTimeLibrary.sol\":2567:2587  _days = uint(__days) */\n      swap5\n      pop\n        /* \"https://github.com/bokkypoobah/BokkyPooBahsDateTimeLibrary/blob/1ea8ef42b3d8db17b910b46e4f8c124b59d77c03/contracts/BokkyPooBahsDateTimeLibrary.sol\":2083:2594  function _daysFromDate(uint year, uint month, uint day) internal pure returns (uint _days) {... */\n      pop\n      pop\n      pop\n      pop\n      swap4\n      swap3\n      pop\n      pop\n      pop\n      jump\t// out\n        /* \"https://github.com/bokkypoobah/BokkyPooBahsDateTimeLibrary/blob/1ea8ef42b3d8db17b910b46e4f8c124b59d77c03/contracts/BokkyPooBahsDateTimeLibrary.sol\":6631:7014  function _getDaysInMonth(uint year, uint month) internal pure returns (uint daysInMonth) {... */\n    tag_152:\n        /* \"https://github.com/bokkypoobah/BokkyPooBahsDateTimeLibrary/blob/1ea8ef42b3d8db17b910b46e4f8c124b59d77c03/contracts/BokkyPooBahsDateTimeLibrary.sol\":6702:6718  uint daysInMonth */\n      0x0\n        /* \"https://github.com/bokkypoobah/BokkyPooBahsDateTimeLibrary/blob/1ea8ef42b3d8db17b910b46e4f8c124b59d77c03/contracts/BokkyPooBahsDateTimeLibrary.sol\":6743:6744  1 */\n      0x1\n        /* \"https://github.com/bokkypoobah/BokkyPooBahsDateTimeLibrary/blob/1ea8ef42b3d8db17b910b46e4f8c124b59d77c03/contracts/BokkyPooBahsDateTimeLibrary.sol\":6734:6739  month */\n      dup3\n        /* \"https://github.com/bokkypoobah/BokkyPooBahsDateTimeLibrary/blob/1ea8ef42b3d8db17b910b46e4f8c124b59d77c03/contracts/BokkyPooBahsDateTimeLibrary.sol\":6734:6744  month == 1 */\n      eq\n        /* \"https://github.com/bokkypoobah/BokkyPooBahsDateTimeLibrary/blob/1ea8ef42b3d8db17b910b46e4f8c124b59d77c03/contracts/BokkyPooBahsDateTimeLibrary.sol\":6734:6758  month == 1 || month == 3 */\n      dup1\n      tag_165\n      jumpi\n      pop\n        /* \"https://github.com/bokkypoobah/BokkyPooBahsDateTimeLibrary/blob/1ea8ef42b3d8db17b910b46e4f8c124b59d77c03/contracts/BokkyPooBahsDateTimeLibrary.sol\":6757:6758  3 */\n      0x3\n        /* \"https://github.com/bokkypoobah/BokkyPooBahsDateTimeLibrary/blob/1ea8ef42b3d8db17b910b46e4f8c124b59d77c03/contracts/BokkyPooBahsDateTimeLibrary.sol\":6748:6753  month */\n      dup3\n        /* \"https://github.com/bokkypoobah/BokkyPooBahsDateTimeLibrary/blob/1ea8ef42b3d8db17b910b46e4f8c124b59d77c03/contracts/BokkyPooBahsDateTimeLibrary.sol\":6748:6758  month == 3 */\n      eq\n        /* \"https://github.com/bokkypoobah/BokkyPooBahsDateTimeLibrary/blob/1ea8ef42b3d8db17b910b46e4f8c124b59d77c03/contracts/BokkyPooBahsDateTimeLibrary.sol\":6734:6758  month == 1 || month == 3 */\n    tag_165:\n        /* \"https://github.com/bokkypoobah/BokkyPooBahsDateTimeLibrary/blob/1ea8ef42b3d8db17b910b46e4f8c124b59d77c03/contracts/BokkyPooBahsDateTimeLibrary.sol\":6734:6772  month == 1 || month == 3 || month == 5 */\n      dup1\n      tag_166\n      jumpi\n      pop\n        /* \"https://github.com/bokkypoobah/BokkyPooBahsDateTimeLibrary/blob/1ea8ef42b3d8db17b910b46e4f8c124b59d77c03/contracts/BokkyPooBahsDateTimeLibrary.sol\":6771:6772  5 */\n      0x5\n        /* \"https://github.com/bokkypoobah/BokkyPooBahsDateTimeLibrary/blob/1ea8ef42b3d8db17b910b46e4f8c124b59d77c03/contracts/BokkyPooBahsDateTimeLibrary.sol\":6762:6767  month */\n      dup3\n        /* \"https://github.com/bokkypoobah/BokkyPooBahsDateTimeLibrary/blob/1ea8ef42b3d8db17b910b46e4f8c124b59d77c03/contracts/BokkyPooBahsDateTimeLibrary.sol\":6762:6772  month == 5 */\n      eq\n        /* \"https://github.com/bokkypoobah/BokkyPooBahsDateTimeLibrary/blob/1ea8ef42b3d8db17b910b46e4f8c124b59d77c03/contracts/BokkyPooBahsDateTimeLibrary.sol\":6734:6772  month == 1 || month == 3 || month == 5 */\n    tag_166:\n        /* \"https://github.com/bokkypoobah/BokkyPooBahsDateTimeLibrary/blob/1ea8ef42b3d8db17b910b46e4f8c124b59d77c03/contracts/BokkyPooBahsDateTimeLibrary.sol\":6734:6786  month == 1 || month == 3 || month == 5 || month == 7 */\n      dup1\n      tag_167\n      jumpi\n      pop\n        /* \"https://github.com/bokkypoobah/BokkyPooBahsDateTimeLibrary/blob/1ea8ef42b3d8db17b910b46e4f8c124b59d77c03/contracts/BokkyPooBahsDateTimeLibrary.sol\":6785:6786  7 */\n      0x7\n        /* \"https://github.com/bokkypoobah/BokkyPooBahsDateTimeLibrary/blob/1ea8ef42b3d8db17b910b46e4f8c124b59d77c03/contracts/BokkyPooBahsDateTimeLibrary.sol\":6776:6781  month */\n      dup3\n        /* \"https://github.com/bokkypoobah/BokkyPooBahsDateTimeLibrary/blob/1ea8ef42b3d8db17b910b46e4f8c124b59d77c03/contracts/BokkyPooBahsDateTimeLibrary.sol\":6776:6786  month == 7 */\n      eq\n        /* \"https://github.com/bokkypoobah/BokkyPooBahsDateTimeLibrary/blob/1ea8ef42b3d8db17b910b46e4f8c124b59d77c03/contracts/BokkyPooBahsDateTimeLibrary.sol\":6734:6786  month == 1 || month == 3 || month == 5 || month == 7 */\n    tag_167:\n        /* \"https://github.com/bokkypoobah/BokkyPooBahsDateTimeLibrary/blob/1ea8ef42b3d8db17b910b46e4f8c124b59d77c03/contracts/BokkyPooBahsDateTimeLibrary.sol\":6734:6800  month == 1 || month == 3 || month == 5 || month == 7 || month == 8 */\n      dup1\n      tag_168\n      jumpi\n      pop\n        /* \"https://github.com/bokkypoobah/BokkyPooBahsDateTimeLibrary/blob/1ea8ef42b3d8db17b910b46e4f8c124b59d77c03/contracts/BokkyPooBahsDateTimeLibrary.sol\":6799:6800  8 */\n      0x8\n        /* \"https://github.com/bokkypoobah/BokkyPooBahsDateTimeLibrary/blob/1ea8ef42b3d8db17b910b46e4f8c124b59d77c03/contracts/BokkyPooBahsDateTimeLibrary.sol\":6790:6795  month */\n      dup3\n        /* \"https://github.com/bokkypoobah/BokkyPooBahsDateTimeLibrary/blob/1ea8ef42b3d8db17b910b46e4f8c124b59d77c03/contracts/BokkyPooBahsDateTimeLibrary.sol\":6790:6800  month == 8 */\n      eq\n        /* \"https://github.com/bokkypoobah/BokkyPooBahsDateTimeLibrary/blob/1ea8ef42b3d8db17b910b46e4f8c124b59d77c03/contracts/BokkyPooBahsDateTimeLibrary.sol\":6734:6800  month == 1 || month == 3 || month == 5 || month == 7 || month == 8 */\n    tag_168:\n        /* \"https://github.com/bokkypoobah/BokkyPooBahsDateTimeLibrary/blob/1ea8ef42b3d8db17b910b46e4f8c124b59d77c03/contracts/BokkyPooBahsDateTimeLibrary.sol\":6734:6815  month == 1 || month == 3 || month == 5 || month == 7 || month == 8 || month == 10 */\n      dup1\n      tag_169\n      jumpi\n      pop\n        /* \"https://github.com/bokkypoobah/BokkyPooBahsDateTimeLibrary/blob/1ea8ef42b3d8db17b910b46e4f8c124b59d77c03/contracts/BokkyPooBahsDateTimeLibrary.sol\":6813:6815  10 */\n      0xa\n        /* \"https://github.com/bokkypoobah/BokkyPooBahsDateTimeLibrary/blob/1ea8ef42b3d8db17b910b46e4f8c124b59d77c03/contracts/BokkyPooBahsDateTimeLibrary.sol\":6804:6809  month */\n      dup3\n        /* \"https://github.com/bokkypoobah/BokkyPooBahsDateTimeLibrary/blob/1ea8ef42b3d8db17b910b46e4f8c124b59d77c03/contracts/BokkyPooBahsDateTimeLibrary.sol\":6804:6815  month == 10 */\n      eq\n        /* \"https://github.com/bokkypoobah/BokkyPooBahsDateTimeLibrary/blob/1ea8ef42b3d8db17b910b46e4f8c124b59d77c03/contracts/BokkyPooBahsDateTimeLibrary.sol\":6734:6815  month == 1 || month == 3 || month == 5 || month == 7 || month == 8 || month == 10 */\n    tag_169:\n        /* \"https://github.com/bokkypoobah/BokkyPooBahsDateTimeLibrary/blob/1ea8ef42b3d8db17b910b46e4f8c124b59d77c03/contracts/BokkyPooBahsDateTimeLibrary.sol\":6734:6830  month == 1 || month == 3 || month == 5 || month == 7 || month == 8 || month == 10 || month == 12 */\n      dup1\n      tag_170\n      jumpi\n      pop\n        /* \"https://github.com/bokkypoobah/BokkyPooBahsDateTimeLibrary/blob/1ea8ef42b3d8db17b910b46e4f8c124b59d77c03/contracts/BokkyPooBahsDateTimeLibrary.sol\":6828:6830  12 */\n      0xc\n        /* \"https://github.com/bokkypoobah/BokkyPooBahsDateTimeLibrary/blob/1ea8ef42b3d8db17b910b46e4f8c124b59d77c03/contracts/BokkyPooBahsDateTimeLibrary.sol\":6819:6824  month */\n      dup3\n        /* \"https://github.com/bokkypoobah/BokkyPooBahsDateTimeLibrary/blob/1ea8ef42b3d8db17b910b46e4f8c124b59d77c03/contracts/BokkyPooBahsDateTimeLibrary.sol\":6819:6830  month == 12 */\n      eq\n        /* \"https://github.com/bokkypoobah/BokkyPooBahsDateTimeLibrary/blob/1ea8ef42b3d8db17b910b46e4f8c124b59d77c03/contracts/BokkyPooBahsDateTimeLibrary.sol\":6734:6830  month == 1 || month == 3 || month == 5 || month == 7 || month == 8 || month == 10 || month == 12 */\n    tag_170:\n        /* \"https://github.com/bokkypoobah/BokkyPooBahsDateTimeLibrary/blob/1ea8ef42b3d8db17b910b46e4f8c124b59d77c03/contracts/BokkyPooBahsDateTimeLibrary.sol\":6730:7008  if (month == 1 || month == 3 || month == 5 || month == 7 || month == 8 || month == 10 || month == 12) {... */\n      iszero\n      tag_171\n      jumpi\n        /* \"https://github.com/bokkypoobah/BokkyPooBahsDateTimeLibrary/blob/1ea8ef42b3d8db17b910b46e4f8c124b59d77c03/contracts/BokkyPooBahsDateTimeLibrary.sol\":6860:6862  31 */\n      0x1f\n        /* \"https://github.com/bokkypoobah/BokkyPooBahsDateTimeLibrary/blob/1ea8ef42b3d8db17b910b46e4f8c124b59d77c03/contracts/BokkyPooBahsDateTimeLibrary.sol\":6846:6862  daysInMonth = 31 */\n      swap1\n      pop\n        /* \"https://github.com/bokkypoobah/BokkyPooBahsDateTimeLibrary/blob/1ea8ef42b3d8db17b910b46e4f8c124b59d77c03/contracts/BokkyPooBahsDateTimeLibrary.sol\":6730:7008  if (month == 1 || month == 3 || month == 5 || month == 7 || month == 8 || month == 10 || month == 12) {... */\n      jump(tag_172)\n    tag_171:\n        /* \"https://github.com/bokkypoobah/BokkyPooBahsDateTimeLibrary/blob/1ea8ef42b3d8db17b910b46e4f8c124b59d77c03/contracts/BokkyPooBahsDateTimeLibrary.sol\":6892:6893  2 */\n      0x2\n        /* \"https://github.com/bokkypoobah/BokkyPooBahsDateTimeLibrary/blob/1ea8ef42b3d8db17b910b46e4f8c124b59d77c03/contracts/BokkyPooBahsDateTimeLibrary.sol\":6883:6888  month */\n      dup3\n        /* \"https://github.com/bokkypoobah/BokkyPooBahsDateTimeLibrary/blob/1ea8ef42b3d8db17b910b46e4f8c124b59d77c03/contracts/BokkyPooBahsDateTimeLibrary.sol\":6883:6893  month != 2 */\n      eq\n      iszero\n        /* \"https://github.com/bokkypoobah/BokkyPooBahsDateTimeLibrary/blob/1ea8ef42b3d8db17b910b46e4f8c124b59d77c03/contracts/BokkyPooBahsDateTimeLibrary.sol\":6879:7008  if (month != 2) {... */\n      iszero\n      tag_173\n      jumpi\n        /* \"https://github.com/bokkypoobah/BokkyPooBahsDateTimeLibrary/blob/1ea8ef42b3d8db17b910b46e4f8c124b59d77c03/contracts/BokkyPooBahsDateTimeLibrary.sol\":6923:6925  30 */\n      0x1e\n        /* \"https://github.com/bokkypoobah/BokkyPooBahsDateTimeLibrary/blob/1ea8ef42b3d8db17b910b46e4f8c124b59d77c03/contracts/BokkyPooBahsDateTimeLibrary.sol\":6909:6925  daysInMonth = 30 */\n      swap1\n      pop\n        /* \"https://github.com/bokkypoobah/BokkyPooBahsDateTimeLibrary/blob/1ea8ef42b3d8db17b910b46e4f8c124b59d77c03/contracts/BokkyPooBahsDateTimeLibrary.sol\":6879:7008  if (month != 2) {... */\n      jump(tag_174)\n    tag_173:\n        /* \"https://github.com/bokkypoobah/BokkyPooBahsDateTimeLibrary/blob/1ea8ef42b3d8db17b910b46e4f8c124b59d77c03/contracts/BokkyPooBahsDateTimeLibrary.sol\":6970:6987  _isLeapYear(year) */\n      tag_175\n        /* \"https://github.com/bokkypoobah/BokkyPooBahsDateTimeLibrary/blob/1ea8ef42b3d8db17b910b46e4f8c124b59d77c03/contracts/BokkyPooBahsDateTimeLibrary.sol\":6982:6986  year */\n      dup4\n        /* \"https://github.com/bokkypoobah/BokkyPooBahsDateTimeLibrary/blob/1ea8ef42b3d8db17b910b46e4f8c124b59d77c03/contracts/BokkyPooBahsDateTimeLibrary.sol\":6970:6981  _isLeapYear */\n      tag_176\n        /* \"https://github.com/bokkypoobah/BokkyPooBahsDateTimeLibrary/blob/1ea8ef42b3d8db17b910b46e4f8c124b59d77c03/contracts/BokkyPooBahsDateTimeLibrary.sol\":6970:6987  _isLeapYear(year) */\n      jump\t// in\n    tag_175:\n        /* \"https://github.com/bokkypoobah/BokkyPooBahsDateTimeLibrary/blob/1ea8ef42b3d8db17b910b46e4f8c124b59d77c03/contracts/BokkyPooBahsDateTimeLibrary.sol\":6970:6997  _isLeapYear(year) ? 29 : 28 */\n      tag_177\n      jumpi\n        /* \"https://github.com/bokkypoobah/BokkyPooBahsDateTimeLibrary/blob/1ea8ef42b3d8db17b910b46e4f8c124b59d77c03/contracts/BokkyPooBahsDateTimeLibrary.sol\":6995:6997  28 */\n      0x1c\n        /* \"https://github.com/bokkypoobah/BokkyPooBahsDateTimeLibrary/blob/1ea8ef42b3d8db17b910b46e4f8c124b59d77c03/contracts/BokkyPooBahsDateTimeLibrary.sol\":6970:6997  _isLeapYear(year) ? 29 : 28 */\n      jump(tag_178)\n    tag_177:\n        /* \"https://github.com/bokkypoobah/BokkyPooBahsDateTimeLibrary/blob/1ea8ef42b3d8db17b910b46e4f8c124b59d77c03/contracts/BokkyPooBahsDateTimeLibrary.sol\":6990:6992  29 */\n      0x1d\n        /* \"https://github.com/bokkypoobah/BokkyPooBahsDateTimeLibrary/blob/1ea8ef42b3d8db17b910b46e4f8c124b59d77c03/contracts/BokkyPooBahsDateTimeLibrary.sol\":6970:6997  _isLeapYear(year) ? 29 : 28 */\n    tag_178:\n        /* \"https://github.com/bokkypoobah/BokkyPooBahsDateTimeLibrary/blob/1ea8ef42b3d8db17b910b46e4f8c124b59d77c03/contracts/BokkyPooBahsDateTimeLibrary.sol\":6956:6997  daysInMonth = _isLeapYear(year) ? 29 : 28 */\n      0xff\n      and\n      swap1\n      pop\n        /* \"https://github.com/bokkypoobah/BokkyPooBahsDateTimeLibrary/blob/1ea8ef42b3d8db17b910b46e4f8c124b59d77c03/contracts/BokkyPooBahsDateTimeLibrary.sol\":6879:7008  if (month != 2) {... */\n    tag_174:\n        /* \"https://github.com/bokkypoobah/BokkyPooBahsDateTimeLibrary/blob/1ea8ef42b3d8db17b910b46e4f8c124b59d77c03/contracts/BokkyPooBahsDateTimeLibrary.sol\":6730:7008  if (month == 1 || month == 3 || month == 5 || month == 7 || month == 8 || month == 10 || month == 12) {... */\n    tag_172:\n        /* \"https://github.com/bokkypoobah/BokkyPooBahsDateTimeLibrary/blob/1ea8ef42b3d8db17b910b46e4f8c124b59d77c03/contracts/BokkyPooBahsDateTimeLibrary.sol\":6631:7014  function _getDaysInMonth(uint year, uint month) internal pure returns (uint daysInMonth) {... */\n      swap3\n      swap2\n      pop\n      pop\n      jump\t// out\n        /* \"https://github.com/bokkypoobah/BokkyPooBahsDateTimeLibrary/blob/1ea8ef42b3d8db17b910b46e4f8c124b59d77c03/contracts/BokkyPooBahsDateTimeLibrary.sol\":5920:6077  function _isLeapYear(uint year) internal pure returns (bool leapYear) {... */\n    tag_176:\n        /* \"https://github.com/bokkypoobah/BokkyPooBahsDateTimeLibrary/blob/1ea8ef42b3d8db17b910b46e4f8c124b59d77c03/contracts/BokkyPooBahsDateTimeLibrary.sol\":5975:5988  bool leapYear */\n      0x0\n        /* \"https://github.com/bokkypoobah/BokkyPooBahsDateTimeLibrary/blob/1ea8ef42b3d8db17b910b46e4f8c124b59d77c03/contracts/BokkyPooBahsDateTimeLibrary.sol\":6025:6026  0 */\n      dup1\n        /* \"https://github.com/bokkypoobah/BokkyPooBahsDateTimeLibrary/blob/1ea8ef42b3d8db17b910b46e4f8c124b59d77c03/contracts/BokkyPooBahsDateTimeLibrary.sol\":6020:6021  4 */\n      0x4\n        /* \"https://github.com/bokkypoobah/BokkyPooBahsDateTimeLibrary/blob/1ea8ef42b3d8db17b910b46e4f8c124b59d77c03/contracts/BokkyPooBahsDateTimeLibrary.sol\":6013:6017  year */\n      dup4\n        /* \"https://github.com/bokkypoobah/BokkyPooBahsDateTimeLibrary/blob/1ea8ef42b3d8db17b910b46e4f8c124b59d77c03/contracts/BokkyPooBahsDateTimeLibrary.sol\":6013:6021  year % 4 */\n      dup2\n      iszero\n      iszero\n      tag_180\n      jumpi\n      invalid\n    tag_180:\n      mod\n        /* \"https://github.com/bokkypoobah/BokkyPooBahsDateTimeLibrary/blob/1ea8ef42b3d8db17b910b46e4f8c124b59d77c03/contracts/BokkyPooBahsDateTimeLibrary.sol\":6013:6026  year % 4 == 0 */\n      eq\n        /* \"https://github.com/bokkypoobah/BokkyPooBahsDateTimeLibrary/blob/1ea8ef42b3d8db17b910b46e4f8c124b59d77c03/contracts/BokkyPooBahsDateTimeLibrary.sol\":6012:6048  (year % 4 == 0) && (year % 100 != 0) */\n      dup1\n      iszero\n      tag_181\n      jumpi\n      pop\n        /* \"https://github.com/bokkypoobah/BokkyPooBahsDateTimeLibrary/blob/1ea8ef42b3d8db17b910b46e4f8c124b59d77c03/contracts/BokkyPooBahsDateTimeLibrary.sol\":6046:6047  0 */\n      0x0\n        /* \"https://github.com/bokkypoobah/BokkyPooBahsDateTimeLibrary/blob/1ea8ef42b3d8db17b910b46e4f8c124b59d77c03/contracts/BokkyPooBahsDateTimeLibrary.sol\":6039:6042  100 */\n      0x64\n        /* \"https://github.com/bokkypoobah/BokkyPooBahsDateTimeLibrary/blob/1ea8ef42b3d8db17b910b46e4f8c124b59d77c03/contracts/BokkyPooBahsDateTimeLibrary.sol\":6032:6036  year */\n      dup4\n        /* \"https://github.com/bokkypoobah/BokkyPooBahsDateTimeLibrary/blob/1ea8ef42b3d8db17b910b46e4f8c124b59d77c03/contracts/BokkyPooBahsDateTimeLibrary.sol\":6032:6042  year % 100 */\n      dup2\n      iszero\n      iszero\n      tag_182\n      jumpi\n      invalid\n    tag_182:\n      mod\n        /* \"https://github.com/bokkypoobah/BokkyPooBahsDateTimeLibrary/blob/1ea8ef42b3d8db17b910b46e4f8c124b59d77c03/contracts/BokkyPooBahsDateTimeLibrary.sol\":6032:6047  year % 100 != 0 */\n      eq\n      iszero\n        /* \"https://github.com/bokkypoobah/BokkyPooBahsDateTimeLibrary/blob/1ea8ef42b3d8db17b910b46e4f8c124b59d77c03/contracts/BokkyPooBahsDateTimeLibrary.sol\":6012:6048  (year % 4 == 0) && (year % 100 != 0) */\n    tag_181:\n        /* \"https://github.com/bokkypoobah/BokkyPooBahsDateTimeLibrary/blob/1ea8ef42b3d8db17b910b46e4f8c124b59d77c03/contracts/BokkyPooBahsDateTimeLibrary.sol\":6011:6070  ((year % 4 == 0) && (year % 100 != 0)) || (year % 400 == 0) */\n      dup1\n      tag_183\n      jumpi\n      pop\n        /* \"https://github.com/bokkypoobah/BokkyPooBahsDateTimeLibrary/blob/1ea8ef42b3d8db17b910b46e4f8c124b59d77c03/contracts/BokkyPooBahsDateTimeLibrary.sol\":6068:6069  0 */\n      0x0\n        /* \"https://github.com/bokkypoobah/BokkyPooBahsDateTimeLibrary/blob/1ea8ef42b3d8db17b910b46e4f8c124b59d77c03/contracts/BokkyPooBahsDateTimeLibrary.sol\":6061:6064  400 */\n      0x190\n        /* \"https://github.com/bokkypoobah/BokkyPooBahsDateTimeLibrary/blob/1ea8ef42b3d8db17b910b46e4f8c124b59d77c03/contracts/BokkyPooBahsDateTimeLibrary.sol\":6054:6058  year */\n      dup4\n        /* \"https://github.com/bokkypoobah/BokkyPooBahsDateTimeLibrary/blob/1ea8ef42b3d8db17b910b46e4f8c124b59d77c03/contracts/BokkyPooBahsDateTimeLibrary.sol\":6054:6064  year % 400 */\n      dup2\n      iszero\n      iszero\n      tag_184\n      jumpi\n      invalid\n    tag_184:\n      mod\n        /* \"https://github.com/bokkypoobah/BokkyPooBahsDateTimeLibrary/blob/1ea8ef42b3d8db17b910b46e4f8c124b59d77c03/contracts/BokkyPooBahsDateTimeLibrary.sol\":6054:6069  year % 400 == 0 */\n      eq\n        /* \"https://github.com/bokkypoobah/BokkyPooBahsDateTimeLibrary/blob/1ea8ef42b3d8db17b910b46e4f8c124b59d77c03/contracts/BokkyPooBahsDateTimeLibrary.sol\":6011:6070  ((year % 4 == 0) && (year % 100 != 0)) || (year % 400 == 0) */\n    tag_183:\n        /* \"https://github.com/bokkypoobah/BokkyPooBahsDateTimeLibrary/blob/1ea8ef42b3d8db17b910b46e4f8c124b59d77c03/contracts/BokkyPooBahsDateTimeLibrary.sol\":6000:6070  leapYear = ((year % 4 == 0) && (year % 100 != 0)) || (year % 400 == 0) */\n      swap1\n      pop\n        /* \"https://github.com/bokkypoobah/BokkyPooBahsDateTimeLibrary/blob/1ea8ef42b3d8db17b910b46e4f8c124b59d77c03/contracts/BokkyPooBahsDateTimeLibrary.sol\":5920:6077  function _isLeapYear(uint year) internal pure returns (bool leapYear) {... */\n      swap2\n      swap1\n      pop\n      jump\t// out\n        /* \"Auction Project/AuctionPlatform.sol\":387:7194  contract AuctionPlatform{\r... */\n    tag_98:\n      mload(0x40)\n      dataSize(sub_0)\n      dup1\n      dataOffset(sub_0)\n      dup4\n      codecopy\n      add\n      swap1\n      jump\t// out\n    stop\n\n    sub_0: assembly {\n            /* \"Auction Project/Auction2.sol\":226:2901  contract Auction {\r... */\n          mstore(0x40, 0x80)\n            /* \"Auction Project/Auction2.sol\":1328:1600  constructor(string memory _description, uint _startTime, uint _endTime, uint _minBidVal) public {\r... */\n          callvalue\n            /* \"--CODEGEN--\":8:17   */\n          dup1\n            /* \"--CODEGEN--\":5:7   */\n          iszero\n          tag_1\n          jumpi\n            /* \"--CODEGEN--\":30:31   */\n          0x0\n            /* \"--CODEGEN--\":27:28   */\n          dup1\n            /* \"--CODEGEN--\":20:32   */\n          revert\n            /* \"--CODEGEN--\":5:7   */\n        tag_1:\n            /* \"Auction Project/Auction2.sol\":1328:1600  constructor(string memory _description, uint _startTime, uint _endTime, uint _minBidVal) public {\r... */\n          pop\n          mload(0x40)\n          sub(codesize, bytecodeSize)\n          dup1\n          bytecodeSize\n          dup4\n          codecopy\n          dup2\n          add\n          dup1\n          0x40\n          mstore\n          dup2\n          add\n          swap1\n          dup1\n          dup1\n          mload\n          dup3\n          add\n          swap3\n          swap2\n          swap1\n          0x20\n          add\n          dup1\n          mload\n          swap1\n          0x20\n          add\n          swap1\n          swap3\n          swap2\n          swap1\n          dup1\n          mload\n          swap1\n          0x20\n          add\n          swap1\n          swap3\n          swap2\n          swap1\n          dup1\n          mload\n          swap1\n          0x20\n          add\n          swap1\n          swap3\n          swap2\n          swap1\n          pop\n          pop\n          pop\n            /* \"Auction Project/Auction2.sol\":1481:1493  _description */\n          dup4\n            /* \"Auction Project/Auction2.sol\":1467:1478  description */\n          0x0\n            /* \"Auction Project/Auction2.sol\":1467:1493  description = _description */\n          swap1\n          dup1\n          mload\n          swap1\n          0x20\n          add\n          swap1\n          tag_4\n          swap3\n          swap2\n          swap1\n          jump\t// in(tag_5)\n        tag_4:\n          pop\n            /* \"Auction Project/Auction2.sol\":1516:1526  _startTime */\n          dup3\n            /* \"Auction Project/Auction2.sol\":1504:1513  startTime */\n          0x1\n            /* \"Auction Project/Auction2.sol\":1504:1526  startTime = _startTime */\n          dup2\n          swap1\n          sstore\n          pop\n            /* \"Auction Project/Auction2.sol\":1547:1555  _endTime */\n          dup2\n            /* \"Auction Project/Auction2.sol\":1537:1544  endTime */\n          0x2\n            /* \"Auction Project/Auction2.sol\":1537:1555  endTime = _endTime */\n          dup2\n          swap1\n          sstore\n          pop\n            /* \"Auction Project/Auction2.sol\":1578:1588  _minBidVal */\n          dup1\n            /* \"Auction Project/Auction2.sol\":1566:1575  minBidVal */\n          0x3\n            /* \"Auction Project/Auction2.sol\":1566:1588  minBidVal = _minBidVal */\n          dup2\n          swap1\n          sstore\n          pop\n            /* \"Auction Project/Auction2.sol\":1328:1600  constructor(string memory _description, uint _startTime, uint _endTime, uint _minBidVal) public {\r... */\n          pop\n          pop\n          pop\n          pop\n            /* \"Auction Project/Auction2.sol\":226:2901  contract Auction {\r... */\n          jump(tag_6)\n        tag_5:\n          dup3\n          dup1\n          sload\n          0x1\n          dup2\n          0x1\n          and\n          iszero\n          0x100\n          mul\n          sub\n          and\n          0x2\n          swap1\n          div\n          swap1\n          0x0\n          mstore\n          keccak256(0x0, 0x20)\n          swap1\n          0x1f\n          add\n          0x20\n          swap1\n          div\n          dup2\n          add\n          swap3\n          dup3\n          0x1f\n          lt\n          tag_8\n          jumpi\n          dup1\n          mload\n          not(0xff)\n          and\n          dup4\n          dup1\n          add\n          or\n          dup6\n          sstore\n          jump(tag_7)\n        tag_8:\n          dup3\n          dup1\n          add\n          0x1\n          add\n          dup6\n          sstore\n          dup3\n          iszero\n          tag_7\n          jumpi\n          swap2\n          dup3\n          add\n        tag_9:\n          dup3\n          dup2\n          gt\n          iszero\n          tag_10\n          jumpi\n          dup3\n          mload\n          dup3\n          sstore\n          swap2\n          0x20\n          add\n          swap2\n          swap1\n          0x1\n          add\n          swap1\n          jump(tag_9)\n        tag_10:\n        tag_7:\n          pop\n          swap1\n          pop\n          tag_11\n          swap2\n          swap1\n          jump\t// in(tag_12)\n        tag_11:\n          pop\n          swap1\n          jump\t// out\n        tag_12:\n          tag_13\n          swap2\n          swap1\n        tag_14:\n          dup1\n          dup3\n          gt\n          iszero\n          tag_15\n          jumpi\n          0x0\n          dup2\n          0x0\n          swap1\n          sstore\n          pop\n          0x1\n          add\n          jump(tag_14)\n        tag_15:\n          pop\n          swap1\n          jump\n        tag_13:\n          swap1\n          jump\t// out\n        tag_6:\n          dataSize(sub_0)\n          dup1\n          dataOffset(sub_0)\n          0x0\n          codecopy\n          0x0\n          return\n        stop\n\n        sub_0: assembly {\n                /* \"Auction Project/Auction2.sol\":226:2901  contract Auction {\r... */\n              mstore(0x40, 0x80)\n              jumpi(tag_1, lt(calldatasize, 0x4))\n              calldataload(0x0)\n              0x100000000000000000000000000000000000000000000000000000000\n              swap1\n              div\n              0xffffffff\n              and\n              dup1\n              0x409766e6\n              eq\n              tag_2\n              jumpi\n              dup1\n              0x439f5ac2\n              eq\n              tag_3\n              jumpi\n              dup1\n              0x659dd2b4\n              eq\n              tag_4\n              jumpi\n              dup1\n              0x679dbf0c\n              eq\n              tag_5\n              jumpi\n              dup1\n              0xad934674\n              eq\n              tag_6\n              jumpi\n              dup1\n              0xdd06ba1a\n              eq\n              tag_7\n              jumpi\n              dup1\n              0xdee37a8e\n              eq\n              tag_8\n              jumpi\n            tag_1:\n              0x0\n              dup1\n              revert\n                /* \"Auction Project/Auction2.sol\":631:715  function getBidsMade() external view returns(bool){\r... */\n            tag_2:\n              callvalue\n                /* \"--CODEGEN--\":8:17   */\n              dup1\n                /* \"--CODEGEN--\":5:7   */\n              iszero\n              tag_9\n              jumpi\n                /* \"--CODEGEN--\":30:31   */\n              0x0\n                /* \"--CODEGEN--\":27:28   */\n              dup1\n                /* \"--CODEGEN--\":20:32   */\n              revert\n                /* \"--CODEGEN--\":5:7   */\n            tag_9:\n                /* \"Auction Project/Auction2.sol\":631:715  function getBidsMade() external view returns(bool){\r... */\n              pop\n              tag_10\n              jump(tag_11)\n            tag_10:\n              mload(0x40)\n              dup1\n              dup3\n              iszero\n              iszero\n              iszero\n              iszero\n              dup2\n              mstore\n              0x20\n              add\n              swap2\n              pop\n              pop\n              mload(0x40)\n              dup1\n              swap2\n              sub\n              swap1\n              return\n                /* \"Auction Project/Auction2.sol\":721:806  function getEndTime() external view returns(uint256){\r... */\n            tag_3:\n              callvalue\n                /* \"--CODEGEN--\":8:17   */\n              dup1\n                /* \"--CODEGEN--\":5:7   */\n              iszero\n              tag_12\n              jumpi\n                /* \"--CODEGEN--\":30:31   */\n              0x0\n                /* \"--CODEGEN--\":27:28   */\n              dup1\n                /* \"--CODEGEN--\":20:32   */\n              revert\n                /* \"--CODEGEN--\":5:7   */\n            tag_12:\n                /* \"Auction Project/Auction2.sol\":721:806  function getEndTime() external view returns(uint256){\r... */\n              pop\n              tag_13\n              jump(tag_14)\n            tag_13:\n              mload(0x40)\n              dup1\n              dup3\n              dup2\n              mstore\n              0x20\n              add\n              swap2\n              pop\n              pop\n              mload(0x40)\n              dup1\n              swap2\n              sub\n              swap1\n              return\n                /* \"Auction Project/Auction2.sol\":1608:1805  function createBid(uint _bidVal) external validBidVal(_bidVal) isActive isBidPresent {\r... */\n            tag_4:\n              callvalue\n                /* \"--CODEGEN--\":8:17   */\n              dup1\n                /* \"--CODEGEN--\":5:7   */\n              iszero\n              tag_15\n              jumpi\n                /* \"--CODEGEN--\":30:31   */\n              0x0\n                /* \"--CODEGEN--\":27:28   */\n              dup1\n                /* \"--CODEGEN--\":20:32   */\n              revert\n                /* \"--CODEGEN--\":5:7   */\n            tag_15:\n                /* \"Auction Project/Auction2.sol\":1608:1805  function createBid(uint _bidVal) external validBidVal(_bidVal) isActive isBidPresent {\r... */\n              pop\n              tag_16\n              0x4\n              dup1\n              calldatasize\n              sub\n              dup2\n              add\n              swap1\n              dup1\n              dup1\n              calldataload\n              swap1\n              0x20\n              add\n              swap1\n              swap3\n              swap2\n              swap1\n              pop\n              pop\n              pop\n              jump(tag_17)\n            tag_16:\n              stop\n                /* \"Auction Project/Auction2.sol\":1032:1318  function getListOfBids() external isActive view returns(uint[]){\r... */\n            tag_5:\n              callvalue\n                /* \"--CODEGEN--\":8:17   */\n              dup1\n                /* \"--CODEGEN--\":5:7   */\n              iszero\n              tag_18\n              jumpi\n                /* \"--CODEGEN--\":30:31   */\n              0x0\n                /* \"--CODEGEN--\":27:28   */\n              dup1\n                /* \"--CODEGEN--\":20:32   */\n              revert\n                /* \"--CODEGEN--\":5:7   */\n            tag_18:\n                /* \"Auction Project/Auction2.sol\":1032:1318  function getListOfBids() external isActive view returns(uint[]){\r... */\n              pop\n              tag_19\n              jump(tag_20)\n            tag_19:\n              mload(0x40)\n              dup1\n              dup1\n              0x20\n              add\n              dup3\n              dup2\n              sub\n              dup3\n              mstore\n              dup4\n              dup2\n              dup2\n              mload\n              dup2\n              mstore\n              0x20\n              add\n              swap2\n              pop\n              dup1\n              mload\n              swap1\n              0x20\n              add\n              swap1\n              0x20\n              mul\n              dup1\n              dup4\n              dup4\n                /* \"--CODEGEN--\":23:24   */\n              0x0\n                /* \"--CODEGEN--\":8:108   */\n            tag_21:\n                /* \"--CODEGEN--\":33:36   */\n              dup4\n                /* \"--CODEGEN--\":30:31   */\n              dup2\n                /* \"--CODEGEN--\":27:37   */\n              lt\n                /* \"--CODEGEN--\":8:108   */\n              iszero\n              tag_22\n              jumpi\n                /* \"--CODEGEN--\":99:100   */\n              dup1\n                /* \"--CODEGEN--\":94:97   */\n              dup3\n                /* \"--CODEGEN--\":90:101   */\n              add\n                /* \"--CODEGEN--\":84:102   */\n              mload\n                /* \"--CODEGEN--\":80:81   */\n              dup2\n                /* \"--CODEGEN--\":75:78   */\n              dup5\n                /* \"--CODEGEN--\":71:82   */\n              add\n                /* \"--CODEGEN--\":64:103   */\n              mstore\n                /* \"--CODEGEN--\":52:54   */\n              0x20\n                /* \"--CODEGEN--\":49:50   */\n              dup2\n                /* \"--CODEGEN--\":45:55   */\n              add\n                /* \"--CODEGEN--\":40:55   */\n              swap1\n              pop\n                /* \"--CODEGEN--\":8:108   */\n              jump(tag_21)\n            tag_22:\n                /* \"--CODEGEN--\":12:26   */\n              pop\n                /* \"Auction Project/Auction2.sol\":1032:1318  function getListOfBids() external isActive view returns(uint[]){\r... */\n              pop\n              pop\n              pop\n              swap1\n              pop\n              add\n              swap3\n              pop\n              pop\n              pop\n              mload(0x40)\n              dup1\n              swap2\n              sub\n              swap1\n              return\n                /* \"Auction Project/Auction2.sol\":929:1024  function getMinBidVal() external isActive view returns(uint){\r... */\n            tag_6:\n              callvalue\n                /* \"--CODEGEN--\":8:17   */\n              dup1\n                /* \"--CODEGEN--\":5:7   */\n              iszero\n              tag_24\n              jumpi\n                /* \"--CODEGEN--\":30:31   */\n              0x0\n                /* \"--CODEGEN--\":27:28   */\n              dup1\n                /* \"--CODEGEN--\":20:32   */\n              revert\n                /* \"--CODEGEN--\":5:7   */\n            tag_24:\n                /* \"Auction Project/Auction2.sol\":929:1024  function getMinBidVal() external isActive view returns(uint){\r... */\n              pop\n              tag_25\n              jump(tag_26)\n            tag_25:\n              mload(0x40)\n              dup1\n              dup3\n              dup2\n              mstore\n              0x20\n              add\n              swap2\n              pop\n              pop\n              mload(0x40)\n              dup1\n              swap2\n              sub\n              swap1\n              return\n                /* \"Auction Project/Auction2.sol\":2179:2418  function getMaximumBid() external isActive view returns(uint){\r... */\n            tag_7:\n              callvalue\n                /* \"--CODEGEN--\":8:17   */\n              dup1\n                /* \"--CODEGEN--\":5:7   */\n              iszero\n              tag_27\n              jumpi\n                /* \"--CODEGEN--\":30:31   */\n              0x0\n                /* \"--CODEGEN--\":27:28   */\n              dup1\n                /* \"--CODEGEN--\":20:32   */\n              revert\n                /* \"--CODEGEN--\":5:7   */\n            tag_27:\n                /* \"Auction Project/Auction2.sol\":2179:2418  function getMaximumBid() external isActive view returns(uint){\r... */\n              pop\n              tag_28\n              jump(tag_29)\n            tag_28:\n              mload(0x40)\n              dup1\n              dup3\n              dup2\n              mstore\n              0x20\n              add\n              swap2\n              pop\n              pop\n              mload(0x40)\n              dup1\n              swap2\n              sub\n              swap1\n              return\n                /* \"Auction Project/Auction2.sol\":1813:2171  function endAuctionWithSelectedBid(uint bid) external isActive returns(address){\r... */\n            tag_8:\n              callvalue\n                /* \"--CODEGEN--\":8:17   */\n              dup1\n                /* \"--CODEGEN--\":5:7   */\n              iszero\n              tag_30\n              jumpi\n                /* \"--CODEGEN--\":30:31   */\n              0x0\n                /* \"--CODEGEN--\":27:28   */\n              dup1\n                /* \"--CODEGEN--\":20:32   */\n              revert\n                /* \"--CODEGEN--\":5:7   */\n            tag_30:\n                /* \"Auction Project/Auction2.sol\":1813:2171  function endAuctionWithSelectedBid(uint bid) external isActive returns(address){\r... */\n              pop\n              tag_31\n              0x4\n              dup1\n              calldatasize\n              sub\n              dup2\n              add\n              swap1\n              dup1\n              dup1\n              calldataload\n              swap1\n              0x20\n              add\n              swap1\n              swap3\n              swap2\n              swap1\n              pop\n              pop\n              pop\n              jump(tag_32)\n            tag_31:\n              mload(0x40)\n              dup1\n              dup3\n              0xffffffffffffffffffffffffffffffffffffffff\n              and\n              0xffffffffffffffffffffffffffffffffffffffff\n              and\n              dup2\n              mstore\n              0x20\n              add\n              swap2\n              pop\n              pop\n              mload(0x40)\n              dup1\n              swap2\n              sub\n              swap1\n              return\n                /* \"Auction Project/Auction2.sol\":631:715  function getBidsMade() external view returns(bool){\r... */\n            tag_11:\n                /* \"Auction Project/Auction2.sol\":676:680  bool */\n              0x0\n                /* \"Auction Project/Auction2.sol\":699:707  bidsMade */\n              0x4\n              0x0\n              swap1\n              sload\n              swap1\n              0x100\n              exp\n              swap1\n              div\n              0xff\n              and\n                /* \"Auction Project/Auction2.sol\":692:707  return bidsMade */\n              swap1\n              pop\n                /* \"Auction Project/Auction2.sol\":631:715  function getBidsMade() external view returns(bool){\r... */\n              swap1\n              jump\t// out\n                /* \"Auction Project/Auction2.sol\":721:806  function getEndTime() external view returns(uint256){\r... */\n            tag_14:\n                /* \"Auction Project/Auction2.sol\":765:772  uint256 */\n              0x0\n                /* \"Auction Project/Auction2.sol\":791:798  endTime */\n              sload(0x2)\n                /* \"Auction Project/Auction2.sol\":784:798  return endTime */\n              swap1\n              pop\n                /* \"Auction Project/Auction2.sol\":721:806  function getEndTime() external view returns(uint256){\r... */\n              swap1\n              jump\t// out\n                /* \"Auction Project/Auction2.sol\":1608:1805  function createBid(uint _bidVal) external validBidVal(_bidVal) isActive isBidPresent {\r... */\n            tag_17:\n                /* \"Auction Project/Auction2.sol\":1662:1669  _bidVal */\n              dup1\n                /* \"Auction Project/Auction2.sol\":2788:2797  minBidVal */\n              sload(0x3)\n                /* \"Auction Project/Auction2.sol\":2778:2785  _bidVal */\n              dup2\n                /* \"Auction Project/Auction2.sol\":2778:2797  _bidVal > minBidVal */\n              gt\n                /* \"Auction Project/Auction2.sol\":2770:2870  require(_bidVal > minBidVal,\"Please enter a bid greater than minimum required bid of given auction\") */\n              iszero\n              iszero\n              tag_36\n              jumpi\n              mload(0x40)\n              0x8c379a000000000000000000000000000000000000000000000000000000000\n              dup2\n              mstore\n              0x4\n              add\n              dup1\n              dup1\n              0x20\n              add\n              dup3\n              dup2\n              sub\n              dup3\n              mstore\n              0x45\n              dup2\n              mstore\n              0x20\n              add\n              dup1\n              0x506c6561736520656e7465722061206269642067726561746572207468616e20\n              dup2\n              mstore\n              0x20\n              add\n              0x6d696e696d756d20726571756972656420626964206f6620676976656e206175\n              dup2\n              mstore\n              0x20\n              add\n              0x6374696f6e000000000000000000000000000000000000000000000000000000\n              dup2\n              mstore\n              pop\n              0x60\n              add\n              swap2\n              pop\n              pop\n              mload(0x40)\n              dup1\n              swap2\n              sub\n              swap1\n              revert\n            tag_36:\n                /* \"Auction Project/Auction2.sol\":2482:2489  endTime */\n              sload(0x2)\n                /* \"Auction Project/Auction2.sol\":2464:2479  block.timestamp */\n              timestamp\n                /* \"Auction Project/Auction2.sol\":2464:2489  block.timestamp < endTime */\n              lt\n                /* \"Auction Project/Auction2.sol\":2456:2513  require(block.timestamp < endTime,\"Auction is Inactive \") */\n              iszero\n              iszero\n              tag_38\n              jumpi\n              mload(0x40)\n              0x8c379a000000000000000000000000000000000000000000000000000000000\n              dup2\n              mstore\n              0x4\n              add\n              dup1\n              dup1\n              0x20\n              add\n              dup3\n              dup2\n              sub\n              dup3\n              mstore\n              0x14\n              dup2\n              mstore\n              0x20\n              add\n              dup1\n              0x41756374696f6e20697320496e61637469766520000000000000000000000000\n              dup2\n              mstore\n              pop\n              0x20\n              add\n              swap2\n              pop\n              pop\n              mload(0x40)\n              dup1\n              swap2\n              sub\n              swap1\n              revert\n            tag_38:\n                /* \"Auction Project/Auction2.sol\":2600:2601  0 */\n              0x0\n                /* \"Auction Project/Auction2.sol\":2583:2587  bids */\n              0x5\n                /* \"Auction Project/Auction2.sol\":2583:2598  bids[tx.origin] */\n              0x0\n                /* \"Auction Project/Auction2.sol\":2588:2597  tx.origin */\n              origin\n                /* \"Auction Project/Auction2.sol\":2583:2598  bids[tx.origin] */\n              0xffffffffffffffffffffffffffffffffffffffff\n              and\n              0xffffffffffffffffffffffffffffffffffffffff\n              and\n              dup2\n              mstore\n              0x20\n              add\n              swap1\n              dup2\n              mstore\n              0x20\n              add\n              0x0\n              keccak256\n              sload\n                /* \"Auction Project/Auction2.sol\":2583:2601  bids[tx.origin]==0 */\n              eq\n                /* \"Auction Project/Auction2.sol\":2575:2635  require(bids[tx.origin]==0,\"You have already created a bid\") */\n              iszero\n              iszero\n              tag_40\n              jumpi\n              mload(0x40)\n              0x8c379a000000000000000000000000000000000000000000000000000000000\n              dup2\n              mstore\n              0x4\n              add\n              dup1\n              dup1\n              0x20\n              add\n              dup3\n              dup2\n              sub\n              dup3\n              mstore\n              0x1e\n              dup2\n              mstore\n              0x20\n              add\n              dup1\n              0x596f75206861766520616c726561647920637265617465642061206269640000\n              dup2\n              mstore\n              pop\n              0x20\n              add\n              swap2\n              pop\n              pop\n              mload(0x40)\n              dup1\n              swap2\n              sub\n              swap1\n              revert\n            tag_40:\n                /* \"Auction Project/Auction2.sol\":1717:1721  true */\n              0x1\n                /* \"Auction Project/Auction2.sol\":1706:1714  bidsMade */\n              0x4\n              0x0\n                /* \"Auction Project/Auction2.sol\":1706:1721  bidsMade = true */\n              0x100\n              exp\n              dup2\n              sload\n              dup2\n              0xff\n              mul\n              not\n              and\n              swap1\n              dup4\n              iszero\n              iszero\n              mul\n              or\n              swap1\n              sstore\n              pop\n                /* \"Auction Project/Auction2.sol\":1750:1757  _bidVal */\n              dup2\n                /* \"Auction Project/Auction2.sol\":1732:1736  bids */\n              0x5\n                /* \"Auction Project/Auction2.sol\":1732:1747  bids[tx.origin] */\n              0x0\n                /* \"Auction Project/Auction2.sol\":1737:1746  tx.origin */\n              origin\n                /* \"Auction Project/Auction2.sol\":1732:1747  bids[tx.origin] */\n              0xffffffffffffffffffffffffffffffffffffffff\n              and\n              0xffffffffffffffffffffffffffffffffffffffff\n              and\n              dup2\n              mstore\n              0x20\n              add\n              swap1\n              dup2\n              mstore\n              0x20\n              add\n              0x0\n              keccak256\n                /* \"Auction Project/Auction2.sol\":1732:1757  bids[tx.origin] = _bidVal */\n              dup2\n              swap1\n              sstore\n              pop\n                /* \"Auction Project/Auction2.sol\":1768:1779  biddersList */\n              0x6\n                /* \"Auction Project/Auction2.sol\":1785:1794  tx.origin */\n              origin\n                /* \"Auction Project/Auction2.sol\":1768:1795  biddersList.push(tx.origin) */\n              swap1\n              dup1\n                /* \"--CODEGEN--\":39:40   */\n              0x1\n                /* \"--CODEGEN--\":33:36   */\n              dup2\n                /* \"--CODEGEN--\":27:37   */\n              sload\n                /* \"--CODEGEN--\":23:41   */\n              add\n                /* \"--CODEGEN--\":57:67   */\n              dup1\n                /* \"--CODEGEN--\":52:55   */\n              dup3\n                /* \"--CODEGEN--\":45:68   */\n              sstore\n                /* \"--CODEGEN--\":79:89   */\n              dup1\n                /* \"--CODEGEN--\":72:89   */\n              swap2\n              pop\n                /* \"--CODEGEN--\":0:93   */\n              pop\n                /* \"Auction Project/Auction2.sol\":1768:1795  biddersList.push(tx.origin) */\n              swap1\n              0x1\n              dup3\n              sub\n              swap1\n              0x0\n              mstore\n              keccak256(0x0, 0x20)\n              add\n              0x0\n              swap1\n              swap2\n              swap3\n              swap1\n              swap2\n              swap1\n              swap2\n              0x100\n              exp\n              dup2\n              sload\n              dup2\n              0xffffffffffffffffffffffffffffffffffffffff\n              mul\n              not\n              and\n              swap1\n              dup4\n              0xffffffffffffffffffffffffffffffffffffffff\n              and\n              mul\n              or\n              swap1\n              sstore\n              pop\n              pop\n                /* \"Auction Project/Auction2.sol\":1608:1805  function createBid(uint _bidVal) external validBidVal(_bidVal) isActive isBidPresent {\r... */\n              pop\n              pop\n              jump\t// out\n                /* \"Auction Project/Auction2.sol\":1032:1318  function getListOfBids() external isActive view returns(uint[]){\r... */\n            tag_20:\n                /* \"Auction Project/Auction2.sol\":1088:1094  uint[] */\n              0x60\n                /* \"Auction Project/Auction2.sol\":1116:1134  uint[] memory list */\n              dup1\n                /* \"Auction Project/Auction2.sol\":1184:1190  uint i */\n              0x0\n                /* \"Auction Project/Auction2.sol\":2482:2489  endTime */\n              sload(0x2)\n                /* \"Auction Project/Auction2.sol\":2464:2479  block.timestamp */\n              timestamp\n                /* \"Auction Project/Auction2.sol\":2464:2489  block.timestamp < endTime */\n              lt\n                /* \"Auction Project/Auction2.sol\":2456:2513  require(block.timestamp < endTime,\"Auction is Inactive \") */\n              iszero\n              iszero\n              tag_44\n              jumpi\n              mload(0x40)\n              0x8c379a000000000000000000000000000000000000000000000000000000000\n              dup2\n              mstore\n              0x4\n              add\n              dup1\n              dup1\n              0x20\n              add\n              dup3\n              dup2\n              sub\n              dup3\n              mstore\n              0x14\n              dup2\n              mstore\n              0x20\n              add\n              dup1\n              0x41756374696f6e20697320496e61637469766520000000000000000000000000\n              dup2\n              mstore\n              pop\n              0x20\n              add\n              swap2\n              pop\n              pop\n              mload(0x40)\n              dup1\n              swap2\n              sub\n              swap1\n              revert\n            tag_44:\n                /* \"Auction Project/Auction2.sol\":1148:1159  biddersList */\n              0x6\n                /* \"Auction Project/Auction2.sol\":1148:1166  biddersList.length */\n              dup1\n              sload\n              swap1\n              pop\n                /* \"Auction Project/Auction2.sol\":1137:1167  new uint[](biddersList.length) */\n              mload(0x40)\n              swap1\n              dup1\n              dup3\n              mstore\n              dup1\n              0x20\n              mul\n              0x20\n              add\n              dup3\n              add\n              0x40\n              mstore\n              dup1\n              iszero\n              tag_46\n              jumpi\n              dup2\n              0x20\n              add\n                /* \"--CODEGEN--\":29:31   */\n              0x20\n                /* \"--CODEGEN--\":21:27   */\n              dup3\n                /* \"--CODEGEN--\":17:32   */\n              mul\n                /* \"--CODEGEN--\":117:121   */\n              dup1\n                /* \"--CODEGEN--\":105:115   */\n              codesize\n                /* \"--CODEGEN--\":97:103   */\n              dup4\n                /* \"--CODEGEN--\":88:122   */\n              codecopy\n                /* \"--CODEGEN--\":148:152   */\n              dup1\n                /* \"--CODEGEN--\":140:146   */\n              dup3\n                /* \"--CODEGEN--\":136:153   */\n              add\n                /* \"--CODEGEN--\":126:153   */\n              swap2\n              pop\n                /* \"--CODEGEN--\":0:157   */\n              pop\n                /* \"Auction Project/Auction2.sol\":1137:1167  new uint[](biddersList.length) */\n              swap1\n              pop\n            tag_46:\n              pop\n                /* \"Auction Project/Auction2.sol\":1116:1167  uint[] memory list = new uint[](biddersList.length) */\n              swap2\n              pop\n                /* \"Auction Project/Auction2.sol\":1180:1289  for(uint i;i<biddersList.length;i++){\r... */\n            tag_47:\n                /* \"Auction Project/Auction2.sol\":1193:1204  biddersList */\n              0x6\n                /* \"Auction Project/Auction2.sol\":1193:1211  biddersList.length */\n              dup1\n              sload\n              swap1\n              pop\n                /* \"Auction Project/Auction2.sol\":1191:1192  i */\n              dup2\n                /* \"Auction Project/Auction2.sol\":1191:1211  i<biddersList.length */\n              lt\n                /* \"Auction Project/Auction2.sol\":1180:1289  for(uint i;i<biddersList.length;i++){\r... */\n              iszero\n              tag_48\n              jumpi\n                /* \"Auction Project/Auction2.sol\":1255:1259  bids */\n              0x5\n                /* \"Auction Project/Auction2.sol\":1255:1275  bids[biddersList[i]] */\n              0x0\n                /* \"Auction Project/Auction2.sol\":1260:1271  biddersList */\n              0x6\n                /* \"Auction Project/Auction2.sol\":1272:1273  i */\n              dup4\n                /* \"Auction Project/Auction2.sol\":1260:1274  biddersList[i] */\n              dup2\n              sload\n              dup2\n              lt\n              iszero\n              iszero\n              tag_50\n              jumpi\n              invalid\n            tag_50:\n              swap1\n              0x0\n              mstore\n              keccak256(0x0, 0x20)\n              add\n              0x0\n              swap1\n              sload\n              swap1\n              0x100\n              exp\n              swap1\n              div\n              0xffffffffffffffffffffffffffffffffffffffff\n              and\n                /* \"Auction Project/Auction2.sol\":1255:1275  bids[biddersList[i]] */\n              0xffffffffffffffffffffffffffffffffffffffff\n              and\n              0xffffffffffffffffffffffffffffffffffffffff\n              and\n              dup2\n              mstore\n              0x20\n              add\n              swap1\n              dup2\n              mstore\n              0x20\n              add\n              0x0\n              keccak256\n              sload\n                /* \"Auction Project/Auction2.sol\":1245:1249  list */\n              dup3\n                /* \"Auction Project/Auction2.sol\":1250:1251  i */\n              dup3\n                /* \"Auction Project/Auction2.sol\":1245:1252  list[i] */\n              dup2\n              mload\n              dup2\n              lt\n              iszero\n              iszero\n              tag_52\n              jumpi\n              invalid\n            tag_52:\n              swap1\n              0x20\n              add\n              swap1\n              0x20\n              mul\n              add\n                /* \"Auction Project/Auction2.sol\":1245:1275  list[i] = bids[biddersList[i]] */\n              dup2\n              dup2\n              mstore\n              pop\n              pop\n                /* \"Auction Project/Auction2.sol\":1212:1215  i++ */\n              dup1\n              dup1\n              0x1\n              add\n              swap2\n              pop\n              pop\n                /* \"Auction Project/Auction2.sol\":1180:1289  for(uint i;i<biddersList.length;i++){\r... */\n              jump(tag_47)\n            tag_48:\n                /* \"Auction Project/Auction2.sol\":1306:1310  list */\n              dup2\n                /* \"Auction Project/Auction2.sol\":1299:1310  return list */\n              swap3\n              pop\n                /* \"Auction Project/Auction2.sol\":1032:1318  function getListOfBids() external isActive view returns(uint[]){\r... */\n              pop\n              pop\n              swap1\n              jump\t// out\n                /* \"Auction Project/Auction2.sol\":929:1024  function getMinBidVal() external isActive view returns(uint){\r... */\n            tag_26:\n                /* \"Auction Project/Auction2.sol\":984:988  uint */\n              0x0\n                /* \"Auction Project/Auction2.sol\":2482:2489  endTime */\n              sload(0x2)\n                /* \"Auction Project/Auction2.sol\":2464:2479  block.timestamp */\n              timestamp\n                /* \"Auction Project/Auction2.sol\":2464:2489  block.timestamp < endTime */\n              lt\n                /* \"Auction Project/Auction2.sol\":2456:2513  require(block.timestamp < endTime,\"Auction is Inactive \") */\n              iszero\n              iszero\n              tag_54\n              jumpi\n              mload(0x40)\n              0x8c379a000000000000000000000000000000000000000000000000000000000\n              dup2\n              mstore\n              0x4\n              add\n              dup1\n              dup1\n              0x20\n              add\n              dup3\n              dup2\n              sub\n              dup3\n              mstore\n              0x14\n              dup2\n              mstore\n              0x20\n              add\n              dup1\n              0x41756374696f6e20697320496e61637469766520000000000000000000000000\n              dup2\n              mstore\n              pop\n              0x20\n              add\n              swap2\n              pop\n              pop\n              mload(0x40)\n              dup1\n              swap2\n              sub\n              swap1\n              revert\n            tag_54:\n                /* \"Auction Project/Auction2.sol\":1007:1016  minBidVal */\n              sload(0x3)\n                /* \"Auction Project/Auction2.sol\":1000:1016  return minBidVal */\n              swap1\n              pop\n                /* \"Auction Project/Auction2.sol\":929:1024  function getMinBidVal() external isActive view returns(uint){\r... */\n              swap1\n              jump\t// out\n                /* \"Auction Project/Auction2.sol\":2179:2418  function getMaximumBid() external isActive view returns(uint){\r... */\n            tag_29:\n                /* \"Auction Project/Auction2.sol\":2235:2239  uint */\n              0x0\n                /* \"Auction Project/Auction2.sol\":2253:2264  uint maxBid */\n              dup1\n                /* \"Auction Project/Auction2.sol\":2283:2289  uint i */\n              0x0\n                /* \"Auction Project/Auction2.sol\":2482:2489  endTime */\n              sload(0x2)\n                /* \"Auction Project/Auction2.sol\":2464:2479  block.timestamp */\n              timestamp\n                /* \"Auction Project/Auction2.sol\":2464:2489  block.timestamp < endTime */\n              lt\n                /* \"Auction Project/Auction2.sol\":2456:2513  require(block.timestamp < endTime,\"Auction is Inactive \") */\n              iszero\n              iszero\n              tag_57\n              jumpi\n              mload(0x40)\n              0x8c379a000000000000000000000000000000000000000000000000000000000\n              dup2\n              mstore\n              0x4\n              add\n              dup1\n              dup1\n              0x20\n              add\n              dup3\n              dup2\n              sub\n              dup3\n              mstore\n              0x14\n              dup2\n              mstore\n              0x20\n              add\n              dup1\n              0x41756374696f6e20697320496e61637469766520000000000000000000000000\n              dup2\n              mstore\n              pop\n              0x20\n              add\n              swap2\n              pop\n              pop\n              mload(0x40)\n              dup1\n              swap2\n              sub\n              swap1\n              revert\n            tag_57:\n                /* \"Auction Project/Auction2.sol\":2267:2268  0 */\n              0x0\n                /* \"Auction Project/Auction2.sol\":2253:2268  uint maxBid = 0 */\n              swap2\n              pop\n                /* \"Auction Project/Auction2.sol\":2279:2383  for(uint i;i<biddersList.length;i++){\r... */\n            tag_59:\n                /* \"Auction Project/Auction2.sol\":2292:2303  biddersList */\n              0x6\n                /* \"Auction Project/Auction2.sol\":2292:2310  biddersList.length */\n              dup1\n              sload\n              swap1\n              pop\n                /* \"Auction Project/Auction2.sol\":2290:2291  i */\n              dup2\n                /* \"Auction Project/Auction2.sol\":2290:2310  i<biddersList.length */\n              lt\n                /* \"Auction Project/Auction2.sol\":2279:2383  for(uint i;i<biddersList.length;i++){\r... */\n              iszero\n              tag_60\n              jumpi\n                /* \"Auction Project/Auction2.sol\":2339:2371  max(bids[biddersList[i]],maxBid) */\n              tag_62\n                /* \"Auction Project/Auction2.sol\":2343:2347  bids */\n              0x5\n                /* \"Auction Project/Auction2.sol\":2343:2363  bids[biddersList[i]] */\n              0x0\n                /* \"Auction Project/Auction2.sol\":2348:2359  biddersList */\n              0x6\n                /* \"Auction Project/Auction2.sol\":2360:2361  i */\n              dup5\n                /* \"Auction Project/Auction2.sol\":2348:2362  biddersList[i] */\n              dup2\n              sload\n              dup2\n              lt\n              iszero\n              iszero\n              tag_63\n              jumpi\n              invalid\n            tag_63:\n              swap1\n              0x0\n              mstore\n              keccak256(0x0, 0x20)\n              add\n              0x0\n              swap1\n              sload\n              swap1\n              0x100\n              exp\n              swap1\n              div\n              0xffffffffffffffffffffffffffffffffffffffff\n              and\n                /* \"Auction Project/Auction2.sol\":2343:2363  bids[biddersList[i]] */\n              0xffffffffffffffffffffffffffffffffffffffff\n              and\n              0xffffffffffffffffffffffffffffffffffffffff\n              and\n              dup2\n              mstore\n              0x20\n              add\n              swap1\n              dup2\n              mstore\n              0x20\n              add\n              0x0\n              keccak256\n              sload\n                /* \"Auction Project/Auction2.sol\":2364:2370  maxBid */\n              dup4\n                /* \"Auction Project/Auction2.sol\":2339:2342  max */\n              tag_65\n                /* \"Auction Project/Auction2.sol\":2339:2371  max(bids[biddersList[i]],maxBid) */\n              jump\t// in\n            tag_62:\n                /* \"Auction Project/Auction2.sol\":2330:2371  maxBid = max(bids[biddersList[i]],maxBid) */\n              swap2\n              pop\n                /* \"Auction Project/Auction2.sol\":2311:2314  i++ */\n              dup1\n              dup1\n              0x1\n              add\n              swap2\n              pop\n              pop\n                /* \"Auction Project/Auction2.sol\":2279:2383  for(uint i;i<biddersList.length;i++){\r... */\n              jump(tag_59)\n            tag_60:\n                /* \"Auction Project/Auction2.sol\":2400:2406  maxBid */\n              dup2\n                /* \"Auction Project/Auction2.sol\":2393:2406  return maxBid */\n              swap3\n              pop\n                /* \"Auction Project/Auction2.sol\":2179:2418  function getMaximumBid() external isActive view returns(uint){\r... */\n              pop\n              pop\n              swap1\n              jump\t// out\n                /* \"Auction Project/Auction2.sol\":1813:2171  function endAuctionWithSelectedBid(uint bid) external isActive returns(address){\r... */\n            tag_32:\n                /* \"Auction Project/Auction2.sol\":1884:1891  address */\n              0x0\n                /* \"Auction Project/Auction2.sol\":1939:1953  address winner */\n              dup1\n                /* \"Auction Project/Auction2.sol\":1968:1974  uint i */\n              0x0\n                /* \"Auction Project/Auction2.sol\":2482:2489  endTime */\n              sload(0x2)\n                /* \"Auction Project/Auction2.sol\":2464:2479  block.timestamp */\n              timestamp\n                /* \"Auction Project/Auction2.sol\":2464:2489  block.timestamp < endTime */\n              lt\n                /* \"Auction Project/Auction2.sol\":2456:2513  require(block.timestamp < endTime,\"Auction is Inactive \") */\n              iszero\n              iszero\n              tag_67\n              jumpi\n              mload(0x40)\n              0x8c379a000000000000000000000000000000000000000000000000000000000\n              dup2\n              mstore\n              0x4\n              add\n              dup1\n              dup1\n              0x20\n              add\n              dup3\n              dup2\n              sub\n              dup3\n              mstore\n              0x14\n              dup2\n              mstore\n              0x20\n              add\n              dup1\n              0x41756374696f6e20697320496e61637469766520000000000000000000000000\n              dup2\n              mstore\n              pop\n              0x20\n              add\n              swap2\n              pop\n              pop\n              mload(0x40)\n              dup1\n              swap2\n              sub\n              swap1\n              revert\n            tag_67:\n                /* \"Auction Project/Auction2.sol\":1913:1928  block.timestamp */\n              timestamp\n                /* \"Auction Project/Auction2.sol\":1903:1910  endTime */\n              0x2\n                /* \"Auction Project/Auction2.sol\":1903:1928  endTime = block.timestamp */\n              dup2\n              swap1\n              sstore\n              pop\n                /* \"Auction Project/Auction2.sol\":1976:1977  0 */\n              0x0\n                /* \"Auction Project/Auction2.sol\":1968:1977  uint i =0 */\n              swap1\n              pop\n                /* \"Auction Project/Auction2.sol\":1964:2140  for(uint i =0;i<biddersList.length;i++){\r... */\n            tag_69:\n                /* \"Auction Project/Auction2.sol\":1980:1991  biddersList */\n              0x6\n                /* \"Auction Project/Auction2.sol\":1980:1998  biddersList.length */\n              dup1\n              sload\n              swap1\n              pop\n                /* \"Auction Project/Auction2.sol\":1978:1979  i */\n              dup2\n                /* \"Auction Project/Auction2.sol\":1978:1998  i<biddersList.length */\n              lt\n                /* \"Auction Project/Auction2.sol\":1964:2140  for(uint i =0;i<biddersList.length;i++){\r... */\n              iszero\n              tag_70\n              jumpi\n                /* \"Auction Project/Auction2.sol\":2043:2046  bid */\n              dup4\n                /* \"Auction Project/Auction2.sol\":2021:2025  bids */\n              0x5\n                /* \"Auction Project/Auction2.sol\":2021:2041  bids[biddersList[i]] */\n              0x0\n                /* \"Auction Project/Auction2.sol\":2026:2037  biddersList */\n              0x6\n                /* \"Auction Project/Auction2.sol\":2038:2039  i */\n              dup5\n                /* \"Auction Project/Auction2.sol\":2026:2040  biddersList[i] */\n              dup2\n              sload\n              dup2\n              lt\n              iszero\n              iszero\n              tag_72\n              jumpi\n              invalid\n            tag_72:\n              swap1\n              0x0\n              mstore\n              keccak256(0x0, 0x20)\n              add\n              0x0\n              swap1\n              sload\n              swap1\n              0x100\n              exp\n              swap1\n              div\n              0xffffffffffffffffffffffffffffffffffffffff\n              and\n                /* \"Auction Project/Auction2.sol\":2021:2041  bids[biddersList[i]] */\n              0xffffffffffffffffffffffffffffffffffffffff\n              and\n              0xffffffffffffffffffffffffffffffffffffffff\n              and\n              dup2\n              mstore\n              0x20\n              add\n              swap1\n              dup2\n              mstore\n              0x20\n              add\n              0x0\n              keccak256\n              sload\n                /* \"Auction Project/Auction2.sol\":2021:2046  bids[biddersList[i]]==bid */\n              eq\n                /* \"Auction Project/Auction2.sol\":2018:2129  if(bids[biddersList[i]]==bid){\r... */\n              iszero\n              tag_74\n              jumpi\n                /* \"Auction Project/Auction2.sol\":2075:2086  biddersList */\n              0x6\n                /* \"Auction Project/Auction2.sol\":2087:2088  i */\n              dup2\n                /* \"Auction Project/Auction2.sol\":2075:2089  biddersList[i] */\n              dup2\n              sload\n              dup2\n              lt\n              iszero\n              iszero\n              tag_75\n              jumpi\n              invalid\n            tag_75:\n              swap1\n              0x0\n              mstore\n              keccak256(0x0, 0x20)\n              add\n              0x0\n              swap1\n              sload\n              swap1\n              0x100\n              exp\n              swap1\n              div\n              0xffffffffffffffffffffffffffffffffffffffff\n              and\n                /* \"Auction Project/Auction2.sol\":2066:2089  winner = biddersList[i] */\n              swap2\n              pop\n                /* \"Auction Project/Auction2.sol\":2108:2113  break */\n              jump(tag_70)\n                /* \"Auction Project/Auction2.sol\":2018:2129  if(bids[biddersList[i]]==bid){\r... */\n            tag_74:\n                /* \"Auction Project/Auction2.sol\":1999:2002  i++ */\n              dup1\n              dup1\n              0x1\n              add\n              swap2\n              pop\n              pop\n                /* \"Auction Project/Auction2.sol\":1964:2140  for(uint i =0;i<biddersList.length;i++){\r... */\n              jump(tag_69)\n            tag_70:\n                /* \"Auction Project/Auction2.sol\":2157:2163  winner */\n              dup2\n                /* \"Auction Project/Auction2.sol\":2150:2163  return winner */\n              swap3\n              pop\n                /* \"Auction Project/Auction2.sol\":1813:2171  function endAuctionWithSelectedBid(uint bid) external isActive returns(address){\r... */\n              pop\n              pop\n              swap2\n              swap1\n              pop\n              jump\t// out\n                /* \"Auction Project/Auction2.sol\":814:921  function max(uint256 a, uint256 b) internal pure returns (uint256) {\r... */\n            tag_65:\n                /* \"Auction Project/Auction2.sol\":872:879  uint256 */\n              0x0\n                /* \"Auction Project/Auction2.sol\":904:905  b */\n              dup2\n                /* \"Auction Project/Auction2.sol\":899:900  a */\n              dup4\n                /* \"Auction Project/Auction2.sol\":899:905  a >= b */\n              lt\n              iszero\n                /* \"Auction Project/Auction2.sol\":899:913  a >= b ? a : b */\n              tag_78\n              jumpi\n                /* \"Auction Project/Auction2.sol\":912:913  b */\n              dup2\n                /* \"Auction Project/Auction2.sol\":899:913  a >= b ? a : b */\n              jump(tag_79)\n            tag_78:\n                /* \"Auction Project/Auction2.sol\":908:909  a */\n              dup3\n                /* \"Auction Project/Auction2.sol\":899:913  a >= b ? a : b */\n            tag_79:\n                /* \"Auction Project/Auction2.sol\":892:913  return a >= b ? a : b */\n              swap1\n              pop\n                /* \"Auction Project/Auction2.sol\":814:921  function max(uint256 a, uint256 b) internal pure returns (uint256) {\r... */\n              swap3\n              swap2\n              pop\n              pop\n              jump\t// out\n\n            auxdata: 0xa165627a7a72305820b250695d80d1b8f1596042c2be5facb32adad33817d8fe9637fd5a1c48d752b10029\n        }\n    }\n\n    auxdata: 0xa165627a7a72305820a35e19fdb687ff14caca4c56494cdc5b7759309d7a2bdd3218774110d8bceb9d0029\n}\n",
				"bytecode": {
					"linkReferences": {},
					"object": "60806040526000805534801561001457600080fd5b50612579806100246000396000f30060806040526004361061008e576000357c0100000000000000000000000000000000000000000000000000000000900463ffffffff16806325c0cdaa146100935780637e12a251146100be5780639f635120146100e9578063b9a2de3a14610120578063d1fda9651461018d578063e3a57e65146101f9578063f2f58fcf146102a8578063fe67a54b14610314575b600080fd5b34801561009f57600080fd5b506100a861036b565b6040518082815260200191505060405180910390f35b3480156100ca57600080fd5b506100d3610371565b6040518082815260200191505060405180910390f35b3480156100f557600080fd5b5061011e60048036038101908080359060200190929190803590602001909291905050506105f8565b005b34801561012c57600080fd5b5061014b600480360381019080803590602001909291905050506109da565b604051808273ffffffffffffffffffffffffffffffffffffffff1673ffffffffffffffffffffffffffffffffffffffff16815260200191505060405180910390f35b34801561019957600080fd5b506101a2610bb3565b6040518080602001828103825283818151815260200191508051906020019060200280838360005b838110156101e55780820151818401526020810190506101ca565b505050509050019250505060405180910390f35b34801561020557600080fd5b506102a6600480360381019080803590602001908201803590602001908080601f016020809104026020016040519081016040528093929190818152602001838380828437820191505050505050919291929080359060200190929190803590602001909291908035906020019092919080359060200190929190803590602001909291908035906020019092919080359060200190929190505050610d03565b005b3480156102b457600080fd5b506102bd611118565b6040518080602001828103825283818151815260200191508051906020019060200280838360005b838110156103005780820151818401526020810190506102e5565b505050509050019250505060405180910390f35b34801561032057600080fd5b506103296114e3565b604051808273ffffffffffffffffffffffffffffffffffffffff1673ffffffffffffffffffffffffffffffffffffffff16815260200191505060405180910390f35b60005481565b600080606660003373ffffffffffffffffffffffffffffffffffffffff1673ffffffffffffffffffffffffffffffffffffffff168152602001908152602001600020541415151561042a576040517f08c379a00000000000000000000000000000000000000000000000000000000081526004018080602001828103825260208152602001807f596f7520686176656e2774206372656174656420616e792041756374696f6e7381525060200191505060405180910390fd5b6000606760003373ffffffffffffffffffffffffffffffffffffffff1673ffffffffffffffffffffffffffffffffffffffff16815260200190815260200160002080549050141515156104e5576040517f08c379a00000000000000000000000000000000000000000000000000000000081526004018080602001828103825260178152602001807f596f7520646f6e2774206861766520616e79204269647300000000000000000081525060200191505060405180910390fd5b6001606660003373ffffffffffffffffffffffffffffffffffffffff1673ffffffffffffffffffffffffffffffffffffffff1681526020019081526020016000205460658110151561053357fe5b0160009054906101000a900473ffffffffffffffffffffffffffffffffffffffff1673ffffffffffffffffffffffffffffffffffffffff1663dd06ba1a6040518163ffffffff167c0100000000000000000000000000000000000000000000000000000000028152600401602060405180830381600087803b1580156105b857600080fd5b505af11580156105cc573d6000803e3d6000fd5b505050506040513d60208110156105e257600080fd5b8101908080519060200190929190505050905090565b816065811080156106d657504260018260658110151561061457fe5b0160009054906101000a900473ffffffffffffffffffffffffffffffffffffffff1673ffffffffffffffffffffffffffffffffffffffff1663439f5ac26040518163ffffffff167c0100000000000000000000000000000000000000000000000000000000028152600401602060405180830381600087803b15801561069957600080fd5b505af11580156106ad573d6000803e3d6000fd5b505050506040513d60208110156106c357600080fd5b8101908080519060200190929190505050115b151561074a576040517f08c379a00000000000000000000000000000000000000000000000000000000081526004018080602001828103825260138152602001807f41756374696f6e20697320496e6163746976650000000000000000000000000081525060200191505060405180910390fd5b8160018460658110151561075a57fe5b0160009054906101000a900473ffffffffffffffffffffffffffffffffffffffff1673ffffffffffffffffffffffffffffffffffffffff1663ad9346746040518163ffffffff167c0100000000000000000000000000000000000000000000000000000000028152600401602060405180830381600087803b1580156107df57600080fd5b505af11580156107f3573d6000803e3d6000fd5b505050506040513d602081101561080957600080fd5b81019080805190602001909291905050501015156108b5576040517f08c379a000000000000000000000000000000000000000000000000000000000815260040180806020018281038252603a8152602001807f4269642076616c75652063616e6e6f74206265206c657373207468616e206d6981526020017f6e696e756d206269642076616c7565206f662061756374696f6e00000000000081525060400191505060405180910390fd5b6001836065811015156108c457fe5b0160009054906101000a900473ffffffffffffffffffffffffffffffffffffffff1673ffffffffffffffffffffffffffffffffffffffff1663659dd2b4836040518263ffffffff167c010000000000000000000000000000000000000000000000000000000002815260040180828152602001915050600060405180830381600087803b15801561095457600080fd5b505af1158015610968573d6000803e3d6000fd5b50505050606760003373ffffffffffffffffffffffffffffffffffffffff1673ffffffffffffffffffffffffffffffffffffffff168152602001908152602001600020839080600181540180825580915050906001820390600052602060002001600090919290919091505550505050565b600080606660003373ffffffffffffffffffffffffffffffffffffffff1673ffffffffffffffffffffffffffffffffffffffff1681526020019081526020016000205414151515610a93576040517f08c379a00000000000000000000000000000000000000000000000000000000081526004018080602001828103825260208152602001807f596f7520686176656e2774206372656174656420616e792041756374696f6e7381525060200191505060405180910390fd5b6001606660003373ffffffffffffffffffffffffffffffffffffffff1673ffffffffffffffffffffffffffffffffffffffff16815260200190815260200160002054606581101515610ae157fe5b0160009054906101000a900473ffffffffffffffffffffffffffffffffffffffff1673ffffffffffffffffffffffffffffffffffffffff1663dee37a8e836040518263ffffffff167c010000000000000000000000000000000000000000000000000000000002815260040180828152602001915050602060405180830381600087803b158015610b7157600080fd5b505af1158015610b85573d6000803e3d6000fd5b505050506040513d6020811015610b9b57600080fd5b81019080805190602001909291905050509050919050565b60606000606760003373ffffffffffffffffffffffffffffffffffffffff1673ffffffffffffffffffffffffffffffffffffffff1681526020019081526020016000208054905014151515610c70576040517f08c379a00000000000000000000000000000000000000000000000000000000081526004018080602001828103825260178152602001807f596f7520646f6e2774206861766520616e79204269647300000000000000000081525060200191505060405180910390fd5b606760003373ffffffffffffffffffffffffffffffffffffffff1673ffffffffffffffffffffffffffffffffffffffff168152602001908152602001600020805480602002602001604051908101604052809291908181526020018280548015610cf957602002820191906000526020600020905b815481526020019060010190808311610ce5575b5050505050905090565b600080600080606660003373ffffffffffffffffffffffffffffffffffffffff1673ffffffffffffffffffffffffffffffffffffffff16815260200190815260200160002054141515610de4576040517f08c379a00000000000000000000000000000000000000000000000000000000081526004018080602001828103825260238152602001807f596f75206861766520616c7265616479206372656174656420616e204175637481526020017f696f6e000000000000000000000000000000000000000000000000000000000081525060400191505060405180910390fd5b610df48a8a8a60008060006117cd565b1515610e68576040517f08c379a00000000000000000000000000000000000000000000000000000000081526004018080602001828103825260168152602001807f456e7465722056616c696420537461727420446174650000000000000000000081525060200191505060405180910390fd5b610e7887878760008060006117cd565b1515610eec576040517f08c379a00000000000000000000000000000000000000000000000000000000081526004018080602001828103825260148152602001807f456e7465722056616c696420456e64204461746500000000000000000000000081525060200191505060405180910390fd5b610ef78a8a8a611810565b9250610f04878787611810565b91508242108015610f1457508142105b8015610f1f57508183105b1515610fb9576040517f08c379a000000000000000000000000000000000000000000000000000000000815260040180806020018281038252602e8152602001807f20506c6561736520656e74657220612076616c696420696e74657276616c206681526020017f6f72207468652041756374696f6e00000000000000000000000000000000000081525060400191505060405180910390fd5b6001600054016000819055508a838386610fd1611a14565b8080602001858152602001848152602001838152602001828103825286818151815260200191508051906020019080838360005b83811015611020578082015181840152602081019050611005565b50505050905090810190601f16801561104d5780820380516001836020036101000a031916815260200191505b5095505050505050604051809103906000f080158015611071573d6000803e3d6000fd5b50905080600160005460658110151561108657fe5b0160006101000a81548173ffffffffffffffffffffffffffffffffffffffff021916908373ffffffffffffffffffffffffffffffffffffffff160217905550600054606660003373ffffffffffffffffffffffffffffffffffffffff1673ffffffffffffffffffffffffffffffffffffffff168152602001908152602001600020819055505050505050505050505050565b60606000606660003373ffffffffffffffffffffffffffffffffffffffff1673ffffffffffffffffffffffffffffffffffffffff16815260200190815260200160002054141515156111d2576040517f08c379a00000000000000000000000000000000000000000000000000000000081526004018080602001828103825260208152602001807f596f7520686176656e2774206372656174656420616e792041756374696f6e7381525060200191505060405180910390fd5b6001606660003373ffffffffffffffffffffffffffffffffffffffff1673ffffffffffffffffffffffffffffffffffffffff1681526020019081526020016000205460658110151561122057fe5b0160009054906101000a900473ffffffffffffffffffffffffffffffffffffffff1673ffffffffffffffffffffffffffffffffffffffff1663409766e66040518163ffffffff167c0100000000000000000000000000000000000000000000000000000000028152600401602060405180830381600087803b1580156112a557600080fd5b505af11580156112b9573d6000803e3d6000fd5b505050506040513d60208110156112cf57600080fd5b8101908080519060200190929190505050151561137a576040517f08c379a00000000000000000000000000000000000000000000000000000000081526004018080602001828103825260248152602001807f5468657265206172656e277420616e792062696473206f6e207468652041756381526020017f74696f6e0000000000000000000000000000000000000000000000000000000081525060400191505060405180910390fd5b6001606660003373ffffffffffffffffffffffffffffffffffffffff1673ffffffffffffffffffffffffffffffffffffffff168152602001908152602001600020546065811015156113c857fe5b0160009054906101000a900473ffffffffffffffffffffffffffffffffffffffff1673ffffffffffffffffffffffffffffffffffffffff1663679dbf0c6040518163ffffffff167c0100000000000000000000000000000000000000000000000000000000028152600401600060405180830381600087803b15801561144d57600080fd5b505af1158015611461573d6000803e3d6000fd5b505050506040513d6000823e3d601f19601f82011682018060405250602081101561148b57600080fd5b8101908080516401000000008111156114a357600080fd5b828101905060208101848111156114b957600080fd5b81518560208202830111640100000000821117156114d657600080fd5b5050929190505050905090565b6000806000606660003373ffffffffffffffffffffffffffffffffffffffff1673ffffffffffffffffffffffffffffffffffffffff168152602001908152602001600020541415151561159e576040517f08c379a00000000000000000000000000000000000000000000000000000000081526004018080602001828103825260208152602001807f596f7520686176656e2774206372656174656420616e792041756374696f6e7381525060200191505060405180910390fd5b6001606660003373ffffffffffffffffffffffffffffffffffffffff1673ffffffffffffffffffffffffffffffffffffffff168152602001908152602001600020546065811015156115ec57fe5b0160009054906101000a900473ffffffffffffffffffffffffffffffffffffffff1673ffffffffffffffffffffffffffffffffffffffff1663dd06ba1a6040518163ffffffff167c0100000000000000000000000000000000000000000000000000000000028152600401602060405180830381600087803b15801561167157600080fd5b505af1158015611685573d6000803e3d6000fd5b505050506040513d602081101561169b57600080fd5b810190808051906020019092919050505090506001606660003373ffffffffffffffffffffffffffffffffffffffff1673ffffffffffffffffffffffffffffffffffffffff168152602001908152602001600020546065811015156116fc57fe5b0160009054906101000a900473ffffffffffffffffffffffffffffffffffffffff1673ffffffffffffffffffffffffffffffffffffffff1663dee37a8e826040518263ffffffff167c010000000000000000000000000000000000000000000000000000000002815260040180828152602001915050602060405180830381600087803b15801561178c57600080fd5b505af11580156117a0573d6000803e3d6000fd5b505050506040513d60208110156117b657600080fd5b810190808051906020019092919050505091505090565b60006117da87878761182b565b15611806576018841080156117ef5750603c83105b80156117fb5750603c82105b1561180557600190505b5b9695505050505050565b600062015180611821858585611881565b0290509392505050565b6000806107b285101580156118405750600084115b801561184d5750600c8411155b156118795761185c858561193e565b905060008311801561186e5750808311155b1561187857600191505b5b509392505050565b60008060008060006107b2881015151561189a57600080fd5b87935086925085915062253d8c60046064600c600e87038115156118ba57fe5b056113248801018115156118ca57fe5b056003028115156118d757fe5b05600c80600c600e88038115156118ea57fe5b0502600287030361016f028115156118fe57fe5b056004600c600e880381151561191057fe5b056112c08901016105b50281151561192457fe5b05617d4b8603010103039050809450505050509392505050565b6000600182148061194f5750600382145b8061195a5750600582145b806119655750600782145b806119705750600882145b8061197b5750600a82145b806119865750600c82145b1561199457601f90506119c5565b6002821415156119a757601e90506119c4565b6119b0836119cb565b6119bb57601c6119be565b601d5b60ff1690505b5b92915050565b6000806004838115156119da57fe5b061480156119f5575060006064838115156119f157fe5b0614155b80611a0d5750600061019083811515611a0a57fe5b06145b9050919050565b604051610b2980611a25833901905600608060405234801561001057600080fd5b50604051610b29380380610b2983398101806040528101908080518201929190602001805190602001909291908051906020019092919080519060200190929190505050836000908051906020019061006a929190610089565b508260018190555081600281905550806003819055505050505061012e565b828054600181600116156101000203166002900490600052602060002090601f016020900481019282601f106100ca57805160ff19168380011785556100f8565b828001600101855582156100f8579182015b828111156100f75782518255916020019190600101906100dc565b5b5090506101059190610109565b5090565b61012b91905b8082111561012757600081600090555060010161010f565b5090565b90565b6109ec8061013d6000396000f300608060405260043610610083576000357c0100000000000000000000000000000000000000000000000000000000900463ffffffff168063409766e614610088578063439f5ac2146100b7578063659dd2b4146100e2578063679dbf0c1461010f578063ad9346741461017b578063dd06ba1a146101a6578063dee37a8e146101d1575b600080fd5b34801561009457600080fd5b5061009d61023e565b604051808215151515815260200191505060405180910390f35b3480156100c357600080fd5b506100cc610255565b6040518082815260200191505060405180910390f35b3480156100ee57600080fd5b5061010d6004803603810190808035906020019092919050505061025f565b005b34801561011b57600080fd5b5061012461051e565b6040518080602001828103825283818151815260200191508051906020019060200280838360005b8381101561016757808201518184015260208101905061014c565b505050509050019250505060405180910390f35b34801561018757600080fd5b5061019061068b565b6040518082815260200191505060405180910390f35b3480156101b257600080fd5b506101bb61070e565b6040518082815260200191505060405180910390f35b3480156101dd57600080fd5b506101fc60048036038101908080359060200190929190505050610837565b604051808273ffffffffffffffffffffffffffffffffffffffff1673ffffffffffffffffffffffffffffffffffffffff16815260200191505060405180910390f35b6000600460009054906101000a900460ff16905090565b6000600254905090565b8060035481111515610325576040517f08c379a00000000000000000000000000000000000000000000000000000000081526004018080602001828103825260458152602001807f506c6561736520656e7465722061206269642067726561746572207468616e2081526020017f6d696e696d756d20726571756972656420626964206f6620676976656e20617581526020017f6374696f6e00000000000000000000000000000000000000000000000000000081525060600191505060405180910390fd5b6002544210151561039e576040517f08c379a00000000000000000000000000000000000000000000000000000000081526004018080602001828103825260148152602001807f41756374696f6e20697320496e6163746976652000000000000000000000000081525060200191505060405180910390fd5b6000600560003273ffffffffffffffffffffffffffffffffffffffff1673ffffffffffffffffffffffffffffffffffffffff16815260200190815260200160002054141515610455576040517f08c379a000000000000000000000000000000000000000000000000000000000815260040180806020018281038252601e8152602001807f596f75206861766520616c72656164792063726561746564206120626964000081525060200191505060405180910390fd5b6001600460006101000a81548160ff02191690831515021790555081600560003273ffffffffffffffffffffffffffffffffffffffff1673ffffffffffffffffffffffffffffffffffffffff1681526020019081526020016000208190555060063290806001815401808255809150509060018203906000526020600020016000909192909190916101000a81548173ffffffffffffffffffffffffffffffffffffffff021916908373ffffffffffffffffffffffffffffffffffffffff160217905550505050565b60608060006002544210151561059c576040517f08c379a00000000000000000000000000000000000000000000000000000000081526004018080602001828103825260148152602001807f41756374696f6e20697320496e6163746976652000000000000000000000000081525060200191505060405180910390fd5b6006805490506040519080825280602002602001820160405280156105d05781602001602082028038833980820191505090505b5091505b60068054905081101561068357600560006006838154811015156105f457fe5b9060005260206000200160009054906101000a900473ffffffffffffffffffffffffffffffffffffffff1673ffffffffffffffffffffffffffffffffffffffff1673ffffffffffffffffffffffffffffffffffffffff16815260200190815260200160002054828281518110151561066857fe5b906020019060200201818152505080806001019150506105d4565b819250505090565b600060025442101515610706576040517f08c379a00000000000000000000000000000000000000000000000000000000081526004018080602001828103825260148152602001807f41756374696f6e20697320496e6163746976652000000000000000000000000081525060200191505060405180910390fd5b600354905090565b60008060006002544210151561078c576040517f08c379a00000000000000000000000000000000000000000000000000000000081526004018080602001828103825260148152602001807f41756374696f6e20697320496e6163746976652000000000000000000000000081525060200191505060405180910390fd5b600091505b60068054905081101561082f57610820600560006006848154811015156107b457fe5b9060005260206000200160009054906101000a900473ffffffffffffffffffffffffffffffffffffffff1673ffffffffffffffffffffffffffffffffffffffff1673ffffffffffffffffffffffffffffffffffffffff16815260200190815260200160002054836109a6565b91508080600101915050610791565b819250505090565b6000806000600254421015156108b5576040517f08c379a00000000000000000000000000000000000000000000000000000000081526004018080602001828103825260148152602001807f41756374696f6e20697320496e6163746976652000000000000000000000000081525060200191505060405180910390fd5b42600281905550600090505b60068054905081101561099c5783600560006006848154811015156108e257fe5b9060005260206000200160009054906101000a900473ffffffffffffffffffffffffffffffffffffffff1673ffffffffffffffffffffffffffffffffffffffff1673ffffffffffffffffffffffffffffffffffffffff16815260200190815260200160002054141561098f5760068181548110151561095d57fe5b9060005260206000200160009054906101000a900473ffffffffffffffffffffffffffffffffffffffff16915061099c565b80806001019150506108c1565b8192505050919050565b6000818310156109b657816109b8565b825b9050929150505600a165627a7a72305820b250695d80d1b8f1596042c2be5facb32adad33817d8fe9637fd5a1c48d752b10029a165627a7a72305820a35e19fdb687ff14caca4c56494cdc5b7759309d7a2bdd3218774110d8bceb9d0029",
					"opcodes": "PUSH1 0x80 PUSH1 0x40 MSTORE PUSH1 0x0 DUP1 SSTORE CALLVALUE DUP1 ISZERO PUSH2 0x14 JUMPI PUSH1 0x0 DUP1 REVERT JUMPDEST POP PUSH2 0x2579 DUP1 PUSH2 0x24 PUSH1 0x0 CODECOPY PUSH1 0x0 RETURN STOP PUSH1 0x80 PUSH1 0x40 MSTORE PUSH1 0x4 CALLDATASIZE LT PUSH2 0x8E JUMPI PUSH1 0x0 CALLDATALOAD PUSH29 0x100000000000000000000000000000000000000000000000000000000 SWAP1 DIV PUSH4 0xFFFFFFFF AND DUP1 PUSH4 0x25C0CDAA EQ PUSH2 0x93 JUMPI DUP1 PUSH4 0x7E12A251 EQ PUSH2 0xBE JUMPI DUP1 PUSH4 0x9F635120 EQ PUSH2 0xE9 JUMPI DUP1 PUSH4 0xB9A2DE3A EQ PUSH2 0x120 JUMPI DUP1 PUSH4 0xD1FDA965 EQ PUSH2 0x18D JUMPI DUP1 PUSH4 0xE3A57E65 EQ PUSH2 0x1F9 JUMPI DUP1 PUSH4 0xF2F58FCF EQ PUSH2 0x2A8 JUMPI DUP1 PUSH4 0xFE67A54B EQ PUSH2 0x314 JUMPI JUMPDEST PUSH1 0x0 DUP1 REVERT JUMPDEST CALLVALUE DUP1 ISZERO PUSH2 0x9F JUMPI PUSH1 0x0 DUP1 REVERT JUMPDEST POP PUSH2 0xA8 PUSH2 0x36B JUMP JUMPDEST PUSH1 0x40 MLOAD DUP1 DUP3 DUP2 MSTORE PUSH1 0x20 ADD SWAP2 POP POP PUSH1 0x40 MLOAD DUP1 SWAP2 SUB SWAP1 RETURN JUMPDEST CALLVALUE DUP1 ISZERO PUSH2 0xCA JUMPI PUSH1 0x0 DUP1 REVERT JUMPDEST POP PUSH2 0xD3 PUSH2 0x371 JUMP JUMPDEST PUSH1 0x40 MLOAD DUP1 DUP3 DUP2 MSTORE PUSH1 0x20 ADD SWAP2 POP POP PUSH1 0x40 MLOAD DUP1 SWAP2 SUB SWAP1 RETURN JUMPDEST CALLVALUE DUP1 ISZERO PUSH2 0xF5 JUMPI PUSH1 0x0 DUP1 REVERT JUMPDEST POP PUSH2 0x11E PUSH1 0x4 DUP1 CALLDATASIZE SUB DUP2 ADD SWAP1 DUP1 DUP1 CALLDATALOAD SWAP1 PUSH1 0x20 ADD SWAP1 SWAP3 SWAP2 SWAP1 DUP1 CALLDATALOAD SWAP1 PUSH1 0x20 ADD SWAP1 SWAP3 SWAP2 SWAP1 POP POP POP PUSH2 0x5F8 JUMP JUMPDEST STOP JUMPDEST CALLVALUE DUP1 ISZERO PUSH2 0x12C JUMPI PUSH1 0x0 DUP1 REVERT JUMPDEST POP PUSH2 0x14B PUSH1 0x4 DUP1 CALLDATASIZE SUB DUP2 ADD SWAP1 DUP1 DUP1 CALLDATALOAD SWAP1 PUSH1 0x20 ADD SWAP1 SWAP3 SWAP2 SWAP1 POP POP POP PUSH2 0x9DA JUMP JUMPDEST PUSH1 0x40 MLOAD DUP1 DUP3 PUSH20 0xFFFFFFFFFFFFFFFFFFFFFFFFFFFFFFFFFFFFFFFF AND PUSH20 0xFFFFFFFFFFFFFFFFFFFFFFFFFFFFFFFFFFFFFFFF AND DUP2 MSTORE PUSH1 0x20 ADD SWAP2 POP POP PUSH1 0x40 MLOAD DUP1 SWAP2 SUB SWAP1 RETURN JUMPDEST CALLVALUE DUP1 ISZERO PUSH2 0x199 JUMPI PUSH1 0x0 DUP1 REVERT JUMPDEST POP PUSH2 0x1A2 PUSH2 0xBB3 JUMP JUMPDEST PUSH1 0x40 MLOAD DUP1 DUP1 PUSH1 0x20 ADD DUP3 DUP2 SUB DUP3 MSTORE DUP4 DUP2 DUP2 MLOAD DUP2 MSTORE PUSH1 0x20 ADD SWAP2 POP DUP1 MLOAD SWAP1 PUSH1 0x20 ADD SWAP1 PUSH1 0x20 MUL DUP1 DUP4 DUP4 PUSH1 0x0 JUMPDEST DUP4 DUP2 LT ISZERO PUSH2 0x1E5 JUMPI DUP1 DUP3 ADD MLOAD DUP2 DUP5 ADD MSTORE PUSH1 0x20 DUP2 ADD SWAP1 POP PUSH2 0x1CA JUMP JUMPDEST POP POP POP POP SWAP1 POP ADD SWAP3 POP POP POP PUSH1 0x40 MLOAD DUP1 SWAP2 SUB SWAP1 RETURN JUMPDEST CALLVALUE DUP1 ISZERO PUSH2 0x205 JUMPI PUSH1 0x0 DUP1 REVERT JUMPDEST POP PUSH2 0x2A6 PUSH1 0x4 DUP1 CALLDATASIZE SUB DUP2 ADD SWAP1 DUP1 DUP1 CALLDATALOAD SWAP1 PUSH1 0x20 ADD SWAP1 DUP3 ADD DUP1 CALLDATALOAD SWAP1 PUSH1 0x20 ADD SWAP1 DUP1 DUP1 PUSH1 0x1F ADD PUSH1 0x20 DUP1 SWAP2 DIV MUL PUSH1 0x20 ADD PUSH1 0x40 MLOAD SWAP1 DUP2 ADD PUSH1 0x40 MSTORE DUP1 SWAP4 SWAP3 SWAP2 SWAP1 DUP2 DUP2 MSTORE PUSH1 0x20 ADD DUP4 DUP4 DUP1 DUP3 DUP5 CALLDATACOPY DUP3 ADD SWAP2 POP POP POP POP POP POP SWAP2 SWAP3 SWAP2 SWAP3 SWAP1 DUP1 CALLDATALOAD SWAP1 PUSH1 0x20 ADD SWAP1 SWAP3 SWAP2 SWAP1 DUP1 CALLDATALOAD SWAP1 PUSH1 0x20 ADD SWAP1 SWAP3 SWAP2 SWAP1 DUP1 CALLDATALOAD SWAP1 PUSH1 0x20 ADD SWAP1 SWAP3 SWAP2 SWAP1 DUP1 CALLDATALOAD SWAP1 PUSH1 0x20 ADD SWAP1 SWAP3 SWAP2 SWAP1 DUP1 CALLDATALOAD SWAP1 PUSH1 0x20 ADD SWAP1 SWAP3 SWAP2 SWAP1 DUP1 CALLDATALOAD SWAP1 PUSH1 0x20 ADD SWAP1 SWAP3 SWAP2 SWAP1 DUP1 CALLDATALOAD SWAP1 PUSH1 0x20 ADD SWAP1 SWAP3 SWAP2 SWAP1 POP POP POP PUSH2 0xD03 JUMP JUMPDEST STOP JUMPDEST CALLVALUE DUP1 ISZERO PUSH2 0x2B4 JUMPI PUSH1 0x0 DUP1 REVERT JUMPDEST POP PUSH2 0x2BD PUSH2 0x1118 JUMP JUMPDEST PUSH1 0x40 MLOAD DUP1 DUP1 PUSH1 0x20 ADD DUP3 DUP2 SUB DUP3 MSTORE DUP4 DUP2 DUP2 MLOAD DUP2 MSTORE PUSH1 0x20 ADD SWAP2 POP DUP1 MLOAD SWAP1 PUSH1 0x20 ADD SWAP1 PUSH1 0x20 MUL DUP1 DUP4 DUP4 PUSH1 0x0 JUMPDEST DUP4 DUP2 LT ISZERO PUSH2 0x300 JUMPI DUP1 DUP3 ADD MLOAD DUP2 DUP5 ADD MSTORE PUSH1 0x20 DUP2 ADD SWAP1 POP PUSH2 0x2E5 JUMP JUMPDEST POP POP POP POP SWAP1 POP ADD SWAP3 POP POP POP PUSH1 0x40 MLOAD DUP1 SWAP2 SUB SWAP1 RETURN JUMPDEST CALLVALUE DUP1 ISZERO PUSH2 0x320 JUMPI PUSH1 0x0 DUP1 REVERT JUMPDEST POP PUSH2 0x329 PUSH2 0x14E3 JUMP JUMPDEST PUSH1 0x40 MLOAD DUP1 DUP3 PUSH20 0xFFFFFFFFFFFFFFFFFFFFFFFFFFFFFFFFFFFFFFFF AND PUSH20 0xFFFFFFFFFFFFFFFFFFFFFFFFFFFFFFFFFFFFFFFF AND DUP2 MSTORE PUSH1 0x20 ADD SWAP2 POP POP PUSH1 0x40 MLOAD DUP1 SWAP2 SUB SWAP1 RETURN JUMPDEST PUSH1 0x0 SLOAD DUP2 JUMP JUMPDEST PUSH1 0x0 DUP1 PUSH1 0x66 PUSH1 0x0 CALLER PUSH20 0xFFFFFFFFFFFFFFFFFFFFFFFFFFFFFFFFFFFFFFFF AND PUSH20 0xFFFFFFFFFFFFFFFFFFFFFFFFFFFFFFFFFFFFFFFF AND DUP2 MSTORE PUSH1 0x20 ADD SWAP1 DUP2 MSTORE PUSH1 0x20 ADD PUSH1 0x0 KECCAK256 SLOAD EQ ISZERO ISZERO ISZERO PUSH2 0x42A JUMPI PUSH1 0x40 MLOAD PUSH32 0x8C379A000000000000000000000000000000000000000000000000000000000 DUP2 MSTORE PUSH1 0x4 ADD DUP1 DUP1 PUSH1 0x20 ADD DUP3 DUP2 SUB DUP3 MSTORE PUSH1 0x20 DUP2 MSTORE PUSH1 0x20 ADD DUP1 PUSH32 0x596F7520686176656E2774206372656174656420616E792041756374696F6E73 DUP2 MSTORE POP PUSH1 0x20 ADD SWAP2 POP POP PUSH1 0x40 MLOAD DUP1 SWAP2 SUB SWAP1 REVERT JUMPDEST PUSH1 0x0 PUSH1 0x67 PUSH1 0x0 CALLER PUSH20 0xFFFFFFFFFFFFFFFFFFFFFFFFFFFFFFFFFFFFFFFF AND PUSH20 0xFFFFFFFFFFFFFFFFFFFFFFFFFFFFFFFFFFFFFFFF AND DUP2 MSTORE PUSH1 0x20 ADD SWAP1 DUP2 MSTORE PUSH1 0x20 ADD PUSH1 0x0 KECCAK256 DUP1 SLOAD SWAP1 POP EQ ISZERO ISZERO ISZERO PUSH2 0x4E5 JUMPI PUSH1 0x40 MLOAD PUSH32 0x8C379A000000000000000000000000000000000000000000000000000000000 DUP2 MSTORE PUSH1 0x4 ADD DUP1 DUP1 PUSH1 0x20 ADD DUP3 DUP2 SUB DUP3 MSTORE PUSH1 0x17 DUP2 MSTORE PUSH1 0x20 ADD DUP1 PUSH32 0x596F7520646F6E2774206861766520616E792042696473000000000000000000 DUP2 MSTORE POP PUSH1 0x20 ADD SWAP2 POP POP PUSH1 0x40 MLOAD DUP1 SWAP2 SUB SWAP1 REVERT JUMPDEST PUSH1 0x1 PUSH1 0x66 PUSH1 0x0 CALLER PUSH20 0xFFFFFFFFFFFFFFFFFFFFFFFFFFFFFFFFFFFFFFFF AND PUSH20 0xFFFFFFFFFFFFFFFFFFFFFFFFFFFFFFFFFFFFFFFF AND DUP2 MSTORE PUSH1 0x20 ADD SWAP1 DUP2 MSTORE PUSH1 0x20 ADD PUSH1 0x0 KECCAK256 SLOAD PUSH1 0x65 DUP2 LT ISZERO ISZERO PUSH2 0x533 JUMPI INVALID JUMPDEST ADD PUSH1 0x0 SWAP1 SLOAD SWAP1 PUSH2 0x100 EXP SWAP1 DIV PUSH20 0xFFFFFFFFFFFFFFFFFFFFFFFFFFFFFFFFFFFFFFFF AND PUSH20 0xFFFFFFFFFFFFFFFFFFFFFFFFFFFFFFFFFFFFFFFF AND PUSH4 0xDD06BA1A PUSH1 0x40 MLOAD DUP2 PUSH4 0xFFFFFFFF AND PUSH29 0x100000000000000000000000000000000000000000000000000000000 MUL DUP2 MSTORE PUSH1 0x4 ADD PUSH1 0x20 PUSH1 0x40 MLOAD DUP1 DUP4 SUB DUP2 PUSH1 0x0 DUP8 DUP1 EXTCODESIZE ISZERO DUP1 ISZERO PUSH2 0x5B8 JUMPI PUSH1 0x0 DUP1 REVERT JUMPDEST POP GAS CALL ISZERO DUP1 ISZERO PUSH2 0x5CC JUMPI RETURNDATASIZE PUSH1 0x0 DUP1 RETURNDATACOPY RETURNDATASIZE PUSH1 0x0 REVERT JUMPDEST POP POP POP POP PUSH1 0x40 MLOAD RETURNDATASIZE PUSH1 0x20 DUP2 LT ISZERO PUSH2 0x5E2 JUMPI PUSH1 0x0 DUP1 REVERT JUMPDEST DUP2 ADD SWAP1 DUP1 DUP1 MLOAD SWAP1 PUSH1 0x20 ADD SWAP1 SWAP3 SWAP2 SWAP1 POP POP POP SWAP1 POP SWAP1 JUMP JUMPDEST DUP2 PUSH1 0x65 DUP2 LT DUP1 ISZERO PUSH2 0x6D6 JUMPI POP TIMESTAMP PUSH1 0x1 DUP3 PUSH1 0x65 DUP2 LT ISZERO ISZERO PUSH2 0x614 JUMPI INVALID JUMPDEST ADD PUSH1 0x0 SWAP1 SLOAD SWAP1 PUSH2 0x100 EXP SWAP1 DIV PUSH20 0xFFFFFFFFFFFFFFFFFFFFFFFFFFFFFFFFFFFFFFFF AND PUSH20 0xFFFFFFFFFFFFFFFFFFFFFFFFFFFFFFFFFFFFFFFF AND PUSH4 0x439F5AC2 PUSH1 0x40 MLOAD DUP2 PUSH4 0xFFFFFFFF AND PUSH29 0x100000000000000000000000000000000000000000000000000000000 MUL DUP2 MSTORE PUSH1 0x4 ADD PUSH1 0x20 PUSH1 0x40 MLOAD DUP1 DUP4 SUB DUP2 PUSH1 0x0 DUP8 DUP1 EXTCODESIZE ISZERO DUP1 ISZERO PUSH2 0x699 JUMPI PUSH1 0x0 DUP1 REVERT JUMPDEST POP GAS CALL ISZERO DUP1 ISZERO PUSH2 0x6AD JUMPI RETURNDATASIZE PUSH1 0x0 DUP1 RETURNDATACOPY RETURNDATASIZE PUSH1 0x0 REVERT JUMPDEST POP POP POP POP PUSH1 0x40 MLOAD RETURNDATASIZE PUSH1 0x20 DUP2 LT ISZERO PUSH2 0x6C3 JUMPI PUSH1 0x0 DUP1 REVERT JUMPDEST DUP2 ADD SWAP1 DUP1 DUP1 MLOAD SWAP1 PUSH1 0x20 ADD SWAP1 SWAP3 SWAP2 SWAP1 POP POP POP GT JUMPDEST ISZERO ISZERO PUSH2 0x74A JUMPI PUSH1 0x40 MLOAD PUSH32 0x8C379A000000000000000000000000000000000000000000000000000000000 DUP2 MSTORE PUSH1 0x4 ADD DUP1 DUP1 PUSH1 0x20 ADD DUP3 DUP2 SUB DUP3 MSTORE PUSH1 0x13 DUP2 MSTORE PUSH1 0x20 ADD DUP1 PUSH32 0x41756374696F6E20697320496E61637469766500000000000000000000000000 DUP2 MSTORE POP PUSH1 0x20 ADD SWAP2 POP POP PUSH1 0x40 MLOAD DUP1 SWAP2 SUB SWAP1 REVERT JUMPDEST DUP2 PUSH1 0x1 DUP5 PUSH1 0x65 DUP2 LT ISZERO ISZERO PUSH2 0x75A JUMPI INVALID JUMPDEST ADD PUSH1 0x0 SWAP1 SLOAD SWAP1 PUSH2 0x100 EXP SWAP1 DIV PUSH20 0xFFFFFFFFFFFFFFFFFFFFFFFFFFFFFFFFFFFFFFFF AND PUSH20 0xFFFFFFFFFFFFFFFFFFFFFFFFFFFFFFFFFFFFFFFF AND PUSH4 0xAD934674 PUSH1 0x40 MLOAD DUP2 PUSH4 0xFFFFFFFF AND PUSH29 0x100000000000000000000000000000000000000000000000000000000 MUL DUP2 MSTORE PUSH1 0x4 ADD PUSH1 0x20 PUSH1 0x40 MLOAD DUP1 DUP4 SUB DUP2 PUSH1 0x0 DUP8 DUP1 EXTCODESIZE ISZERO DUP1 ISZERO PUSH2 0x7DF JUMPI PUSH1 0x0 DUP1 REVERT JUMPDEST POP GAS CALL ISZERO DUP1 ISZERO PUSH2 0x7F3 JUMPI RETURNDATASIZE PUSH1 0x0 DUP1 RETURNDATACOPY RETURNDATASIZE PUSH1 0x0 REVERT JUMPDEST POP POP POP POP PUSH1 0x40 MLOAD RETURNDATASIZE PUSH1 0x20 DUP2 LT ISZERO PUSH2 0x809 JUMPI PUSH1 0x0 DUP1 REVERT JUMPDEST DUP2 ADD SWAP1 DUP1 DUP1 MLOAD SWAP1 PUSH1 0x20 ADD SWAP1 SWAP3 SWAP2 SWAP1 POP POP POP LT ISZERO ISZERO PUSH2 0x8B5 JUMPI PUSH1 0x40 MLOAD PUSH32 0x8C379A000000000000000000000000000000000000000000000000000000000 DUP2 MSTORE PUSH1 0x4 ADD DUP1 DUP1 PUSH1 0x20 ADD DUP3 DUP2 SUB DUP3 MSTORE PUSH1 0x3A DUP2 MSTORE PUSH1 0x20 ADD DUP1 PUSH32 0x4269642076616C75652063616E6E6F74206265206C657373207468616E206D69 DUP2 MSTORE PUSH1 0x20 ADD PUSH32 0x6E696E756D206269642076616C7565206F662061756374696F6E000000000000 DUP2 MSTORE POP PUSH1 0x40 ADD SWAP2 POP POP PUSH1 0x40 MLOAD DUP1 SWAP2 SUB SWAP1 REVERT JUMPDEST PUSH1 0x1 DUP4 PUSH1 0x65 DUP2 LT ISZERO ISZERO PUSH2 0x8C4 JUMPI INVALID JUMPDEST ADD PUSH1 0x0 SWAP1 SLOAD SWAP1 PUSH2 0x100 EXP SWAP1 DIV PUSH20 0xFFFFFFFFFFFFFFFFFFFFFFFFFFFFFFFFFFFFFFFF AND PUSH20 0xFFFFFFFFFFFFFFFFFFFFFFFFFFFFFFFFFFFFFFFF AND PUSH4 0x659DD2B4 DUP4 PUSH1 0x40 MLOAD DUP3 PUSH4 0xFFFFFFFF AND PUSH29 0x100000000000000000000000000000000000000000000000000000000 MUL DUP2 MSTORE PUSH1 0x4 ADD DUP1 DUP3 DUP2 MSTORE PUSH1 0x20 ADD SWAP2 POP POP PUSH1 0x0 PUSH1 0x40 MLOAD DUP1 DUP4 SUB DUP2 PUSH1 0x0 DUP8 DUP1 EXTCODESIZE ISZERO DUP1 ISZERO PUSH2 0x954 JUMPI PUSH1 0x0 DUP1 REVERT JUMPDEST POP GAS CALL ISZERO DUP1 ISZERO PUSH2 0x968 JUMPI RETURNDATASIZE PUSH1 0x0 DUP1 RETURNDATACOPY RETURNDATASIZE PUSH1 0x0 REVERT JUMPDEST POP POP POP POP PUSH1 0x67 PUSH1 0x0 CALLER PUSH20 0xFFFFFFFFFFFFFFFFFFFFFFFFFFFFFFFFFFFFFFFF AND PUSH20 0xFFFFFFFFFFFFFFFFFFFFFFFFFFFFFFFFFFFFFFFF AND DUP2 MSTORE PUSH1 0x20 ADD SWAP1 DUP2 MSTORE PUSH1 0x20 ADD PUSH1 0x0 KECCAK256 DUP4 SWAP1 DUP1 PUSH1 0x1 DUP2 SLOAD ADD DUP1 DUP3 SSTORE DUP1 SWAP2 POP POP SWAP1 PUSH1 0x1 DUP3 SUB SWAP1 PUSH1 0x0 MSTORE PUSH1 0x20 PUSH1 0x0 KECCAK256 ADD PUSH1 0x0 SWAP1 SWAP2 SWAP3 SWAP1 SWAP2 SWAP1 SWAP2 POP SSTORE POP POP POP POP JUMP JUMPDEST PUSH1 0x0 DUP1 PUSH1 0x66 PUSH1 0x0 CALLER PUSH20 0xFFFFFFFFFFFFFFFFFFFFFFFFFFFFFFFFFFFFFFFF AND PUSH20 0xFFFFFFFFFFFFFFFFFFFFFFFFFFFFFFFFFFFFFFFF AND DUP2 MSTORE PUSH1 0x20 ADD SWAP1 DUP2 MSTORE PUSH1 0x20 ADD PUSH1 0x0 KECCAK256 SLOAD EQ ISZERO ISZERO ISZERO PUSH2 0xA93 JUMPI PUSH1 0x40 MLOAD PUSH32 0x8C379A000000000000000000000000000000000000000000000000000000000 DUP2 MSTORE PUSH1 0x4 ADD DUP1 DUP1 PUSH1 0x20 ADD DUP3 DUP2 SUB DUP3 MSTORE PUSH1 0x20 DUP2 MSTORE PUSH1 0x20 ADD DUP1 PUSH32 0x596F7520686176656E2774206372656174656420616E792041756374696F6E73 DUP2 MSTORE POP PUSH1 0x20 ADD SWAP2 POP POP PUSH1 0x40 MLOAD DUP1 SWAP2 SUB SWAP1 REVERT JUMPDEST PUSH1 0x1 PUSH1 0x66 PUSH1 0x0 CALLER PUSH20 0xFFFFFFFFFFFFFFFFFFFFFFFFFFFFFFFFFFFFFFFF AND PUSH20 0xFFFFFFFFFFFFFFFFFFFFFFFFFFFFFFFFFFFFFFFF AND DUP2 MSTORE PUSH1 0x20 ADD SWAP1 DUP2 MSTORE PUSH1 0x20 ADD PUSH1 0x0 KECCAK256 SLOAD PUSH1 0x65 DUP2 LT ISZERO ISZERO PUSH2 0xAE1 JUMPI INVALID JUMPDEST ADD PUSH1 0x0 SWAP1 SLOAD SWAP1 PUSH2 0x100 EXP SWAP1 DIV PUSH20 0xFFFFFFFFFFFFFFFFFFFFFFFFFFFFFFFFFFFFFFFF AND PUSH20 0xFFFFFFFFFFFFFFFFFFFFFFFFFFFFFFFFFFFFFFFF AND PUSH4 0xDEE37A8E DUP4 PUSH1 0x40 MLOAD DUP3 PUSH4 0xFFFFFFFF AND PUSH29 0x100000000000000000000000000000000000000000000000000000000 MUL DUP2 MSTORE PUSH1 0x4 ADD DUP1 DUP3 DUP2 MSTORE PUSH1 0x20 ADD SWAP2 POP POP PUSH1 0x20 PUSH1 0x40 MLOAD DUP1 DUP4 SUB DUP2 PUSH1 0x0 DUP8 DUP1 EXTCODESIZE ISZERO DUP1 ISZERO PUSH2 0xB71 JUMPI PUSH1 0x0 DUP1 REVERT JUMPDEST POP GAS CALL ISZERO DUP1 ISZERO PUSH2 0xB85 JUMPI RETURNDATASIZE PUSH1 0x0 DUP1 RETURNDATACOPY RETURNDATASIZE PUSH1 0x0 REVERT JUMPDEST POP POP POP POP PUSH1 0x40 MLOAD RETURNDATASIZE PUSH1 0x20 DUP2 LT ISZERO PUSH2 0xB9B JUMPI PUSH1 0x0 DUP1 REVERT JUMPDEST DUP2 ADD SWAP1 DUP1 DUP1 MLOAD SWAP1 PUSH1 0x20 ADD SWAP1 SWAP3 SWAP2 SWAP1 POP POP POP SWAP1 POP SWAP2 SWAP1 POP JUMP JUMPDEST PUSH1 0x60 PUSH1 0x0 PUSH1 0x67 PUSH1 0x0 CALLER PUSH20 0xFFFFFFFFFFFFFFFFFFFFFFFFFFFFFFFFFFFFFFFF AND PUSH20 0xFFFFFFFFFFFFFFFFFFFFFFFFFFFFFFFFFFFFFFFF AND DUP2 MSTORE PUSH1 0x20 ADD SWAP1 DUP2 MSTORE PUSH1 0x20 ADD PUSH1 0x0 KECCAK256 DUP1 SLOAD SWAP1 POP EQ ISZERO ISZERO ISZERO PUSH2 0xC70 JUMPI PUSH1 0x40 MLOAD PUSH32 0x8C379A000000000000000000000000000000000000000000000000000000000 DUP2 MSTORE PUSH1 0x4 ADD DUP1 DUP1 PUSH1 0x20 ADD DUP3 DUP2 SUB DUP3 MSTORE PUSH1 0x17 DUP2 MSTORE PUSH1 0x20 ADD DUP1 PUSH32 0x596F7520646F6E2774206861766520616E792042696473000000000000000000 DUP2 MSTORE POP PUSH1 0x20 ADD SWAP2 POP POP PUSH1 0x40 MLOAD DUP1 SWAP2 SUB SWAP1 REVERT JUMPDEST PUSH1 0x67 PUSH1 0x0 CALLER PUSH20 0xFFFFFFFFFFFFFFFFFFFFFFFFFFFFFFFFFFFFFFFF AND PUSH20 0xFFFFFFFFFFFFFFFFFFFFFFFFFFFFFFFFFFFFFFFF AND DUP2 MSTORE PUSH1 0x20 ADD SWAP1 DUP2 MSTORE PUSH1 0x20 ADD PUSH1 0x0 KECCAK256 DUP1 SLOAD DUP1 PUSH1 0x20 MUL PUSH1 0x20 ADD PUSH1 0x40 MLOAD SWAP1 DUP2 ADD PUSH1 0x40 MSTORE DUP1 SWAP3 SWAP2 SWAP1 DUP2 DUP2 MSTORE PUSH1 0x20 ADD DUP3 DUP1 SLOAD DUP1 ISZERO PUSH2 0xCF9 JUMPI PUSH1 0x20 MUL DUP3 ADD SWAP2 SWAP1 PUSH1 0x0 MSTORE PUSH1 0x20 PUSH1 0x0 KECCAK256 SWAP1 JUMPDEST DUP2 SLOAD DUP2 MSTORE PUSH1 0x20 ADD SWAP1 PUSH1 0x1 ADD SWAP1 DUP1 DUP4 GT PUSH2 0xCE5 JUMPI JUMPDEST POP POP POP POP POP SWAP1 POP SWAP1 JUMP JUMPDEST PUSH1 0x0 DUP1 PUSH1 0x0 DUP1 PUSH1 0x66 PUSH1 0x0 CALLER PUSH20 0xFFFFFFFFFFFFFFFFFFFFFFFFFFFFFFFFFFFFFFFF AND PUSH20 0xFFFFFFFFFFFFFFFFFFFFFFFFFFFFFFFFFFFFFFFF AND DUP2 MSTORE PUSH1 0x20 ADD SWAP1 DUP2 MSTORE PUSH1 0x20 ADD PUSH1 0x0 KECCAK256 SLOAD EQ ISZERO ISZERO PUSH2 0xDE4 JUMPI PUSH1 0x40 MLOAD PUSH32 0x8C379A000000000000000000000000000000000000000000000000000000000 DUP2 MSTORE PUSH1 0x4 ADD DUP1 DUP1 PUSH1 0x20 ADD DUP3 DUP2 SUB DUP3 MSTORE PUSH1 0x23 DUP2 MSTORE PUSH1 0x20 ADD DUP1 PUSH32 0x596F75206861766520616C7265616479206372656174656420616E2041756374 DUP2 MSTORE PUSH1 0x20 ADD PUSH32 0x696F6E0000000000000000000000000000000000000000000000000000000000 DUP2 MSTORE POP PUSH1 0x40 ADD SWAP2 POP POP PUSH1 0x40 MLOAD DUP1 SWAP2 SUB SWAP1 REVERT JUMPDEST PUSH2 0xDF4 DUP11 DUP11 DUP11 PUSH1 0x0 DUP1 PUSH1 0x0 PUSH2 0x17CD JUMP JUMPDEST ISZERO ISZERO PUSH2 0xE68 JUMPI PUSH1 0x40 MLOAD PUSH32 0x8C379A000000000000000000000000000000000000000000000000000000000 DUP2 MSTORE PUSH1 0x4 ADD DUP1 DUP1 PUSH1 0x20 ADD DUP3 DUP2 SUB DUP3 MSTORE PUSH1 0x16 DUP2 MSTORE PUSH1 0x20 ADD DUP1 PUSH32 0x456E7465722056616C6964205374617274204461746500000000000000000000 DUP2 MSTORE POP PUSH1 0x20 ADD SWAP2 POP POP PUSH1 0x40 MLOAD DUP1 SWAP2 SUB SWAP1 REVERT JUMPDEST PUSH2 0xE78 DUP8 DUP8 DUP8 PUSH1 0x0 DUP1 PUSH1 0x0 PUSH2 0x17CD JUMP JUMPDEST ISZERO ISZERO PUSH2 0xEEC JUMPI PUSH1 0x40 MLOAD PUSH32 0x8C379A000000000000000000000000000000000000000000000000000000000 DUP2 MSTORE PUSH1 0x4 ADD DUP1 DUP1 PUSH1 0x20 ADD DUP3 DUP2 SUB DUP3 MSTORE PUSH1 0x14 DUP2 MSTORE PUSH1 0x20 ADD DUP1 PUSH32 0x456E7465722056616C696420456E642044617465000000000000000000000000 DUP2 MSTORE POP PUSH1 0x20 ADD SWAP2 POP POP PUSH1 0x40 MLOAD DUP1 SWAP2 SUB SWAP1 REVERT JUMPDEST PUSH2 0xEF7 DUP11 DUP11 DUP11 PUSH2 0x1810 JUMP JUMPDEST SWAP3 POP PUSH2 0xF04 DUP8 DUP8 DUP8 PUSH2 0x1810 JUMP JUMPDEST SWAP2 POP DUP3 TIMESTAMP LT DUP1 ISZERO PUSH2 0xF14 JUMPI POP DUP2 TIMESTAMP LT JUMPDEST DUP1 ISZERO PUSH2 0xF1F JUMPI POP DUP2 DUP4 LT JUMPDEST ISZERO ISZERO PUSH2 0xFB9 JUMPI PUSH1 0x40 MLOAD PUSH32 0x8C379A000000000000000000000000000000000000000000000000000000000 DUP2 MSTORE PUSH1 0x4 ADD DUP1 DUP1 PUSH1 0x20 ADD DUP3 DUP2 SUB DUP3 MSTORE PUSH1 0x2E DUP2 MSTORE PUSH1 0x20 ADD DUP1 PUSH32 0x20506C6561736520656E74657220612076616C696420696E74657276616C2066 DUP2 MSTORE PUSH1 0x20 ADD PUSH32 0x6F72207468652041756374696F6E000000000000000000000000000000000000 DUP2 MSTORE POP PUSH1 0x40 ADD SWAP2 POP POP PUSH1 0x40 MLOAD DUP1 SWAP2 SUB SWAP1 REVERT JUMPDEST PUSH1 0x1 PUSH1 0x0 SLOAD ADD PUSH1 0x0 DUP2 SWAP1 SSTORE POP DUP11 DUP4 DUP4 DUP7 PUSH2 0xFD1 PUSH2 0x1A14 JUMP JUMPDEST DUP1 DUP1 PUSH1 0x20 ADD DUP6 DUP2 MSTORE PUSH1 0x20 ADD DUP5 DUP2 MSTORE PUSH1 0x20 ADD DUP4 DUP2 MSTORE PUSH1 0x20 ADD DUP3 DUP2 SUB DUP3 MSTORE DUP7 DUP2 DUP2 MLOAD DUP2 MSTORE PUSH1 0x20 ADD SWAP2 POP DUP1 MLOAD SWAP1 PUSH1 0x20 ADD SWAP1 DUP1 DUP4 DUP4 PUSH1 0x0 JUMPDEST DUP4 DUP2 LT ISZERO PUSH2 0x1020 JUMPI DUP1 DUP3 ADD MLOAD DUP2 DUP5 ADD MSTORE PUSH1 0x20 DUP2 ADD SWAP1 POP PUSH2 0x1005 JUMP JUMPDEST POP POP POP POP SWAP1 POP SWAP1 DUP2 ADD SWAP1 PUSH1 0x1F AND DUP1 ISZERO PUSH2 0x104D JUMPI DUP1 DUP3 SUB DUP1 MLOAD PUSH1 0x1 DUP4 PUSH1 0x20 SUB PUSH2 0x100 EXP SUB NOT AND DUP2 MSTORE PUSH1 0x20 ADD SWAP2 POP JUMPDEST POP SWAP6 POP POP POP POP POP POP PUSH1 0x40 MLOAD DUP1 SWAP2 SUB SWAP1 PUSH1 0x0 CREATE DUP1 ISZERO DUP1 ISZERO PUSH2 0x1071 JUMPI RETURNDATASIZE PUSH1 0x0 DUP1 RETURNDATACOPY RETURNDATASIZE PUSH1 0x0 REVERT JUMPDEST POP SWAP1 POP DUP1 PUSH1 0x1 PUSH1 0x0 SLOAD PUSH1 0x65 DUP2 LT ISZERO ISZERO PUSH2 0x1086 JUMPI INVALID JUMPDEST ADD PUSH1 0x0 PUSH2 0x100 EXP DUP2 SLOAD DUP2 PUSH20 0xFFFFFFFFFFFFFFFFFFFFFFFFFFFFFFFFFFFFFFFF MUL NOT AND SWAP1 DUP4 PUSH20 0xFFFFFFFFFFFFFFFFFFFFFFFFFFFFFFFFFFFFFFFF AND MUL OR SWAP1 SSTORE POP PUSH1 0x0 SLOAD PUSH1 0x66 PUSH1 0x0 CALLER PUSH20 0xFFFFFFFFFFFFFFFFFFFFFFFFFFFFFFFFFFFFFFFF AND PUSH20 0xFFFFFFFFFFFFFFFFFFFFFFFFFFFFFFFFFFFFFFFF AND DUP2 MSTORE PUSH1 0x20 ADD SWAP1 DUP2 MSTORE PUSH1 0x20 ADD PUSH1 0x0 KECCAK256 DUP2 SWAP1 SSTORE POP POP POP POP POP POP POP POP POP POP POP POP JUMP JUMPDEST PUSH1 0x60 PUSH1 0x0 PUSH1 0x66 PUSH1 0x0 CALLER PUSH20 0xFFFFFFFFFFFFFFFFFFFFFFFFFFFFFFFFFFFFFFFF AND PUSH20 0xFFFFFFFFFFFFFFFFFFFFFFFFFFFFFFFFFFFFFFFF AND DUP2 MSTORE PUSH1 0x20 ADD SWAP1 DUP2 MSTORE PUSH1 0x20 ADD PUSH1 0x0 KECCAK256 SLOAD EQ ISZERO ISZERO ISZERO PUSH2 0x11D2 JUMPI PUSH1 0x40 MLOAD PUSH32 0x8C379A000000000000000000000000000000000000000000000000000000000 DUP2 MSTORE PUSH1 0x4 ADD DUP1 DUP1 PUSH1 0x20 ADD DUP3 DUP2 SUB DUP3 MSTORE PUSH1 0x20 DUP2 MSTORE PUSH1 0x20 ADD DUP1 PUSH32 0x596F7520686176656E2774206372656174656420616E792041756374696F6E73 DUP2 MSTORE POP PUSH1 0x20 ADD SWAP2 POP POP PUSH1 0x40 MLOAD DUP1 SWAP2 SUB SWAP1 REVERT JUMPDEST PUSH1 0x1 PUSH1 0x66 PUSH1 0x0 CALLER PUSH20 0xFFFFFFFFFFFFFFFFFFFFFFFFFFFFFFFFFFFFFFFF AND PUSH20 0xFFFFFFFFFFFFFFFFFFFFFFFFFFFFFFFFFFFFFFFF AND DUP2 MSTORE PUSH1 0x20 ADD SWAP1 DUP2 MSTORE PUSH1 0x20 ADD PUSH1 0x0 KECCAK256 SLOAD PUSH1 0x65 DUP2 LT ISZERO ISZERO PUSH2 0x1220 JUMPI INVALID JUMPDEST ADD PUSH1 0x0 SWAP1 SLOAD SWAP1 PUSH2 0x100 EXP SWAP1 DIV PUSH20 0xFFFFFFFFFFFFFFFFFFFFFFFFFFFFFFFFFFFFFFFF AND PUSH20 0xFFFFFFFFFFFFFFFFFFFFFFFFFFFFFFFFFFFFFFFF AND PUSH4 0x409766E6 PUSH1 0x40 MLOAD DUP2 PUSH4 0xFFFFFFFF AND PUSH29 0x100000000000000000000000000000000000000000000000000000000 MUL DUP2 MSTORE PUSH1 0x4 ADD PUSH1 0x20 PUSH1 0x40 MLOAD DUP1 DUP4 SUB DUP2 PUSH1 0x0 DUP8 DUP1 EXTCODESIZE ISZERO DUP1 ISZERO PUSH2 0x12A5 JUMPI PUSH1 0x0 DUP1 REVERT JUMPDEST POP GAS CALL ISZERO DUP1 ISZERO PUSH2 0x12B9 JUMPI RETURNDATASIZE PUSH1 0x0 DUP1 RETURNDATACOPY RETURNDATASIZE PUSH1 0x0 REVERT JUMPDEST POP POP POP POP PUSH1 0x40 MLOAD RETURNDATASIZE PUSH1 0x20 DUP2 LT ISZERO PUSH2 0x12CF JUMPI PUSH1 0x0 DUP1 REVERT JUMPDEST DUP2 ADD SWAP1 DUP1 DUP1 MLOAD SWAP1 PUSH1 0x20 ADD SWAP1 SWAP3 SWAP2 SWAP1 POP POP POP ISZERO ISZERO PUSH2 0x137A JUMPI PUSH1 0x40 MLOAD PUSH32 0x8C379A000000000000000000000000000000000000000000000000000000000 DUP2 MSTORE PUSH1 0x4 ADD DUP1 DUP1 PUSH1 0x20 ADD DUP3 DUP2 SUB DUP3 MSTORE PUSH1 0x24 DUP2 MSTORE PUSH1 0x20 ADD DUP1 PUSH32 0x5468657265206172656E277420616E792062696473206F6E2074686520417563 DUP2 MSTORE PUSH1 0x20 ADD PUSH32 0x74696F6E00000000000000000000000000000000000000000000000000000000 DUP2 MSTORE POP PUSH1 0x40 ADD SWAP2 POP POP PUSH1 0x40 MLOAD DUP1 SWAP2 SUB SWAP1 REVERT JUMPDEST PUSH1 0x1 PUSH1 0x66 PUSH1 0x0 CALLER PUSH20 0xFFFFFFFFFFFFFFFFFFFFFFFFFFFFFFFFFFFFFFFF AND PUSH20 0xFFFFFFFFFFFFFFFFFFFFFFFFFFFFFFFFFFFFFFFF AND DUP2 MSTORE PUSH1 0x20 ADD SWAP1 DUP2 MSTORE PUSH1 0x20 ADD PUSH1 0x0 KECCAK256 SLOAD PUSH1 0x65 DUP2 LT ISZERO ISZERO PUSH2 0x13C8 JUMPI INVALID JUMPDEST ADD PUSH1 0x0 SWAP1 SLOAD SWAP1 PUSH2 0x100 EXP SWAP1 DIV PUSH20 0xFFFFFFFFFFFFFFFFFFFFFFFFFFFFFFFFFFFFFFFF AND PUSH20 0xFFFFFFFFFFFFFFFFFFFFFFFFFFFFFFFFFFFFFFFF AND PUSH4 0x679DBF0C PUSH1 0x40 MLOAD DUP2 PUSH4 0xFFFFFFFF AND PUSH29 0x100000000000000000000000000000000000000000000000000000000 MUL DUP2 MSTORE PUSH1 0x4 ADD PUSH1 0x0 PUSH1 0x40 MLOAD DUP1 DUP4 SUB DUP2 PUSH1 0x0 DUP8 DUP1 EXTCODESIZE ISZERO DUP1 ISZERO PUSH2 0x144D JUMPI PUSH1 0x0 DUP1 REVERT JUMPDEST POP GAS CALL ISZERO DUP1 ISZERO PUSH2 0x1461 JUMPI RETURNDATASIZE PUSH1 0x0 DUP1 RETURNDATACOPY RETURNDATASIZE PUSH1 0x0 REVERT JUMPDEST POP POP POP POP PUSH1 0x40 MLOAD RETURNDATASIZE PUSH1 0x0 DUP3 RETURNDATACOPY RETURNDATASIZE PUSH1 0x1F NOT PUSH1 0x1F DUP3 ADD AND DUP3 ADD DUP1 PUSH1 0x40 MSTORE POP PUSH1 0x20 DUP2 LT ISZERO PUSH2 0x148B JUMPI PUSH1 0x0 DUP1 REVERT JUMPDEST DUP2 ADD SWAP1 DUP1 DUP1 MLOAD PUSH5 0x100000000 DUP2 GT ISZERO PUSH2 0x14A3 JUMPI PUSH1 0x0 DUP1 REVERT JUMPDEST DUP3 DUP2 ADD SWAP1 POP PUSH1 0x20 DUP2 ADD DUP5 DUP2 GT ISZERO PUSH2 0x14B9 JUMPI PUSH1 0x0 DUP1 REVERT JUMPDEST DUP2 MLOAD DUP6 PUSH1 0x20 DUP3 MUL DUP4 ADD GT PUSH5 0x100000000 DUP3 GT OR ISZERO PUSH2 0x14D6 JUMPI PUSH1 0x0 DUP1 REVERT JUMPDEST POP POP SWAP3 SWAP2 SWAP1 POP POP POP SWAP1 POP SWAP1 JUMP JUMPDEST PUSH1 0x0 DUP1 PUSH1 0x0 PUSH1 0x66 PUSH1 0x0 CALLER PUSH20 0xFFFFFFFFFFFFFFFFFFFFFFFFFFFFFFFFFFFFFFFF AND PUSH20 0xFFFFFFFFFFFFFFFFFFFFFFFFFFFFFFFFFFFFFFFF AND DUP2 MSTORE PUSH1 0x20 ADD SWAP1 DUP2 MSTORE PUSH1 0x20 ADD PUSH1 0x0 KECCAK256 SLOAD EQ ISZERO ISZERO ISZERO PUSH2 0x159E JUMPI PUSH1 0x40 MLOAD PUSH32 0x8C379A000000000000000000000000000000000000000000000000000000000 DUP2 MSTORE PUSH1 0x4 ADD DUP1 DUP1 PUSH1 0x20 ADD DUP3 DUP2 SUB DUP3 MSTORE PUSH1 0x20 DUP2 MSTORE PUSH1 0x20 ADD DUP1 PUSH32 0x596F7520686176656E2774206372656174656420616E792041756374696F6E73 DUP2 MSTORE POP PUSH1 0x20 ADD SWAP2 POP POP PUSH1 0x40 MLOAD DUP1 SWAP2 SUB SWAP1 REVERT JUMPDEST PUSH1 0x1 PUSH1 0x66 PUSH1 0x0 CALLER PUSH20 0xFFFFFFFFFFFFFFFFFFFFFFFFFFFFFFFFFFFFFFFF AND PUSH20 0xFFFFFFFFFFFFFFFFFFFFFFFFFFFFFFFFFFFFFFFF AND DUP2 MSTORE PUSH1 0x20 ADD SWAP1 DUP2 MSTORE PUSH1 0x20 ADD PUSH1 0x0 KECCAK256 SLOAD PUSH1 0x65 DUP2 LT ISZERO ISZERO PUSH2 0x15EC JUMPI INVALID JUMPDEST ADD PUSH1 0x0 SWAP1 SLOAD SWAP1 PUSH2 0x100 EXP SWAP1 DIV PUSH20 0xFFFFFFFFFFFFFFFFFFFFFFFFFFFFFFFFFFFFFFFF AND PUSH20 0xFFFFFFFFFFFFFFFFFFFFFFFFFFFFFFFFFFFFFFFF AND PUSH4 0xDD06BA1A PUSH1 0x40 MLOAD DUP2 PUSH4 0xFFFFFFFF AND PUSH29 0x100000000000000000000000000000000000000000000000000000000 MUL DUP2 MSTORE PUSH1 0x4 ADD PUSH1 0x20 PUSH1 0x40 MLOAD DUP1 DUP4 SUB DUP2 PUSH1 0x0 DUP8 DUP1 EXTCODESIZE ISZERO DUP1 ISZERO PUSH2 0x1671 JUMPI PUSH1 0x0 DUP1 REVERT JUMPDEST POP GAS CALL ISZERO DUP1 ISZERO PUSH2 0x1685 JUMPI RETURNDATASIZE PUSH1 0x0 DUP1 RETURNDATACOPY RETURNDATASIZE PUSH1 0x0 REVERT JUMPDEST POP POP POP POP PUSH1 0x40 MLOAD RETURNDATASIZE PUSH1 0x20 DUP2 LT ISZERO PUSH2 0x169B JUMPI PUSH1 0x0 DUP1 REVERT JUMPDEST DUP2 ADD SWAP1 DUP1 DUP1 MLOAD SWAP1 PUSH1 0x20 ADD SWAP1 SWAP3 SWAP2 SWAP1 POP POP POP SWAP1 POP PUSH1 0x1 PUSH1 0x66 PUSH1 0x0 CALLER PUSH20 0xFFFFFFFFFFFFFFFFFFFFFFFFFFFFFFFFFFFFFFFF AND PUSH20 0xFFFFFFFFFFFFFFFFFFFFFFFFFFFFFFFFFFFFFFFF AND DUP2 MSTORE PUSH1 0x20 ADD SWAP1 DUP2 MSTORE PUSH1 0x20 ADD PUSH1 0x0 KECCAK256 SLOAD PUSH1 0x65 DUP2 LT ISZERO ISZERO PUSH2 0x16FC JUMPI INVALID JUMPDEST ADD PUSH1 0x0 SWAP1 SLOAD SWAP1 PUSH2 0x100 EXP SWAP1 DIV PUSH20 0xFFFFFFFFFFFFFFFFFFFFFFFFFFFFFFFFFFFFFFFF AND PUSH20 0xFFFFFFFFFFFFFFFFFFFFFFFFFFFFFFFFFFFFFFFF AND PUSH4 0xDEE37A8E DUP3 PUSH1 0x40 MLOAD DUP3 PUSH4 0xFFFFFFFF AND PUSH29 0x100000000000000000000000000000000000000000000000000000000 MUL DUP2 MSTORE PUSH1 0x4 ADD DUP1 DUP3 DUP2 MSTORE PUSH1 0x20 ADD SWAP2 POP POP PUSH1 0x20 PUSH1 0x40 MLOAD DUP1 DUP4 SUB DUP2 PUSH1 0x0 DUP8 DUP1 EXTCODESIZE ISZERO DUP1 ISZERO PUSH2 0x178C JUMPI PUSH1 0x0 DUP1 REVERT JUMPDEST POP GAS CALL ISZERO DUP1 ISZERO PUSH2 0x17A0 JUMPI RETURNDATASIZE PUSH1 0x0 DUP1 RETURNDATACOPY RETURNDATASIZE PUSH1 0x0 REVERT JUMPDEST POP POP POP POP PUSH1 0x40 MLOAD RETURNDATASIZE PUSH1 0x20 DUP2 LT ISZERO PUSH2 0x17B6 JUMPI PUSH1 0x0 DUP1 REVERT JUMPDEST DUP2 ADD SWAP1 DUP1 DUP1 MLOAD SWAP1 PUSH1 0x20 ADD SWAP1 SWAP3 SWAP2 SWAP1 POP POP POP SWAP2 POP POP SWAP1 JUMP JUMPDEST PUSH1 0x0 PUSH2 0x17DA DUP8 DUP8 DUP8 PUSH2 0x182B JUMP JUMPDEST ISZERO PUSH2 0x1806 JUMPI PUSH1 0x18 DUP5 LT DUP1 ISZERO PUSH2 0x17EF JUMPI POP PUSH1 0x3C DUP4 LT JUMPDEST DUP1 ISZERO PUSH2 0x17FB JUMPI POP PUSH1 0x3C DUP3 LT JUMPDEST ISZERO PUSH2 0x1805 JUMPI PUSH1 0x1 SWAP1 POP JUMPDEST JUMPDEST SWAP7 SWAP6 POP POP POP POP POP POP JUMP JUMPDEST PUSH1 0x0 PUSH3 0x15180 PUSH2 0x1821 DUP6 DUP6 DUP6 PUSH2 0x1881 JUMP JUMPDEST MUL SWAP1 POP SWAP4 SWAP3 POP POP POP JUMP JUMPDEST PUSH1 0x0 DUP1 PUSH2 0x7B2 DUP6 LT ISZERO DUP1 ISZERO PUSH2 0x1840 JUMPI POP PUSH1 0x0 DUP5 GT JUMPDEST DUP1 ISZERO PUSH2 0x184D JUMPI POP PUSH1 0xC DUP5 GT ISZERO JUMPDEST ISZERO PUSH2 0x1879 JUMPI PUSH2 0x185C DUP6 DUP6 PUSH2 0x193E JUMP JUMPDEST SWAP1 POP PUSH1 0x0 DUP4 GT DUP1 ISZERO PUSH2 0x186E JUMPI POP DUP1 DUP4 GT ISZERO JUMPDEST ISZERO PUSH2 0x1878 JUMPI PUSH1 0x1 SWAP2 POP JUMPDEST JUMPDEST POP SWAP4 SWAP3 POP POP POP JUMP JUMPDEST PUSH1 0x0 DUP1 PUSH1 0x0 DUP1 PUSH1 0x0 PUSH2 0x7B2 DUP9 LT ISZERO ISZERO ISZERO PUSH2 0x189A JUMPI PUSH1 0x0 DUP1 REVERT JUMPDEST DUP8 SWAP4 POP DUP7 SWAP3 POP DUP6 SWAP2 POP PUSH3 0x253D8C PUSH1 0x4 PUSH1 0x64 PUSH1 0xC PUSH1 0xE DUP8 SUB DUP2 ISZERO ISZERO PUSH2 0x18BA JUMPI INVALID JUMPDEST SDIV PUSH2 0x1324 DUP9 ADD ADD DUP2 ISZERO ISZERO PUSH2 0x18CA JUMPI INVALID JUMPDEST SDIV PUSH1 0x3 MUL DUP2 ISZERO ISZERO PUSH2 0x18D7 JUMPI INVALID JUMPDEST SDIV PUSH1 0xC DUP1 PUSH1 0xC PUSH1 0xE DUP9 SUB DUP2 ISZERO ISZERO PUSH2 0x18EA JUMPI INVALID JUMPDEST SDIV MUL PUSH1 0x2 DUP8 SUB SUB PUSH2 0x16F MUL DUP2 ISZERO ISZERO PUSH2 0x18FE JUMPI INVALID JUMPDEST SDIV PUSH1 0x4 PUSH1 0xC PUSH1 0xE DUP9 SUB DUP2 ISZERO ISZERO PUSH2 0x1910 JUMPI INVALID JUMPDEST SDIV PUSH2 0x12C0 DUP10 ADD ADD PUSH2 0x5B5 MUL DUP2 ISZERO ISZERO PUSH2 0x1924 JUMPI INVALID JUMPDEST SDIV PUSH2 0x7D4B DUP7 SUB ADD ADD SUB SUB SWAP1 POP DUP1 SWAP5 POP POP POP POP POP SWAP4 SWAP3 POP POP POP JUMP JUMPDEST PUSH1 0x0 PUSH1 0x1 DUP3 EQ DUP1 PUSH2 0x194F JUMPI POP PUSH1 0x3 DUP3 EQ JUMPDEST DUP1 PUSH2 0x195A JUMPI POP PUSH1 0x5 DUP3 EQ JUMPDEST DUP1 PUSH2 0x1965 JUMPI POP PUSH1 0x7 DUP3 EQ JUMPDEST DUP1 PUSH2 0x1970 JUMPI POP PUSH1 0x8 DUP3 EQ JUMPDEST DUP1 PUSH2 0x197B JUMPI POP PUSH1 0xA DUP3 EQ JUMPDEST DUP1 PUSH2 0x1986 JUMPI POP PUSH1 0xC DUP3 EQ JUMPDEST ISZERO PUSH2 0x1994 JUMPI PUSH1 0x1F SWAP1 POP PUSH2 0x19C5 JUMP JUMPDEST PUSH1 0x2 DUP3 EQ ISZERO ISZERO PUSH2 0x19A7 JUMPI PUSH1 0x1E SWAP1 POP PUSH2 0x19C4 JUMP JUMPDEST PUSH2 0x19B0 DUP4 PUSH2 0x19CB JUMP JUMPDEST PUSH2 0x19BB JUMPI PUSH1 0x1C PUSH2 0x19BE JUMP JUMPDEST PUSH1 0x1D JUMPDEST PUSH1 0xFF AND SWAP1 POP JUMPDEST JUMPDEST SWAP3 SWAP2 POP POP JUMP JUMPDEST PUSH1 0x0 DUP1 PUSH1 0x4 DUP4 DUP2 ISZERO ISZERO PUSH2 0x19DA JUMPI INVALID JUMPDEST MOD EQ DUP1 ISZERO PUSH2 0x19F5 JUMPI POP PUSH1 0x0 PUSH1 0x64 DUP4 DUP2 ISZERO ISZERO PUSH2 0x19F1 JUMPI INVALID JUMPDEST MOD EQ ISZERO JUMPDEST DUP1 PUSH2 0x1A0D JUMPI POP PUSH1 0x0 PUSH2 0x190 DUP4 DUP2 ISZERO ISZERO PUSH2 0x1A0A JUMPI INVALID JUMPDEST MOD EQ JUMPDEST SWAP1 POP SWAP2 SWAP1 POP JUMP JUMPDEST PUSH1 0x40 MLOAD PUSH2 0xB29 DUP1 PUSH2 0x1A25 DUP4 CODECOPY ADD SWAP1 JUMP STOP PUSH1 0x80 PUSH1 0x40 MSTORE CALLVALUE DUP1 ISZERO PUSH2 0x10 JUMPI PUSH1 0x0 DUP1 REVERT JUMPDEST POP PUSH1 0x40 MLOAD PUSH2 0xB29 CODESIZE SUB DUP1 PUSH2 0xB29 DUP4 CODECOPY DUP2 ADD DUP1 PUSH1 0x40 MSTORE DUP2 ADD SWAP1 DUP1 DUP1 MLOAD DUP3 ADD SWAP3 SWAP2 SWAP1 PUSH1 0x20 ADD DUP1 MLOAD SWAP1 PUSH1 0x20 ADD SWAP1 SWAP3 SWAP2 SWAP1 DUP1 MLOAD SWAP1 PUSH1 0x20 ADD SWAP1 SWAP3 SWAP2 SWAP1 DUP1 MLOAD SWAP1 PUSH1 0x20 ADD SWAP1 SWAP3 SWAP2 SWAP1 POP POP POP DUP4 PUSH1 0x0 SWAP1 DUP1 MLOAD SWAP1 PUSH1 0x20 ADD SWAP1 PUSH2 0x6A SWAP3 SWAP2 SWAP1 PUSH2 0x89 JUMP JUMPDEST POP DUP3 PUSH1 0x1 DUP2 SWAP1 SSTORE POP DUP2 PUSH1 0x2 DUP2 SWAP1 SSTORE POP DUP1 PUSH1 0x3 DUP2 SWAP1 SSTORE POP POP POP POP POP PUSH2 0x12E JUMP JUMPDEST DUP3 DUP1 SLOAD PUSH1 0x1 DUP2 PUSH1 0x1 AND ISZERO PUSH2 0x100 MUL SUB AND PUSH1 0x2 SWAP1 DIV SWAP1 PUSH1 0x0 MSTORE PUSH1 0x20 PUSH1 0x0 KECCAK256 SWAP1 PUSH1 0x1F ADD PUSH1 0x20 SWAP1 DIV DUP2 ADD SWAP3 DUP3 PUSH1 0x1F LT PUSH2 0xCA JUMPI DUP1 MLOAD PUSH1 0xFF NOT AND DUP4 DUP1 ADD OR DUP6 SSTORE PUSH2 0xF8 JUMP JUMPDEST DUP3 DUP1 ADD PUSH1 0x1 ADD DUP6 SSTORE DUP3 ISZERO PUSH2 0xF8 JUMPI SWAP2 DUP3 ADD JUMPDEST DUP3 DUP2 GT ISZERO PUSH2 0xF7 JUMPI DUP3 MLOAD DUP3 SSTORE SWAP2 PUSH1 0x20 ADD SWAP2 SWAP1 PUSH1 0x1 ADD SWAP1 PUSH2 0xDC JUMP JUMPDEST JUMPDEST POP SWAP1 POP PUSH2 0x105 SWAP2 SWAP1 PUSH2 0x109 JUMP JUMPDEST POP SWAP1 JUMP JUMPDEST PUSH2 0x12B SWAP2 SWAP1 JUMPDEST DUP1 DUP3 GT ISZERO PUSH2 0x127 JUMPI PUSH1 0x0 DUP2 PUSH1 0x0 SWAP1 SSTORE POP PUSH1 0x1 ADD PUSH2 0x10F JUMP JUMPDEST POP SWAP1 JUMP JUMPDEST SWAP1 JUMP JUMPDEST PUSH2 0x9EC DUP1 PUSH2 0x13D PUSH1 0x0 CODECOPY PUSH1 0x0 RETURN STOP PUSH1 0x80 PUSH1 0x40 MSTORE PUSH1 0x4 CALLDATASIZE LT PUSH2 0x83 JUMPI PUSH1 0x0 CALLDATALOAD PUSH29 0x100000000000000000000000000000000000000000000000000000000 SWAP1 DIV PUSH4 0xFFFFFFFF AND DUP1 PUSH4 0x409766E6 EQ PUSH2 0x88 JUMPI DUP1 PUSH4 0x439F5AC2 EQ PUSH2 0xB7 JUMPI DUP1 PUSH4 0x659DD2B4 EQ PUSH2 0xE2 JUMPI DUP1 PUSH4 0x679DBF0C EQ PUSH2 0x10F JUMPI DUP1 PUSH4 0xAD934674 EQ PUSH2 0x17B JUMPI DUP1 PUSH4 0xDD06BA1A EQ PUSH2 0x1A6 JUMPI DUP1 PUSH4 0xDEE37A8E EQ PUSH2 0x1D1 JUMPI JUMPDEST PUSH1 0x0 DUP1 REVERT JUMPDEST CALLVALUE DUP1 ISZERO PUSH2 0x94 JUMPI PUSH1 0x0 DUP1 REVERT JUMPDEST POP PUSH2 0x9D PUSH2 0x23E JUMP JUMPDEST PUSH1 0x40 MLOAD DUP1 DUP3 ISZERO ISZERO ISZERO ISZERO DUP2 MSTORE PUSH1 0x20 ADD SWAP2 POP POP PUSH1 0x40 MLOAD DUP1 SWAP2 SUB SWAP1 RETURN JUMPDEST CALLVALUE DUP1 ISZERO PUSH2 0xC3 JUMPI PUSH1 0x0 DUP1 REVERT JUMPDEST POP PUSH2 0xCC PUSH2 0x255 JUMP JUMPDEST PUSH1 0x40 MLOAD DUP1 DUP3 DUP2 MSTORE PUSH1 0x20 ADD SWAP2 POP POP PUSH1 0x40 MLOAD DUP1 SWAP2 SUB SWAP1 RETURN JUMPDEST CALLVALUE DUP1 ISZERO PUSH2 0xEE JUMPI PUSH1 0x0 DUP1 REVERT JUMPDEST POP PUSH2 0x10D PUSH1 0x4 DUP1 CALLDATASIZE SUB DUP2 ADD SWAP1 DUP1 DUP1 CALLDATALOAD SWAP1 PUSH1 0x20 ADD SWAP1 SWAP3 SWAP2 SWAP1 POP POP POP PUSH2 0x25F JUMP JUMPDEST STOP JUMPDEST CALLVALUE DUP1 ISZERO PUSH2 0x11B JUMPI PUSH1 0x0 DUP1 REVERT JUMPDEST POP PUSH2 0x124 PUSH2 0x51E JUMP JUMPDEST PUSH1 0x40 MLOAD DUP1 DUP1 PUSH1 0x20 ADD DUP3 DUP2 SUB DUP3 MSTORE DUP4 DUP2 DUP2 MLOAD DUP2 MSTORE PUSH1 0x20 ADD SWAP2 POP DUP1 MLOAD SWAP1 PUSH1 0x20 ADD SWAP1 PUSH1 0x20 MUL DUP1 DUP4 DUP4 PUSH1 0x0 JUMPDEST DUP4 DUP2 LT ISZERO PUSH2 0x167 JUMPI DUP1 DUP3 ADD MLOAD DUP2 DUP5 ADD MSTORE PUSH1 0x20 DUP2 ADD SWAP1 POP PUSH2 0x14C JUMP JUMPDEST POP POP POP POP SWAP1 POP ADD SWAP3 POP POP POP PUSH1 0x40 MLOAD DUP1 SWAP2 SUB SWAP1 RETURN JUMPDEST CALLVALUE DUP1 ISZERO PUSH2 0x187 JUMPI PUSH1 0x0 DUP1 REVERT JUMPDEST POP PUSH2 0x190 PUSH2 0x68B JUMP JUMPDEST PUSH1 0x40 MLOAD DUP1 DUP3 DUP2 MSTORE PUSH1 0x20 ADD SWAP2 POP POP PUSH1 0x40 MLOAD DUP1 SWAP2 SUB SWAP1 RETURN JUMPDEST CALLVALUE DUP1 ISZERO PUSH2 0x1B2 JUMPI PUSH1 0x0 DUP1 REVERT JUMPDEST POP PUSH2 0x1BB PUSH2 0x70E JUMP JUMPDEST PUSH1 0x40 MLOAD DUP1 DUP3 DUP2 MSTORE PUSH1 0x20 ADD SWAP2 POP POP PUSH1 0x40 MLOAD DUP1 SWAP2 SUB SWAP1 RETURN JUMPDEST CALLVALUE DUP1 ISZERO PUSH2 0x1DD JUMPI PUSH1 0x0 DUP1 REVERT JUMPDEST POP PUSH2 0x1FC PUSH1 0x4 DUP1 CALLDATASIZE SUB DUP2 ADD SWAP1 DUP1 DUP1 CALLDATALOAD SWAP1 PUSH1 0x20 ADD SWAP1 SWAP3 SWAP2 SWAP1 POP POP POP PUSH2 0x837 JUMP JUMPDEST PUSH1 0x40 MLOAD DUP1 DUP3 PUSH20 0xFFFFFFFFFFFFFFFFFFFFFFFFFFFFFFFFFFFFFFFF AND PUSH20 0xFFFFFFFFFFFFFFFFFFFFFFFFFFFFFFFFFFFFFFFF AND DUP2 MSTORE PUSH1 0x20 ADD SWAP2 POP POP PUSH1 0x40 MLOAD DUP1 SWAP2 SUB SWAP1 RETURN JUMPDEST PUSH1 0x0 PUSH1 0x4 PUSH1 0x0 SWAP1 SLOAD SWAP1 PUSH2 0x100 EXP SWAP1 DIV PUSH1 0xFF AND SWAP1 POP SWAP1 JUMP JUMPDEST PUSH1 0x0 PUSH1 0x2 SLOAD SWAP1 POP SWAP1 JUMP JUMPDEST DUP1 PUSH1 0x3 SLOAD DUP2 GT ISZERO ISZERO PUSH2 0x325 JUMPI PUSH1 0x40 MLOAD PUSH32 0x8C379A000000000000000000000000000000000000000000000000000000000 DUP2 MSTORE PUSH1 0x4 ADD DUP1 DUP1 PUSH1 0x20 ADD DUP3 DUP2 SUB DUP3 MSTORE PUSH1 0x45 DUP2 MSTORE PUSH1 0x20 ADD DUP1 PUSH32 0x506C6561736520656E7465722061206269642067726561746572207468616E20 DUP2 MSTORE PUSH1 0x20 ADD PUSH32 0x6D696E696D756D20726571756972656420626964206F6620676976656E206175 DUP2 MSTORE PUSH1 0x20 ADD PUSH32 0x6374696F6E000000000000000000000000000000000000000000000000000000 DUP2 MSTORE POP PUSH1 0x60 ADD SWAP2 POP POP PUSH1 0x40 MLOAD DUP1 SWAP2 SUB SWAP1 REVERT JUMPDEST PUSH1 0x2 SLOAD TIMESTAMP LT ISZERO ISZERO PUSH2 0x39E JUMPI PUSH1 0x40 MLOAD PUSH32 0x8C379A000000000000000000000000000000000000000000000000000000000 DUP2 MSTORE PUSH1 0x4 ADD DUP1 DUP1 PUSH1 0x20 ADD DUP3 DUP2 SUB DUP3 MSTORE PUSH1 0x14 DUP2 MSTORE PUSH1 0x20 ADD DUP1 PUSH32 0x41756374696F6E20697320496E61637469766520000000000000000000000000 DUP2 MSTORE POP PUSH1 0x20 ADD SWAP2 POP POP PUSH1 0x40 MLOAD DUP1 SWAP2 SUB SWAP1 REVERT JUMPDEST PUSH1 0x0 PUSH1 0x5 PUSH1 0x0 ORIGIN PUSH20 0xFFFFFFFFFFFFFFFFFFFFFFFFFFFFFFFFFFFFFFFF AND PUSH20 0xFFFFFFFFFFFFFFFFFFFFFFFFFFFFFFFFFFFFFFFF AND DUP2 MSTORE PUSH1 0x20 ADD SWAP1 DUP2 MSTORE PUSH1 0x20 ADD PUSH1 0x0 KECCAK256 SLOAD EQ ISZERO ISZERO PUSH2 0x455 JUMPI PUSH1 0x40 MLOAD PUSH32 0x8C379A000000000000000000000000000000000000000000000000000000000 DUP2 MSTORE PUSH1 0x4 ADD DUP1 DUP1 PUSH1 0x20 ADD DUP3 DUP2 SUB DUP3 MSTORE PUSH1 0x1E DUP2 MSTORE PUSH1 0x20 ADD DUP1 PUSH32 0x596F75206861766520616C726561647920637265617465642061206269640000 DUP2 MSTORE POP PUSH1 0x20 ADD SWAP2 POP POP PUSH1 0x40 MLOAD DUP1 SWAP2 SUB SWAP1 REVERT JUMPDEST PUSH1 0x1 PUSH1 0x4 PUSH1 0x0 PUSH2 0x100 EXP DUP2 SLOAD DUP2 PUSH1 0xFF MUL NOT AND SWAP1 DUP4 ISZERO ISZERO MUL OR SWAP1 SSTORE POP DUP2 PUSH1 0x5 PUSH1 0x0 ORIGIN PUSH20 0xFFFFFFFFFFFFFFFFFFFFFFFFFFFFFFFFFFFFFFFF AND PUSH20 0xFFFFFFFFFFFFFFFFFFFFFFFFFFFFFFFFFFFFFFFF AND DUP2 MSTORE PUSH1 0x20 ADD SWAP1 DUP2 MSTORE PUSH1 0x20 ADD PUSH1 0x0 KECCAK256 DUP2 SWAP1 SSTORE POP PUSH1 0x6 ORIGIN SWAP1 DUP1 PUSH1 0x1 DUP2 SLOAD ADD DUP1 DUP3 SSTORE DUP1 SWAP2 POP POP SWAP1 PUSH1 0x1 DUP3 SUB SWAP1 PUSH1 0x0 MSTORE PUSH1 0x20 PUSH1 0x0 KECCAK256 ADD PUSH1 0x0 SWAP1 SWAP2 SWAP3 SWAP1 SWAP2 SWAP1 SWAP2 PUSH2 0x100 EXP DUP2 SLOAD DUP2 PUSH20 0xFFFFFFFFFFFFFFFFFFFFFFFFFFFFFFFFFFFFFFFF MUL NOT AND SWAP1 DUP4 PUSH20 0xFFFFFFFFFFFFFFFFFFFFFFFFFFFFFFFFFFFFFFFF AND MUL OR SWAP1 SSTORE POP POP POP POP JUMP JUMPDEST PUSH1 0x60 DUP1 PUSH1 0x0 PUSH1 0x2 SLOAD TIMESTAMP LT ISZERO ISZERO PUSH2 0x59C JUMPI PUSH1 0x40 MLOAD PUSH32 0x8C379A000000000000000000000000000000000000000000000000000000000 DUP2 MSTORE PUSH1 0x4 ADD DUP1 DUP1 PUSH1 0x20 ADD DUP3 DUP2 SUB DUP3 MSTORE PUSH1 0x14 DUP2 MSTORE PUSH1 0x20 ADD DUP1 PUSH32 0x41756374696F6E20697320496E61637469766520000000000000000000000000 DUP2 MSTORE POP PUSH1 0x20 ADD SWAP2 POP POP PUSH1 0x40 MLOAD DUP1 SWAP2 SUB SWAP1 REVERT JUMPDEST PUSH1 0x6 DUP1 SLOAD SWAP1 POP PUSH1 0x40 MLOAD SWAP1 DUP1 DUP3 MSTORE DUP1 PUSH1 0x20 MUL PUSH1 0x20 ADD DUP3 ADD PUSH1 0x40 MSTORE DUP1 ISZERO PUSH2 0x5D0 JUMPI DUP2 PUSH1 0x20 ADD PUSH1 0x20 DUP3 MUL DUP1 CODESIZE DUP4 CODECOPY DUP1 DUP3 ADD SWAP2 POP POP SWAP1 POP JUMPDEST POP SWAP2 POP JUMPDEST PUSH1 0x6 DUP1 SLOAD SWAP1 POP DUP2 LT ISZERO PUSH2 0x683 JUMPI PUSH1 0x5 PUSH1 0x0 PUSH1 0x6 DUP4 DUP2 SLOAD DUP2 LT ISZERO ISZERO PUSH2 0x5F4 JUMPI INVALID JUMPDEST SWAP1 PUSH1 0x0 MSTORE PUSH1 0x20 PUSH1 0x0 KECCAK256 ADD PUSH1 0x0 SWAP1 SLOAD SWAP1 PUSH2 0x100 EXP SWAP1 DIV PUSH20 0xFFFFFFFFFFFFFFFFFFFFFFFFFFFFFFFFFFFFFFFF AND PUSH20 0xFFFFFFFFFFFFFFFFFFFFFFFFFFFFFFFFFFFFFFFF AND PUSH20 0xFFFFFFFFFFFFFFFFFFFFFFFFFFFFFFFFFFFFFFFF AND DUP2 MSTORE PUSH1 0x20 ADD SWAP1 DUP2 MSTORE PUSH1 0x20 ADD PUSH1 0x0 KECCAK256 SLOAD DUP3 DUP3 DUP2 MLOAD DUP2 LT ISZERO ISZERO PUSH2 0x668 JUMPI INVALID JUMPDEST SWAP1 PUSH1 0x20 ADD SWAP1 PUSH1 0x20 MUL ADD DUP2 DUP2 MSTORE POP POP DUP1 DUP1 PUSH1 0x1 ADD SWAP2 POP POP PUSH2 0x5D4 JUMP JUMPDEST DUP2 SWAP3 POP POP POP SWAP1 JUMP JUMPDEST PUSH1 0x0 PUSH1 0x2 SLOAD TIMESTAMP LT ISZERO ISZERO PUSH2 0x706 JUMPI PUSH1 0x40 MLOAD PUSH32 0x8C379A000000000000000000000000000000000000000000000000000000000 DUP2 MSTORE PUSH1 0x4 ADD DUP1 DUP1 PUSH1 0x20 ADD DUP3 DUP2 SUB DUP3 MSTORE PUSH1 0x14 DUP2 MSTORE PUSH1 0x20 ADD DUP1 PUSH32 0x41756374696F6E20697320496E61637469766520000000000000000000000000 DUP2 MSTORE POP PUSH1 0x20 ADD SWAP2 POP POP PUSH1 0x40 MLOAD DUP1 SWAP2 SUB SWAP1 REVERT JUMPDEST PUSH1 0x3 SLOAD SWAP1 POP SWAP1 JUMP JUMPDEST PUSH1 0x0 DUP1 PUSH1 0x0 PUSH1 0x2 SLOAD TIMESTAMP LT ISZERO ISZERO PUSH2 0x78C JUMPI PUSH1 0x40 MLOAD PUSH32 0x8C379A000000000000000000000000000000000000000000000000000000000 DUP2 MSTORE PUSH1 0x4 ADD DUP1 DUP1 PUSH1 0x20 ADD DUP3 DUP2 SUB DUP3 MSTORE PUSH1 0x14 DUP2 MSTORE PUSH1 0x20 ADD DUP1 PUSH32 0x41756374696F6E20697320496E61637469766520000000000000000000000000 DUP2 MSTORE POP PUSH1 0x20 ADD SWAP2 POP POP PUSH1 0x40 MLOAD DUP1 SWAP2 SUB SWAP1 REVERT JUMPDEST PUSH1 0x0 SWAP2 POP JUMPDEST PUSH1 0x6 DUP1 SLOAD SWAP1 POP DUP2 LT ISZERO PUSH2 0x82F JUMPI PUSH2 0x820 PUSH1 0x5 PUSH1 0x0 PUSH1 0x6 DUP5 DUP2 SLOAD DUP2 LT ISZERO ISZERO PUSH2 0x7B4 JUMPI INVALID JUMPDEST SWAP1 PUSH1 0x0 MSTORE PUSH1 0x20 PUSH1 0x0 KECCAK256 ADD PUSH1 0x0 SWAP1 SLOAD SWAP1 PUSH2 0x100 EXP SWAP1 DIV PUSH20 0xFFFFFFFFFFFFFFFFFFFFFFFFFFFFFFFFFFFFFFFF AND PUSH20 0xFFFFFFFFFFFFFFFFFFFFFFFFFFFFFFFFFFFFFFFF AND PUSH20 0xFFFFFFFFFFFFFFFFFFFFFFFFFFFFFFFFFFFFFFFF AND DUP2 MSTORE PUSH1 0x20 ADD SWAP1 DUP2 MSTORE PUSH1 0x20 ADD PUSH1 0x0 KECCAK256 SLOAD DUP4 PUSH2 0x9A6 JUMP JUMPDEST SWAP2 POP DUP1 DUP1 PUSH1 0x1 ADD SWAP2 POP POP PUSH2 0x791 JUMP JUMPDEST DUP2 SWAP3 POP POP POP SWAP1 JUMP JUMPDEST PUSH1 0x0 DUP1 PUSH1 0x0 PUSH1 0x2 SLOAD TIMESTAMP LT ISZERO ISZERO PUSH2 0x8B5 JUMPI PUSH1 0x40 MLOAD PUSH32 0x8C379A000000000000000000000000000000000000000000000000000000000 DUP2 MSTORE PUSH1 0x4 ADD DUP1 DUP1 PUSH1 0x20 ADD DUP3 DUP2 SUB DUP3 MSTORE PUSH1 0x14 DUP2 MSTORE PUSH1 0x20 ADD DUP1 PUSH32 0x41756374696F6E20697320496E61637469766520000000000000000000000000 DUP2 MSTORE POP PUSH1 0x20 ADD SWAP2 POP POP PUSH1 0x40 MLOAD DUP1 SWAP2 SUB SWAP1 REVERT JUMPDEST TIMESTAMP PUSH1 0x2 DUP2 SWAP1 SSTORE POP PUSH1 0x0 SWAP1 POP JUMPDEST PUSH1 0x6 DUP1 SLOAD SWAP1 POP DUP2 LT ISZERO PUSH2 0x99C JUMPI DUP4 PUSH1 0x5 PUSH1 0x0 PUSH1 0x6 DUP5 DUP2 SLOAD DUP2 LT ISZERO ISZERO PUSH2 0x8E2 JUMPI INVALID JUMPDEST SWAP1 PUSH1 0x0 MSTORE PUSH1 0x20 PUSH1 0x0 KECCAK256 ADD PUSH1 0x0 SWAP1 SLOAD SWAP1 PUSH2 0x100 EXP SWAP1 DIV PUSH20 0xFFFFFFFFFFFFFFFFFFFFFFFFFFFFFFFFFFFFFFFF AND PUSH20 0xFFFFFFFFFFFFFFFFFFFFFFFFFFFFFFFFFFFFFFFF AND PUSH20 0xFFFFFFFFFFFFFFFFFFFFFFFFFFFFFFFFFFFFFFFF AND DUP2 MSTORE PUSH1 0x20 ADD SWAP1 DUP2 MSTORE PUSH1 0x20 ADD PUSH1 0x0 KECCAK256 SLOAD EQ ISZERO PUSH2 0x98F JUMPI PUSH1 0x6 DUP2 DUP2 SLOAD DUP2 LT ISZERO ISZERO PUSH2 0x95D JUMPI INVALID JUMPDEST SWAP1 PUSH1 0x0 MSTORE PUSH1 0x20 PUSH1 0x0 KECCAK256 ADD PUSH1 0x0 SWAP1 SLOAD SWAP1 PUSH2 0x100 EXP SWAP1 DIV PUSH20 0xFFFFFFFFFFFFFFFFFFFFFFFFFFFFFFFFFFFFFFFF AND SWAP2 POP PUSH2 0x99C JUMP JUMPDEST DUP1 DUP1 PUSH1 0x1 ADD SWAP2 POP POP PUSH2 0x8C1 JUMP JUMPDEST DUP2 SWAP3 POP POP POP SWAP2 SWAP1 POP JUMP JUMPDEST PUSH1 0x0 DUP2 DUP4 LT ISZERO PUSH2 0x9B6 JUMPI DUP2 PUSH2 0x9B8 JUMP JUMPDEST DUP3 JUMPDEST SWAP1 POP SWAP3 SWAP2 POP POP JUMP STOP LOG1 PUSH6 0x627A7A723058 KECCAK256 0xb2 POP PUSH10 0x5D80D1B8F1596042C2BE 0x5f 0xac 0xb3 0x2a 0xda 0xd3 CODESIZE OR 0xd8 INVALID SWAP7 CALLDATACOPY REVERT GAS SHR 0x48 0xd7 MSTORE 0xb1 STOP 0x29 LOG1 PUSH6 0x627A7A723058 KECCAK256 LOG3 0x5e NOT REVERT 0xb6 DUP8 SELFDESTRUCT EQ 0xca 0xca 0x4c JUMP 0x49 0x4c 0xdc JUMPDEST PUSH24 0x59309D7A2BDD3218774110D8BCEB9D002900000000000000 "
				},
				"gasEstimates": {
					"creation": {
						"codeDepositCost": "1918600",
						"executionCost": "7032",
						"totalCost": "1925632"
					},
					"external": {
						"aucId()": "394",
						"bidOnAuction(uint256,uint256)": "infinite",
						"createAuction(string,uint256,uint256,uint256,uint256,uint256,uint256,uint256)": "infinite",
						"endAuction()": "infinite",
						"endAuction(uint256)": "infinite",
						"getListOfBidsOnAuction()": "infinite",
						"getListOfOwnBids()": "infinite",
						"getMaxBid()": "infinite"
					}
				},
				"methodIdentifiers": {
					"aucId()": "25c0cdaa",
					"bidOnAuction(uint256,uint256)": "9f635120",
					"createAuction(string,uint256,uint256,uint256,uint256,uint256,uint256,uint256)": "e3a57e65",
					"endAuction()": "fe67a54b",
					"endAuction(uint256)": "b9a2de3a",
					"getListOfBidsOnAuction()": "f2f58fcf",
					"getListOfOwnBids()": "d1fda965",
					"getMaxBid()": "7e12a251"
				}
			},
			"userdoc": {
				"methods": {}
			}
		}
	}
}