{
	"Auction Project/Auction.sol": {
		"Auction": {
			"abi": [
				{
					"inputs": [
						{
							"internalType": "string",
							"name": "_nameOfItem",
							"type": "string"
						},
						{
							"internalType": "uint256",
							"name": "_startingBid",
							"type": "uint256"
						}
					],
					"stateMutability": "nonpayable",
					"type": "constructor"
				},
				{
					"inputs": [
						{
							"internalType": "address",
							"name": "",
							"type": "address"
						}
					],
					"name": "bidList",
					"outputs": [
						{
							"internalType": "uint256",
							"name": "",
							"type": "uint256"
						}
					],
					"stateMutability": "view",
					"type": "function"
				},
				{
					"inputs": [],
					"name": "closeBid",
					"outputs": [],
					"stateMutability": "nonpayable",
					"type": "function"
				},
				{
					"inputs": [],
					"name": "controlBid",
					"outputs": [],
					"stateMutability": "payable",
					"type": "function"
				},
				{
					"inputs": [
						{
							"internalType": "uint256",
							"name": "_amount",
							"type": "uint256"
						}
					],
					"name": "createBid",
					"outputs": [],
					"stateMutability": "payable",
					"type": "function"
				},
				{
					"inputs": [
						{
							"internalType": "uint256",
							"name": "_amount",
							"type": "uint256"
						}
					],
					"name": "updateBid",
					"outputs": [],
					"stateMutability": "payable",
					"type": "function"
				}
			],
			"devdoc": {
				"kind": "dev",
				"methods": {},
				"version": 1
			},
			"evm": {
				"assembly": "    /* \"Auction Project/Auction.sol\":366:2634  contract Auction {\r... */\n  mstore(0x40, 0x80)\n    /* \"Auction Project/Auction.sol\":660:930  constructor(string memory _nameOfItem, uint256 _startingBid) public {\r... */\n  callvalue\n  dup1\n  iszero\n  tag_1\n  jumpi\n  0x00\n  dup1\n  revert\ntag_1:\n  pop\n  mload(0x40)\n  sub(codesize, bytecodeSize)\n  dup1\n  bytecodeSize\n  dup4\n  codecopy\n  dup2\n  dup2\n  add\n  0x40\n  mstore\n  dup2\n  add\n  swap1\n  tag_2\n  swap2\n  swap1\n  tag_3\n  jump\t// in\ntag_2:\n    /* \"Auction Project/Auction.sol\":747:757  msg.sender */\n  caller\n    /* \"Auction Project/Auction.sol\":739:744  owner */\n  0x00\n  0x01\n    /* \"Auction Project/Auction.sol\":739:757  owner = msg.sender */\n  0x0100\n  exp\n  dup2\n  sload\n  dup2\n  0xffffffffffffffffffffffffffffffffffffffff\n  mul\n  not\n  and\n  swap1\n  dup4\n  0xffffffffffffffffffffffffffffffffffffffff\n  and\n  mul\n  or\n  swap1\n  sstore\n  pop\n    /* \"Auction Project/Auction.sol\":781:792  _nameOfItem */\n  dup2\n    /* \"Auction Project/Auction.sol\":768:778  nameOfItem */\n  0x01\n    /* \"Auction Project/Auction.sol\":768:792  nameOfItem = _nameOfItem */\n  swap1\n  dup1\n  mload\n  swap1\n  0x20\n  add\n  swap1\n  tag_6\n  swap3\n  swap2\n  swap1\n  tag_7\n  jump\t// in\ntag_6:\n  pop\n    /* \"Auction Project/Auction.sol\":817:829  _startingBid */\n  dup1\n    /* \"Auction Project/Auction.sol\":803:814  startingBid */\n  0x02\n    /* \"Auction Project/Auction.sol\":803:829  startingBid = _startingBid */\n  dup2\n  swap1\n  sstore\n  pop\n    /* \"Auction Project/Auction.sol\":851:855  true */\n  0x01\n    /* \"Auction Project/Auction.sol\":840:848  allowBid */\n  0x00\n  dup1\n    /* \"Auction Project/Auction.sol\":840:855  allowBid = true */\n  0x0100\n  exp\n  dup2\n  sload\n  dup2\n  0xff\n  mul\n  not\n  and\n  swap1\n  dup4\n  iszero\n  iszero\n  mul\n  or\n  swap1\n  sstore\n  pop\n    /* \"Auction Project/Auction.sol\":876:881  owner */\n  0x00\n  0x01\n  swap1\n  sload\n  swap1\n  0x0100\n  exp\n  swap1\n  div\n  0xffffffffffffffffffffffffffffffffffffffff\n  and\n    /* \"Auction Project/Auction.sol\":866:870  user */\n  0x03\n    /* \"Auction Project/Auction.sol\":866:873  user.id */\n  0x00\n  add\n  0x00\n    /* \"Auction Project/Auction.sol\":866:881  user.id = owner */\n  0x0100\n  exp\n  dup2\n  sload\n  dup2\n  0xffffffffffffffffffffffffffffffffffffffff\n  mul\n  not\n  and\n  swap1\n  dup4\n  0xffffffffffffffffffffffffffffffffffffffff\n  and\n  mul\n  or\n  swap1\n  sstore\n  pop\n    /* \"Auction Project/Auction.sol\":906:918  _startingBid */\n  dup1\n    /* \"Auction Project/Auction.sol\":892:896  user */\n  0x03\n    /* \"Auction Project/Auction.sol\":892:903  user.amount */\n  0x01\n  add\n    /* \"Auction Project/Auction.sol\":892:918  user.amount = _startingBid */\n  dup2\n  swap1\n  sstore\n  pop\n    /* \"Auction Project/Auction.sol\":660:930  constructor(string memory _nameOfItem, uint256 _startingBid) public {\r... */\n  pop\n  pop\n    /* \"Auction Project/Auction.sol\":366:2634  contract Auction {\r... */\n  jump(tag_8)\ntag_7:\n  dup3\n  dup1\n  sload\n  tag_9\n  swap1\n  tag_10\n  jump\t// in\ntag_9:\n  swap1\n  0x00\n  mstore\n  keccak256(0x00, 0x20)\n  swap1\n  0x1f\n  add\n  0x20\n  swap1\n  div\n  dup2\n  add\n  swap3\n  dup3\n  tag_12\n  jumpi\n  0x00\n  dup6\n  sstore\n  jump(tag_11)\ntag_12:\n  dup3\n  0x1f\n  lt\n  tag_13\n  jumpi\n  dup1\n  mload\n  not(0xff)\n  and\n  dup4\n  dup1\n  add\n  or\n  dup6\n  sstore\n  jump(tag_11)\ntag_13:\n  dup3\n  dup1\n  add\n  0x01\n  add\n  dup6\n  sstore\n  dup3\n  iszero\n  tag_11\n  jumpi\n  swap2\n  dup3\n  add\ntag_14:\n  dup3\n  dup2\n  gt\n  iszero\n  tag_15\n  jumpi\n  dup3\n  mload\n  dup3\n  sstore\n  swap2\n  0x20\n  add\n  swap2\n  swap1\n  0x01\n  add\n  swap1\n  jump(tag_14)\ntag_15:\ntag_11:\n  pop\n  swap1\n  pop\n  tag_16\n  swap2\n  swap1\n  tag_17\n  jump\t// in\ntag_16:\n  pop\n  swap1\n  jump\t// out\ntag_17:\ntag_18:\n  dup1\n  dup3\n  gt\n  iszero\n  tag_19\n  jumpi\n  0x00\n  dup2\n  0x00\n  swap1\n  sstore\n  pop\n  0x01\n  add\n  jump(tag_18)\ntag_19:\n  pop\n  swap1\n  jump\t// out\n    /* \"#utility.yul\":7:428   */\ntag_21:\n    /* \"#utility.yul\":96:101   */\n  0x00\n    /* \"#utility.yul\":121:187   */\n  tag_23\n    /* \"#utility.yul\":137:186   */\n  tag_24\n    /* \"#utility.yul\":179:185   */\n  dup5\n    /* \"#utility.yul\":137:186   */\n  tag_25\n  jump\t// in\ntag_24:\n    /* \"#utility.yul\":121:187   */\n  tag_26\n  jump\t// in\ntag_23:\n    /* \"#utility.yul\":112:187   */\n  swap1\n  pop\n    /* \"#utility.yul\":210:216   */\n  dup3\n    /* \"#utility.yul\":203:208   */\n  dup2\n    /* \"#utility.yul\":196:217   */\n  mstore\n    /* \"#utility.yul\":248:252   */\n  0x20\n    /* \"#utility.yul\":241:246   */\n  dup2\n    /* \"#utility.yul\":237:253   */\n  add\n    /* \"#utility.yul\":286:289   */\n  dup5\n    /* \"#utility.yul\":277:283   */\n  dup5\n    /* \"#utility.yul\":272:275   */\n  dup5\n    /* \"#utility.yul\":268:284   */\n  add\n    /* \"#utility.yul\":265:290   */\n  gt\n    /* \"#utility.yul\":262:374   */\n  iszero\n  tag_27\n  jumpi\n    /* \"#utility.yul\":293:372   */\n  tag_28\n  tag_29\n  jump\t// in\ntag_28:\n    /* \"#utility.yul\":262:374   */\ntag_27:\n    /* \"#utility.yul\":383:422   */\n  tag_30\n    /* \"#utility.yul\":415:421   */\n  dup5\n    /* \"#utility.yul\":410:413   */\n  dup3\n    /* \"#utility.yul\":405:408   */\n  dup6\n    /* \"#utility.yul\":383:422   */\n  tag_31\n  jump\t// in\ntag_30:\n    /* \"#utility.yul\":102:428   */\n  pop\n    /* \"#utility.yul\":7:428   */\n  swap4\n  swap3\n  pop\n  pop\n  pop\n  jump\t// out\n    /* \"#utility.yul\":448:803   */\ntag_32:\n    /* \"#utility.yul\":515:520   */\n  0x00\n    /* \"#utility.yul\":564:567   */\n  dup3\n    /* \"#utility.yul\":557:561   */\n  0x1f\n    /* \"#utility.yul\":549:555   */\n  dup4\n    /* \"#utility.yul\":545:562   */\n  add\n    /* \"#utility.yul\":541:568   */\n  slt\n    /* \"#utility.yul\":531:653   */\n  tag_34\n  jumpi\n    /* \"#utility.yul\":572:651   */\n  tag_35\n  tag_36\n  jump\t// in\ntag_35:\n    /* \"#utility.yul\":531:653   */\ntag_34:\n    /* \"#utility.yul\":682:688   */\n  dup2\n    /* \"#utility.yul\":676:689   */\n  mload\n    /* \"#utility.yul\":707:797   */\n  tag_37\n    /* \"#utility.yul\":793:796   */\n  dup5\n    /* \"#utility.yul\":785:791   */\n  dup3\n    /* \"#utility.yul\":778:782   */\n  0x20\n    /* \"#utility.yul\":770:776   */\n  dup7\n    /* \"#utility.yul\":766:783   */\n  add\n    /* \"#utility.yul\":707:797   */\n  tag_21\n  jump\t// in\ntag_37:\n    /* \"#utility.yul\":698:797   */\n  swap2\n  pop\n    /* \"#utility.yul\":521:803   */\n  pop\n    /* \"#utility.yul\":448:803   */\n  swap3\n  swap2\n  pop\n  pop\n  jump\t// out\n    /* \"#utility.yul\":809:952   */\ntag_38:\n    /* \"#utility.yul\":866:871   */\n  0x00\n    /* \"#utility.yul\":897:903   */\n  dup2\n    /* \"#utility.yul\":891:904   */\n  mload\n    /* \"#utility.yul\":882:904   */\n  swap1\n  pop\n    /* \"#utility.yul\":913:946   */\n  tag_40\n    /* \"#utility.yul\":940:945   */\n  dup2\n    /* \"#utility.yul\":913:946   */\n  tag_41\n  jump\t// in\ntag_40:\n    /* \"#utility.yul\":809:952   */\n  swap3\n  swap2\n  pop\n  pop\n  jump\t// out\n    /* \"#utility.yul\":958:1638   */\ntag_3:\n    /* \"#utility.yul\":1047:1053   */\n  0x00\n    /* \"#utility.yul\":1055:1061   */\n  dup1\n    /* \"#utility.yul\":1104:1106   */\n  0x40\n    /* \"#utility.yul\":1092:1101   */\n  dup4\n    /* \"#utility.yul\":1083:1090   */\n  dup6\n    /* \"#utility.yul\":1079:1102   */\n  sub\n    /* \"#utility.yul\":1075:1107   */\n  slt\n    /* \"#utility.yul\":1072:1191   */\n  iszero\n  tag_43\n  jumpi\n    /* \"#utility.yul\":1110:1189   */\n  tag_44\n  tag_45\n  jump\t// in\ntag_44:\n    /* \"#utility.yul\":1072:1191   */\ntag_43:\n    /* \"#utility.yul\":1251:1252   */\n  0x00\n    /* \"#utility.yul\":1240:1249   */\n  dup4\n    /* \"#utility.yul\":1236:1253   */\n  add\n    /* \"#utility.yul\":1230:1254   */\n  mload\n    /* \"#utility.yul\":1281:1299   */\n  0xffffffffffffffff\n    /* \"#utility.yul\":1273:1279   */\n  dup2\n    /* \"#utility.yul\":1270:1300   */\n  gt\n    /* \"#utility.yul\":1267:1384   */\n  iszero\n  tag_46\n  jumpi\n    /* \"#utility.yul\":1303:1382   */\n  tag_47\n  tag_48\n  jump\t// in\ntag_47:\n    /* \"#utility.yul\":1267:1384   */\ntag_46:\n    /* \"#utility.yul\":1408:1482   */\n  tag_49\n    /* \"#utility.yul\":1474:1481   */\n  dup6\n    /* \"#utility.yul\":1465:1471   */\n  dup3\n    /* \"#utility.yul\":1454:1463   */\n  dup7\n    /* \"#utility.yul\":1450:1472   */\n  add\n    /* \"#utility.yul\":1408:1482   */\n  tag_32\n  jump\t// in\ntag_49:\n    /* \"#utility.yul\":1398:1482   */\n  swap3\n  pop\n    /* \"#utility.yul\":1201:1492   */\n  pop\n    /* \"#utility.yul\":1531:1533   */\n  0x20\n    /* \"#utility.yul\":1557:1621   */\n  tag_50\n    /* \"#utility.yul\":1613:1620   */\n  dup6\n    /* \"#utility.yul\":1604:1610   */\n  dup3\n    /* \"#utility.yul\":1593:1602   */\n  dup7\n    /* \"#utility.yul\":1589:1611   */\n  add\n    /* \"#utility.yul\":1557:1621   */\n  tag_38\n  jump\t// in\ntag_50:\n    /* \"#utility.yul\":1547:1621   */\n  swap2\n  pop\n    /* \"#utility.yul\":1502:1631   */\n  pop\n    /* \"#utility.yul\":958:1638   */\n  swap3\n  pop\n  swap3\n  swap1\n  pop\n  jump\t// out\n    /* \"#utility.yul\":1644:1773   */\ntag_26:\n    /* \"#utility.yul\":1678:1684   */\n  0x00\n    /* \"#utility.yul\":1705:1725   */\n  tag_52\n  tag_53\n  jump\t// in\ntag_52:\n    /* \"#utility.yul\":1695:1725   */\n  swap1\n  pop\n    /* \"#utility.yul\":1734:1767   */\n  tag_54\n    /* \"#utility.yul\":1762:1766   */\n  dup3\n    /* \"#utility.yul\":1754:1760   */\n  dup3\n    /* \"#utility.yul\":1734:1767   */\n  tag_55\n  jump\t// in\ntag_54:\n    /* \"#utility.yul\":1644:1773   */\n  swap2\n  swap1\n  pop\n  jump\t// out\n    /* \"#utility.yul\":1779:1854   */\ntag_53:\n    /* \"#utility.yul\":1812:1818   */\n  0x00\n    /* \"#utility.yul\":1845:1847   */\n  0x40\n    /* \"#utility.yul\":1839:1848   */\n  mload\n    /* \"#utility.yul\":1829:1848   */\n  swap1\n  pop\n    /* \"#utility.yul\":1779:1854   */\n  swap1\n  jump\t// out\n    /* \"#utility.yul\":1860:2168   */\ntag_25:\n    /* \"#utility.yul\":1922:1926   */\n  0x00\n    /* \"#utility.yul\":2012:2030   */\n  0xffffffffffffffff\n    /* \"#utility.yul\":2004:2010   */\n  dup3\n    /* \"#utility.yul\":2001:2031   */\n  gt\n    /* \"#utility.yul\":1998:2054   */\n  iszero\n  tag_58\n  jumpi\n    /* \"#utility.yul\":2034:2052   */\n  tag_59\n  tag_60\n  jump\t// in\ntag_59:\n    /* \"#utility.yul\":1998:2054   */\ntag_58:\n    /* \"#utility.yul\":2072:2101   */\n  tag_61\n    /* \"#utility.yul\":2094:2100   */\n  dup3\n    /* \"#utility.yul\":2072:2101   */\n  tag_62\n  jump\t// in\ntag_61:\n    /* \"#utility.yul\":2064:2101   */\n  swap1\n  pop\n    /* \"#utility.yul\":2156:2160   */\n  0x20\n    /* \"#utility.yul\":2150:2154   */\n  dup2\n    /* \"#utility.yul\":2146:2161   */\n  add\n    /* \"#utility.yul\":2138:2161   */\n  swap1\n  pop\n    /* \"#utility.yul\":1860:2168   */\n  swap2\n  swap1\n  pop\n  jump\t// out\n    /* \"#utility.yul\":2174:2251   */\ntag_63:\n    /* \"#utility.yul\":2211:2218   */\n  0x00\n    /* \"#utility.yul\":2240:2245   */\n  dup2\n    /* \"#utility.yul\":2229:2245   */\n  swap1\n  pop\n    /* \"#utility.yul\":2174:2251   */\n  swap2\n  swap1\n  pop\n  jump\t// out\n    /* \"#utility.yul\":2257:2564   */\ntag_31:\n    /* \"#utility.yul\":2325:2326   */\n  0x00\n    /* \"#utility.yul\":2335:2448   */\ntag_66:\n    /* \"#utility.yul\":2349:2355   */\n  dup4\n    /* \"#utility.yul\":2346:2347   */\n  dup2\n    /* \"#utility.yul\":2343:2356   */\n  lt\n    /* \"#utility.yul\":2335:2448   */\n  iszero\n  tag_68\n  jumpi\n    /* \"#utility.yul\":2434:2435   */\n  dup1\n    /* \"#utility.yul\":2429:2432   */\n  dup3\n    /* \"#utility.yul\":2425:2436   */\n  add\n    /* \"#utility.yul\":2419:2437   */\n  mload\n    /* \"#utility.yul\":2415:2416   */\n  dup2\n    /* \"#utility.yul\":2410:2413   */\n  dup5\n    /* \"#utility.yul\":2406:2417   */\n  add\n    /* \"#utility.yul\":2399:2438   */\n  mstore\n    /* \"#utility.yul\":2371:2373   */\n  0x20\n    /* \"#utility.yul\":2368:2369   */\n  dup2\n    /* \"#utility.yul\":2364:2374   */\n  add\n    /* \"#utility.yul\":2359:2374   */\n  swap1\n  pop\n    /* \"#utility.yul\":2335:2448   */\n  jump(tag_66)\ntag_68:\n    /* \"#utility.yul\":2466:2472   */\n  dup4\n    /* \"#utility.yul\":2463:2464   */\n  dup2\n    /* \"#utility.yul\":2460:2473   */\n  gt\n    /* \"#utility.yul\":2457:2558   */\n  iszero\n  tag_69\n  jumpi\n    /* \"#utility.yul\":2546:2547   */\n  0x00\n    /* \"#utility.yul\":2537:2543   */\n  dup5\n    /* \"#utility.yul\":2532:2535   */\n  dup5\n    /* \"#utility.yul\":2528:2544   */\n  add\n    /* \"#utility.yul\":2521:2548   */\n  mstore\n    /* \"#utility.yul\":2457:2558   */\ntag_69:\n    /* \"#utility.yul\":2306:2564   */\n  pop\n    /* \"#utility.yul\":2257:2564   */\n  pop\n  pop\n  pop\n  jump\t// out\n    /* \"#utility.yul\":2570:2890   */\ntag_10:\n    /* \"#utility.yul\":2614:2620   */\n  0x00\n    /* \"#utility.yul\":2651:2652   */\n  0x02\n    /* \"#utility.yul\":2645:2649   */\n  dup3\n    /* \"#utility.yul\":2641:2653   */\n  div\n    /* \"#utility.yul\":2631:2653   */\n  swap1\n  pop\n    /* \"#utility.yul\":2698:2699   */\n  0x01\n    /* \"#utility.yul\":2692:2696   */\n  dup3\n    /* \"#utility.yul\":2688:2700   */\n  and\n    /* \"#utility.yul\":2719:2737   */\n  dup1\n    /* \"#utility.yul\":2709:2790   */\n  tag_71\n  jumpi\n    /* \"#utility.yul\":2775:2779   */\n  0x7f\n    /* \"#utility.yul\":2767:2773   */\n  dup3\n    /* \"#utility.yul\":2763:2780   */\n  and\n    /* \"#utility.yul\":2753:2780   */\n  swap2\n  pop\n    /* \"#utility.yul\":2709:2790   */\ntag_71:\n    /* \"#utility.yul\":2837:2839   */\n  0x20\n    /* \"#utility.yul\":2829:2835   */\n  dup3\n    /* \"#utility.yul\":2826:2840   */\n  lt\n    /* \"#utility.yul\":2806:2824   */\n  dup2\n    /* \"#utility.yul\":2803:2841   */\n  eq\n    /* \"#utility.yul\":2800:2884   */\n  iszero\n  tag_72\n  jumpi\n    /* \"#utility.yul\":2856:2874   */\n  tag_73\n  tag_74\n  jump\t// in\ntag_73:\n    /* \"#utility.yul\":2800:2884   */\ntag_72:\n    /* \"#utility.yul\":2621:2890   */\n  pop\n    /* \"#utility.yul\":2570:2890   */\n  swap2\n  swap1\n  pop\n  jump\t// out\n    /* \"#utility.yul\":2896:3177   */\ntag_55:\n    /* \"#utility.yul\":2979:3006   */\n  tag_76\n    /* \"#utility.yul\":3001:3005   */\n  dup3\n    /* \"#utility.yul\":2979:3006   */\n  tag_62\n  jump\t// in\ntag_76:\n    /* \"#utility.yul\":2971:2977   */\n  dup2\n    /* \"#utility.yul\":2967:3007   */\n  add\n    /* \"#utility.yul\":3109:3115   */\n  dup2\n    /* \"#utility.yul\":3097:3107   */\n  dup2\n    /* \"#utility.yul\":3094:3116   */\n  lt\n    /* \"#utility.yul\":3073:3091   */\n  0xffffffffffffffff\n    /* \"#utility.yul\":3061:3071   */\n  dup3\n    /* \"#utility.yul\":3058:3092   */\n  gt\n    /* \"#utility.yul\":3055:3117   */\n  or\n    /* \"#utility.yul\":3052:3140   */\n  iszero\n  tag_77\n  jumpi\n    /* \"#utility.yul\":3120:3138   */\n  tag_78\n  tag_60\n  jump\t// in\ntag_78:\n    /* \"#utility.yul\":3052:3140   */\ntag_77:\n    /* \"#utility.yul\":3160:3170   */\n  dup1\n    /* \"#utility.yul\":3156:3158   */\n  0x40\n    /* \"#utility.yul\":3149:3171   */\n  mstore\n    /* \"#utility.yul\":2939:3177   */\n  pop\n    /* \"#utility.yul\":2896:3177   */\n  pop\n  pop\n  jump\t// out\n    /* \"#utility.yul\":3183:3363   */\ntag_74:\n    /* \"#utility.yul\":3231:3308   */\n  0x4e487b7100000000000000000000000000000000000000000000000000000000\n    /* \"#utility.yul\":3228:3229   */\n  0x00\n    /* \"#utility.yul\":3221:3309   */\n  mstore\n    /* \"#utility.yul\":3328:3332   */\n  0x22\n    /* \"#utility.yul\":3325:3326   */\n  0x04\n    /* \"#utility.yul\":3318:3333   */\n  mstore\n    /* \"#utility.yul\":3352:3356   */\n  0x24\n    /* \"#utility.yul\":3349:3350   */\n  0x00\n    /* \"#utility.yul\":3342:3357   */\n  revert\n    /* \"#utility.yul\":3369:3549   */\ntag_60:\n    /* \"#utility.yul\":3417:3494   */\n  0x4e487b7100000000000000000000000000000000000000000000000000000000\n    /* \"#utility.yul\":3414:3415   */\n  0x00\n    /* \"#utility.yul\":3407:3495   */\n  mstore\n    /* \"#utility.yul\":3514:3518   */\n  0x41\n    /* \"#utility.yul\":3511:3512   */\n  0x04\n    /* \"#utility.yul\":3504:3519   */\n  mstore\n    /* \"#utility.yul\":3538:3542   */\n  0x24\n    /* \"#utility.yul\":3535:3536   */\n  0x00\n    /* \"#utility.yul\":3528:3543   */\n  revert\n    /* \"#utility.yul\":3555:3672   */\ntag_36:\n    /* \"#utility.yul\":3664:3665   */\n  0x00\n    /* \"#utility.yul\":3661:3662   */\n  dup1\n    /* \"#utility.yul\":3654:3666   */\n  revert\n    /* \"#utility.yul\":3678:3795   */\ntag_29:\n    /* \"#utility.yul\":3787:3788   */\n  0x00\n    /* \"#utility.yul\":3784:3785   */\n  dup1\n    /* \"#utility.yul\":3777:3789   */\n  revert\n    /* \"#utility.yul\":3801:3918   */\ntag_48:\n    /* \"#utility.yul\":3910:3911   */\n  0x00\n    /* \"#utility.yul\":3907:3908   */\n  dup1\n    /* \"#utility.yul\":3900:3912   */\n  revert\n    /* \"#utility.yul\":3924:4041   */\ntag_45:\n    /* \"#utility.yul\":4033:4034   */\n  0x00\n    /* \"#utility.yul\":4030:4031   */\n  dup1\n    /* \"#utility.yul\":4023:4035   */\n  revert\n    /* \"#utility.yul\":4047:4149   */\ntag_62:\n    /* \"#utility.yul\":4088:4094   */\n  0x00\n    /* \"#utility.yul\":4139:4141   */\n  0x1f\n    /* \"#utility.yul\":4135:4142   */\n  not\n    /* \"#utility.yul\":4130:4132   */\n  0x1f\n    /* \"#utility.yul\":4123:4128   */\n  dup4\n    /* \"#utility.yul\":4119:4133   */\n  add\n    /* \"#utility.yul\":4115:4143   */\n  and\n    /* \"#utility.yul\":4105:4143   */\n  swap1\n  pop\n    /* \"#utility.yul\":4047:4149   */\n  swap2\n  swap1\n  pop\n  jump\t// out\n    /* \"#utility.yul\":4155:4277   */\ntag_41:\n    /* \"#utility.yul\":4228:4252   */\n  tag_87\n    /* \"#utility.yul\":4246:4251   */\n  dup2\n    /* \"#utility.yul\":4228:4252   */\n  tag_63\n  jump\t// in\ntag_87:\n    /* \"#utility.yul\":4221:4226   */\n  dup2\n    /* \"#utility.yul\":4218:4253   */\n  eq\n    /* \"#utility.yul\":4208:4271   */\n  tag_88\n  jumpi\n    /* \"#utility.yul\":4267:4268   */\n  0x00\n    /* \"#utility.yul\":4264:4265   */\n  dup1\n    /* \"#utility.yul\":4257:4269   */\n  revert\n    /* \"#utility.yul\":4208:4271   */\ntag_88:\n    /* \"#utility.yul\":4155:4277   */\n  pop\n  jump\t// out\n    /* \"Auction Project/Auction.sol\":366:2634  contract Auction {\r... */\ntag_8:\n  dataSize(sub_0)\n  dup1\n  dataOffset(sub_0)\n  0x00\n  codecopy\n  0x00\n  return\nstop\n\nsub_0: assembly {\n        /* \"Auction Project/Auction.sol\":366:2634  contract Auction {\r... */\n      mstore(0x40, 0x80)\n      jumpi(tag_1, lt(calldatasize, 0x04))\n      shr(0xe0, calldataload(0x00))\n      dup1\n      0x2b070628\n      eq\n      tag_2\n      jumpi\n      dup1\n      0x43129de1\n      eq\n      tag_3\n      jumpi\n      dup1\n      0x450bc632\n      eq\n      tag_4\n      jumpi\n      dup1\n      0x659dd2b4\n      eq\n      tag_5\n      jumpi\n      dup1\n      0xed8bde80\n      eq\n      tag_6\n      jumpi\n    tag_1:\n      0x00\n      dup1\n      revert\n        /* \"Auction Project/Auction.sol\":576:616  mapping(address=>uint256) public bidList */\n    tag_2:\n      callvalue\n      dup1\n      iszero\n      tag_7\n      jumpi\n      0x00\n      dup1\n      revert\n    tag_7:\n      pop\n      tag_8\n      0x04\n      dup1\n      calldatasize\n      sub\n      dup2\n      add\n      swap1\n      tag_9\n      swap2\n      swap1\n      tag_10\n      jump\t// in\n    tag_9:\n      tag_11\n      jump\t// in\n    tag_8:\n      mload(0x40)\n      tag_12\n      swap2\n      swap1\n      tag_13\n      jump\t// in\n    tag_12:\n      mload(0x40)\n      dup1\n      swap2\n      sub\n      swap1\n      return\n        /* \"Auction Project/Auction.sol\":2032:2457  function updateBid(uint256 _amount) public checkBid payable {\r... */\n    tag_3:\n      tag_14\n      0x04\n      dup1\n      calldatasize\n      sub\n      dup2\n      add\n      swap1\n      tag_15\n      swap2\n      swap1\n      tag_16\n      jump\t// in\n    tag_15:\n      tag_17\n      jump\t// in\n    tag_14:\n      stop\n        /* \"Auction Project/Auction.sol\":1323:1553  function controlBid() public onlyOwner payable{\r... */\n    tag_4:\n      tag_18\n      tag_19\n      jump\t// in\n    tag_18:\n      stop\n        /* \"Auction Project/Auction.sol\":1581:2024  function createBid(uint256 _amount) public checkBid checkBidAmount(_amount) payable {\r... */\n    tag_5:\n      tag_20\n      0x04\n      dup1\n      calldatasize\n      sub\n      dup2\n      add\n      swap1\n      tag_21\n      swap2\n      swap1\n      tag_16\n      jump\t// in\n    tag_21:\n      tag_22\n      jump\t// in\n    tag_20:\n      stop\n        /* \"Auction Project/Auction.sol\":2465:2623  function closeBid() public onlyOwner {\r... */\n    tag_6:\n      callvalue\n      dup1\n      iszero\n      tag_23\n      jumpi\n      0x00\n      dup1\n      revert\n    tag_23:\n      pop\n      tag_24\n      tag_25\n      jump\t// in\n    tag_24:\n      stop\n        /* \"Auction Project/Auction.sol\":576:616  mapping(address=>uint256) public bidList */\n    tag_11:\n      mstore(0x20, 0x05)\n      dup1\n      0x00\n      mstore\n      keccak256(0x00, 0x40)\n      0x00\n      swap2\n      pop\n      swap1\n      pop\n      sload\n      dup2\n      jump\t// out\n        /* \"Auction Project/Auction.sol\":2032:2457  function updateBid(uint256 _amount) public checkBid payable {\r... */\n    tag_17:\n        /* \"Auction Project/Auction.sol\":1132:1140  allowBid */\n      0x00\n      dup1\n      sload\n      swap1\n      0x0100\n      exp\n      swap1\n      div\n      0xff\n      and\n        /* \"Auction Project/Auction.sol\":1124:1141  require(allowBid) */\n      tag_27\n      jumpi\n      0x00\n      dup1\n      revert\n    tag_27:\n        /* \"Auction Project/Auction.sol\":2127:2128  0 */\n      0x00\n        /* \"Auction Project/Auction.sol\":2106:2113  bidList */\n      0x05\n        /* \"Auction Project/Auction.sol\":2106:2125  bidList[msg.sender] */\n      0x00\n        /* \"Auction Project/Auction.sol\":2114:2124  msg.sender */\n      caller\n        /* \"Auction Project/Auction.sol\":2106:2125  bidList[msg.sender] */\n      0xffffffffffffffffffffffffffffffffffffffff\n      and\n      0xffffffffffffffffffffffffffffffffffffffff\n      and\n      dup2\n      mstore\n      0x20\n      add\n      swap1\n      dup2\n      mstore\n      0x20\n      add\n      0x00\n      keccak256\n      sload\n        /* \"Auction Project/Auction.sol\":2106:2128  bidList[msg.sender]==0 */\n      eq\n        /* \"Auction Project/Auction.sol\":2103:2450  if(bidList[msg.sender]==0){\r... */\n      iszero\n      tag_29\n      jumpi\n      jump(tag_30)\n    tag_29:\n        /* \"Auction Project/Auction.sol\":2213:2245  bidList[msg.sender].add(_amount) */\n      tag_31\n        /* \"Auction Project/Auction.sol\":2237:2244  _amount */\n      dup2\n        /* \"Auction Project/Auction.sol\":2213:2220  bidList */\n      0x05\n        /* \"Auction Project/Auction.sol\":2213:2232  bidList[msg.sender] */\n      0x00\n        /* \"Auction Project/Auction.sol\":2221:2231  msg.sender */\n      caller\n        /* \"Auction Project/Auction.sol\":2213:2232  bidList[msg.sender] */\n      0xffffffffffffffffffffffffffffffffffffffff\n      and\n      0xffffffffffffffffffffffffffffffffffffffff\n      and\n      dup2\n      mstore\n      0x20\n      add\n      swap1\n      dup2\n      mstore\n      0x20\n      add\n      0x00\n      keccak256\n      sload\n        /* \"Auction Project/Auction.sol\":2213:2236  bidList[msg.sender].add */\n      tag_32\n      swap1\n        /* \"Auction Project/Auction.sol\":2213:2245  bidList[msg.sender].add(_amount) */\n      swap2\n      swap1\n      0xffffffff\n      and\n      jump\t// in\n    tag_31:\n      pop\n        /* \"Auction Project/Auction.sol\":2275:2282  bidList */\n      0x05\n        /* \"Auction Project/Auction.sol\":2275:2294  bidList[msg.sender] */\n      0x00\n        /* \"Auction Project/Auction.sol\":2283:2293  msg.sender */\n      caller\n        /* \"Auction Project/Auction.sol\":2275:2294  bidList[msg.sender] */\n      0xffffffffffffffffffffffffffffffffffffffff\n      and\n      0xffffffffffffffffffffffffffffffffffffffff\n      and\n      dup2\n      mstore\n      0x20\n      add\n      swap1\n      dup2\n      mstore\n      0x20\n      add\n      0x00\n      keccak256\n      sload\n        /* \"Auction Project/Auction.sol\":2263:2267  user */\n      0x03\n        /* \"Auction Project/Auction.sol\":2263:2274  user.amount */\n      0x01\n      add\n      sload\n        /* \"Auction Project/Auction.sol\":2263:2294  user.amount<bidList[msg.sender] */\n      lt\n        /* \"Auction Project/Auction.sol\":2260:2404  if(user.amount<bidList[msg.sender]){\r... */\n      iszero\n      tag_33\n      jumpi\n        /* \"Auction Project/Auction.sol\":2324:2334  msg.sender */\n      caller\n        /* \"Auction Project/Auction.sol\":2314:2318  user */\n      0x03\n        /* \"Auction Project/Auction.sol\":2314:2321  user.id */\n      0x00\n      add\n      0x00\n        /* \"Auction Project/Auction.sol\":2314:2334  user.id = msg.sender */\n      0x0100\n      exp\n      dup2\n      sload\n      dup2\n      0xffffffffffffffffffffffffffffffffffffffff\n      mul\n      not\n      and\n      swap1\n      dup4\n      0xffffffffffffffffffffffffffffffffffffffff\n      and\n      mul\n      or\n      swap1\n      sstore\n      pop\n        /* \"Auction Project/Auction.sol\":2367:2374  bidList */\n      0x05\n        /* \"Auction Project/Auction.sol\":2367:2386  bidList[msg.sender] */\n      0x00\n        /* \"Auction Project/Auction.sol\":2375:2385  msg.sender */\n      caller\n        /* \"Auction Project/Auction.sol\":2367:2386  bidList[msg.sender] */\n      0xffffffffffffffffffffffffffffffffffffffff\n      and\n      0xffffffffffffffffffffffffffffffffffffffff\n      and\n      dup2\n      mstore\n      0x20\n      add\n      swap1\n      dup2\n      mstore\n      0x20\n      add\n      0x00\n      keccak256\n      sload\n        /* \"Auction Project/Auction.sol\":2353:2357  user */\n      0x03\n        /* \"Auction Project/Auction.sol\":2353:2364  user.amount */\n      0x01\n      add\n        /* \"Auction Project/Auction.sol\":2353:2386  user.amount = bidList[msg.sender] */\n      dup2\n      swap1\n      sstore\n      pop\n        /* \"Auction Project/Auction.sol\":2260:2404  if(user.amount<bidList[msg.sender]){\r... */\n    tag_33:\n        /* \"Auction Project/Auction.sol\":2103:2450  if(bidList[msg.sender]==0){\r... */\n    tag_30:\n        /* \"Auction Project/Auction.sol\":2032:2457  function updateBid(uint256 _amount) public checkBid payable {\r... */\n      pop\n      jump\t// out\n        /* \"Auction Project/Auction.sol\":1323:1553  function controlBid() public onlyOwner payable{\r... */\n    tag_19:\n        /* \"Auction Project/Auction.sol\":1058:1063  owner */\n      0x00\n      0x01\n      swap1\n      sload\n      swap1\n      0x0100\n      exp\n      swap1\n      div\n      0xffffffffffffffffffffffffffffffffffffffff\n      and\n        /* \"Auction Project/Auction.sol\":1044:1063  msg.sender == owner */\n      0xffffffffffffffffffffffffffffffffffffffff\n      and\n        /* \"Auction Project/Auction.sol\":1044:1054  msg.sender */\n      caller\n        /* \"Auction Project/Auction.sol\":1044:1063  msg.sender == owner */\n      0xffffffffffffffffffffffffffffffffffffffff\n      and\n      eq\n        /* \"Auction Project/Auction.sol\":1036:1064  require(msg.sender == owner) */\n      tag_35\n      jumpi\n      0x00\n      dup1\n      revert\n    tag_35:\n        /* \"Auction Project/Auction.sol\":1383:1391  allowBid */\n      0x00\n      dup1\n      sload\n      swap1\n      0x0100\n      exp\n      swap1\n      div\n      0xff\n      and\n        /* \"Auction Project/Auction.sol\":1380:1546  if(allowBid){\r... */\n      iszero\n      tag_37\n      jumpi\n        /* \"Auction Project/Auction.sol\":1418:1423  false */\n      0x00\n        /* \"Auction Project/Auction.sol\":1407:1415  allowBid */\n      dup1\n      0x00\n        /* \"Auction Project/Auction.sol\":1407:1423  allowBid = false */\n      0x0100\n      exp\n      dup2\n      sload\n      dup2\n      0xff\n      mul\n      not\n      and\n      swap1\n      dup4\n      iszero\n      iszero\n      mul\n      or\n      swap1\n      sstore\n      pop\n        /* \"Auction Project/Auction.sol\":1380:1546  if(allowBid){\r... */\n      jump(tag_38)\n    tag_37:\n        /* \"Auction Project/Auction.sol\":1498:1502  true */\n      0x01\n        /* \"Auction Project/Auction.sol\":1487:1495  allowBid */\n      0x00\n      dup1\n        /* \"Auction Project/Auction.sol\":1487:1502  allowBid = true */\n      0x0100\n      exp\n      dup2\n      sload\n      dup2\n      0xff\n      mul\n      not\n      and\n      swap1\n      dup4\n      iszero\n      iszero\n      mul\n      or\n      swap1\n      sstore\n      pop\n        /* \"Auction Project/Auction.sol\":1380:1546  if(allowBid){\r... */\n    tag_38:\n        /* \"Auction Project/Auction.sol\":1323:1553  function controlBid() public onlyOwner payable{\r... */\n      jump\t// out\n        /* \"Auction Project/Auction.sol\":1581:2024  function createBid(uint256 _amount) public checkBid checkBidAmount(_amount) payable {\r... */\n    tag_22:\n        /* \"Auction Project/Auction.sol\":1132:1140  allowBid */\n      0x00\n      dup1\n      sload\n      swap1\n      0x0100\n      exp\n      swap1\n      div\n      0xff\n      and\n        /* \"Auction Project/Auction.sol\":1124:1141  require(allowBid) */\n      tag_40\n      jumpi\n      0x00\n      dup1\n      revert\n    tag_40:\n        /* \"Auction Project/Auction.sol\":1648:1655  _amount */\n      dup1\n        /* \"Auction Project/Auction.sol\":1238:1249  startingBid */\n      sload(0x02)\n        /* \"Auction Project/Auction.sol\":1228:1235  _amount */\n      dup2\n        /* \"Auction Project/Auction.sol\":1228:1249  _amount > startingBid */\n      gt\n        /* \"Auction Project/Auction.sol\":1220:1250  require(_amount > startingBid) */\n      tag_42\n      jumpi\n      0x00\n      dup1\n      revert\n    tag_42:\n        /* \"Auction Project/Auction.sol\":1710:1711  0 */\n      0x00\n        /* \"Auction Project/Auction.sol\":1689:1696  bidList */\n      0x05\n        /* \"Auction Project/Auction.sol\":1689:1708  bidList[msg.sender] */\n      0x00\n        /* \"Auction Project/Auction.sol\":1697:1707  msg.sender */\n      caller\n        /* \"Auction Project/Auction.sol\":1689:1708  bidList[msg.sender] */\n      0xffffffffffffffffffffffffffffffffffffffff\n      and\n      0xffffffffffffffffffffffffffffffffffffffff\n      and\n      dup2\n      mstore\n      0x20\n      add\n      swap1\n      dup2\n      mstore\n      0x20\n      add\n      0x00\n      keccak256\n      sload\n        /* \"Auction Project/Auction.sol\":1689:1711  bidList[msg.sender]!=0 */\n      eq\n        /* \"Auction Project/Auction.sol\":1686:1984  if(bidList[msg.sender]!=0){\r... */\n      tag_44\n      jumpi\n        /* \"Auction Project/Auction.sol\":1745:1752  _amount */\n      dup2\n        /* \"Auction Project/Auction.sol\":1723:1730  bidList */\n      0x05\n        /* \"Auction Project/Auction.sol\":1723:1742  bidList[msg.sender] */\n      0x00\n        /* \"Auction Project/Auction.sol\":1731:1741  msg.sender */\n      caller\n        /* \"Auction Project/Auction.sol\":1723:1742  bidList[msg.sender] */\n      0xffffffffffffffffffffffffffffffffffffffff\n      and\n      0xffffffffffffffffffffffffffffffffffffffff\n      and\n      dup2\n      mstore\n      0x20\n      add\n      swap1\n      dup2\n      mstore\n      0x20\n      add\n      0x00\n      keccak256\n        /* \"Auction Project/Auction.sol\":1723:1752  bidList[msg.sender] = _amount */\n      dup2\n      swap1\n      sstore\n      pop\n        /* \"Auction Project/Auction.sol\":1779:1786  _amount */\n      dup2\n        /* \"Auction Project/Auction.sol\":1766:1770  user */\n      0x03\n        /* \"Auction Project/Auction.sol\":1766:1777  user.amount */\n      0x01\n      add\n      sload\n        /* \"Auction Project/Auction.sol\":1766:1786  user.amount< _amount */\n      lt\n        /* \"Auction Project/Auction.sol\":1763:1870  if(user.amount< _amount){\r... */\n      iszero\n      tag_45\n      jumpi\n        /* \"Auction Project/Auction.sol\":1812:1822  msg.sender */\n      caller\n        /* \"Auction Project/Auction.sol\":1802:1806  user */\n      0x03\n        /* \"Auction Project/Auction.sol\":1802:1809  user.id */\n      0x00\n      add\n      0x00\n        /* \"Auction Project/Auction.sol\":1802:1822  user.id = msg.sender */\n      0x0100\n      exp\n      dup2\n      sload\n      dup2\n      0xffffffffffffffffffffffffffffffffffffffff\n      mul\n      not\n      and\n      swap1\n      dup4\n      0xffffffffffffffffffffffffffffffffffffffff\n      and\n      mul\n      or\n      swap1\n      sstore\n      pop\n        /* \"Auction Project/Auction.sol\":1851:1858  _amount */\n      dup2\n        /* \"Auction Project/Auction.sol\":1837:1841  user */\n      0x03\n        /* \"Auction Project/Auction.sol\":1837:1848  user.amount */\n      0x01\n      add\n        /* \"Auction Project/Auction.sol\":1837:1858  user.amount = _amount */\n      dup2\n      swap1\n      sstore\n      pop\n        /* \"Auction Project/Auction.sol\":1763:1870  if(user.amount< _amount){\r... */\n    tag_45:\n        /* \"Auction Project/Auction.sol\":1686:1984  if(bidList[msg.sender]!=0){\r... */\n      jump(tag_46)\n    tag_44:\n    tag_46:\n        /* \"Auction Project/Auction.sol\":1152:1153  _ */\n      pop\n        /* \"Auction Project/Auction.sol\":1581:2024  function createBid(uint256 _amount) public checkBid checkBidAmount(_amount) payable {\r... */\n      pop\n      jump\t// out\n        /* \"Auction Project/Auction.sol\":2465:2623  function closeBid() public onlyOwner {\r... */\n    tag_25:\n        /* \"Auction Project/Auction.sol\":1058:1063  owner */\n      0x00\n      0x01\n      swap1\n      sload\n      swap1\n      0x0100\n      exp\n      swap1\n      div\n      0xffffffffffffffffffffffffffffffffffffffff\n      and\n        /* \"Auction Project/Auction.sol\":1044:1063  msg.sender == owner */\n      0xffffffffffffffffffffffffffffffffffffffff\n      and\n        /* \"Auction Project/Auction.sol\":1044:1054  msg.sender */\n      caller\n        /* \"Auction Project/Auction.sol\":1044:1063  msg.sender == owner */\n      0xffffffffffffffffffffffffffffffffffffffff\n      and\n      eq\n        /* \"Auction Project/Auction.sol\":1036:1064  require(msg.sender == owner) */\n      tag_48\n      jumpi\n      0x00\n      dup1\n      revert\n    tag_48:\n        /* \"Auction Project/Auction.sol\":2515:2532  address payable o */\n      0x00\n        /* \"Auction Project/Auction.sol\":2543:2548  owner */\n      dup1\n      0x01\n      swap1\n      sload\n      swap1\n      0x0100\n      exp\n      swap1\n      div\n      0xffffffffffffffffffffffffffffffffffffffff\n      and\n        /* \"Auction Project/Auction.sol\":2515:2549  address payable o = payable(owner) */\n      swap1\n      pop\n        /* \"Auction Project/Auction.sol\":2605:2606  o */\n      dup1\n        /* \"Auction Project/Auction.sol\":2592:2607  selfdestruct(o) */\n      0xffffffffffffffffffffffffffffffffffffffff\n      and\n      selfdestruct\n        /* \"Auction Project/Auction.sol\":215:357  function add(uint256 a, uint256 b) internal pure returns(uint256){\r... */\n    tag_32:\n        /* \"Auction Project/Auction.sol\":272:279  uint256 */\n      0x00\n        /* \"Auction Project/Auction.sol\":291:300  uint256 c */\n      dup1\n        /* \"Auction Project/Auction.sol\":306:307  b */\n      dup3\n        /* \"Auction Project/Auction.sol\":303:304  a */\n      dup5\n        /* \"Auction Project/Auction.sol\":303:307  a+ b */\n      tag_51\n      swap2\n      swap1\n      tag_52\n      jump\t// in\n    tag_51:\n        /* \"Auction Project/Auction.sol\":291:307  uint256 c = a+ b */\n      swap1\n      pop\n        /* \"Auction Project/Auction.sol\":328:329  a */\n      dup4\n        /* \"Auction Project/Auction.sol\":325:326  c */\n      dup2\n        /* \"Auction Project/Auction.sol\":325:329  c>=a */\n      lt\n      iszero\n        /* \"Auction Project/Auction.sol\":318:330  assert(c>=a) */\n      tag_53\n      jumpi\n      tag_54\n      tag_55\n      jump\t// in\n    tag_54:\n    tag_53:\n        /* \"Auction Project/Auction.sol\":348:349  c */\n      dup1\n        /* \"Auction Project/Auction.sol\":341:349  return c */\n      swap2\n      pop\n      pop\n        /* \"Auction Project/Auction.sol\":215:357  function add(uint256 a, uint256 b) internal pure returns(uint256){\r... */\n      swap3\n      swap2\n      pop\n      pop\n      jump\t// out\n        /* \"#utility.yul\":7:146   */\n    tag_57:\n        /* \"#utility.yul\":53:58   */\n      0x00\n        /* \"#utility.yul\":91:97   */\n      dup2\n        /* \"#utility.yul\":78:98   */\n      calldataload\n        /* \"#utility.yul\":69:98   */\n      swap1\n      pop\n        /* \"#utility.yul\":107:140   */\n      tag_59\n        /* \"#utility.yul\":134:139   */\n      dup2\n        /* \"#utility.yul\":107:140   */\n      tag_60\n      jump\t// in\n    tag_59:\n        /* \"#utility.yul\":7:146   */\n      swap3\n      swap2\n      pop\n      pop\n      jump\t// out\n        /* \"#utility.yul\":152:291   */\n    tag_61:\n        /* \"#utility.yul\":198:203   */\n      0x00\n        /* \"#utility.yul\":236:242   */\n      dup2\n        /* \"#utility.yul\":223:243   */\n      calldataload\n        /* \"#utility.yul\":214:243   */\n      swap1\n      pop\n        /* \"#utility.yul\":252:285   */\n      tag_63\n        /* \"#utility.yul\":279:284   */\n      dup2\n        /* \"#utility.yul\":252:285   */\n      tag_64\n      jump\t// in\n    tag_63:\n        /* \"#utility.yul\":152:291   */\n      swap3\n      swap2\n      pop\n      pop\n      jump\t// out\n        /* \"#utility.yul\":297:626   */\n    tag_10:\n        /* \"#utility.yul\":356:362   */\n      0x00\n        /* \"#utility.yul\":405:407   */\n      0x20\n        /* \"#utility.yul\":393:402   */\n      dup3\n        /* \"#utility.yul\":384:391   */\n      dup5\n        /* \"#utility.yul\":380:403   */\n      sub\n        /* \"#utility.yul\":376:408   */\n      slt\n        /* \"#utility.yul\":373:492   */\n      iszero\n      tag_66\n      jumpi\n        /* \"#utility.yul\":411:490   */\n      tag_67\n      tag_68\n      jump\t// in\n    tag_67:\n        /* \"#utility.yul\":373:492   */\n    tag_66:\n        /* \"#utility.yul\":531:532   */\n      0x00\n        /* \"#utility.yul\":556:609   */\n      tag_69\n        /* \"#utility.yul\":601:608   */\n      dup5\n        /* \"#utility.yul\":592:598   */\n      dup3\n        /* \"#utility.yul\":581:590   */\n      dup6\n        /* \"#utility.yul\":577:599   */\n      add\n        /* \"#utility.yul\":556:609   */\n      tag_57\n      jump\t// in\n    tag_69:\n        /* \"#utility.yul\":546:609   */\n      swap2\n      pop\n        /* \"#utility.yul\":502:619   */\n      pop\n        /* \"#utility.yul\":297:626   */\n      swap3\n      swap2\n      pop\n      pop\n      jump\t// out\n        /* \"#utility.yul\":632:961   */\n    tag_16:\n        /* \"#utility.yul\":691:697   */\n      0x00\n        /* \"#utility.yul\":740:742   */\n      0x20\n        /* \"#utility.yul\":728:737   */\n      dup3\n        /* \"#utility.yul\":719:726   */\n      dup5\n        /* \"#utility.yul\":715:738   */\n      sub\n        /* \"#utility.yul\":711:743   */\n      slt\n        /* \"#utility.yul\":708:827   */\n      iszero\n      tag_71\n      jumpi\n        /* \"#utility.yul\":746:825   */\n      tag_72\n      tag_68\n      jump\t// in\n    tag_72:\n        /* \"#utility.yul\":708:827   */\n    tag_71:\n        /* \"#utility.yul\":866:867   */\n      0x00\n        /* \"#utility.yul\":891:944   */\n      tag_73\n        /* \"#utility.yul\":936:943   */\n      dup5\n        /* \"#utility.yul\":927:933   */\n      dup3\n        /* \"#utility.yul\":916:925   */\n      dup6\n        /* \"#utility.yul\":912:934   */\n      add\n        /* \"#utility.yul\":891:944   */\n      tag_61\n      jump\t// in\n    tag_73:\n        /* \"#utility.yul\":881:944   */\n      swap2\n      pop\n        /* \"#utility.yul\":837:954   */\n      pop\n        /* \"#utility.yul\":632:961   */\n      swap3\n      swap2\n      pop\n      pop\n      jump\t// out\n        /* \"#utility.yul\":967:1085   */\n    tag_74:\n        /* \"#utility.yul\":1054:1078   */\n      tag_76\n        /* \"#utility.yul\":1072:1077   */\n      dup2\n        /* \"#utility.yul\":1054:1078   */\n      tag_77\n      jump\t// in\n    tag_76:\n        /* \"#utility.yul\":1049:1052   */\n      dup3\n        /* \"#utility.yul\":1042:1079   */\n      mstore\n        /* \"#utility.yul\":967:1085   */\n      pop\n      pop\n      jump\t// out\n        /* \"#utility.yul\":1091:1313   */\n    tag_13:\n        /* \"#utility.yul\":1184:1188   */\n      0x00\n        /* \"#utility.yul\":1222:1224   */\n      0x20\n        /* \"#utility.yul\":1211:1220   */\n      dup3\n        /* \"#utility.yul\":1207:1225   */\n      add\n        /* \"#utility.yul\":1199:1225   */\n      swap1\n      pop\n        /* \"#utility.yul\":1235:1306   */\n      tag_79\n        /* \"#utility.yul\":1303:1304   */\n      0x00\n        /* \"#utility.yul\":1292:1301   */\n      dup4\n        /* \"#utility.yul\":1288:1305   */\n      add\n        /* \"#utility.yul\":1279:1285   */\n      dup5\n        /* \"#utility.yul\":1235:1306   */\n      tag_74\n      jump\t// in\n    tag_79:\n        /* \"#utility.yul\":1091:1313   */\n      swap3\n      swap2\n      pop\n      pop\n      jump\t// out\n        /* \"#utility.yul\":1400:1705   */\n    tag_52:\n        /* \"#utility.yul\":1440:1443   */\n      0x00\n        /* \"#utility.yul\":1459:1479   */\n      tag_83\n        /* \"#utility.yul\":1477:1478   */\n      dup3\n        /* \"#utility.yul\":1459:1479   */\n      tag_77\n      jump\t// in\n    tag_83:\n        /* \"#utility.yul\":1454:1479   */\n      swap2\n      pop\n        /* \"#utility.yul\":1493:1513   */\n      tag_84\n        /* \"#utility.yul\":1511:1512   */\n      dup4\n        /* \"#utility.yul\":1493:1513   */\n      tag_77\n      jump\t// in\n    tag_84:\n        /* \"#utility.yul\":1488:1513   */\n      swap3\n      pop\n        /* \"#utility.yul\":1647:1648   */\n      dup3\n        /* \"#utility.yul\":1579:1645   */\n      0xffffffffffffffffffffffffffffffffffffffffffffffffffffffffffffffff\n        /* \"#utility.yul\":1575:1649   */\n      sub\n        /* \"#utility.yul\":1572:1573   */\n      dup3\n        /* \"#utility.yul\":1569:1650   */\n      gt\n        /* \"#utility.yul\":1566:1673   */\n      iszero\n      tag_85\n      jumpi\n        /* \"#utility.yul\":1653:1671   */\n      tag_86\n      tag_87\n      jump\t// in\n    tag_86:\n        /* \"#utility.yul\":1566:1673   */\n    tag_85:\n        /* \"#utility.yul\":1697:1698   */\n      dup3\n        /* \"#utility.yul\":1694:1695   */\n      dup3\n        /* \"#utility.yul\":1690:1699   */\n      add\n        /* \"#utility.yul\":1683:1699   */\n      swap1\n      pop\n        /* \"#utility.yul\":1400:1705   */\n      swap3\n      swap2\n      pop\n      pop\n      jump\t// out\n        /* \"#utility.yul\":1711:1807   */\n    tag_88:\n        /* \"#utility.yul\":1748:1755   */\n      0x00\n        /* \"#utility.yul\":1777:1801   */\n      tag_90\n        /* \"#utility.yul\":1795:1800   */\n      dup3\n        /* \"#utility.yul\":1777:1801   */\n      tag_91\n      jump\t// in\n    tag_90:\n        /* \"#utility.yul\":1766:1801   */\n      swap1\n      pop\n        /* \"#utility.yul\":1711:1807   */\n      swap2\n      swap1\n      pop\n      jump\t// out\n        /* \"#utility.yul\":1813:1939   */\n    tag_91:\n        /* \"#utility.yul\":1850:1857   */\n      0x00\n        /* \"#utility.yul\":1890:1932   */\n      0xffffffffffffffffffffffffffffffffffffffff\n        /* \"#utility.yul\":1883:1888   */\n      dup3\n        /* \"#utility.yul\":1879:1933   */\n      and\n        /* \"#utility.yul\":1868:1933   */\n      swap1\n      pop\n        /* \"#utility.yul\":1813:1939   */\n      swap2\n      swap1\n      pop\n      jump\t// out\n        /* \"#utility.yul\":1945:2022   */\n    tag_77:\n        /* \"#utility.yul\":1982:1989   */\n      0x00\n        /* \"#utility.yul\":2011:2016   */\n      dup2\n        /* \"#utility.yul\":2000:2016   */\n      swap1\n      pop\n        /* \"#utility.yul\":1945:2022   */\n      swap2\n      swap1\n      pop\n      jump\t// out\n        /* \"#utility.yul\":2028:2208   */\n    tag_55:\n        /* \"#utility.yul\":2076:2153   */\n      0x4e487b7100000000000000000000000000000000000000000000000000000000\n        /* \"#utility.yul\":2073:2074   */\n      0x00\n        /* \"#utility.yul\":2066:2154   */\n      mstore\n        /* \"#utility.yul\":2173:2177   */\n      0x01\n        /* \"#utility.yul\":2170:2171   */\n      0x04\n        /* \"#utility.yul\":2163:2178   */\n      mstore\n        /* \"#utility.yul\":2197:2201   */\n      0x24\n        /* \"#utility.yul\":2194:2195   */\n      0x00\n        /* \"#utility.yul\":2187:2202   */\n      revert\n        /* \"#utility.yul\":2214:2394   */\n    tag_87:\n        /* \"#utility.yul\":2262:2339   */\n      0x4e487b7100000000000000000000000000000000000000000000000000000000\n        /* \"#utility.yul\":2259:2260   */\n      0x00\n        /* \"#utility.yul\":2252:2340   */\n      mstore\n        /* \"#utility.yul\":2359:2363   */\n      0x11\n        /* \"#utility.yul\":2356:2357   */\n      0x04\n        /* \"#utility.yul\":2349:2364   */\n      mstore\n        /* \"#utility.yul\":2383:2387   */\n      0x24\n        /* \"#utility.yul\":2380:2381   */\n      0x00\n        /* \"#utility.yul\":2373:2388   */\n      revert\n        /* \"#utility.yul\":2523:2640   */\n    tag_68:\n        /* \"#utility.yul\":2632:2633   */\n      0x00\n        /* \"#utility.yul\":2629:2630   */\n      dup1\n        /* \"#utility.yul\":2622:2634   */\n      revert\n        /* \"#utility.yul\":2646:2768   */\n    tag_60:\n        /* \"#utility.yul\":2719:2743   */\n      tag_100\n        /* \"#utility.yul\":2737:2742   */\n      dup2\n        /* \"#utility.yul\":2719:2743   */\n      tag_88\n      jump\t// in\n    tag_100:\n        /* \"#utility.yul\":2712:2717   */\n      dup2\n        /* \"#utility.yul\":2709:2744   */\n      eq\n        /* \"#utility.yul\":2699:2762   */\n      tag_101\n      jumpi\n        /* \"#utility.yul\":2758:2759   */\n      0x00\n        /* \"#utility.yul\":2755:2756   */\n      dup1\n        /* \"#utility.yul\":2748:2760   */\n      revert\n        /* \"#utility.yul\":2699:2762   */\n    tag_101:\n        /* \"#utility.yul\":2646:2768   */\n      pop\n      jump\t// out\n        /* \"#utility.yul\":2774:2896   */\n    tag_64:\n        /* \"#utility.yul\":2847:2871   */\n      tag_103\n        /* \"#utility.yul\":2865:2870   */\n      dup2\n        /* \"#utility.yul\":2847:2871   */\n      tag_77\n      jump\t// in\n    tag_103:\n        /* \"#utility.yul\":2840:2845   */\n      dup2\n        /* \"#utility.yul\":2837:2872   */\n      eq\n        /* \"#utility.yul\":2827:2890   */\n      tag_104\n      jumpi\n        /* \"#utility.yul\":2886:2887   */\n      0x00\n        /* \"#utility.yul\":2883:2884   */\n      dup1\n        /* \"#utility.yul\":2876:2888   */\n      revert\n        /* \"#utility.yul\":2827:2890   */\n    tag_104:\n        /* \"#utility.yul\":2774:2896   */\n      pop\n      jump\t// out\n\n    auxdata: 0xa26469706673582212201c633d6ef9c82f369d5520d37d157e43eae9f19bda9177bacc5ed5f06bf76dc664736f6c63430008070033\n}\n",
				"bytecode": {
					"linkReferences": {},
					"object": "60806040523480156200001157600080fd5b5060405162000bab38038062000bab83398181016040528101906200003791906200026f565b33600060016101000a81548173ffffffffffffffffffffffffffffffffffffffff021916908373ffffffffffffffffffffffffffffffffffffffff1602179055508160019080519060200190620000909291906200012a565b508060028190555060016000806101000a81548160ff021916908315150217905550600060019054906101000a900473ffffffffffffffffffffffffffffffffffffffff16600360000160006101000a81548173ffffffffffffffffffffffffffffffffffffffff021916908373ffffffffffffffffffffffffffffffffffffffff1602179055508060036001018190555050506200047d565b828054620001389062000374565b90600052602060002090601f0160209004810192826200015c5760008555620001a8565b82601f106200017757805160ff1916838001178555620001a8565b82800160010185558215620001a8579182015b82811115620001a75782518255916020019190600101906200018a565b5b509050620001b79190620001bb565b5090565b5b80821115620001d6576000816000905550600101620001bc565b5090565b6000620001f1620001eb84620002fe565b620002d5565b90508281526020810184848401111562000210576200020f62000443565b5b6200021d8482856200033e565b509392505050565b600082601f8301126200023d576200023c6200043e565b5b81516200024f848260208601620001da565b91505092915050565b600081519050620002698162000463565b92915050565b600080604083850312156200028957620002886200044d565b5b600083015167ffffffffffffffff811115620002aa57620002a962000448565b5b620002b88582860162000225565b9250506020620002cb8582860162000258565b9150509250929050565b6000620002e1620002f4565b9050620002ef8282620003aa565b919050565b6000604051905090565b600067ffffffffffffffff8211156200031c576200031b6200040f565b5b620003278262000452565b9050602081019050919050565b6000819050919050565b60005b838110156200035e57808201518184015260208101905062000341565b838111156200036e576000848401525b50505050565b600060028204905060018216806200038d57607f821691505b60208210811415620003a457620003a3620003e0565b5b50919050565b620003b58262000452565b810181811067ffffffffffffffff82111715620003d757620003d66200040f565b5b80604052505050565b7f4e487b7100000000000000000000000000000000000000000000000000000000600052602260045260246000fd5b7f4e487b7100000000000000000000000000000000000000000000000000000000600052604160045260246000fd5b600080fd5b600080fd5b600080fd5b600080fd5b6000601f19601f8301169050919050565b6200046e8162000334565b81146200047a57600080fd5b50565b61071e806200048d6000396000f3fe60806040526004361061004a5760003560e01c80632b0706281461004f57806343129de11461008c578063450bc632146100a8578063659dd2b4146100b2578063ed8bde80146100ce575b600080fd5b34801561005b57600080fd5b5061007660048036038101906100719190610541565b6100e5565b60405161008391906105aa565b60405180910390f35b6100a660048036038101906100a1919061056e565b6100fd565b005b6100b0610292565b005b6100cc60048036038101906100c7919061056e565b61033b565b005b3480156100da57600080fd5b506100e3610452565b005b60056020528060005260406000206000915090505481565b60008054906101000a900460ff1661011457600080fd5b6000600560003373ffffffffffffffffffffffffffffffffffffffff1673ffffffffffffffffffffffffffffffffffffffff1681526020019081526020016000205414156101615761028f565b6101b381600560003373ffffffffffffffffffffffffffffffffffffffff1673ffffffffffffffffffffffffffffffffffffffff168152602001908152602001600020546104eb90919063ffffffff16565b50600560003373ffffffffffffffffffffffffffffffffffffffff1673ffffffffffffffffffffffffffffffffffffffff16815260200190815260200160002054600360010154101561028e5733600360000160006101000a81548173ffffffffffffffffffffffffffffffffffffffff021916908373ffffffffffffffffffffffffffffffffffffffff160217905550600560003373ffffffffffffffffffffffffffffffffffffffff1673ffffffffffffffffffffffffffffffffffffffff168152602001908152602001600020546003600101819055505b5b50565b600060019054906101000a900473ffffffffffffffffffffffffffffffffffffffff1673ffffffffffffffffffffffffffffffffffffffff163373ffffffffffffffffffffffffffffffffffffffff16146102ec57600080fd5b60008054906101000a900460ff161561031e5760008060006101000a81548160ff021916908315150217905550610339565b60016000806101000a81548160ff0219169083151502179055505b565b60008054906101000a900460ff1661035257600080fd5b80600254811161036157600080fd5b6000600560003373ffffffffffffffffffffffffffffffffffffffff1673ffffffffffffffffffffffffffffffffffffffff168152602001908152602001600020541461044d5781600560003373ffffffffffffffffffffffffffffffffffffffff1673ffffffffffffffffffffffffffffffffffffffff168152602001908152602001600020819055508160036001015410156104485733600360000160006101000a81548173ffffffffffffffffffffffffffffffffffffffff021916908373ffffffffffffffffffffffffffffffffffffffff160217905550816003600101819055505b61044e565b5b5050565b600060019054906101000a900473ffffffffffffffffffffffffffffffffffffffff1673ffffffffffffffffffffffffffffffffffffffff163373ffffffffffffffffffffffffffffffffffffffff16146104ac57600080fd5b60008060019054906101000a900473ffffffffffffffffffffffffffffffffffffffff1690508073ffffffffffffffffffffffffffffffffffffffff16ff5b60008082846104fa91906105c5565b90508381101561050d5761050c610657565b5b8091505092915050565b600081359050610526816106ba565b92915050565b60008135905061053b816106d1565b92915050565b600060208284031215610557576105566106b5565b5b600061056584828501610517565b91505092915050565b600060208284031215610584576105836106b5565b5b60006105928482850161052c565b91505092915050565b6105a48161064d565b82525050565b60006020820190506105bf600083018461059b565b92915050565b60006105d08261064d565b91506105db8361064d565b9250827fffffffffffffffffffffffffffffffffffffffffffffffffffffffffffffffff038211156106105761060f610686565b5b828201905092915050565b60006106268261062d565b9050919050565b600073ffffffffffffffffffffffffffffffffffffffff82169050919050565b6000819050919050565b7f4e487b7100000000000000000000000000000000000000000000000000000000600052600160045260246000fd5b7f4e487b7100000000000000000000000000000000000000000000000000000000600052601160045260246000fd5b600080fd5b6106c38161061b565b81146106ce57600080fd5b50565b6106da8161064d565b81146106e557600080fd5b5056fea26469706673582212201c633d6ef9c82f369d5520d37d157e43eae9f19bda9177bacc5ed5f06bf76dc664736f6c63430008070033",
					"opcodes": "PUSH1 0x80 PUSH1 0x40 MSTORE CALLVALUE DUP1 ISZERO PUSH3 0x11 JUMPI PUSH1 0x0 DUP1 REVERT JUMPDEST POP PUSH1 0x40 MLOAD PUSH3 0xBAB CODESIZE SUB DUP1 PUSH3 0xBAB DUP4 CODECOPY DUP2 DUP2 ADD PUSH1 0x40 MSTORE DUP2 ADD SWAP1 PUSH3 0x37 SWAP2 SWAP1 PUSH3 0x26F JUMP JUMPDEST CALLER PUSH1 0x0 PUSH1 0x1 PUSH2 0x100 EXP DUP2 SLOAD DUP2 PUSH20 0xFFFFFFFFFFFFFFFFFFFFFFFFFFFFFFFFFFFFFFFF MUL NOT AND SWAP1 DUP4 PUSH20 0xFFFFFFFFFFFFFFFFFFFFFFFFFFFFFFFFFFFFFFFF AND MUL OR SWAP1 SSTORE POP DUP2 PUSH1 0x1 SWAP1 DUP1 MLOAD SWAP1 PUSH1 0x20 ADD SWAP1 PUSH3 0x90 SWAP3 SWAP2 SWAP1 PUSH3 0x12A JUMP JUMPDEST POP DUP1 PUSH1 0x2 DUP2 SWAP1 SSTORE POP PUSH1 0x1 PUSH1 0x0 DUP1 PUSH2 0x100 EXP DUP2 SLOAD DUP2 PUSH1 0xFF MUL NOT AND SWAP1 DUP4 ISZERO ISZERO MUL OR SWAP1 SSTORE POP PUSH1 0x0 PUSH1 0x1 SWAP1 SLOAD SWAP1 PUSH2 0x100 EXP SWAP1 DIV PUSH20 0xFFFFFFFFFFFFFFFFFFFFFFFFFFFFFFFFFFFFFFFF AND PUSH1 0x3 PUSH1 0x0 ADD PUSH1 0x0 PUSH2 0x100 EXP DUP2 SLOAD DUP2 PUSH20 0xFFFFFFFFFFFFFFFFFFFFFFFFFFFFFFFFFFFFFFFF MUL NOT AND SWAP1 DUP4 PUSH20 0xFFFFFFFFFFFFFFFFFFFFFFFFFFFFFFFFFFFFFFFF AND MUL OR SWAP1 SSTORE POP DUP1 PUSH1 0x3 PUSH1 0x1 ADD DUP2 SWAP1 SSTORE POP POP POP PUSH3 0x47D JUMP JUMPDEST DUP3 DUP1 SLOAD PUSH3 0x138 SWAP1 PUSH3 0x374 JUMP JUMPDEST SWAP1 PUSH1 0x0 MSTORE PUSH1 0x20 PUSH1 0x0 KECCAK256 SWAP1 PUSH1 0x1F ADD PUSH1 0x20 SWAP1 DIV DUP2 ADD SWAP3 DUP3 PUSH3 0x15C JUMPI PUSH1 0x0 DUP6 SSTORE PUSH3 0x1A8 JUMP JUMPDEST DUP3 PUSH1 0x1F LT PUSH3 0x177 JUMPI DUP1 MLOAD PUSH1 0xFF NOT AND DUP4 DUP1 ADD OR DUP6 SSTORE PUSH3 0x1A8 JUMP JUMPDEST DUP3 DUP1 ADD PUSH1 0x1 ADD DUP6 SSTORE DUP3 ISZERO PUSH3 0x1A8 JUMPI SWAP2 DUP3 ADD JUMPDEST DUP3 DUP2 GT ISZERO PUSH3 0x1A7 JUMPI DUP3 MLOAD DUP3 SSTORE SWAP2 PUSH1 0x20 ADD SWAP2 SWAP1 PUSH1 0x1 ADD SWAP1 PUSH3 0x18A JUMP JUMPDEST JUMPDEST POP SWAP1 POP PUSH3 0x1B7 SWAP2 SWAP1 PUSH3 0x1BB JUMP JUMPDEST POP SWAP1 JUMP JUMPDEST JUMPDEST DUP1 DUP3 GT ISZERO PUSH3 0x1D6 JUMPI PUSH1 0x0 DUP2 PUSH1 0x0 SWAP1 SSTORE POP PUSH1 0x1 ADD PUSH3 0x1BC JUMP JUMPDEST POP SWAP1 JUMP JUMPDEST PUSH1 0x0 PUSH3 0x1F1 PUSH3 0x1EB DUP5 PUSH3 0x2FE JUMP JUMPDEST PUSH3 0x2D5 JUMP JUMPDEST SWAP1 POP DUP3 DUP2 MSTORE PUSH1 0x20 DUP2 ADD DUP5 DUP5 DUP5 ADD GT ISZERO PUSH3 0x210 JUMPI PUSH3 0x20F PUSH3 0x443 JUMP JUMPDEST JUMPDEST PUSH3 0x21D DUP5 DUP3 DUP6 PUSH3 0x33E JUMP JUMPDEST POP SWAP4 SWAP3 POP POP POP JUMP JUMPDEST PUSH1 0x0 DUP3 PUSH1 0x1F DUP4 ADD SLT PUSH3 0x23D JUMPI PUSH3 0x23C PUSH3 0x43E JUMP JUMPDEST JUMPDEST DUP2 MLOAD PUSH3 0x24F DUP5 DUP3 PUSH1 0x20 DUP7 ADD PUSH3 0x1DA JUMP JUMPDEST SWAP2 POP POP SWAP3 SWAP2 POP POP JUMP JUMPDEST PUSH1 0x0 DUP2 MLOAD SWAP1 POP PUSH3 0x269 DUP2 PUSH3 0x463 JUMP JUMPDEST SWAP3 SWAP2 POP POP JUMP JUMPDEST PUSH1 0x0 DUP1 PUSH1 0x40 DUP4 DUP6 SUB SLT ISZERO PUSH3 0x289 JUMPI PUSH3 0x288 PUSH3 0x44D JUMP JUMPDEST JUMPDEST PUSH1 0x0 DUP4 ADD MLOAD PUSH8 0xFFFFFFFFFFFFFFFF DUP2 GT ISZERO PUSH3 0x2AA JUMPI PUSH3 0x2A9 PUSH3 0x448 JUMP JUMPDEST JUMPDEST PUSH3 0x2B8 DUP6 DUP3 DUP7 ADD PUSH3 0x225 JUMP JUMPDEST SWAP3 POP POP PUSH1 0x20 PUSH3 0x2CB DUP6 DUP3 DUP7 ADD PUSH3 0x258 JUMP JUMPDEST SWAP2 POP POP SWAP3 POP SWAP3 SWAP1 POP JUMP JUMPDEST PUSH1 0x0 PUSH3 0x2E1 PUSH3 0x2F4 JUMP JUMPDEST SWAP1 POP PUSH3 0x2EF DUP3 DUP3 PUSH3 0x3AA JUMP JUMPDEST SWAP2 SWAP1 POP JUMP JUMPDEST PUSH1 0x0 PUSH1 0x40 MLOAD SWAP1 POP SWAP1 JUMP JUMPDEST PUSH1 0x0 PUSH8 0xFFFFFFFFFFFFFFFF DUP3 GT ISZERO PUSH3 0x31C JUMPI PUSH3 0x31B PUSH3 0x40F JUMP JUMPDEST JUMPDEST PUSH3 0x327 DUP3 PUSH3 0x452 JUMP JUMPDEST SWAP1 POP PUSH1 0x20 DUP2 ADD SWAP1 POP SWAP2 SWAP1 POP JUMP JUMPDEST PUSH1 0x0 DUP2 SWAP1 POP SWAP2 SWAP1 POP JUMP JUMPDEST PUSH1 0x0 JUMPDEST DUP4 DUP2 LT ISZERO PUSH3 0x35E JUMPI DUP1 DUP3 ADD MLOAD DUP2 DUP5 ADD MSTORE PUSH1 0x20 DUP2 ADD SWAP1 POP PUSH3 0x341 JUMP JUMPDEST DUP4 DUP2 GT ISZERO PUSH3 0x36E JUMPI PUSH1 0x0 DUP5 DUP5 ADD MSTORE JUMPDEST POP POP POP POP JUMP JUMPDEST PUSH1 0x0 PUSH1 0x2 DUP3 DIV SWAP1 POP PUSH1 0x1 DUP3 AND DUP1 PUSH3 0x38D JUMPI PUSH1 0x7F DUP3 AND SWAP2 POP JUMPDEST PUSH1 0x20 DUP3 LT DUP2 EQ ISZERO PUSH3 0x3A4 JUMPI PUSH3 0x3A3 PUSH3 0x3E0 JUMP JUMPDEST JUMPDEST POP SWAP2 SWAP1 POP JUMP JUMPDEST PUSH3 0x3B5 DUP3 PUSH3 0x452 JUMP JUMPDEST DUP2 ADD DUP2 DUP2 LT PUSH8 0xFFFFFFFFFFFFFFFF DUP3 GT OR ISZERO PUSH3 0x3D7 JUMPI PUSH3 0x3D6 PUSH3 0x40F JUMP JUMPDEST JUMPDEST DUP1 PUSH1 0x40 MSTORE POP POP POP JUMP JUMPDEST PUSH32 0x4E487B7100000000000000000000000000000000000000000000000000000000 PUSH1 0x0 MSTORE PUSH1 0x22 PUSH1 0x4 MSTORE PUSH1 0x24 PUSH1 0x0 REVERT JUMPDEST PUSH32 0x4E487B7100000000000000000000000000000000000000000000000000000000 PUSH1 0x0 MSTORE PUSH1 0x41 PUSH1 0x4 MSTORE PUSH1 0x24 PUSH1 0x0 REVERT JUMPDEST PUSH1 0x0 DUP1 REVERT JUMPDEST PUSH1 0x0 DUP1 REVERT JUMPDEST PUSH1 0x0 DUP1 REVERT JUMPDEST PUSH1 0x0 DUP1 REVERT JUMPDEST PUSH1 0x0 PUSH1 0x1F NOT PUSH1 0x1F DUP4 ADD AND SWAP1 POP SWAP2 SWAP1 POP JUMP JUMPDEST PUSH3 0x46E DUP2 PUSH3 0x334 JUMP JUMPDEST DUP2 EQ PUSH3 0x47A JUMPI PUSH1 0x0 DUP1 REVERT JUMPDEST POP JUMP JUMPDEST PUSH2 0x71E DUP1 PUSH3 0x48D PUSH1 0x0 CODECOPY PUSH1 0x0 RETURN INVALID PUSH1 0x80 PUSH1 0x40 MSTORE PUSH1 0x4 CALLDATASIZE LT PUSH2 0x4A JUMPI PUSH1 0x0 CALLDATALOAD PUSH1 0xE0 SHR DUP1 PUSH4 0x2B070628 EQ PUSH2 0x4F JUMPI DUP1 PUSH4 0x43129DE1 EQ PUSH2 0x8C JUMPI DUP1 PUSH4 0x450BC632 EQ PUSH2 0xA8 JUMPI DUP1 PUSH4 0x659DD2B4 EQ PUSH2 0xB2 JUMPI DUP1 PUSH4 0xED8BDE80 EQ PUSH2 0xCE JUMPI JUMPDEST PUSH1 0x0 DUP1 REVERT JUMPDEST CALLVALUE DUP1 ISZERO PUSH2 0x5B JUMPI PUSH1 0x0 DUP1 REVERT JUMPDEST POP PUSH2 0x76 PUSH1 0x4 DUP1 CALLDATASIZE SUB DUP2 ADD SWAP1 PUSH2 0x71 SWAP2 SWAP1 PUSH2 0x541 JUMP JUMPDEST PUSH2 0xE5 JUMP JUMPDEST PUSH1 0x40 MLOAD PUSH2 0x83 SWAP2 SWAP1 PUSH2 0x5AA JUMP JUMPDEST PUSH1 0x40 MLOAD DUP1 SWAP2 SUB SWAP1 RETURN JUMPDEST PUSH2 0xA6 PUSH1 0x4 DUP1 CALLDATASIZE SUB DUP2 ADD SWAP1 PUSH2 0xA1 SWAP2 SWAP1 PUSH2 0x56E JUMP JUMPDEST PUSH2 0xFD JUMP JUMPDEST STOP JUMPDEST PUSH2 0xB0 PUSH2 0x292 JUMP JUMPDEST STOP JUMPDEST PUSH2 0xCC PUSH1 0x4 DUP1 CALLDATASIZE SUB DUP2 ADD SWAP1 PUSH2 0xC7 SWAP2 SWAP1 PUSH2 0x56E JUMP JUMPDEST PUSH2 0x33B JUMP JUMPDEST STOP JUMPDEST CALLVALUE DUP1 ISZERO PUSH2 0xDA JUMPI PUSH1 0x0 DUP1 REVERT JUMPDEST POP PUSH2 0xE3 PUSH2 0x452 JUMP JUMPDEST STOP JUMPDEST PUSH1 0x5 PUSH1 0x20 MSTORE DUP1 PUSH1 0x0 MSTORE PUSH1 0x40 PUSH1 0x0 KECCAK256 PUSH1 0x0 SWAP2 POP SWAP1 POP SLOAD DUP2 JUMP JUMPDEST PUSH1 0x0 DUP1 SLOAD SWAP1 PUSH2 0x100 EXP SWAP1 DIV PUSH1 0xFF AND PUSH2 0x114 JUMPI PUSH1 0x0 DUP1 REVERT JUMPDEST PUSH1 0x0 PUSH1 0x5 PUSH1 0x0 CALLER PUSH20 0xFFFFFFFFFFFFFFFFFFFFFFFFFFFFFFFFFFFFFFFF AND PUSH20 0xFFFFFFFFFFFFFFFFFFFFFFFFFFFFFFFFFFFFFFFF AND DUP2 MSTORE PUSH1 0x20 ADD SWAP1 DUP2 MSTORE PUSH1 0x20 ADD PUSH1 0x0 KECCAK256 SLOAD EQ ISZERO PUSH2 0x161 JUMPI PUSH2 0x28F JUMP JUMPDEST PUSH2 0x1B3 DUP2 PUSH1 0x5 PUSH1 0x0 CALLER PUSH20 0xFFFFFFFFFFFFFFFFFFFFFFFFFFFFFFFFFFFFFFFF AND PUSH20 0xFFFFFFFFFFFFFFFFFFFFFFFFFFFFFFFFFFFFFFFF AND DUP2 MSTORE PUSH1 0x20 ADD SWAP1 DUP2 MSTORE PUSH1 0x20 ADD PUSH1 0x0 KECCAK256 SLOAD PUSH2 0x4EB SWAP1 SWAP2 SWAP1 PUSH4 0xFFFFFFFF AND JUMP JUMPDEST POP PUSH1 0x5 PUSH1 0x0 CALLER PUSH20 0xFFFFFFFFFFFFFFFFFFFFFFFFFFFFFFFFFFFFFFFF AND PUSH20 0xFFFFFFFFFFFFFFFFFFFFFFFFFFFFFFFFFFFFFFFF AND DUP2 MSTORE PUSH1 0x20 ADD SWAP1 DUP2 MSTORE PUSH1 0x20 ADD PUSH1 0x0 KECCAK256 SLOAD PUSH1 0x3 PUSH1 0x1 ADD SLOAD LT ISZERO PUSH2 0x28E JUMPI CALLER PUSH1 0x3 PUSH1 0x0 ADD PUSH1 0x0 PUSH2 0x100 EXP DUP2 SLOAD DUP2 PUSH20 0xFFFFFFFFFFFFFFFFFFFFFFFFFFFFFFFFFFFFFFFF MUL NOT AND SWAP1 DUP4 PUSH20 0xFFFFFFFFFFFFFFFFFFFFFFFFFFFFFFFFFFFFFFFF AND MUL OR SWAP1 SSTORE POP PUSH1 0x5 PUSH1 0x0 CALLER PUSH20 0xFFFFFFFFFFFFFFFFFFFFFFFFFFFFFFFFFFFFFFFF AND PUSH20 0xFFFFFFFFFFFFFFFFFFFFFFFFFFFFFFFFFFFFFFFF AND DUP2 MSTORE PUSH1 0x20 ADD SWAP1 DUP2 MSTORE PUSH1 0x20 ADD PUSH1 0x0 KECCAK256 SLOAD PUSH1 0x3 PUSH1 0x1 ADD DUP2 SWAP1 SSTORE POP JUMPDEST JUMPDEST POP JUMP JUMPDEST PUSH1 0x0 PUSH1 0x1 SWAP1 SLOAD SWAP1 PUSH2 0x100 EXP SWAP1 DIV PUSH20 0xFFFFFFFFFFFFFFFFFFFFFFFFFFFFFFFFFFFFFFFF AND PUSH20 0xFFFFFFFFFFFFFFFFFFFFFFFFFFFFFFFFFFFFFFFF AND CALLER PUSH20 0xFFFFFFFFFFFFFFFFFFFFFFFFFFFFFFFFFFFFFFFF AND EQ PUSH2 0x2EC JUMPI PUSH1 0x0 DUP1 REVERT JUMPDEST PUSH1 0x0 DUP1 SLOAD SWAP1 PUSH2 0x100 EXP SWAP1 DIV PUSH1 0xFF AND ISZERO PUSH2 0x31E JUMPI PUSH1 0x0 DUP1 PUSH1 0x0 PUSH2 0x100 EXP DUP2 SLOAD DUP2 PUSH1 0xFF MUL NOT AND SWAP1 DUP4 ISZERO ISZERO MUL OR SWAP1 SSTORE POP PUSH2 0x339 JUMP JUMPDEST PUSH1 0x1 PUSH1 0x0 DUP1 PUSH2 0x100 EXP DUP2 SLOAD DUP2 PUSH1 0xFF MUL NOT AND SWAP1 DUP4 ISZERO ISZERO MUL OR SWAP1 SSTORE POP JUMPDEST JUMP JUMPDEST PUSH1 0x0 DUP1 SLOAD SWAP1 PUSH2 0x100 EXP SWAP1 DIV PUSH1 0xFF AND PUSH2 0x352 JUMPI PUSH1 0x0 DUP1 REVERT JUMPDEST DUP1 PUSH1 0x2 SLOAD DUP2 GT PUSH2 0x361 JUMPI PUSH1 0x0 DUP1 REVERT JUMPDEST PUSH1 0x0 PUSH1 0x5 PUSH1 0x0 CALLER PUSH20 0xFFFFFFFFFFFFFFFFFFFFFFFFFFFFFFFFFFFFFFFF AND PUSH20 0xFFFFFFFFFFFFFFFFFFFFFFFFFFFFFFFFFFFFFFFF AND DUP2 MSTORE PUSH1 0x20 ADD SWAP1 DUP2 MSTORE PUSH1 0x20 ADD PUSH1 0x0 KECCAK256 SLOAD EQ PUSH2 0x44D JUMPI DUP2 PUSH1 0x5 PUSH1 0x0 CALLER PUSH20 0xFFFFFFFFFFFFFFFFFFFFFFFFFFFFFFFFFFFFFFFF AND PUSH20 0xFFFFFFFFFFFFFFFFFFFFFFFFFFFFFFFFFFFFFFFF AND DUP2 MSTORE PUSH1 0x20 ADD SWAP1 DUP2 MSTORE PUSH1 0x20 ADD PUSH1 0x0 KECCAK256 DUP2 SWAP1 SSTORE POP DUP2 PUSH1 0x3 PUSH1 0x1 ADD SLOAD LT ISZERO PUSH2 0x448 JUMPI CALLER PUSH1 0x3 PUSH1 0x0 ADD PUSH1 0x0 PUSH2 0x100 EXP DUP2 SLOAD DUP2 PUSH20 0xFFFFFFFFFFFFFFFFFFFFFFFFFFFFFFFFFFFFFFFF MUL NOT AND SWAP1 DUP4 PUSH20 0xFFFFFFFFFFFFFFFFFFFFFFFFFFFFFFFFFFFFFFFF AND MUL OR SWAP1 SSTORE POP DUP2 PUSH1 0x3 PUSH1 0x1 ADD DUP2 SWAP1 SSTORE POP JUMPDEST PUSH2 0x44E JUMP JUMPDEST JUMPDEST POP POP JUMP JUMPDEST PUSH1 0x0 PUSH1 0x1 SWAP1 SLOAD SWAP1 PUSH2 0x100 EXP SWAP1 DIV PUSH20 0xFFFFFFFFFFFFFFFFFFFFFFFFFFFFFFFFFFFFFFFF AND PUSH20 0xFFFFFFFFFFFFFFFFFFFFFFFFFFFFFFFFFFFFFFFF AND CALLER PUSH20 0xFFFFFFFFFFFFFFFFFFFFFFFFFFFFFFFFFFFFFFFF AND EQ PUSH2 0x4AC JUMPI PUSH1 0x0 DUP1 REVERT JUMPDEST PUSH1 0x0 DUP1 PUSH1 0x1 SWAP1 SLOAD SWAP1 PUSH2 0x100 EXP SWAP1 DIV PUSH20 0xFFFFFFFFFFFFFFFFFFFFFFFFFFFFFFFFFFFFFFFF AND SWAP1 POP DUP1 PUSH20 0xFFFFFFFFFFFFFFFFFFFFFFFFFFFFFFFFFFFFFFFF AND SELFDESTRUCT JUMPDEST PUSH1 0x0 DUP1 DUP3 DUP5 PUSH2 0x4FA SWAP2 SWAP1 PUSH2 0x5C5 JUMP JUMPDEST SWAP1 POP DUP4 DUP2 LT ISZERO PUSH2 0x50D JUMPI PUSH2 0x50C PUSH2 0x657 JUMP JUMPDEST JUMPDEST DUP1 SWAP2 POP POP SWAP3 SWAP2 POP POP JUMP JUMPDEST PUSH1 0x0 DUP2 CALLDATALOAD SWAP1 POP PUSH2 0x526 DUP2 PUSH2 0x6BA JUMP JUMPDEST SWAP3 SWAP2 POP POP JUMP JUMPDEST PUSH1 0x0 DUP2 CALLDATALOAD SWAP1 POP PUSH2 0x53B DUP2 PUSH2 0x6D1 JUMP JUMPDEST SWAP3 SWAP2 POP POP JUMP JUMPDEST PUSH1 0x0 PUSH1 0x20 DUP3 DUP5 SUB SLT ISZERO PUSH2 0x557 JUMPI PUSH2 0x556 PUSH2 0x6B5 JUMP JUMPDEST JUMPDEST PUSH1 0x0 PUSH2 0x565 DUP5 DUP3 DUP6 ADD PUSH2 0x517 JUMP JUMPDEST SWAP2 POP POP SWAP3 SWAP2 POP POP JUMP JUMPDEST PUSH1 0x0 PUSH1 0x20 DUP3 DUP5 SUB SLT ISZERO PUSH2 0x584 JUMPI PUSH2 0x583 PUSH2 0x6B5 JUMP JUMPDEST JUMPDEST PUSH1 0x0 PUSH2 0x592 DUP5 DUP3 DUP6 ADD PUSH2 0x52C JUMP JUMPDEST SWAP2 POP POP SWAP3 SWAP2 POP POP JUMP JUMPDEST PUSH2 0x5A4 DUP2 PUSH2 0x64D JUMP JUMPDEST DUP3 MSTORE POP POP JUMP JUMPDEST PUSH1 0x0 PUSH1 0x20 DUP3 ADD SWAP1 POP PUSH2 0x5BF PUSH1 0x0 DUP4 ADD DUP5 PUSH2 0x59B JUMP JUMPDEST SWAP3 SWAP2 POP POP JUMP JUMPDEST PUSH1 0x0 PUSH2 0x5D0 DUP3 PUSH2 0x64D JUMP JUMPDEST SWAP2 POP PUSH2 0x5DB DUP4 PUSH2 0x64D JUMP JUMPDEST SWAP3 POP DUP3 PUSH32 0xFFFFFFFFFFFFFFFFFFFFFFFFFFFFFFFFFFFFFFFFFFFFFFFFFFFFFFFFFFFFFFFF SUB DUP3 GT ISZERO PUSH2 0x610 JUMPI PUSH2 0x60F PUSH2 0x686 JUMP JUMPDEST JUMPDEST DUP3 DUP3 ADD SWAP1 POP SWAP3 SWAP2 POP POP JUMP JUMPDEST PUSH1 0x0 PUSH2 0x626 DUP3 PUSH2 0x62D JUMP JUMPDEST SWAP1 POP SWAP2 SWAP1 POP JUMP JUMPDEST PUSH1 0x0 PUSH20 0xFFFFFFFFFFFFFFFFFFFFFFFFFFFFFFFFFFFFFFFF DUP3 AND SWAP1 POP SWAP2 SWAP1 POP JUMP JUMPDEST PUSH1 0x0 DUP2 SWAP1 POP SWAP2 SWAP1 POP JUMP JUMPDEST PUSH32 0x4E487B7100000000000000000000000000000000000000000000000000000000 PUSH1 0x0 MSTORE PUSH1 0x1 PUSH1 0x4 MSTORE PUSH1 0x24 PUSH1 0x0 REVERT JUMPDEST PUSH32 0x4E487B7100000000000000000000000000000000000000000000000000000000 PUSH1 0x0 MSTORE PUSH1 0x11 PUSH1 0x4 MSTORE PUSH1 0x24 PUSH1 0x0 REVERT JUMPDEST PUSH1 0x0 DUP1 REVERT JUMPDEST PUSH2 0x6C3 DUP2 PUSH2 0x61B JUMP JUMPDEST DUP2 EQ PUSH2 0x6CE JUMPI PUSH1 0x0 DUP1 REVERT JUMPDEST POP JUMP JUMPDEST PUSH2 0x6DA DUP2 PUSH2 0x64D JUMP JUMPDEST DUP2 EQ PUSH2 0x6E5 JUMPI PUSH1 0x0 DUP1 REVERT JUMPDEST POP JUMP INVALID LOG2 PUSH5 0x6970667358 0x22 SLT KECCAK256 SHR PUSH4 0x3D6EF9C8 0x2F CALLDATASIZE SWAP14 SSTORE KECCAK256 0xD3 PUSH30 0x157E43EAE9F19BDA9177BACC5ED5F06BF76DC664736F6C63430008070033 "
				},
				"gasEstimates": {
					"creation": {
						"codeDepositCost": "364400",
						"executionCost": "infinite",
						"totalCost": "infinite"
					},
					"external": {
						"bidList(address)": "2792",
						"closeBid()": "32227",
						"controlBid()": "28793",
						"createBid(uint256)": "77654",
						"updateBid(uint256)": "infinite"
					}
				},
				"methodIdentifiers": {
					"bidList(address)": "2b070628",
					"closeBid()": "ed8bde80",
					"controlBid()": "450bc632",
					"createBid(uint256)": "659dd2b4",
					"updateBid(uint256)": "43129de1"
				}
			},
			"storageLayout": {
				"storage": [
					{
						"astId": 34,
						"contract": "Auction Project/Auction.sol:Auction",
						"label": "allowBid",
						"offset": 0,
						"slot": "0",
						"type": "t_bool"
					},
					{
						"astId": 36,
						"contract": "Auction Project/Auction.sol:Auction",
						"label": "owner",
						"offset": 1,
						"slot": "0",
						"type": "t_address"
					},
					{
						"astId": 38,
						"contract": "Auction Project/Auction.sol:Auction",
						"label": "nameOfItem",
						"offset": 0,
						"slot": "1",
						"type": "t_string_storage"
					},
					{
						"astId": 40,
						"contract": "Auction Project/Auction.sol:Auction",
						"label": "startingBid",
						"offset": 0,
						"slot": "2",
						"type": "t_uint256"
					},
					{
						"astId": 47,
						"contract": "Auction Project/Auction.sol:Auction",
						"label": "user",
						"offset": 0,
						"slot": "3",
						"type": "t_struct(Winner)6_storage"
					},
					{
						"astId": 51,
						"contract": "Auction Project/Auction.sol:Auction",
						"label": "bidList",
						"offset": 0,
						"slot": "5",
						"type": "t_mapping(t_address,t_uint256)"
					}
				],
				"types": {
					"t_address": {
						"encoding": "inplace",
						"label": "address",
						"numberOfBytes": "20"
					},
					"t_bool": {
						"encoding": "inplace",
						"label": "bool",
						"numberOfBytes": "1"
					},
					"t_mapping(t_address,t_uint256)": {
						"encoding": "mapping",
						"key": "t_address",
						"label": "mapping(address => uint256)",
						"numberOfBytes": "32",
						"value": "t_uint256"
					},
					"t_string_storage": {
						"encoding": "bytes",
						"label": "string",
						"numberOfBytes": "32"
					},
					"t_struct(Winner)6_storage": {
						"encoding": "inplace",
						"label": "struct Structure.Winner",
						"members": [
							{
								"astId": 3,
								"contract": "Auction Project/Auction.sol:Auction",
								"label": "id",
								"offset": 0,
								"slot": "0",
								"type": "t_address"
							},
							{
								"astId": 5,
								"contract": "Auction Project/Auction.sol:Auction",
								"label": "amount",
								"offset": 0,
								"slot": "1",
								"type": "t_uint256"
							}
						],
						"numberOfBytes": "64"
					},
					"t_uint256": {
						"encoding": "inplace",
						"label": "uint256",
						"numberOfBytes": "32"
					}
				}
			},
			"userdoc": {
				"kind": "user",
				"methods": {},
				"version": 1
			}
		}
	}
}