{
	"Tutorial1/DateTimeTest.sol": {
		"A": {
			"abi": [
				{
					"constant": true,
					"inputs": [],
					"name": "a1",
					"outputs": [
						{
							"name": "year",
							"type": "uint256"
						},
						{
							"name": "month",
							"type": "uint256"
						},
						{
							"name": "day",
							"type": "uint256"
						},
						{
							"name": "hour",
							"type": "uint256"
						},
						{
							"name": "min",
							"type": "uint256"
						},
						{
							"name": "sec",
							"type": "uint256"
						}
					],
					"payable": false,
					"stateMutability": "view",
					"type": "function"
				},
				{
					"constant": false,
					"inputs": [
						{
							"components": [
								{
									"name": "year",
									"type": "uint256"
								},
								{
									"name": "month",
									"type": "uint256"
								},
								{
									"name": "day",
									"type": "uint256"
								},
								{
									"name": "hour",
									"type": "uint256"
								},
								{
									"name": "min",
									"type": "uint256"
								},
								{
									"name": "sec",
									"type": "uint256"
								}
							],
							"name": "a",
							"type": "tuple"
						}
					],
					"name": "test3",
					"outputs": [],
					"payable": false,
					"stateMutability": "nonpayable",
					"type": "function"
				}
			],
			"devdoc": {
				"methods": {}
			},
			"evm": {
				"assembly": "    /* \"Tutorial1/DateTimeTest.sol\":361:1402  contract A {\r... */\n  mstore(0x40, 0x80)\n  callvalue\n    /* \"--CODEGEN--\":8:17   */\n  dup1\n    /* \"--CODEGEN--\":5:7   */\n  iszero\n  tag_1\n  jumpi\n    /* \"--CODEGEN--\":30:31   */\n  0x0\n    /* \"--CODEGEN--\":27:28   */\n  dup1\n    /* \"--CODEGEN--\":20:32   */\n  revert\n    /* \"--CODEGEN--\":5:7   */\ntag_1:\n    /* \"Tutorial1/DateTimeTest.sol\":361:1402  contract A {\r... */\n  pop\n  dataSize(sub_0)\n  dup1\n  dataOffset(sub_0)\n  0x0\n  codecopy\n  0x0\n  return\nstop\n\nsub_0: assembly {\n        /* \"Tutorial1/DateTimeTest.sol\":361:1402  contract A {\r... */\n      mstore(0x40, 0x80)\n      jumpi(tag_1, lt(calldatasize, 0x4))\n      calldataload(0x0)\n      0x100000000000000000000000000000000000000000000000000000000\n      swap1\n      div\n      0xffffffff\n      and\n      dup1\n      0x119552a1\n      eq\n      tag_2\n      jumpi\n      dup1\n      0xbc344acc\n      eq\n      tag_3\n      jumpi\n    tag_1:\n      0x0\n      dup1\n      revert\n        /* \"Tutorial1/DateTimeTest.sol\":1150:1168  DateTime public a1 */\n    tag_2:\n      callvalue\n        /* \"--CODEGEN--\":8:17   */\n      dup1\n        /* \"--CODEGEN--\":5:7   */\n      iszero\n      tag_4\n      jumpi\n        /* \"--CODEGEN--\":30:31   */\n      0x0\n        /* \"--CODEGEN--\":27:28   */\n      dup1\n        /* \"--CODEGEN--\":20:32   */\n      revert\n        /* \"--CODEGEN--\":5:7   */\n    tag_4:\n        /* \"Tutorial1/DateTimeTest.sol\":1150:1168  DateTime public a1 */\n      pop\n      tag_5\n      jump(tag_6)\n    tag_5:\n      mload(0x40)\n      tag_7\n      swap7\n      swap6\n      swap5\n      swap4\n      swap3\n      swap2\n      swap1\n      jump(tag_8)\n    tag_7:\n      mload(0x40)\n      dup1\n      swap2\n      sub\n      swap1\n      return\n        /* \"Tutorial1/DateTimeTest.sol\":1179:1237  function test3(DateTime a) public{\r... */\n    tag_3:\n      callvalue\n        /* \"--CODEGEN--\":8:17   */\n      dup1\n        /* \"--CODEGEN--\":5:7   */\n      iszero\n      tag_9\n      jumpi\n        /* \"--CODEGEN--\":30:31   */\n      0x0\n        /* \"--CODEGEN--\":27:28   */\n      dup1\n        /* \"--CODEGEN--\":20:32   */\n      revert\n        /* \"--CODEGEN--\":5:7   */\n    tag_9:\n        /* \"Tutorial1/DateTimeTest.sol\":1179:1237  function test3(DateTime a) public{\r... */\n      pop\n      tag_10\n      0x4\n      dup1\n      calldatasize\n      sub\n      tag_11\n      swap2\n      swap1\n      dup2\n      add\n      swap1\n      jump(tag_12)\n    tag_11:\n      jump(tag_13)\n    tag_10:\n      stop\n        /* \"Tutorial1/DateTimeTest.sol\":1150:1168  DateTime public a1 */\n    tag_6:\n      0x0\n      dup1\n      0x0\n      add\n      sload\n      swap1\n      dup1\n      0x1\n      add\n      sload\n      swap1\n      dup1\n      0x2\n      add\n      sload\n      swap1\n      dup1\n      0x3\n      add\n      sload\n      swap1\n      dup1\n      0x4\n      add\n      sload\n      swap1\n      dup1\n      0x5\n      add\n      sload\n      swap1\n      pop\n      dup7\n      jump\t// out\n        /* \"Tutorial1/DateTimeTest.sol\":1179:1237  function test3(DateTime a) public{\r... */\n    tag_13:\n        /* \"Tutorial1/DateTimeTest.sol\":1228:1229  a */\n      dup1\n        /* \"Tutorial1/DateTimeTest.sol\":1223:1225  a1 */\n      0x0\n        /* \"Tutorial1/DateTimeTest.sol\":1223:1229  a1 = a */\n      dup1\n      dup3\n      add\n      mload\n      dup2\n      0x0\n      add\n      sstore\n      0x20\n      dup3\n      add\n      mload\n      dup2\n      0x1\n      add\n      sstore\n      0x40\n      dup3\n      add\n      mload\n      dup2\n      0x2\n      add\n      sstore\n      0x60\n      dup3\n      add\n      mload\n      dup2\n      0x3\n      add\n      sstore\n      0x80\n      dup3\n      add\n      mload\n      dup2\n      0x4\n      add\n      sstore\n      0xa0\n      dup3\n      add\n      mload\n      dup2\n      0x5\n      add\n      sstore\n      swap1\n      pop\n      pop\n        /* \"Tutorial1/DateTimeTest.sol\":1179:1237  function test3(DateTime a) public{\r... */\n      pop\n      jump\t// out\n        /* \"--CODEGEN--\":29:1070   */\n    tag_16:\n      0x0\n        /* \"--CODEGEN--\":142:146   */\n      0xc0\n        /* \"--CODEGEN--\":130:139   */\n      dup3\n        /* \"--CODEGEN--\":125:128   */\n      dup5\n        /* \"--CODEGEN--\":121:140   */\n      sub\n        /* \"--CODEGEN--\":117:147   */\n      slt\n        /* \"--CODEGEN--\":114:116   */\n      iszero\n      tag_17\n      jumpi\n        /* \"--CODEGEN--\":160:161   */\n      0x0\n        /* \"--CODEGEN--\":157:158   */\n      dup1\n        /* \"--CODEGEN--\":150:162   */\n      revert\n        /* \"--CODEGEN--\":114:116   */\n    tag_17:\n        /* \"--CODEGEN--\":178:198   */\n      tag_18\n        /* \"--CODEGEN--\":193:197   */\n      0xc0\n        /* \"--CODEGEN--\":178:198   */\n      jump(tag_19)\n    tag_18:\n        /* \"--CODEGEN--\":169:198   */\n      swap1\n      pop\n        /* \"--CODEGEN--\":248:249   */\n      0x0\n        /* \"--CODEGEN--\":279:328   */\n      tag_20\n        /* \"--CODEGEN--\":324:327   */\n      dup5\n        /* \"--CODEGEN--\":315:321   */\n      dup3\n        /* \"--CODEGEN--\":304:313   */\n      dup6\n        /* \"--CODEGEN--\":300:322   */\n      add\n        /* \"--CODEGEN--\":279:328   */\n      jump(tag_21)\n    tag_20:\n        /* \"--CODEGEN--\":273:276   */\n      0x0\n        /* \"--CODEGEN--\":266:271   */\n      dup4\n        /* \"--CODEGEN--\":262:277   */\n      add\n        /* \"--CODEGEN--\":255:329   */\n      mstore\n        /* \"--CODEGEN--\":208:340   */\n      pop\n        /* \"--CODEGEN--\":391:393   */\n      0x20\n        /* \"--CODEGEN--\":424:473   */\n      tag_22\n        /* \"--CODEGEN--\":469:472   */\n      dup5\n        /* \"--CODEGEN--\":460:466   */\n      dup3\n        /* \"--CODEGEN--\":449:458   */\n      dup6\n        /* \"--CODEGEN--\":445:467   */\n      add\n        /* \"--CODEGEN--\":424:473   */\n      jump(tag_21)\n    tag_22:\n        /* \"--CODEGEN--\":417:421   */\n      0x20\n        /* \"--CODEGEN--\":410:415   */\n      dup4\n        /* \"--CODEGEN--\":406:422   */\n      add\n        /* \"--CODEGEN--\":399:474   */\n      mstore\n        /* \"--CODEGEN--\":350:485   */\n      pop\n        /* \"--CODEGEN--\":534:536   */\n      0x40\n        /* \"--CODEGEN--\":567:616   */\n      tag_23\n        /* \"--CODEGEN--\":612:615   */\n      dup5\n        /* \"--CODEGEN--\":603:609   */\n      dup3\n        /* \"--CODEGEN--\":592:601   */\n      dup6\n        /* \"--CODEGEN--\":588:610   */\n      add\n        /* \"--CODEGEN--\":567:616   */\n      jump(tag_21)\n    tag_23:\n        /* \"--CODEGEN--\":560:564   */\n      0x40\n        /* \"--CODEGEN--\":553:558   */\n      dup4\n        /* \"--CODEGEN--\":549:565   */\n      add\n        /* \"--CODEGEN--\":542:617   */\n      mstore\n        /* \"--CODEGEN--\":495:628   */\n      pop\n        /* \"--CODEGEN--\":678:680   */\n      0x60\n        /* \"--CODEGEN--\":711:760   */\n      tag_24\n        /* \"--CODEGEN--\":756:759   */\n      dup5\n        /* \"--CODEGEN--\":747:753   */\n      dup3\n        /* \"--CODEGEN--\":736:745   */\n      dup6\n        /* \"--CODEGEN--\":732:754   */\n      add\n        /* \"--CODEGEN--\":711:760   */\n      jump(tag_21)\n    tag_24:\n        /* \"--CODEGEN--\":704:708   */\n      0x60\n        /* \"--CODEGEN--\":697:702   */\n      dup4\n        /* \"--CODEGEN--\":693:709   */\n      add\n        /* \"--CODEGEN--\":686:761   */\n      mstore\n        /* \"--CODEGEN--\":638:772   */\n      pop\n        /* \"--CODEGEN--\":821:824   */\n      0x80\n        /* \"--CODEGEN--\":855:904   */\n      tag_25\n        /* \"--CODEGEN--\":900:903   */\n      dup5\n        /* \"--CODEGEN--\":891:897   */\n      dup3\n        /* \"--CODEGEN--\":880:889   */\n      dup6\n        /* \"--CODEGEN--\":876:898   */\n      add\n        /* \"--CODEGEN--\":855:904   */\n      jump(tag_21)\n    tag_25:\n        /* \"--CODEGEN--\":848:852   */\n      0x80\n        /* \"--CODEGEN--\":841:846   */\n      dup4\n        /* \"--CODEGEN--\":837:853   */\n      add\n        /* \"--CODEGEN--\":830:905   */\n      mstore\n        /* \"--CODEGEN--\":782:916   */\n      pop\n        /* \"--CODEGEN--\":965:968   */\n      0xa0\n        /* \"--CODEGEN--\":999:1048   */\n      tag_26\n        /* \"--CODEGEN--\":1044:1047   */\n      dup5\n        /* \"--CODEGEN--\":1035:1041   */\n      dup3\n        /* \"--CODEGEN--\":1024:1033   */\n      dup6\n        /* \"--CODEGEN--\":1020:1042   */\n      add\n        /* \"--CODEGEN--\":999:1048   */\n      jump(tag_21)\n    tag_26:\n        /* \"--CODEGEN--\":992:996   */\n      0xa0\n        /* \"--CODEGEN--\":985:990   */\n      dup4\n        /* \"--CODEGEN--\":981:997   */\n      add\n        /* \"--CODEGEN--\":974:1049   */\n      mstore\n        /* \"--CODEGEN--\":926:1060   */\n      pop\n        /* \"--CODEGEN--\":108:1070   */\n      swap3\n      swap2\n      pop\n      pop\n      jump\n        /* \"--CODEGEN--\":1077:1195   */\n    tag_21:\n      0x0\n        /* \"--CODEGEN--\":1144:1190   */\n      tag_28\n        /* \"--CODEGEN--\":1182:1188   */\n      dup3\n        /* \"--CODEGEN--\":1169:1189   */\n      calldataload\n        /* \"--CODEGEN--\":1144:1190   */\n      jump(tag_29)\n    tag_28:\n        /* \"--CODEGEN--\":1135:1190   */\n      swap1\n      pop\n        /* \"--CODEGEN--\":1129:1195   */\n      swap3\n      swap2\n      pop\n      pop\n      jump\n        /* \"--CODEGEN--\":1202:1492   */\n    tag_12:\n      0x0\n        /* \"--CODEGEN--\":1330:1333   */\n      0xc0\n        /* \"--CODEGEN--\":1318:1327   */\n      dup3\n        /* \"--CODEGEN--\":1309:1316   */\n      dup5\n        /* \"--CODEGEN--\":1305:1328   */\n      sub\n        /* \"--CODEGEN--\":1301:1334   */\n      slt\n        /* \"--CODEGEN--\":1298:1300   */\n      iszero\n      tag_31\n      jumpi\n        /* \"--CODEGEN--\":1347:1348   */\n      0x0\n        /* \"--CODEGEN--\":1344:1345   */\n      dup1\n        /* \"--CODEGEN--\":1337:1349   */\n      revert\n        /* \"--CODEGEN--\":1298:1300   */\n    tag_31:\n        /* \"--CODEGEN--\":1382:1383   */\n      0x0\n        /* \"--CODEGEN--\":1399:1476   */\n      tag_32\n        /* \"--CODEGEN--\":1468:1475   */\n      dup5\n        /* \"--CODEGEN--\":1459:1465   */\n      dup3\n        /* \"--CODEGEN--\":1448:1457   */\n      dup6\n        /* \"--CODEGEN--\":1444:1466   */\n      add\n        /* \"--CODEGEN--\":1399:1476   */\n      jump(tag_16)\n    tag_32:\n        /* \"--CODEGEN--\":1389:1476   */\n      swap2\n      pop\n        /* \"--CODEGEN--\":1361:1482   */\n      pop\n        /* \"--CODEGEN--\":1292:1492   */\n      swap3\n      swap2\n      pop\n      pop\n      jump\n        /* \"--CODEGEN--\":1499:1609   */\n    tag_34:\n        /* \"--CODEGEN--\":1572:1603   */\n      tag_35\n        /* \"--CODEGEN--\":1597:1602   */\n      dup2\n        /* \"--CODEGEN--\":1572:1603   */\n      jump(tag_36)\n    tag_35:\n        /* \"--CODEGEN--\":1567:1570   */\n      dup3\n        /* \"--CODEGEN--\":1560:1604   */\n      mstore\n        /* \"--CODEGEN--\":1554:1609   */\n      pop\n      pop\n      jump\n        /* \"--CODEGEN--\":1616:2317   */\n    tag_8:\n      0x0\n        /* \"--CODEGEN--\":1864:1867   */\n      0xc0\n        /* \"--CODEGEN--\":1853:1862   */\n      dup3\n        /* \"--CODEGEN--\":1849:1868   */\n      add\n        /* \"--CODEGEN--\":1841:1868   */\n      swap1\n      pop\n        /* \"--CODEGEN--\":1879:1940   */\n      tag_38\n        /* \"--CODEGEN--\":1937:1938   */\n      0x0\n        /* \"--CODEGEN--\":1926:1935   */\n      dup4\n        /* \"--CODEGEN--\":1922:1939   */\n      add\n        /* \"--CODEGEN--\":1913:1919   */\n      dup10\n        /* \"--CODEGEN--\":1879:1940   */\n      jump(tag_34)\n    tag_38:\n        /* \"--CODEGEN--\":1951:2013   */\n      tag_39\n        /* \"--CODEGEN--\":2009:2011   */\n      0x20\n        /* \"--CODEGEN--\":1998:2007   */\n      dup4\n        /* \"--CODEGEN--\":1994:2012   */\n      add\n        /* \"--CODEGEN--\":1985:1991   */\n      dup9\n        /* \"--CODEGEN--\":1951:2013   */\n      jump(tag_34)\n    tag_39:\n        /* \"--CODEGEN--\":2024:2086   */\n      tag_40\n        /* \"--CODEGEN--\":2082:2084   */\n      0x40\n        /* \"--CODEGEN--\":2071:2080   */\n      dup4\n        /* \"--CODEGEN--\":2067:2085   */\n      add\n        /* \"--CODEGEN--\":2058:2064   */\n      dup8\n        /* \"--CODEGEN--\":2024:2086   */\n      jump(tag_34)\n    tag_40:\n        /* \"--CODEGEN--\":2097:2159   */\n      tag_41\n        /* \"--CODEGEN--\":2155:2157   */\n      0x60\n        /* \"--CODEGEN--\":2144:2153   */\n      dup4\n        /* \"--CODEGEN--\":2140:2158   */\n      add\n        /* \"--CODEGEN--\":2131:2137   */\n      dup7\n        /* \"--CODEGEN--\":2097:2159   */\n      jump(tag_34)\n    tag_41:\n        /* \"--CODEGEN--\":2170:2233   */\n      tag_42\n        /* \"--CODEGEN--\":2228:2231   */\n      0x80\n        /* \"--CODEGEN--\":2217:2226   */\n      dup4\n        /* \"--CODEGEN--\":2213:2232   */\n      add\n        /* \"--CODEGEN--\":2204:2210   */\n      dup6\n        /* \"--CODEGEN--\":2170:2233   */\n      jump(tag_34)\n    tag_42:\n        /* \"--CODEGEN--\":2244:2307   */\n      tag_43\n        /* \"--CODEGEN--\":2302:2305   */\n      0xa0\n        /* \"--CODEGEN--\":2291:2300   */\n      dup4\n        /* \"--CODEGEN--\":2287:2306   */\n      add\n        /* \"--CODEGEN--\":2278:2284   */\n      dup5\n        /* \"--CODEGEN--\":2244:2307   */\n      jump(tag_34)\n    tag_43:\n        /* \"--CODEGEN--\":1835:2317   */\n      swap8\n      swap7\n      pop\n      pop\n      pop\n      pop\n      pop\n      pop\n      pop\n      jump\n        /* \"--CODEGEN--\":2324:2580   */\n    tag_19:\n      0x0\n        /* \"--CODEGEN--\":2386:2388   */\n      0x40\n        /* \"--CODEGEN--\":2380:2389   */\n      mload\n        /* \"--CODEGEN--\":2370:2389   */\n      swap1\n      pop\n        /* \"--CODEGEN--\":2424:2428   */\n      dup2\n        /* \"--CODEGEN--\":2416:2422   */\n      dup2\n        /* \"--CODEGEN--\":2412:2429   */\n      add\n        /* \"--CODEGEN--\":2523:2529   */\n      dup2\n        /* \"--CODEGEN--\":2511:2521   */\n      dup2\n        /* \"--CODEGEN--\":2508:2530   */\n      lt\n        /* \"--CODEGEN--\":2487:2505   */\n      0xffffffffffffffff\n        /* \"--CODEGEN--\":2475:2485   */\n      dup3\n        /* \"--CODEGEN--\":2472:2506   */\n      gt\n        /* \"--CODEGEN--\":2469:2531   */\n      or\n        /* \"--CODEGEN--\":2466:2468   */\n      iszero\n      tag_45\n      jumpi\n        /* \"--CODEGEN--\":2544:2545   */\n      0x0\n        /* \"--CODEGEN--\":2541:2542   */\n      dup1\n        /* \"--CODEGEN--\":2534:2546   */\n      revert\n        /* \"--CODEGEN--\":2466:2468   */\n    tag_45:\n        /* \"--CODEGEN--\":2564:2574   */\n      dup1\n        /* \"--CODEGEN--\":2560:2562   */\n      0x40\n        /* \"--CODEGEN--\":2553:2575   */\n      mstore\n        /* \"--CODEGEN--\":2364:2580   */\n      pop\n      swap2\n      swap1\n      pop\n      jump\n        /* \"--CODEGEN--\":2587:2666   */\n    tag_36:\n      0x0\n        /* \"--CODEGEN--\":2656:2661   */\n      dup2\n        /* \"--CODEGEN--\":2645:2661   */\n      swap1\n      pop\n        /* \"--CODEGEN--\":2639:2666   */\n      swap2\n      swap1\n      pop\n      jump\n        /* \"--CODEGEN--\":2673:2752   */\n    tag_29:\n      0x0\n        /* \"--CODEGEN--\":2742:2747   */\n      dup2\n        /* \"--CODEGEN--\":2731:2747   */\n      swap1\n      pop\n        /* \"--CODEGEN--\":2725:2752   */\n      swap2\n      swap1\n      pop\n      jump\n\n    auxdata: 0xa265627a7a7230582016591edd6bd242e9b26a956f0708120aeb709ee412e3dc17a73e5112f1c7e19e6c6578706572696d656e74616cf50037\n}\n",
				"bytecode": {
					"linkReferences": {},
					"object": "608060405234801561001057600080fd5b506102dc806100206000396000f30060806040526004361061004c576000357c0100000000000000000000000000000000000000000000000000000000900463ffffffff168063119552a114610051578063bc344acc14610081575b600080fd5b34801561005d57600080fd5b506100666100aa565b60405161007896959493929190610200565b60405180910390f35b34801561008d57600080fd5b506100a860048036036100a391908101906101c8565b6100d4565b005b60008060000154908060010154908060020154908060030154908060040154908060050154905086565b8060008082015181600001556020820151816001015560408201518160020155606082015181600301556080820151816004015560a0820151816005015590505050565b600060c0828403121561012a57600080fd5b61013460c0610261565b90506000610144848285016101b4565b6000830152506020610158848285016101b4565b602083015250604061016c848285016101b4565b6040830152506060610180848285016101b4565b6060830152506080610194848285016101b4565b60808301525060a06101a8848285016101b4565b60a08301525092915050565b60006101c08235610298565b905092915050565b600060c082840312156101da57600080fd5b60006101e884828501610118565b91505092915050565b6101fa8161028e565b82525050565b600060c08201905061021560008301896101f1565b61022260208301886101f1565b61022f60408301876101f1565b61023c60608301866101f1565b61024960808301856101f1565b61025660a08301846101f1565b979650505050505050565b6000604051905081810181811067ffffffffffffffff8211171561028457600080fd5b8060405250919050565b6000819050919050565b60008190509190505600a265627a7a7230582016591edd6bd242e9b26a956f0708120aeb709ee412e3dc17a73e5112f1c7e19e6c6578706572696d656e74616cf50037",
					"opcodes": "PUSH1 0x80 PUSH1 0x40 MSTORE CALLVALUE DUP1 ISZERO PUSH2 0x10 JUMPI PUSH1 0x0 DUP1 REVERT JUMPDEST POP PUSH2 0x2DC DUP1 PUSH2 0x20 PUSH1 0x0 CODECOPY PUSH1 0x0 RETURN STOP PUSH1 0x80 PUSH1 0x40 MSTORE PUSH1 0x4 CALLDATASIZE LT PUSH2 0x4C JUMPI PUSH1 0x0 CALLDATALOAD PUSH29 0x100000000000000000000000000000000000000000000000000000000 SWAP1 DIV PUSH4 0xFFFFFFFF AND DUP1 PUSH4 0x119552A1 EQ PUSH2 0x51 JUMPI DUP1 PUSH4 0xBC344ACC EQ PUSH2 0x81 JUMPI JUMPDEST PUSH1 0x0 DUP1 REVERT JUMPDEST CALLVALUE DUP1 ISZERO PUSH2 0x5D JUMPI PUSH1 0x0 DUP1 REVERT JUMPDEST POP PUSH2 0x66 PUSH2 0xAA JUMP JUMPDEST PUSH1 0x40 MLOAD PUSH2 0x78 SWAP7 SWAP6 SWAP5 SWAP4 SWAP3 SWAP2 SWAP1 PUSH2 0x200 JUMP JUMPDEST PUSH1 0x40 MLOAD DUP1 SWAP2 SUB SWAP1 RETURN JUMPDEST CALLVALUE DUP1 ISZERO PUSH2 0x8D JUMPI PUSH1 0x0 DUP1 REVERT JUMPDEST POP PUSH2 0xA8 PUSH1 0x4 DUP1 CALLDATASIZE SUB PUSH2 0xA3 SWAP2 SWAP1 DUP2 ADD SWAP1 PUSH2 0x1C8 JUMP JUMPDEST PUSH2 0xD4 JUMP JUMPDEST STOP JUMPDEST PUSH1 0x0 DUP1 PUSH1 0x0 ADD SLOAD SWAP1 DUP1 PUSH1 0x1 ADD SLOAD SWAP1 DUP1 PUSH1 0x2 ADD SLOAD SWAP1 DUP1 PUSH1 0x3 ADD SLOAD SWAP1 DUP1 PUSH1 0x4 ADD SLOAD SWAP1 DUP1 PUSH1 0x5 ADD SLOAD SWAP1 POP DUP7 JUMP JUMPDEST DUP1 PUSH1 0x0 DUP1 DUP3 ADD MLOAD DUP2 PUSH1 0x0 ADD SSTORE PUSH1 0x20 DUP3 ADD MLOAD DUP2 PUSH1 0x1 ADD SSTORE PUSH1 0x40 DUP3 ADD MLOAD DUP2 PUSH1 0x2 ADD SSTORE PUSH1 0x60 DUP3 ADD MLOAD DUP2 PUSH1 0x3 ADD SSTORE PUSH1 0x80 DUP3 ADD MLOAD DUP2 PUSH1 0x4 ADD SSTORE PUSH1 0xA0 DUP3 ADD MLOAD DUP2 PUSH1 0x5 ADD SSTORE SWAP1 POP POP POP JUMP JUMPDEST PUSH1 0x0 PUSH1 0xC0 DUP3 DUP5 SUB SLT ISZERO PUSH2 0x12A JUMPI PUSH1 0x0 DUP1 REVERT JUMPDEST PUSH2 0x134 PUSH1 0xC0 PUSH2 0x261 JUMP JUMPDEST SWAP1 POP PUSH1 0x0 PUSH2 0x144 DUP5 DUP3 DUP6 ADD PUSH2 0x1B4 JUMP JUMPDEST PUSH1 0x0 DUP4 ADD MSTORE POP PUSH1 0x20 PUSH2 0x158 DUP5 DUP3 DUP6 ADD PUSH2 0x1B4 JUMP JUMPDEST PUSH1 0x20 DUP4 ADD MSTORE POP PUSH1 0x40 PUSH2 0x16C DUP5 DUP3 DUP6 ADD PUSH2 0x1B4 JUMP JUMPDEST PUSH1 0x40 DUP4 ADD MSTORE POP PUSH1 0x60 PUSH2 0x180 DUP5 DUP3 DUP6 ADD PUSH2 0x1B4 JUMP JUMPDEST PUSH1 0x60 DUP4 ADD MSTORE POP PUSH1 0x80 PUSH2 0x194 DUP5 DUP3 DUP6 ADD PUSH2 0x1B4 JUMP JUMPDEST PUSH1 0x80 DUP4 ADD MSTORE POP PUSH1 0xA0 PUSH2 0x1A8 DUP5 DUP3 DUP6 ADD PUSH2 0x1B4 JUMP JUMPDEST PUSH1 0xA0 DUP4 ADD MSTORE POP SWAP3 SWAP2 POP POP JUMP JUMPDEST PUSH1 0x0 PUSH2 0x1C0 DUP3 CALLDATALOAD PUSH2 0x298 JUMP JUMPDEST SWAP1 POP SWAP3 SWAP2 POP POP JUMP JUMPDEST PUSH1 0x0 PUSH1 0xC0 DUP3 DUP5 SUB SLT ISZERO PUSH2 0x1DA JUMPI PUSH1 0x0 DUP1 REVERT JUMPDEST PUSH1 0x0 PUSH2 0x1E8 DUP5 DUP3 DUP6 ADD PUSH2 0x118 JUMP JUMPDEST SWAP2 POP POP SWAP3 SWAP2 POP POP JUMP JUMPDEST PUSH2 0x1FA DUP2 PUSH2 0x28E JUMP JUMPDEST DUP3 MSTORE POP POP JUMP JUMPDEST PUSH1 0x0 PUSH1 0xC0 DUP3 ADD SWAP1 POP PUSH2 0x215 PUSH1 0x0 DUP4 ADD DUP10 PUSH2 0x1F1 JUMP JUMPDEST PUSH2 0x222 PUSH1 0x20 DUP4 ADD DUP9 PUSH2 0x1F1 JUMP JUMPDEST PUSH2 0x22F PUSH1 0x40 DUP4 ADD DUP8 PUSH2 0x1F1 JUMP JUMPDEST PUSH2 0x23C PUSH1 0x60 DUP4 ADD DUP7 PUSH2 0x1F1 JUMP JUMPDEST PUSH2 0x249 PUSH1 0x80 DUP4 ADD DUP6 PUSH2 0x1F1 JUMP JUMPDEST PUSH2 0x256 PUSH1 0xA0 DUP4 ADD DUP5 PUSH2 0x1F1 JUMP JUMPDEST SWAP8 SWAP7 POP POP POP POP POP POP POP JUMP JUMPDEST PUSH1 0x0 PUSH1 0x40 MLOAD SWAP1 POP DUP2 DUP2 ADD DUP2 DUP2 LT PUSH8 0xFFFFFFFFFFFFFFFF DUP3 GT OR ISZERO PUSH2 0x284 JUMPI PUSH1 0x0 DUP1 REVERT JUMPDEST DUP1 PUSH1 0x40 MSTORE POP SWAP2 SWAP1 POP JUMP JUMPDEST PUSH1 0x0 DUP2 SWAP1 POP SWAP2 SWAP1 POP JUMP JUMPDEST PUSH1 0x0 DUP2 SWAP1 POP SWAP2 SWAP1 POP JUMP STOP LOG2 PUSH6 0x627A7A723058 KECCAK256 AND MSIZE 0x1e 0xdd PUSH12 0xD242E9B26A956F0708120AEB PUSH17 0x9EE412E3DC17A73E5112F1C7E19E6C6578 PUSH17 0x6572696D656E74616CF500370000000000 "
				},
				"gasEstimates": {
					"creation": {
						"codeDepositCost": "146400",
						"executionCost": "190",
						"totalCost": "146590"
					},
					"external": {
						"a1()": "infinite",
						"test3((uint256,uint256,uint256,uint256,uint256,uint256))": "infinite"
					}
				},
				"methodIdentifiers": {
					"a1()": "119552a1",
					"test3((uint256,uint256,uint256,uint256,uint256,uint256))": "bc344acc"
				}
			},
			"userdoc": {
				"methods": {}
			}
		}
	}
}